:020000040800F2
:10000000C845002001010008231C0008491700080A
:10001000211C0008E3010008BB23000800000000C9
:10002000000000000000000000000000A521000802
:10003000E501000800000000EB1F0008A7210008F0
:100040001B0100081B0100081B0100081B01000820
:100050001B0100081B0100081B0100081B01000810
:100060001B0100081B0100081B0100081B01000800
:100070001B0100081B0100081B0100081B010008F0
:100080001B0100081B0100081B0100081B010008E0
:100090001B0100081B0100081B0100081B010008D0
:1000A0001B0100080D2200081B0100081B010008AD
:1000B0001922000825220008312200081B0100082F
:1000C0001B0100081B0100081B0100081B010008A0
:1000D0001B0100081B0100081B0100081B01000890
:1000E0001B0100081B0100081B010008DFF80CD0F1
:1000F00000F03AF80048004799250008C84500205C
:100100000648804706480047FEE7FEE7FEE7FEE7B1
:10011000FEE7FEE7FEE7FEE7FEE7FEE7092200084E
:10012000ED000008202A04DB203A21FA02F0002129
:10013000704721FA02F3D040C2F1200291400843F7
:1001400019467047D2B201E000F8012B491EFBD2DC
:1001500070470022F6E710B513460A4604461946D2
:10016000FFF7F0FF204610BD064C074D06E0E068A3
:1001700040F0010394E8070098471034AC42F6D3EE
:10018000FFF7B8FFFC9700081C98000870B58C18A2
:1001900010F8015B15F0070301D110F8013B2A119B
:1001A00006D110F8012B03E010F8016B01F8016B88
:1001B0005B1EF9D12B0705D40023521E0DD401F884
:1001C000013BFAE710F8013BCB1A921C03E013F84D
:1001D000015B01F8015B521EF9D5A142D8D3002082
:1001E00070BDFEE7704772B6FEE70000064A0021C8
:1001F000D16106490A6942F002020A614861086950
:1002000040F0400008617047A841002000200240F3
:10021000044B0022DA61044A136943F001031361BD
:1002200001807047A84100200020024014480022AD
:10023000C168CB06134904D5CA6942F00202CA61FB
:100240001022C3685B0705D5CB6943F00103CB617E
:1002500042F00402C369DB0707D0CB6943F0040313
:10026000CB61C16921F00101C161A2F58071013941
:1002700001D0C2607047C16921F00101C1617047BE
:1002800000200240A841002070B5054600F090F91A
:100290000646114C09E0681C07D025B100F088F92A
:1002A000801BA84201D9032070BDE068C007F2D1CD
:1002B000E068800601D52020E060E068C00605D433
:1002C000E069C00702D1E068400703D5FFF7AEFF41
:1002D000012070BD002070BD0020024070B50446B2
:1002E00000F066F90546601C02D00448007804441A
:1002F00000F05EF9401BA042FAD370BD183C00200C
:100300000348016941F0800101610020704700004D
:10031000002002402DE9F05F07461C488846002473
:10032000017E15461E46012909D00121814601762C
:100330004CF2503A5046FFF7A7FF18B122E00220D6
:10034000BDE8F09F012F02D0022F00D00427D34632
:10035000DFF83CA0220128463146FFF7E3FE81B2D8
:1003600008EB4400FFF754FF5846FFF78DFFDAF81B
:10037000102022F00102CAF8102018B9641CE4B25F
:10038000BC42E7D3002289F81820D9E7A841002011
:1003900000200240064900200A69120607D5054AD6
:1003A0004A60054A4A600969090600D5012070477C
:1003B0000020024023016745AB89EFCD2DE9F84FBE
:1003C000DFF8B891002409F1040A0AF1040B23466E
:1003D0000F270BF1040EC9E00125A5402A40AA42CF
:1003E0007DD1674ED1F804C0ACEB0608B44532D0DD
:1003F00014DCBCF1030F3AD009DCBCF1000F2AD0A9
:10040000BCF1010F1CD0BCF1020F31D11DE0BCF1D9
:10041000110F17D0BCF1120F2AD119E0B8F5881FBF
:1004200019D006DCB8F5803F15D0B8F5801F1FD174
:1004300011E0B8F5001F0ED0B8F5041F18D10AE07E
:10044000CB6815E0CB681B1D12E0CB6808330FE0CA
:10045000CB680C330CE08B682BB1012B4FF00803F9
:1004600003D0456104E0042302E0056100E00023BD
:10047000FF2A01D8064601E000F104064FEA840590
:1004800001D9A5F12005D6F8008007FA05FC28EA75
:100490000C0803FA05F548EA0508C6F800804D681F
:1004A000ED0062D5374DAE6946F00106AE61AD692B
:1004B00024F0030605F001050095334D06EB050C0D
:1004C000DCF80850A607360F07FA06F825EA0805F3
:1004D000DFF8B880404503D14FF0000817E044E052
:1004E000DFF8AC80404502D14FF001080FE0DFF8A3
:1004F000A480404502D14FF0020808E0DFF8988060
:10050000404502D14FF0030801E04FF0040808FA1B
:1005100006F848EA0508CCF808804D68D9F800606C
:10052000ED034D4601D5164300E096432E604D681D
:10053000DAF80060AD03554601D5164300E0964356
:100540002E604D68DBF80060ED025D4601D5164374
:1005500000E096432E604D68DEF80060AD027546FF
:1005600001D5164300E096432E60641C0D682A46B0
:10057000E5407FF431AFBDE8F88F00000004014092
:10058000000011100010024000000140000801406E
:10059000000C014000100140001401408068084038
:1005A00000D0012070470AB1016170470904FBE7E0
:1005B0000148806870470000183C002070B50400B6
:1005C00025D094F83D00002520B984F83C50204601
:1005D00000F050F9242084F83D002068016821F0E3
:1005E000010101602068016841F400410160206858
:1005F000016821F40041016000F09CFA4D4A6168F5
:10060000914201D84C4900E04C49884201D2012076
:1006100070BD4B492368B0FBF1F15E6826F03F06E0
:100620000E435E606368934206D94FF49673594354
:100630004FF47A73B1FBF3F12368491C1E6A26F06C
:100640003F06314319626168914210D84900401E4B
:10065000B0FBF1F2521CC2F30B02042A01D20420B7
:1006600022E0B0FBF1F0401CC0F30B001CE0A268DC
:10067000F2B301EBC10303EB0116431EB3FBF6F328
:100680005B1C43F480431B0549D092B301EBC102CC
:1006900002EB0111401EB0FBF1F0401CC0F30B0057
:1006A00040F4804040F400402168CA694CF6FF7372
:1006B0009A431043C861D4E90710014320680268D7
:1006C00022F0C00211430160D4E903010143206814
:1006D000826848F2FF339A4311438160D4E90501EF
:1006E00008432168CA6822F0FF021043C86001E095
:1006F0000EE016E02068016841F001010160256408
:10070000202084F83D00256384F83E50002070BD11
:1007100001EB4106431EB3FBF6F35B1CB3E701207C
:10072000C2E701EB4101401EB0FBF1F0401CC0F3F9
:100730000B00B7E7A086010080841E0000093D0081
:1007400040420F002DE9FF4F83B09A46DDE9119733
:1007500093460446DDF84080FFF72AFF054694F8EB
:100760003D0020287FD119230122404920460095D1
:1007700001F07CF8002876D194F83C00012872D072
:10078000012084F83C0020680168C90703D1016892
:1007900041F0010101602068016821F400610160FD
:1007A000212084F83D00402084F83E000026266485
:1007B000C4F82480A4F82A90608D20852C48E0623B
:1007C000CDE9007553465A462046049900F0D4FFFF
:1007D00070B930E02A463946204601F0C6F858B1D3
:1007E000206C042804D12068016841F40071016084
:1007F000012007B0BDE8F08F606A216800780861C9
:10080000606A401C6062218D491E89B22185628D1B
:10081000521E628522685369DB435B070BD469B1C2
:1008200000781061606A401C6062208D401E208547
:10083000608D401E6085208D0028CBD12A46394628
:10084000204600F0EDFF0028CAD154F83D0B0168A6
:1008500041F400710160202004F81E09E6776677F4
:100860000020C6E7FFE70220C3E7000002001000F7
:100870000000FFFF10B586B00021009101910291A8
:10088000039100680F4988421AD10F4CA06940F0CB
:100890000800A061A069694600F008000490C0202B
:1008A000009012200190032003900848FFF786FD76
:1008B000E06940F40010E061E06900F40010049089
:1008C00006B010BD0054004000100240000C014072
:1008D000024881680278114481607047183C00200A
:1008E000074810B5016841F010010160032000F0D5
:1008F00079F8002000F006F800F024F8002010BD80
:100900000020024070B50D4D04464FF47A712878EE
:10091000B1FBF0F00A490968B1FBF0F000F0E0FA31
:1009200048B9102C07D200222146501E00F03AF898
:1009300000206C6070BD012070BD0000183C0020DC
:10094000243C00200E4808B5816941F00101816115
:10095000816901F001010091C16941F08051C161DB
:10096000C06900F080500090052000F03BF8054879
:10097000416821F0E06141F08071416008BD0000F4
:100980000010024000000140002809DB00F01F02B7
:10099000012191404009800000F1E020C0F80011E1
:1009A00070470000F0B40E4B1B680C46C3F30223E3
:1009B000C3F10705042D00D90425191D072901D20B
:1009C000002300E0DB1E012606FA05F1491E214046
:1009D00099409E40761E16403143F0BC01F012BD96
:1009E0000CED00E0064900F0070208684FF6FF032F
:1009F000184040EA0220034A104308607047000094
:100A00000CED00E00000FA052DE9F0470F46050067
:100A100061D0434E306800F00700B84209D2306818
:100A200020F0070038433060306800F00700B8421B
:100A300051D128683B4C810712D5400703D5606827
:100A400040F4E06060602878000703D5606840F4F7
:100A5000605060606068A96820F0F0000843606042
:100A60002878C00728D06868012810D0216802289B
:100A700010D0890700292EDA616821F003010143B3
:100A80006160FFF795FD804641F288390DE02168ED
:100A90008903EFE78901EDE7FFF78AFDA0EB080185
:100AA000494502D90320BDE8F0876068696800F015
:100AB0000C00B0EB810FEFD1306800F00700B842B6
:100AC0000BD9306820F0070038433060306800F000
:100AD0000700B84201D00120E5E72878400705D596
:100AE0006068E96820F4E0600843606028780007E7
:100AF00006D56068296920F4605040EAC100606052
:100B000000F028F86168084AC1F30311515CC8403D
:100B10000649086006480068FFF7F4FE0020C2E7B7
:100B20000020024000100240E4970008243C00200E
:100B30001C3C00200448054900684968044AC1F388
:100B40000221515CC8407047243C00200010024044
:100B5000F497000812A185B00FC98DE80F0014A00A
:100B6000144A006804905168134801F00C03042BE8
:100B700010D0082B0ED1C1F38343C9031DF8030025
:100B80000AD5516804AAC1F34041515C0A4A504356
:100B9000B0FBF1F005B0704708494843FAE70000A0
:100BA00002030405060708090A0B0C0D0E0F1010AE
:100BB000010200000010024000127A0000093D000E
:100BC0002DE9F84F040070D02078C04DC00749D0FF
:100BD0006868C0F38100012807D06868C0F381000D
:100BE000022809D16868C00306D52868800339D572
:100BF00060680028E7D035E06068B0F5803F0BD032
:100C000010B1B0F5A02F11D0286820F480302860F2
:100C1000286820F4802002E0286840F480302860B2
:100C2000606890B1FFF7C4FC06460AE0286840F40B
:100C300080202860F0E700BFFFF7BAFC801B642823
:100C400073D828688003F7D50CE0FFF7B1FC06469F
:100C500005E000BFFFF7ACFC801B6428F0D82868D3
:100C60008003F7D420789A4E80074FF001094FF0A7
:100C7000000839D5686810F00C0F07D06868C0F319
:100C80008100022809D16868C00306D4286880075B
:100C900014D52069012808D110E02069B0B1C6F848
:100CA0000090FFF785FC074605E00AE1FFF780FCAE
:100CB000C01B0228C4D828688007F7D52868616956
:100CC00020F0F80040EAC10028600DE0C6F800807E
:100CD000FFF76EFC074604E0FFF76AFCC01B022822
:100CE00023D828688007F7D4207800072CD57948C6
:100CF000A169D9B1C0F80090FFF75AFC074604E09B
:100D0000FFF756FCC01B02280FD8686A8007F7D58A
:100D100071484FF4FA510068B0FBF1F0009000BF49
:100D20000098411E0091FAD20EE080E0C0F80080E9
:100D3000FFF73EFC074604E0FFF73AFCC01B022821
:100D400075D8686A8007F7D42078400760D5E869CD
:100D50000027C00008D4E86940F08050E861E869E5
:100D6000012700F0805000905C480168C90513D449
:100D70000168834641F480710160FFF719FC8246E7
:100D800006E000BFFFF714FCA0EB0A0064284ED871
:100D9000DBF80000C005F5D5E06801280AD008B1ED
:100DA000052813D0286A20F001002862286A20F064
:100DB000040002E0286A40F001002862E06841F285
:100DC000883B98B1FFF7F4FB82460BE0286A40F0BD
:100DD00004002862EEE700BFFFF7EAFBA0EB0A0180
:100DE00059455AD8286A8007F6D50CE0FFF7E0FB92
:100DF000824605E0FFF7DCFBA0EB0A0159454CD821
:100E0000286A8007F6D41FB1E86920F08050E861B5
:100E1000E06988B36968C1F38101022944D00228DE
:100E2000C6F8608004D0FFF7C3FB044638E034E026
:100E3000FFF7BEFB074604E0FFF7BAFBC01B022822
:100E40002BD828688001F7D4206AB0F5803F05D1FF
:100E50006868A16820F4003008436860D4E908019C
:100E60000843696821F4741108436860C6F860900B
:100E7000FFF79EFB044606E025E000BFFFF798FB66
:100E8000001B022809D828688001F7D51BE000BFA5
:100E9000FFF78EFB001B022802D90320BDE8F88F64
:100EA00028688001F4D40EE00128F7D06868226A2F
:100EB00000F48031914204D1616A00F470108842DC
:100EC00001D00120EAE70020E8E70000001002401E
:100ED0000000424280044242243C00200070004056
:100EE00010B5401EB0F1807F01D3012010BD4FF03E
:100EF000E02460610F21601701F084FA0020A061F6
:100F000007202061002010BD7047704770B590F831
:100F10003C20012A26D0012480F83C40022280F89F
:100F20003D2003685A689D6822F070060A683243C3
:100F30005A600D4B02689A4208D0B2F1804F05D03A
:100F40000A4B9A4202D00A4B9A4204D1496825F0D2
:100F500080031943916080F83D40002180F83C10E7
:100F6000084670BD022070BD002C01400004004006
:100F70000008004010B5040003D094F83D0010B103
:100F800007E0012010BD002084F83C00204600F05E
:100F90001FF8022084F83D00211D206801F04EF961
:100FA000012084F8460084F83E0084F83F0084F86D
:100FB000400084F8410084F8420084F8430084F83B
:100FC000440084F8450084F83D00002010BD000076
:100FD00008B51E4A01681E4891420ED1816941F44C
:100FE000006181618069012200F400600090114677
:100FF0001920FFF7D7FC192022E0164A91420ED1A2
:10100000C16941F00201C161C069002200F0020023
:10101000009001211D20FFF7C5FC1D2010E00E4AA5
:10102000914211D1C16941F00401C161C06900223E
:1010300000F00400009011461E20FFF7B3FC1E20B4
:10104000BDE80840FFF7A0BC08BD0000002C01402F
:1010500000100240000400400008004090F83D10DD
:10106000012901D001207047022180F83D1001685C
:10107000CA6842F00102CA6000680B49884208D081
:10108000B0F1804F05D00949884202D00849884212
:1010900004D1816801F00701062903D0016841F0FD
:1010A0000101016000207047002C01400004004055
:1010B000000800400168CA6822F00102CA600168A5
:1010C0000A6A41F211131A4207D10A6A9B101A42A6
:1010D00003D10A6822F001020A60012180F83D1064
:1010E0000020704770B5044690F83C00012817D0E6
:1010F000012584F83C50022084F83D002068826875
:1011000022F0770222F47F4282600868502830D0B3
:101110000DDC20284DD005DC98B310283BD148E0E9
:10112000022070BD302844D0402834D139E06028F6
:1011300028D0702806D0B0F5805F2CD0B0F5005FC5
:1011400029D10AE0CB68D1E90121206801F0B9F882
:101150002068816841F0770109E0CB68D1E901217D
:10116000206801F0AEF82068816841F48041816018
:1011700011E0CA684968206801F0B5F8502120687C
:1011800007E016E0CA684968206801F0E9F86021C4
:10119000206801F0A0F884F83D50002084F83C005D
:1011A00070BDCA684968206801F09DF84021206838
:1011B000EFE7226801461046EBE7000070B50068D3
:1011C000B0F1804F18D1184C0026184D2078012816
:1011D00013D0022810D1002105F1540000F09EFA2E
:1011E0006860002105F1540000F078F96680D5E9C7
:1011F0000010401AA060267070BD0C486680002167
:10120000543000F08BFA28600848543001680A6AAC
:1012100022F00A020A620068016A41F002010162DA
:101220002078401C207070BD0C3C00207C400020C9
:101230002DE9F041054690F83C000C46012836D0D7
:10124000012085F83C008AB3042A42D02868082A85
:1012500051D0D4E90023E168066A26F4805606627C
:10126000C669076A26F4407646EA03234FF6FF76FE
:1012700006EA013123F4704319434FF4005627F472
:10128000005306EA02321A43C16102622868C1694A
:1012900021F44061C1612868C169A26841EA022164
:1012A000C161002085F83C00BDE8F08101E002202A
:1012B000FAE7D4E90012E368286801F025F8286805
:1012C000816921F00C01816128688169A26811435C
:1012D0000FE0D4E90012E368286801F053F82868A9
:1012E000816921F44061816128688169A26841EACD
:1012F00002218161D5E7D4E90027267B016A21F428
:1013000080710162C169036A21F00301394321F050
:10131000F00731074FF4007647EA116123F40073B8
:1013200006EA02221A43C16102622868C16921F0FB
:101330000C01C1612868C169A2681143B0E710B50A
:10134000040003D094F83D0010B107E0012010BD67
:10135000002084F83C00204600F01EF8022084F8AB
:101360003D00211D206800F069FF012084F846003F
:1013700084F83E0084F83F0084F8400084F841007F
:1013800084F8420084F8430084F8440084F845005F
:1013900084F83D00002010BD00B585B0002100910B
:1013A0000191029103910068B0F1804F20D1114862
:1013B000C16941F00101C161C16901F001010491FC
:1013C000816941F0040181618069694600F004008F
:1013D000049001200090022002900748FEF7EEFFE3
:1013E000002211461C20FFF7DDFA1C20FFF7CCFA83
:1013F00005B000BD001002400008014010B50446D1
:1014000051B104290DD0082910D094F8410094F866
:101410004520012811D10EE094F83E0094F84220B6
:10142000F7E794F83F0094F84320F2E794F840007F
:1014300094F84420EDE7012A01D0012010BD0220DC
:1014400051B1042911D0082918D084F8410084F83A
:1014500045000C291BD136E084F83E0084F8420098
:101460002068C26842F0020210E084F83F0084F86D
:1014700043002068C26842F0040207E084F840009C
:1014800084F844002068C26842F00802C260012269
:10149000206800F009FF0E492068884208D0B0F1AA
:1014A000804F05D00B49884202D00B49884204D1B5
:1014B000816801F00701062903D0016841F00101AC
:1014C0000160002010BD2068C26842F01002DDE714
:1014D000002C0140000400400008004030B50446E4
:1014E00000680D0006D0042D08D0082D28D00C2D42
:1014F00008D129E0C16821F0020102E0C16821F0B1
:101500000401C16000222946206800F0CDFE206859
:10151000016A41F21112114207D1016A921011427F
:1015200003D1016821F001010160012085B1042D82
:1015300011D0082D12D004F8410F2071002030BDC9
:10154000C16821F00801DCE7C16821F01001D8E78B
:1015500004F83E0FF1E704F83F0FEEE704F8400F00
:10156000EBE770B50446006801694FF00005C94318
:10157000890715D4C168C943890711D4E91E0161DF
:1015800001202077206880698007204602D0FFF77D
:1015900015FE04E000F098F8204600F096F8257754
:1015A00020680169C943490717D4C168C94349077D
:1015B00013D46FF004010161022020772068806954
:1015C00010F4407F204602D0FFF7F8FD04E000F061
:1015D0007BF8204600F079F8257720680169C94337
:1015E000090716D4C168C943090712D46FF008016E
:1015F0000161042020772068C0698007204602D05E
:10160000FFF7DCFD04E000F05FF8204600F05DF835
:10161000257720680169C943C90617D4C168C94341
:10162000C90613D46FF010010161082020772068EB
:10163000C06910F4407F204602D0FFF7BFFD04E0F0
:1016400000F042F8204600F040F825772068016954
:10165000C943C90708D1C168C943C90704D1891E54
:101660000161204600F032F820680169C94309068B
:1016700009D4C168C943090605D46FF0800101612E
:101680002046FFF741FC20680169C943490609D497
:10169000C168C943490605D46FF040010161204685
:1016A00000F051F820680169C94389060BD4C1686C
:1016B000C943890607D46FF0200101612046BDE8C7
:1016C0007040FFF722BC70BD7047704710B50446EC
:1016D00000680C49884203D10B4A1188491C1180CB
:1016E0000A49884205D10A494888401C488000F0D0
:1016F000F7FF08492068884203D107490888401C41
:10170000088010BD002C0140103C00200004004067
:10171000063C0020000800400E3C0020024600204D
:1017200041B1042909D008290AD00C2901D1106837
:10173000006C70471068406B70471068806B704792
:101740001068C06B70477047FEE701684A69D24372
:1017500052050FD46FF480624A61002140F8301FB7
:10176000202242738173026942F004020261017314
:1017700001207047002070472DE9F84304460068B7
:101780000D46DDE9089701689846164641F48071D8
:1017900001604B4600224FF001112046009700F0F7
:1017A00065F848B120680068C00502D54FF40070A4
:1017B00020640320BDE8F883216805F0FE0008617D
:1017C0003B464A461549204600F084F888B920680F
:1017D0004169806900903A464946204600F0C5F8C4
:1017E00048B1206C042804D12068016841F40071DC
:1017F00001600120DEE7F5B2B8F1010F09D02168E0
:10180000300A08613A464946204600F0AEF8002802
:10181000E7D1206805610020CCE70000020001004C
:1018200070B516460D4604460DE02046FFF78DFFC5
:1018300008B1012070BD681C05D0FEF7B9FE801B01
:10184000A84207D835B120684069C0434007ECD4AE
:10185000002070BD002044F8300F20216173A07378
:10186000216941F0200121612073E2E72DE9F04771
:101870001E4690460D460446C1F30747DDF820900A
:1018800008E0701C06D0FEF793FEA0EB0900B04202
:101890000FD876B12068012F18D0806925EA0000A2
:1018A0000004000C14D000214145EAD00020BDE81E
:1018B000F087002044F8300F20216173A073216964
:1018C00041F02001216120730120F0E74069E5E744
:1018D0000121E9E72DE9F0479A4691460E46044674
:1018E00000254FF02008C1F3074725E02068406934
:1018F000C043400514D42068016841F400710160C0
:1019000021686FF480604861256384F83D8084F825
:101910003E50206C40F00400206484F83C501FE0EE
:10192000B9F1FF3F08D0FEF743FEA0EB0A0149459D
:101930000CD8B9F1000F09D02068012F13D08069AD
:1019400026EA00000004000C0BD0CFE744F8305F1B
:1019500084F80D80A573206940F020002061257374
:101960000120BDE8F0874069EAE770B516460D46EC
:1019700004460DE02046FFF7E8FE08B1012070BDE7
:10198000681C05D0FEF714FE801BA84207D835B1AD
:1019900020684069C0430006ECD4002070BD0020E0
:1019A00044F8300F20216173A073216941F02001B8
:1019B00021612073E2E7000030B585B000241C48A7
:1019C0000094019402940394816941F020018161A3
:1019D000816901F020010491816941F00401816174
:1019E000816901F004010491816941F0080181617C
:1019F0008069104D00F00800049000224021284624
:101A0000FEF7D1FD402000900120CDE90104022025
:101A1000039069462846FEF7D1FC8020CDE90004FA
:101A2000694628460294FEF7C9FC05B030BD0000A7
:101A300000100240000801400D4810B50B4901603C
:101A40000C49416000214FF480428160C0E90312DB
:101A500041618161C1610162FEF7B0FD002803D0E0
:101A6000BDE81040FEF7BFBB10BD000000540040B1
:101A700028400020801A060010B586B000241848BF
:101A80000094019402940394049414490594016011
:101A90004721C0E9011442F20F71C0E9031480210B
:101AA000C0E90541FFF766FA08B1FEF79CFB4FF469
:101AB0008050009069460A48FFF714FB08B1FEF712
:101AC00092FB049404A906480594FFF71FFA002826
:101AD00001D0FEF788FB06B010BD0000002C0140CD
:101AE0008840002010B586B000241848059404945E
:101AF0000094019402944FF08041039401604721C7
:101B0000C0E901144FF6FF71C0E90314802181611F
:101B1000FFF715FC08B1FEF766FB049404A90B4817
:101B20000594FFF7F3F908B1FEF75DFB0120CDE95D
:101B3000004002940022694604480394FFF778FBB2
:101B4000002801D0FEF74FFB06B010BDD0400020AA
:101B500010B586B0002417480094019402940394B1
:101B600004941349059401604721C0E9011440F22F
:101B7000E731C0E9031480218161FFF7FBF908B167
:101B8000FEF731FB4FF48050009069460948FFF79B
:101B9000A9FA08B1FEF727FB049404A905480594A7
:101BA000FFF7B4F9002801D0FEF71DFB06B010BD09
:101BB000000400401841002010B586B000241748EA
:101BC00000940194029403940494134905940160D1
:101BD0004721C0E9011442F20F71C0E903148021CA
:101BE0008161FFF7C7F908B1FEF7FDFA4FF48050A5
:101BF000009069460948FFF775FA08B1FEF7F3FA55
:101C0000049404A905480594FFF780F9002801D041
:101C1000FEF7E9FA06B010BD000800406041002060
:101C2000FEE7FEE7002000F01FB82DE9F0479846D8
:101C30001746824600260C46DDF8209010E021462B
:101C4000504600F087F8554606E019F80600761C65
:101C500000F0C6FB6D1CEDB2BD42F6D3641CE4B2CD
:101C60004445ECD3BDE8F08770B506465FF000044C
:101C700004F1B000C0B200F0A1FB002000F09EFB18
:101C8000102000F09BFB0025304600F0A9FB6D1CE6
:101C9000EDB2802DF8D3641CE4B2082CE8D370BDFB
:101CA00010B56420FEF71AFBAE2000F087FB202061
:101CB00000F084FB102000F081FBB02000F07EFBE0
:101CC000C82000F07BFB002000F078FB102000F023
:101CD00075FB402000F072FB812000F06FFBFF20BD
:101CE00000F06CFBA12000F069FBA62000F066FB71
:101CF000A82000F063FB3F2000F060FBA42000F070
:101D00005DFBD32000F05AFB002000F057FBD520EC
:101D100000F054FBF02000F051FBD92000F04EFB06
:101D2000222000F04BFBDA2000F048FB122000F0EC
:101D300045FBDB2000F042FB202000F03FFB8D2024
:101D400000F03CFB142000F039FBBDE81040AF2050
:101D500000F034BB10B50446B031C8B200F02EFB21
:101D6000102040EA141000F029FB04F00F00BDE839
:101D7000104040F0010000F021BB00002DE9F041CF
:101D80000F46804600255401FFF7E4FF0C4E305DFE
:101D900000F026FB6D1CEDB2641C102DF7D37F1CE8
:101DA000F9B24046FFF7D6FF0025305D00F018FB82
:101DB0006D1CEDB2641C102DF7D3BDE8F08100005E
:101DC000000000202DE9F041203A00250C46804615
:101DD000D6B27F2803D900208C1C8046E4B2102B99
:101DE00039D0062B21467DD0FFF7B4FF604906EBC2
:101DF000C60001EB8006705D00F0F2FA6D1CEDB2DA
:101E0000082DF8D3601CC1B24046FFF7A3FF082598
:101E1000705D00F0E5FA6D1CEDB20C2DF8D3A01C3E
:101E2000C1B24046FFF796FF0C25705D00F0D8FA6E
:101E30006D1CEDB2142DF8D3E41CE1B24046FFF75F
:101E400089FF1824305D00F0CBFA641CE4B2242C26
:101E5000F8D3BDE8F0812146FFF77CFF454F00BF76
:101E600005EB0620385C00F0BBFA6D1CEDB2202DAE
:101E7000F6D3601CC1B24046FFF76CFF5FF000056F
:101E800005EB0620384490F8200000F0A9FA6D1CFC
:101E9000EDB2202DF4D3A01CC1B24046FFF75AFF8B
:101EA0005FF0000505EB0620384490F8400000F094
:101EB00097FA6D1CEDB2202DF4D3E01CC1B2404660
:101EC000FFF748FF5FF0000505EB0620384490F867
:101ED000600000F085FA6D1CEDB2202DF4D3201DBA
:101EE000C1B200E034E04046FFF734FF5FF0000588
:101EF00005EB0620384490F8800000F071FA6D1C64
:101F0000EDB2202DF4D3601DC1B24046FFF722FF91
:101F10005FF0000505EB0620384490F8A00000F0C3
:101F20005FFA6D1CEDB2202DF4D3A41DE1B2404642
:101F3000FFF710FF5FF0000404EB0620384490F830
:101F4000C00000F04DFA641CE4B2202CF4D380E70A
:101F5000FFF700FF084906EB460001EB4004605D17
:101F600000F03EFA6D1CEDB2062DF8D371E70000CB
:101F7000888A0008882B0008602900082DE9F05F96
:101F80000027DDF828901D4692468B4680463C4649
:101F90004FEA590625E0281B401EC1B20A2000F076
:101FA00097FBBAFBF0F00A21B0FBF1F201FB120043
:101FB00027B9691E8C4201DA48B101273030C2B21C
:101FC00006FB04F008EB8000C0B24B4604E006FBC1
:101FD0000480C0B24B4620225946FFF7F3FE641C32
:101FE000E4B2AC42D7D3BDE8F09F704770B5802112
:101FF0001F48FEF7D3FA1F4C1F490126607009786D
:1020000000250129217802D019B1D8B101E001B130
:1020100018B1012800D1267070BD1420FEF75EF9BA
:10202000267120780028F7D060780028F4D1FFF7D7
:10203000F9FDA078401C40B2A07025700528EBDDAA
:10204000A57070BD1420FEF749F92671207800288C
:10205000F7D060780028F4D1E078401C40B2E070FE
:1020600025706328EDDDFFF7DDFDE57070BD000034
:1020700000080140013C0020073C002010B500236F
:1020800006E000BF30F8024B21F813405B1C9BB206
:102090009342F7D310BD00002DE9F05FA0F100647A
:1020A00015468A468346B4F5803F5FD2FEF772F943
:1020B000A70AC4F34806C6F50074A54200D82C460A
:1020C000DFF8AC904FF0006000EB872080464FF4C3
:1020D00000722749FFF7D2FF00204FF6FF7106E09C
:1020E000331839F813208A4203D1401C80B2A04231
:1020F000F6D3A0422ED24046FEF778F84CF250308C
:10210000FEF7C2F81B48016921F0020101610020BD
:10211000494606E03AF810208319401C21F81320A4
:1021200080B2A042F6D3124940464FF4007200BF7D
:1021300000F022F8A54215D0281B0AEB440A0BEB4D
:10214000440B002685B24FF400747F1CA542B9D819
:102150002C46B7E74CF25030FEF796F8224651462F
:102160005846E5E7BDE8F05FFEF7CAB8BDE8F09F66
:10217000283C0020002002402DE9F04116460F4681
:10218000054600240AE000BF37F814200023294642
:102190000120FEF7BFF8641CA4B2AD1CB442F3D317
:1021A000BDE8F0817047FEF793BB30B58FB02821B2
:1021B0006846FDF7CEFF14210AA8FDF7CAFF0121EA
:1021C0000804CDE900100024029402250491CDE911
:1021D00007504FF4E01009906846FEF7F1FC08B193
:1021E00072B6FEE70F20CDE90A054FF48060CDE915
:1021F0000C4002210AA80E94FEF706FC002801D02C
:1022000072B6FEE70FB030BD704700000148FFF71F
:10221000A8B90000884000200148FFF7A2B90000DB
:10222000D04000200148FFF79CB900001841002071
:102230000148FFF796B9000060410020F0B5026840
:10224000164B174C174D4FF08047984205D0B842B7
:1022500003D0A04201D0A84203D122F070064A6800
:102260003243984205D0B84203D0A04201D0A842E0
:1022700003D122F44074CA6822434C6922F08002E0
:10228000224302608A68C2620A688262984201D16F
:102290000969016301214161F0BD0000002C01408A
:1022A000000400400008004010B501F01F030121A8
:1022B000046A99408C430462016A9A4011430162A6
:1022C00010BD10B5846842EA032224F47F440A4317
:1022D0002243826010BD826822F070020A4342F0FD
:1022E00007018160704710B5036A046A24F0010495
:1022F0000462846924F0F00444EA021423F00A0220
:102300000A438461026210BD70B5046A24F00104BE
:1023100004628469056A0F4EB04208D0B0F1804F64
:1023200005D00D4EB04202D00C4EB04203D124F085
:102330000304144301E044F001041A0724F0F004FC
:1023400044EA126225F00A0301F00A01194382618E
:10235000016270BD002C01400004004000080040F4
:1023600010B5036A23F0100303628369046A23F43F
:10237000704343EA023224F0A00343EA0111826170
:10238000016210BD30B5046A24F01004046284694F
:10239000056A24F4407444EA022222F470444FF6A1
:1023A000FF7202EA03322243A02425F0A00304EACC
:1023B000011119438261016230BDFEE701B584B0AD
:1023C0000121642204A88DE807000B460022782131
:1023D0000248FEF7B7F905B000BD00002840002014
:1023E00001B584B00121642204A88DE807000B46E2
:1023F000402278210248FEF7A5F905B000BD000093
:10240000284000200907090E002804DB00F1E02025
:1024100080F80014704700F00F0000F1E02080F811
:10242000141D704702E008C8121F08C1002AFAD123
:1024300070477047002001E001C1121F002AFBD144
:10244000704700002DE9F8433F4C40F2DC56002570
:102450002088B04200D925803C484FF4FA774FF4E9
:102460007A7890F90200062816D2DFE800F00320FF
:10247000303C4C5C3648FEF7F1FD2088B84201D272
:10248000344802E0404509D23348009008237F22B7
:1024900001210020FFF7C9FBBDE8F883B04201D25B
:1024A0002E48F2E72A48FEF705FE2580F4E7284883
:1024B000FEF7D4FD2088B84201D22948E5E740451F
:1024C00001D22848E1E7B042ECD22748DDE72048B6
:1024D000FEF7C4FD2088B84201D22448D5E7404524
:1024E000E0D22348D1E71A48FEF7B8FD2088B84269
:1024F00001D22048C9E7404501D21F48C5E7B04294
:10250000D0D21E48C1E71248FEF7A8FD2088B84285
:1025100001D21B48B9E7404501D21A48B5E7B0429D
:10252000C0D21948B1E70A48FEF798FD2088B842A2
:1025300001D21648A9E7404501D21548A5E7B042A7
:10254000B0D21448A1E70000083C0020013C002064
:102550001841002080000020000400208007002097
:10256000000B0020800E00200012002080150020AB
:1025700000190020801C0020002000208023002063
:1025800000270020802A0020002E0020803100201B
:10259000003500208038002086B0FEF7A1F9FFF753
:1025A00004FEFFF709FAFFF747FAFFF7D1FAFFF742
:1025B00099FAFFF701FBFFF75FFAFFF771FBFFF7EF
:1025C00031FB304F142269463846FFF757FD2E4E37
:1025D0009DF800003546002450B1002240212B48D0
:1025E000FDF7E1FF34702820FDF778FE6C7002E003
:1025F000012030706870052223493846FFF74CFDF2
:10260000234F4FF49679234EDFF88CA0DFF88C80AF
:10261000FFF7ECFC13E0002203211E20FFF7AEFBC6
:10262000012203213220FFF7A9FB022203214620C9
:10263000FFF7A4FB032211465A20FFF79FFB3878CF
:102640000128E8D03088484505D38AF8004014486E
:10265000FEF730FD3480687858B100F059F8FFF784
:10266000F1FE00BF98F800100129D1D188F8004090
:10267000CEE70C48FEF7F2FC00F0F0F800F014F89A
:10268000F0E7000000E80008063C002000080140D8
:102690000D3C0020103C0020033C0020053C0020A5
:1026A0008840002018410020084808B590F9032010
:1026B00010200A2A009003DA012300212F2002E0D3
:1026C000022300211E20FFF759FC08BD013C002019
:1026D0000246012000E05043491EC9B2FBD27047B8
:1026E0000948017800290ED10121017007480168CD
:1026F0000A6A22F00A020A620068016A0162002185
:102700000248FEF77BBE70470C3C0020D040002002
:102710002DE9F04701214C48FDF740FF4B4E0024C6
:102720004B4D4FF0010801280CD1307850B9494881
:10273000FEF794FC68880A2805D94648FEF7BAFCDB
:1027400086F800806C80A9680422434F2D2934D07C
:1027500011DC4FF002001F292DD006DC0A2922D0FF
:10276000192923D01E294CD125E00320232922D06A
:10277000242946D11FE04FF005094FF482705529F6
:1027800023D006DC2E291BD037291BD03C2938D179
:1027900004E05F2926D0642933D135E02D48D838AC
:1027A000FEF75CFC2DE03C7034702AE087F8008076
:1027B0003470AC8025E03870FAE73A703470AC8041
:1027C0003A70F5E787F80090F2E73178012918D1DF
:1027D000FDF784FD3878401C40B2387005280EDDC6
:1027E0003C700CE0317801290BD1FDF777FD38788A
:1027F000401E40B23870002801DA87F8009034702B
:10280000AC60AC60BDE8F087FDF768FDFFF70AFA41
:102810003470AC8085F80180FFF704FA00220321B0
:102820001E20FFF7ABFA012203213220FFF7A6FAA0
:10283000022203214620FFF7A1FA032211465A2063
:10284000FFF79CFAEAE7000000080140003C002086
:102850000C3C002060410020033C00202DE9F041A9
:1028600001213A48FDF79AFE394E0025394C4FF0C8
:10287000010801280CD1307850B93748FEF7EEFB3B
:1028800060880A2805D93448FEF714FC86F80080D1
:102890006580A068314F552804D05F2819D064287E
:1028A0002FD131E0307801282BD1C820FDF716FD5B
:1028B000A068552823D13878401C40B2387064286D
:1028C00001D1FFF7AFF997F90000632817DD3D70DC
:1028D00015E03078012814D1C820FDF7FFFCA0686E
:1028E0005F280CD13878401E40B23870002802DAD8
:1028F0006320387003E0092801D1FFF793F93570A0
:10290000A560A560BDE8F0814FF48270FDF7E6FC9C
:10291000FFF788F93570A58084F80180FFF782F908
:10292000002203211E20FFF729FA01220321322071
:10293000FFF724FA022203214620FFF71FFA0322A1
:1029400011465A20FFF71AFAEAE700000008014092
:10295000003C00200C3C002060410020043C002092
:102960000000000000000000002F00000000070031
:10297000070000147F147F1400242A7F2A120062AB
:102980006408132300364955225000000503000057
:1029900000001C224100000041221C000014083EDF
:1029A00008140008083E0808000000A060000008A5
:1029B00008080808000060600000002010080402F9
:1029C000003E5149453E0000427F400000426151B7
:1029D0004946002141454B31001814127F10002751
:1029E00045454539003C4A49493000017109050314
:1029F00000364949493600064949291E0000363645
:102A000000000000563600000008142241000014A7
:102A10001414141400004122140800020151090684
:102A200000324959513E007C1211127C007F494905
:102A30004936003E41414122007F4141221C007F36
:102A400049494941007F09090901003E4149497A44
:102A5000007F0808087F0000417F410000204041BE
:102A60003F01007F08142241007F40404040007F2A
:102A7000020C027F007F0408107F003E4141413E6E
:102A8000007F09090906003E4151215E007F0919B6
:102A900029460046494949310001017F0101003FB3
:102AA0004040403F001F2040201F003F4038403F33
:102AB0000063140814630007087008070061514997
:102AC000454300007F41410000552A552A5500002A
:102AD00041417F00000402010204004040404040A8
:102AE000000001020400002054545478007F484440
:102AF000443800384444442000384444487F003877
:102B00005454541800087E0901020018A4A4A47C9F
:102B1000007F080404780000447D40000040808469
:102B20007D00007F102844000000417F4000007CB1
:102B300004180478007C08040478003844444438BD
:102B400000FC242424180018242418FC007C080409
:102B5000040800485454542000043F444020003CE2
:102B60004040207C001C2040201C003C4030403C69
:102B7000004428102844001CA0A0A07C00446454F9
:102B80004C4414141414141400000000000000003D
:102B90000000000000000000000000000000000035
:102BA0000000000000000000000000000000000025
:102BB0000000000000000000000000000000000015
:102BC0000000000000000000000000000000000005
:102BD00000000000000000000000000000000000F5
:102BE00000000000000000000000000000000000E5
:102BF00000000000000000000000000000000000D5
:102C000000000000000000000000000000000000C4
:102C100000000000000000000000000000000000B4
:102C200000000000000000000000000000000000A4
:102C30000000000000000000000000000000000094
:102C40000000000000000000000000000000000084
:102C50000000000000000000000000000000000074
:102C60000000000000000000000000000000000064
:102C70000000000000000000000000000000000054
:102C80000000000000000000000000000000000044
:102C90000000000000000000000000000000000034
:102CA000000000000000000000000000C0C0C0C024
:102CB000C0C0C0C0C0000000000000000000000054
:102CC000000000000000000000000000FFFFFFFF08
:102CD000FFFFFFFFFF0000000000000000000000F9
:102CE00000000000000000000000000007FFFFFFE0
:102CF000FFFFFFFF0F0000000000000000000000C9
:102D0000000000000000000000000000007F7F7F46
:102D10007F7F7F7F000000000000000000000000B7
:102D20000000000000000000000000E0F0F0F8F8F3
:102D3000F8F8F8F0F0E000000000000000000000EB
:102D4000000000000000000000000001030307076E
:102D50000707070303010000000000000000000057
:102D60000000000000000000000000000000000063
:102D70000000000000000000000000000000000053
:102D80000000000000000000000000000000000043
:102D90000000000000000000000000000000000033
:102DA00000000000000000000000000000C0C0C0E3
:102DB000C0C0C0C0C00000C0C0C0C0C0C0C0C00053
:102DC000000000000000000000000000000FFFFFF6
:102DD000FFFFFFFF0F00000FFFFFFFFFFFFF0F00D0
:102DE00000000000000000000000000000000101E1
:102DF00001010101000000000101010101010000C9
:102E000000000000000000000000000000000000C2
:102E100000000000000000000000000000000000B2
:102E200000000000000000000000000000000000A2
:102E30000000000000000000000000000000000092
:102E40000000000000000000000000000000000082
:102E50000000000000000000000000000000000072
:102E60000000000000000000000000000000000062
:102E70000000000000000000000000000000000052
:102E80000000000000000000000000000000000042
:102E90000000000000000000000000000000000032
:102EA0000000000000000000000000000000000022
:102EB000000000C0C0C0C0C0C00000000000000092
:102EC00000C0C0C0C0C0C000000000000000000082
:102ED00000E0FEFFFFFF7F0F01000000000080F018
:102EE000FEFFFFFFFF0F0100000E0F0F0F0F8FFF00
:102EF000FFFFFFFF7F0F0F0F0F0F0F0F0FFFFFFFE2
:102F0000FFFF1F0F0F0F0F0F7878787878F8FFFF0B
:102F1000FFFFFF7F787878787878F8F8FFFFFFFF79
:102F20007F79787878787818000000E0FCFFFFFF60
:102F3000FF1F030000000000E0FEFFFFFFFF1F0374
:102F40000000000000000000000000000000000081
:102F50000000000000000000000000000000000071
:102F60000000000000000000000000000000000061
:102F70000000000000000000000000000000000051
:102F80000000000000000000000000000000000041
:102F90000000000000000000000000000000000031
:102FA0000000000000000000000000000000000021
:102FB0008080C0C0C0C0FCFCFCFCC0C0C0C0C080E1
:102FC00080808000000000000000E0F8FCFEFFFFB1
:102FD000FFFF3F1F0F0FFFFFFFFF0F0F0F1F1F1FF1
:102FE0001F3F3F7F0000000000000F3F7FFFFFFFFB
:102FF000FFFFFCF8F0E0FFFFFFFF80808000000093
:1030000000000000000000000000000000000101BE
:1030100003030707070FFFFFFFFF3F3F3F7FFFFF50
:10302000FEFEFCF8F8E0C000000000FCF8F8F0F04C
:10303000F0F0E0E0E0E0FFFFFFFFE0E0F0F0F8FF9D
:10304000FFFFFFFF7F3F0F000000000101030303AC
:10305000030707070707FFFFFFFF07070703030330
:10306000030101000000000000000000000000005B
:10307000000000000000010101010000000000004C
:103080000000000000000000000000000000000040
:103090000000000000000000000000000000000030
:1030A0000000000000000000000000000000808020
:1030B000C0C0C0C0C0C0C0C0808000000000000010
:1030C000000000000000000000F0FCFEFFFFFF1FFA
:1030D000070303030303070FFFFFFFFEFCF00000DD
:1030E0000000000000C0E0F000071F3F7FFFFFF876
:1030F000F0E0E0E0E0E0F0F8FF7F7F3F1F0780C0F6
:10310000E0F8FCFEFF7F3F1F000000000000000110
:10311000010101010101010080C0F0F8FCFFFF7F07
:103120003F0F0703C1F0F8FC0000000000000000A2
:103130000000C0E0F0F8FEFFFF3F1F0F0701000096
:10314000000000001F7FFFFF0000000000000004DF
:103150000607070707070301000000000000000042
:10316000000000000000000100000000000000005E
:10317000000000000000000000000000000000004F
:10318000000000000000000000000000000000003F
:10319000000000000000000000000000000000002F
:1031A000000000000000000000000000000000001F
:1031B0000000808080C0C0C0C0C0C0C0C0C0C0808F
:1031C00080800000000000000000000000F0FCFE15
:1031D000FFFFFFFFFF1F0F0707070707070F1FFF6F
:1031E000FFFFFFFFFEFCF8000000000000018387E6
:1031F000CFDFFFFFFFFFFEFCF8F8F8FCFCFEFFFF4F
:103200009F9F0F0F07030000E0F8FCFEFFFFFFFF8A
:10321000FF1F0F070303010101010303070F0F1F26
:103220003F7FFFFFFEFCFCF8071F7F7FFFFFFFFFD4
:10323000FFFCF8F0F0E0E0E0E0E0E0E0E0F0F0F0EB
:10324000F8F8FCFDFFFF7F7F000000000001010394
:103250000303030707070707070707070707030312
:103260000303010100000000000000000000000056
:10327000000000000000000000000000000000004E
:10328000000000000000000000000000000000003E
:10329000000000000000000000000000000000002E
:1032A0000000000000000000000000C0C0C0C0C05E
:1032B000C0C0C000000000000000000000000000CE
:1032C000000000000000000000000007FFFFFFFFFB
:1032D000FFFF0700000000000000000000000000E9
:1032E00000000000000000000000000001010101DA
:1032F00001010000000000000000000000000000CC
:1033000000000000000000000000000000000000BD
:1033100000000000000000000000000000000000AD
:10332000000000000000000000000000000000009D
:10333000000000000000000000000000000000008D
:10334000000000000000000000000000000000007D
:10335000000000000000000000000000000000006D
:10336000000000000000000000000000000000005D
:10337000000000000000000000000000000000004D
:10338000000000000000000000000000000000003D
:10339000000000000000000000000000000000002D
:1033A000000000000000000000000000000000001D
:1033B000000000000000808080808080800000008D
:1033C000000000000000000000000000000000C03D
:1033D000E0F0F8FCFEFFFF3F0F07030100000000D4
:1033E000000000000000000000000000F0FCFFFFF3
:1033F000FFFFFFFF0F0300000000000000000000BF
:103400000000000000000000000000FFFFFFFFFFC1
:10341000FFFFFF00000000000000000000000000AF
:103420000000000000000000000000073FFFFFFF59
:10343000FFFFFFFCC00000000000000000000000D3
:103440000000000000000000000000000001071F55
:103450003F7FFFFFFFFEFCF0C08000000000000087
:10346000000000000000000000000000000000005C
:103470000000000103070707070707060400000014
:10348000000000000000000000000000000000003C
:10349000000000000000000000000000000000002C
:1034A000000000000000000080808080808080009C
:1034B000000000000000000000000000000000000C
:1034C000000000000000000001030F1F7FFFFFFF4E
:1034D000FEFCF0E0800000000000000000000000A2
:1034E00000000000000000000000000000010FFFCD
:1034F000FFFFFFFFFFFEF080000000000000000063
:1035000000000000000000000000000000000000BB
:10351000FFFFFFFFFFFFFFFF0000000000000000B3
:10352000000000000000000000000000000080F823
:10353000FFFFFFFFFFFF3F0700000000000000004B
:1035400000000000000000000000C0E0F8FEFFFFE7
:10355000FF7F3F0F07010000000000000000000097
:10356000000000000000000006070707070703012E
:10357000000000000000000000000000000000004B
:10358000000000000000000000000000000000003B
:10359000000000000000000000000000000000002B
:1035A000000000000000000000000000000000001B
:1035B000C0C0C0C0C0C0C0000000000000000000CB
:1035C0000000000000000000C0F0F8F0F0F0E0E0C3
:1035D000E1FFFFFFFFFFE1E0F0F0F0F8F8F080001E
:1035E000000000000000000000000060F1F9FDFF95
:1035F0007F3F0F070F1F7FFFFCF8F06020000000E7
:1036000000000000000000000000000000000100B9
:1036100000000000000000000100000000000000A9
:10362000000000000000000000000000000000009A
:10363000000000000000000000000000000000008A
:10364000000000000000000000000000000000007A
:10365000000000000000000000000000000000006A
:10366000000000000000000000000000000000005A
:10367000000000000000000000000000000000004A
:10368000000000000000000000000000000000003A
:10369000000000000000000000000000000000002A
:1036A000000000000000000000000000000000001A
:1036B000000000000000000000000000000000000A
:1036C00000000000000000000000000000000000FA
:1036D00000000000000000000000000000000000EA
:1036E00000000000000000000000000000000000DA
:1036F000000000000000000000FFFFFFFFFFFF00D0
:10370000000000000000000000000000007C7C7C45
:103710007C7C7C7C7C7C7C7C7CFFFFFFFFFFFF7CD7
:103720007C7C7C7C7C7C7C7C0000000000000000B9
:10373000000000000000000000FFFFFFFFFFFF008F
:103740000000000000000000000000000000000079
:103750000000000000000000000101010101010063
:103760000000000000000000000000000000000059
:103770000000000000000000000000000000000049
:103780000000000000000000000000000000000039
:103790000000000000000000000000000000000029
:1037A0000000000000000000000000000000000019
:1037B0000000000000000000000000000000000009
:1037C00000000000000000000000000000000000F9
:1037D00000000000000000000000000000000000E9
:1037E00000000000000000000000000000000000D9
:1037F00000000000000000000000000000000000C9
:1038000000000000000000000000000000000000B8
:1038100000000000000000000000000000000000A8
:10382000000000000000000000C0E0E0E0E0E0E098
:10383000E020000000000000000000000000000088
:103840000000000000000000FCFFFFFFFFFF7F0FF3
:103850000100000000000000000000000000000067
:103860000000000000000000010101010101000052
:103870000000000000000000000000000000000048
:103880000000000000000000000000000000000038
:103890000000000000000000000000000000000028
:1038A0000000000000000000000000000000000018
:1038B0000000000000000000000000000000000008
:1038C00000000000000000000000000000000000F8
:1038D00000000000000000000000000000000000E8
:1038E00000000000000000000000000000000000D8
:1038F00000000000000000000000000000000000C8
:1039000000000000000000000000FCFCFCFCFCFCCF
:10391000FCFCFCFCFCFCFCFCFCFCFC0000000000D3
:103920000000000000000000000000000000000097
:103930000000000000000000000000000000000087
:103940000000000000000000000000000000000077
:103950000000000000000000000000000000000067
:103960000000000000000000000000000000000057
:103970000000000000000000000000000000000047
:103980000000000000000000000000000000000037
:103990000000000000000000000000000000000027
:1039A0000000000000000000000000000000000017
:1039B0000000000000000000000000000000000007
:1039C00000000000000000000000000000000000F7
:1039D00000000000000000000000000000000000E7
:1039E00000000000000000000000000000000000D7
:1039F00000000000000000000000000000000000C7
:103A000000000000000000000000000000000000B6
:103A100000000000000000000000000000000000A6
:103A2000000000000000000000E0F0F0F8F8F8F8F6
:103A3000F8F0F0E0000000000000000000000000CE
:103A40000000000000000000000103030707070753
:103A50000703030100000000000000000000000058
:103A60000000000000000000000000000000000056
:103A70000000000000000000000000000000000046
:103A80000000000000000000000000000000000036
:103A90000000000000000000000000000000000026
:103AA0000000000000000000000000000000000016
:103AB00000000000000000000000C0C0C0C0C0C086
:103AC000C0C0400000000000000000000000000036
:103AD000000000000080E0F0FCFFFFFFFFFF7F1F01
:103AE00007010000000000000000000000000000CE
:103AF0000080E0F8FEFFFFFFFFFF3F0F0301000023
:103B00000000000000000000000000000080E0F85D
:103B1000FEFFFFFFFFFF3F0F03000000000000005B
:103B200000000000000000000080E0F8FEFFFFFF42
:103B3000FFFF3F0F03000000000000000000000036
:103B40000000000000000000FEFFFFFFFF7F1F07D6
:103B50000100000000000000000000000000000064
:103B60000000000000000000000000000000000055
:103B70000000000000000000000000000000000045
:103B80000000000000000000000000000000000035
:103B90000000000000000000000000000000000025
:103BA0000000000000000000000000000000000015
:103BB000008080C0C0C0C0C0C0C0C0C0C080800085
:103BC00000000000000000000080E0F0FCFEFEFFAE
:103BD000FFFFFF3F1F0F0F0F0F0F1F3F7FFFFFFF65
:103BE000FFFEFCF8F0800000F8FFFFFFFFFFFFFF83
:103BF000FF07000000000000000000000003FFFFBE
:103C0000FFFFFFFFFFFFFC007FFFFFFFFFFFFFFF46
:103C1000FF800000000000000000000000C0FFFF67
:103C2000FFFFFFFFFFFF3F0000071F3F7FFFFFFF7A
:103C3000FFFFFCF8F0E0E0E0E0E0F0F8FCFFFFFF61
:103C4000FFFF7F1F0F0300000000000000000101C4
:103C50000303030707070707070707070303030112
:103C60000000000000000000000000000000000054
:103C70000000000000000000000000000000000044
:103C80000000000000000000000000000000000034
:103C90000000000000000000000000000000000024
:103CA0000000000000000000000000000000000014
:103CB000000000000000008080C0C0C0C0C0C00084
:103CC000000000000000000000000000F8F8F8F814
:103CD000FCFCFEFEFE7FFFFFFFFFFFFFFFFFFF007C
:103CE00000000000000000000000000003030301CA
:103CF000010100000000FFFFFFFFFFFFFFFFFF00CB
:103D000000000000000000000000000000000000B3
:103D1000000000000000FFFFFFFFFFFFFFFFFF00AC
:103D20000000000000000000000000000000000093
:103D3000000000000000FFFFFFFFFFFFFFFFFF008C
:103D40000000000000000000000000000000000073
:103D50000000000000000707070707070707070024
:103D60000000000000000000000000000000000053
:103D70000000000000000000000000000000000043
:103D80000000000000000000000000000000000033
:103D90000000000000000000000000000000000023
:103DA0000000000000000000000000000000808013
:103DB0008080C0C0C0C0C0C0C0C0C0C08080800003
:103DC00000000000000000000000007E7F3F3F1F59
:103DD0001F1F0F0F0F0F0F0F0F1F1F7FFFFFFFFF83
:103DE000FFFEFCF8E0000000000000000000000002
:103DF000000000000000000080C0E0F8FFFFFFFFAF
:103E0000FFFFFF3F0F000000000000000080C0E047
:103E1000F0F0F8F8FCFEFEFFFF7F3F3F1F0F0F079B
:103E2000030100000000000000E0F8FEFFFFFFFFBC
:103E3000FFFFFFFFE7E3E1E0E0E0E0E0E0E0E0E0FB
:103E4000E0E0E0E0E00000000007070707070707E1
:103E500007070707070707070707070707070707F2
:103E6000070707070700000000000000000000002F
:103E70000000000000000000000000000000000042
:103E80000000000000000000000000000000000032
:103E90000000000000000000000000000000000022
:103EA0000000000000000000000000000080808092
:103EB00080C0C0C0C0C0C0C0C0C0C0C080808000C2
:103EC0000000000000000000000000003F1F1F1F56
:103ED0000F0F0F0F0F0F0F0F1F1F3FFFFFFFFFFFF2
:103EE000FFFEFCF00000000000000000000000E009
:103EF000E0E0E0E0E0E0E0F0F0F8FCFFFF7F7F3F93
:103F00003F1F0F030000000000000000000000073A
:103F100007070707070707070F0F0F1F3FFFFFFFE1
:103F2000FEFEFCF8F0E000000000FCF8F8F0F0F015
:103F3000E0E0E0E0E0E0E0E0E0F0F0F8FCFFFFFFD0
:103F4000FFFF7F3F1F07000000000103030303077B
:103F50000707070707070707070707030303030107
:103F60000100000000000000000000000000000050
:103F70000000000000000000000000000000000041
:103F80000000000000000000000000000000000031
:103F90000000000000000000000000000000000021
:103FA0000000000000000000000000000000000011
:103FB0000000000000000000000080C0C0C0C0C0C1
:103FC000C0C0C0C0000000000000000000000000F1
:103FD0000000000080C0F0F8FCFFFFFFFFFFFFFFC4
:103FE000FFFFFFFF00000000000000000080C0E0B5
:103FF000F0FCFEFFFF7F1F0F070301FFFFFFFFFF26
:10400000FFFFFFFF00000000F0F8FCFEFFFFFFFFD6
:10401000EFE7E3E1E0E0E0E0E0E0E0FFFFFFFFFFEB
:10402000FFFFFFFFE0E0E0E00707070707070707DC
:104030000707070707070707070707FFFFFFFFFF38
:10404000FFFFFFFF07070707000000000000000058
:10405000000000000000000000000007070707073D
:104060000707070700000000000000000000000034
:104070000000000000000000000000000000000040
:104080000000000000000000000000000000000030
:104090000000000000000000000000000000000020
:1040A0000000000000000000000000000080C0C010
:1040B000C0C0C0C0C0C0C0C0C0C0C0C0C0C0C0C000
:1040C000C0C0C0C0000000000000000000FFFFFFF3
:1040D000FFFFFFFF1F0F0F0F0F0F0F0F0F0F0F0F20
:1040E0000F0F0F0F0000000000000000F0FFFFFFA7
:1040F000FFFFFFFFF0F0F0F0F0F0F0F0F0E0E0E0B4
:10410000C0C08000000000000000000003030303A3
:1041100003030303030303030307070F1FFFFFFF4B
:10412000FFFFFFFFFEF80000000000F8F8F0F0F0DD
:10413000E0E0E0E0E0E0E0E0E0F0F0F8FCFFFFFFCE
:10414000FFFF7F3F0F030000000000010303030394
:104150000707070707070707070707030303010107
:10416000000000000000000000000000000000004F
:10417000000000000000000000000000000000003F
:10418000000000000000000000000000000000002F
:10419000000000000000000000000000000000001F
:1041A000000000000000000000000000000000000F
:1041B0000000000080808080C0C0C0C0C0C0C0C0FF
:1041C000C0C0C0808000000000000000C0E0F8F81F
:1041D000FCFEFFFFFF7F3F1F1F0F0F0F0F0F0F0F83
:1041E0000F1F1F1F3F00000000E0FCFFFFFFFFFF4D
:1041F000FFFF87C1E0F0F0F0F8F8F8F8F8F8F8F809
:10420000F0F0E0E0C0800000007FFFFFFFFFFFFF55
:10421000FFFF0F07030301010101010103070FFF66
:10422000FFFFFFFFFFFFFFF80000070F3F7FFFFFCB
:10423000FFFFFEF8F0F0E0E0E0E0E0F0F0F8FEFF75
:10424000FFFFFFFF7F3F0F030000000000000001A1
:10425000010303030707070707070707070303030C
:10426000010100000000000000000000000000004C
:10427000000000000000000000000000000000003E
:10428000000000000000000000000000000000002E
:10429000000000000000000000000000000000001E
:1042A000000000000000000000C0C0C0C0C0C0C0CE
:1042B000C0C0C0C0C0C0C0C0C0C0C0C0C0C0C0C0FE
:1042C000C0C0C0C0C0C0C0C0000F0F0F0F0F0F0F85
:1042D0000F0F0F0F0F0F0F0F0F0F0F0FCFEFFFFF6E
:1042E000FFFFFFFFFF3F1F0700000000000000006E
:1042F00000000000000000C0F0F8FEFFFFFFFFFF1D
:104300003F0F070100000000000000000000000057
:10431000000080E0F8FEFFFFFFFFFFFF3F0F0300FC
:10432000000000000000000000000000000000008D
:10433000E0FCFFFFFFFFFFFFFF7F0F010000000019
:104340000000000000000000000000000000000766
:10435000070707070707070707000000000000001E
:10436000000000000000000000000000000000004D
:10437000000000000000000000000000000000003D
:10438000000000000000000000000000000000002D
:10439000000000000000000000000000000000001D
:1043A000000000000000000000000000000000000D
:1043B00080808080C0C0C0C0C0C0C0C0C0808080BD
:1043C00080000000000000000000E0F8FCFEFFFF9D
:1043D000FFFFFF7F1F1F0F0F0F0F0F1F1F7FFFFF1D
:1043E000FFFFFFFEFCF8E0000000030F1F3F3F7FD0
:1043F0007FFFFFFCF0F0E0E0E0E0E0F0F0F8FF7FAE
:104400007F7F3F1F1F070300C0F0F8FCFCFEFEFF8C
:10441000FF3F1F0F07070707070707070F1F3FFF8C
:10442000FFFFFEFEFCF8F0C00F1F7F7FFFFFFFFFC6
:10443000FFFCF8F0F0E0E0E0E0E0E0F0F0F8FCFF96
:10444000FFFFFFFF7F7F1F0F00000000000101033F
:104450000303030707070707070707070703030304
:104460000301010000000000000000000000000047
:10447000000000000000000000000000000000003C
:10448000000000000000000000000000000000002C
:10449000000000000000000000000000000000001C
:1044A000000000000000000000000000000000000C
:1044B000808080C0C0C0C0C0C0C0C0C0808080003C
:1044C000000000000000000080E0F8FCFEFEFFFF9E
:1044D000FFFF3F1F1F0F0F0F0F0F1F1F3FFFFFFF9C
:1044E000FFFEFCF8E0C000003FFFFFFFFFFFFFFF03
:1044F000FFE0C0808000000000000080C0E0FFFFFF
:10450000FFFFFFFFFFFFFC0000000307070F1F1F57
:104510001F3F3F3F3F3F3F3F3F1F1F1F0F87FFFF93
:10452000FFFFFFFFFFFF0F000000F8F0F0F0E0E0FA
:10453000E0E0E0E0E0E0E0F0F0F0F8FCFEFFFFFF9C
:104540007F3F1F0F03000000000003030303070762
:104550000707070707070707070303030101000011
:10456000000000000000000000000000000000004B
:10457000000000000000000000000000000000003B
:10458000000000000000000000000000000000002B
:10459000000000000000000000000000000000001B
:1045A000000000000000000000000000000000000B
:1045B00000000000000000000000000000000000FB
:1045C00000000000000000000000000000000000EB
:1045D00000000000000000000000000000000000DB
:1045E00000000000000000000078FCFCFEFEFEFE63
:1045F000FEFCFC780000000000000000000000004D
:1046000000000000000000000000000001010101A6
:104610000100000000000000000000000000000099
:10462000000000000000000000E0F0F0F8F8F8F8EA
:10463000F8F0F0E0000000000000000000000000C2
:104640000000000000000000000103030707070747
:10465000070303010000000000000000000000004C
:10466000000000000000000000000000000000004A
:10467000000000000000000000000000000000003A
:10468000000000000000000000000000000000002A
:10469000000000000000000000000000000000001A
:1046A000000000000000000000000000000000000A
:1046B00000000000000000000000000000000000FA
:1046C00000000000000000000000000000000000EA
:1046D00000000000000000000000000000000000DA
:1046E00000000000000000000078FCFCFEFEFEFE62
:1046F000FEFCFC780000000000000000000000004C
:1047000000000000000000000000000001010101A5
:104710000100000000000000000000000000000098
:1047200000000000000000000080E0E0E0E0E0E0C9
:10473000E0E0200000000000000000000000000099
:104740000000000000000000F8FFFFFFFFFFFF3F38
:104750000700000000000000000000000000000052
:104760000000000000000000030303030303010036
:104770000000000000000000000000000000000039
:104780000000000000000000000000000000000029
:104790000000000000000000000000000000000019
:1047A0000000000000000000000000000000000009
:1047B00000000000000000000000000000000000F9
:1047C00000000000000000000000000000000000E9
:1047D00000000000000000000000000000000000D9
:1047E00000000000000000000000000000000000C9
:1047F00000000000808080C0C0E0E0E0F0F0F8F849
:10480000F8FC7C7E7E3E3F3F0000000000003C7EC6
:104810007E7EFFFFFFFFFFE7E7E7C3C3C381818021
:104820000000000000000000000000000000000088
:104830000000000001010103030707070F0F1F1FFE
:104840001F3F3E7E7E7CFCFC00000000000000005C
:104850000000000000000000000000000000000058
:104860000000000000000000000000000000000048
:104870000000000000000000000000000000000038
:104880000000000000000000000000000000000028
:104890000000000000000000000000000000000018
:1048A0000000000000000000000000000000000008
:1048B00000000000000000000000000000000000F8
:1048C00000000000000000000000000000000000E8
:1048D00000000000000000000000000000000000D8
:1048E00000000000000000000000000000F0F0F0F8
:1048F000F0F0F0F0F0F0F0F0F0F0F0F0F0F0F0F0B8
:10490000F0F0F0F0F0F0F0F00000000000818181A4
:104910008181818181818181818181818181818187
:10492000818181818181818100000000000F0F0F52
:104930000F0F0F0F0F0F0F0F0F0F0F0F0F0F0F0F87
:104940000F0F0F0F0F0F0F0F0000000000000000EF
:104950000000000000000000000000000000000057
:104960000000000000000000000000000000000047
:104970000000000000000000000000000000000037
:104980000000000000000000000000000000000027
:104990000000000000000000000000000000000017
:1049A0000000000000000000000000000000000007
:1049B00000000000000000000000000000000000F7
:1049C00000000000000000000000000000008080E7
:1049D00000000000000000000000000000000000D7
:1049E00000000000000000000000000000001F1F89
:1049F0003F3F3E7E7E7CFCF8F8F8F0F0E0E0E0C05F
:104A0000C080808000000000000000000000000066
:104A10000000000000000000818181C3C3C3E7E7FC
:104A2000E7FFFFFFFFFF7E7E000000000000F8F8B8
:104A3000FCFC7C7E7E3E3F1F1F1F0F0F07070703F6
:104A4000030101010000000000000000000001015E
:104A50000000000000000000000000000000000056
:104A60000000000000000000000000000000000046
:104A70000000000000000000000000000000000036
:104A80000000000000000000000000000000000026
:104A90000000000000000000000000000000000016
:104AA00000000000000000000000808080C0C0C046
:104AB000C0C0C0C0C0C0C0C0808080000000000076
:104AC00000000000000000007F3F3F1F1F1F0F0F6E
:104AD0000F0F0F0F0F1F3FFFFFFFFFFFFFFEFCF049
:104AE00000000000000000000000000000000000C6
:104AF0008080C0E0F0F8FCFFFFFFFF7F3F1F0F0347
:104B000000000000000000000000000000F0FCFFBA
:104B1000FFFFFFFFFF1F0703010000000000000070
:104B20000000000000000000000000000081C3E35E
:104B3000E3E3E3E3E3E2C0800000000000000000E4
:104B4000000000000000000000000000000103075A
:104B50000707070707070301000000000000000027
:104B60000000000000000000000000000000000045
:104B70000000000000000000000000000000000035
:104B80000000000000000000000000000000000025
:104B90000000000000000000000000000000000015
:104BA0000000000000000000000000000000000005
:104BB000000000000000000000008080808080C0B5
:104BC000C0C0C0C0C0C0C0C000000000000080C0A5
:104BD000E0F0F8F8FCFC7E7E3F1F1F0F0F07070771
:104BE0000303030303030303000080F0FCFFFFFF44
:104BF000FF7F1F0703000000C0E0F0F8FCFEFE7E10
:104C00003F1F0F0F0F0F0F1E0000FFFFFFFFFFFFE3
:104C1000FF000000000000FEFFFFFFFFFFFF81001C
:104C20000000000000000080000000071F3F7FFF21
:104C3000FFFFFCF0E0C0800003070F1F1F3F3F3E57
:104C40003C3C3C3C1C1E0F07000000000000000024
:104C5000010307070F0F1F1F1F3E3E3C3C7C7C7863
:104C60007878787878787878000000000000000084
:104C70000000000000000000000000000000000034
:104C80000000000000000000000000000000000024
:104C90000000000000000000000000000000000014
:104CA0000000000000000000000000000000000004
:104CB000000000000080C0C0C0C0C0C0C0C0C0C0F4
:104CC000C0C08000000000000000000000000000E4
:104CD0000000C0F0FEFFFFFFFFFF3F0F7FFFFFFF61
:104CE000FFFFFFFCF080000000000000000080E0FB
:104CF000F8FFFFFFFFFFFF7F0F01000000030F7FA2
:104D0000FFFFFFFFFFFFFEF0000000C0F0FCFFFF11
:104D1000FFFFFFFFFFFFF1F0F0F0F0F0F0F0F0F038
:104D2000F3FFFFFFFFFFFFFFE0F8FEFFFFFFFFFFC6
:104D3000FF7F1F03030303030303030303030303AF
:104D4000030303031FFFFFFF070707070707070703
:104D50000300000000000000000000000000000050
:104D60000000000000000307000000000000000039
:104D70000000000000000000000000000000000033
:104D80000000000000000000000000000000000023
:104D90000000000000000000000000000000000013
:104DA0000000000000000000000000C0C0C0C0C043
:104DB000C0C0C0C0C0C0C0C0C0C0C0C0C0C0C0C0F3
:104DC0008080808000000000000000FFFFFFFFFFE8
:104DD000FFFFFFFF0F0F0F0F0F0F0F0F0F1F1F3FD3
:104DE000FFFFFFFFFFFFFEFC000000FFFFFFFFFFD4
:104DF000FFFFFFFFE0E0E0E0E0E0E0E0F0F0F8FCE3
:104E0000FFFFFF3F3F1F0F07000000FFFFFFFFFFF7
:104E1000FFFFFFFF0707070707070707070F0F1F1A
:104E20003FFFFFFFFFFFFEFE000000FFFFFFFFFF51
:104E3000FFFFFFFFE0E0E0E0E0E0E0E0E0F0F0F8BE
:104E4000FCFFFFFFFFFFFF7F0000000707070707CA
:104E500007070707070707070707070707070707E2
:104E60000703030301010000000000000000000030
:104E70000000000000000000000000000000000032
:104E80000000000000000000000000000000000022
:104E90000000000000000000000000000000000012
:104EA0000000000000000000000000000000000002
:104EB000000000000080808080C0C0C0C0C0C0C0B2
:104EC000C0C0C0C0C0C0C080000000C0E0F0F8F8A2
:104ED000FCFEFEFFFFFF7F3F3F1F1F1F0F0F0F0F47
:104EE0000F0F0F0F0F1F1F1FE0FCFFFFFFFFFFFF44
:104EF000FFFF1F0301000000000000000000000091
:104F000000000000000000003FFFFFFFFFFFFFFF69
:104F1000FFFFE08000000000000000000000000033
:104F200000000000000000000001030F1F3F7F7F12
:104F3000FFFFFFFFFFFCFCF8F0F0F0E0E0E0E0E056
:104F4000E0E0E0E0E0F0F0F0000000000000000031
:104F5000000101010303030307070707070707070A
:104F60000707070707030303000000000000000015
:104F70000000000000000000000000000000000031
:104F80000000000000000000000000000000000021
:104F90000000000000000000000000000000000011
:104FA0000000000000000000000000C0C0C0C0C041
:104FB000C0C0C0C0C0C0C0C0C0C0C0C0C0C0C0C0F1
:104FC000C0C0808080800000000000FFFFFFFFFF66
:104FD000FFFFFFFF0F0F0F0F0F0F0F0F0F0F1F1F01
:104FE0001F3F3F7FFFFFFFFF000000FFFFFFFFFFAE
:104FF000FFFFFFFF000000000000000000000000B5
:10500000000000000001030F000000FFFFFFFFFF92
:10501000FFFFFFFF00000000000000000000000094
:1050200000000000000080F0000000FFFFFFFFFF15
:10503000FFFFFFFFE0E0E0E0E0E0E0E0E0E0F0F0D4
:10504000F0F8F8FCFEFFFFFF000000070707070766
:1050500007070707070707070707070707070707E0
:105060000303030301010100000000000000000031
:105070000000000000000000000000000000000030
:105080000000000000000000000000000000000020
:105090000000000000000000000000000000000010
:1050A0000000000000000000000000C0C0C0C0C040
:1050B000C0C0C0C0C0C0C0C0C0C0C0C0C0C0C0C0F0
:1050C000C0C0C0C000000000000000FFFFFFFFFFE5
:1050D000FFFFFFFF0F0F0F0F0F0F0F0F0F0F0F0F20
:1050E0000F0F0F0F00000000000000FFFFFFFFFF89
:1050F000FFFFFFFFE0E0E0E0E0E0E0E0E0E0E0E034
:10510000E0E0E00000000000000000FFFFFFFFFF04
:10511000FFFFFFFF0707070707070707070707073F
:105120000707070000000000000000FFFFFFFFFF6F
:10513000FFFFFFFFE0E0E0E0E0E0E0E0E0E0E0E0F3
:10514000E0E0E0E0E00000000000000707070707DC
:1051500007070707070707070707070707070707DF
:10516000070707070700000000000000000000001C
:10517000000000000000000000000000000000002F
:10518000000000000000000000000000000000001F
:10519000000000000000000000000000000000000F
:1051A0000000000000000000000000C0C0C0C0C03F
:1051B000C0C0C0C0C0C0C0C0C0C0C0C0C0C0C0C0EF
:1051C000C0C0C0C000000000000000FFFFFFFFFFE4
:1051D000FFFFFFFF0F0F0F0F0F0F0F0F0F0F0F0F1F
:1051E0000F0F0F0F00000000000000FFFFFFFFFF88
:1051F000FFFFFFFFC0C0C0C0C0C0C0C0C0C0C0C0B3
:10520000C0C0C00000000000000000FFFFFFFFFF63
:10521000FFFFFFFF0F0F0F0F0F0F0F0F0F0F0F0FDE
:105220000F0F0F0000000000000000FFFFFFFFFF56
:10523000FFFFFFFF00000000000000000000000072
:10524000000000000000000000000007070707073B
:105250000707070700000000000000000000000032
:10526000000000000000000000000000000000003E
:10527000000000000000000000000000000000002E
:10528000000000000000000000000000000000001E
:10529000000000000000000000000000000000000E
:1052A00000000000000000000000000000000000FE
:1052B00000000000000080808080C0C0C0C0C0C06E
:1052C000C0C0C0C0C0C0C080000000C0E0F0F8F89E
:1052D000FCFEFEFFFFFF7F3F3F1F1F1F0F0F0F0F43
:1052E0000F0F0F0F0F0F1F1FE0FCFFFFFFFFFFFF50
:1052F000FFFF1F030100000000000000C0C0C0C08D
:10530000C0C0C0C0C0C0C0C03FFFFFFFFFFFFFFF65
:10531000FFFFE08000000000000000000F0F0F0FF3
:105320000F0F0F0F0FFFFFFF0001030F1F3F7F7FC6
:10533000FFFFFFFFFEFCF8F8F0F0F0E0E0E0E0E057
:10534000E0E0E0E0F0FFFFFF0000000000000000F0
:105350000000010103030303070707070707070707
:105360000707070707030303000000000000000011
:10537000000000000000000000000000000000002D
:10538000000000000000000000000000000000001D
:10539000000000000000000000000000000000000D
:1053A0000000000000000000000000C0C0C0C0C03D
:1053B000C0C0C0C0000000000000000000000000ED
:1053C00000000000000000C0000000FFFFFFFFFF22
:1053D000FFFFFFFF000000000000000000000000D1
:1053E00000000000000000FF000000FFFFFFFFFFC3
:1053F000FFFFFFFFE0E0E0E0E0E0E0E0E0E0E0E031
:10540000E0E0E0E0E0E0E0FF000000FFFFFFFFFF82
:10541000FFFFFFFF0707070707070707070707073C
:1054200007070707070707FF000000FFFFFFFFFF51
:10543000FFFFFFFF00000000000000000000000070
:1054400000000000000000FF00000007070707073A
:105450000707070700000000000000000000000030
:105460000000000000000007000000000000000035
:10547000000000000000000000000000000000002C
:10548000000000000000000000000000000000001C
:10549000000000000000000000000000000000000C
:1054A0000000000000000000000000C0C0C0C0C03C
:1054B000C0C0C0C0000000000000000000000000EC
:1054C0000000000000000000000000FFFFFFFFFFE1
:1054D000FFFFFFFF000000000000000000000000D0
:1054E0000000000000000000000000FFFFFFFFFFC1
:1054F000FFFFFFFF000000000000000000000000B0
:105500000000000000000000000000FFFFFFFFFFA0
:10551000FFFFFFFF0000000000000000000000008F
:105520000000000000000000000000FFFFFFFFFF80
:10553000FFFFFFFF0000000000000000000000006F
:105540000000000000000000000000070707070738
:10555000070707070000000000000000000000002F
:10556000000000000000000000000000000000003B
:10557000000000000000000000000000000000002B
:10558000000000000000000000000000000000001B
:10559000000000000000000000000000000000000B
:1055A00000000000000000000000000000000000FB
:1055B000000000C0C0C0C0C0C0C0C0C0000000002B
:1055C00000000000000000000000000000000000DB
:1055D000000000FFFFFFFFFFFFFFFFFF00000000D4
:1055E00000000000000000000000000000000000BB
:1055F000000000FFFFFFFFFFFFFFFFFF00000000B4
:10560000000000000000000000000000000000009A
:10561000000000FFFFFFFFFFFFFFFFFF0000000093
:105620000000000000000000F0F0E0E0E0E0E0F04A
:10563000F0F8FFFFFFFFFFFF7F1F0F0100000000DA
:105640000000000000000000070707070707070722
:105650000707030303010000000000000000000032
:10566000000000000000000000000000000000003A
:10567000000000000000000000000000000000002A
:10568000000000000000000000000000000000001A
:10569000000000000000000000000000000000000A
:1056A0000000000000000000000000C0C0C0C0C03A
:1056B000C0C0C0C0000000000000000000000000EA
:1056C00000C0C0C0C0C0C0C0000000FFFFFFFFFF9F
:1056D000FFFFFFFF00000000000080C0E0F8FCFEBC
:1056E000FFFFFFFFFF3F1F0F000000FFFFFFFFFF57
:1056F000FFFFFFFF80E0F0F8FCFFFFFFFFFF3F1F11
:105700000F07030100000000000000FFFFFFFFFF84
:10571000FFFFFFFF03070F3F7FFFFFFFFFFFFEFCC1
:10572000F8F0C08000000000000000FFFFFFFFFF56
:10573000FFFFFFFF00000000000001070F1F3FFFF9
:10574000FFFFFFFFFFFEFCF8000000070707070749
:10575000070707070000000000000000000000002D
:10576000010307070707070700000000000000000B
:105770000000000000000000000000000000000029
:105780000000000000000000000000000000000019
:105790000000000000000000000000000000000009
:1057A0000000000000000000000000C0C0C0C0C039
:1057B000C0C0C0C0000000000000000000000000E9
:1057C0000000000000000000000000FFFFFFFFFFDE
:1057D000FFFFFFFF000000000000000000000000CD
:1057E0000000000000000000000000FFFFFFFFFFBE
:1057F000FFFFFFFF000000000000000000000000AD
:105800000000000000000000000000FFFFFFFFFF9D
:10581000FFFFFFFF0000000000000000000000008C
:105820000000000000000000000000FFFFFFFFFF7D
:10583000FFFFFFFFE0E0E0E0E0E0E0E0E0E0E0E0EC
:10584000E0E0E0E0E00000000000000707070707D5
:1058500007070707070707070707070707070707D8
:105860000707070707000000000000000000000015
:105870000000000000000000000000000000000028
:105880000000000000000000000000000000000018
:105890000000000000000000000000000000000008
:1058A0000000000000000000000000C0C0C0C0C038
:1058B000C0C0C0C0C0C0C0C0C080000000000000A8
:1058C0000000000000000000000000FFFFFFFFFFDD
:1058D000FFFFFFFF3FFFFFFFFFFFFCF0C0000000E6
:1058E0000000000000000000000000FFFFFFFFFFBD
:1058F000FFFFFFFF00010F3FFFFFFFFFFFFEF8C0AC
:105900000000000000000000000000FFFFFFFFFF9C
:10591000FFFFFFFF0000000001073FFFFFFFFFFF49
:10592000FFF8E00080E0FCFF000000FFFFFFFFFF4A
:10593000FFFFFFFF0000000000000000031F7FFFCB
:10594000FFFFFFFFFFFFFFFF00000007070707073C
:105950000707070700000000000000000000000328
:105960000707070707070703000000000000000003
:105970000000000000000000000000000000000027
:105980000000000000000000000000000000000017
:105990000000000000000000000000000000000007
:1059A0000000000000000000000000C0C0C0C0C037
:1059B000C0C0C0C0C0C00000000000000000000067
:1059C0000000000000000000000000FFFFFFFFFFDC
:1059D000FFFFFFFFFFFFFFFEFCF0E0C080000000C4
:1059E0000000000000000000000000FFFFFFFFFFBC
:1059F000FFFFFFFF01070F1F3FFFFFFFFFFEFCF848
:105A0000E0C0800000000000000000FFFFFFFFFF7B
:105A1000FFFFFFFF00000000000001030F1F3FFF1A
:105A2000FFFFFFFEFCF8F0C0000000FFFFFFFFFFDC
:105A3000FFFFFFFF0000000000000000000000006A
:105A40000103071F3F7FFFFF00000007070707074D
:105A5000070707070000000000000000000000002A
:105A60000000000000000103000000000000000032
:105A70000000000000000000000000000000000026
:105A80000000000000000000000000000000000016
:105A90000000000000000000000000000000000006
:105AA00000000000000000000000000000000000F6
:105AB0000000000000808080C0C0C0C0C0C0C0C066
:105AC000C0C0C0C080808000000080C0E0F0F8FC52
:105AD000FEFEFFFFFF7F3F3F1F1F0F0F0F0F0F0F38
