:020000040800F2
:10000000F009002001010008B13F0008A1300008FC
:10001000513F000859040008B150000800000000DA
:10002000000000000000000000000000BD430008C8
:10003000B904000800000000B53F0008CD470008E3
:100040001B0100081B0100081B0100081B01000820
:100050001B0100081B0100081B0100081B01000810
:100060001B0100081B0100081B0100085D040008BB
:100070001B0100081B0100086D0400087D04000836
:100080001B0100081B0100086D0100081B0100088E
:100090001B0100081B0100081B0100081B010008D0
:1000A0001B0100085D4800081B0100081B01000837
:1000B0006D4800087D4800088D4800081B010008B5
:1000C0001B0100081B0100081B0100081B010008A0
:1000D0001B010008455000081B0100081B01000817
:1000E0001B0100081B0100081B010008DFF80CD0F1
:1000F00000F02AF800480047DD520008F00900200F
:100100000648804706480047FEE7FEE7FEE7FEE7B1
:10011000FEE7FEE7FEE7FEE7FEE7FEE75B480008D6
:10012000ED000008D2B201E000F8012B491EFBD21D
:1001300070470022F6E710B513460A4604461946F2
:10014000FFF7F0FF204610BD064C074D06E0E068C3
:1001500040F0010394E8070098471034AC42F6D30E
:10016000FFF7C8FF845E0008A45E000810B50248CF
:1001700000F03DFB10BD00000C03002070B50446EC
:1001800000252068806800F0010018B320688068AE
:1001900020F001002168886001F030F9054613E085
:1001A00001F02CF9401B02280ED92068806800F06D
:1001B000010048B1A06A40F01000A062E06A40F07F
:1001C0000100E062012070BD2068806800F001003D
:1001D0000028E5D10020F6E770B505466C6AA06AF4
:1001E00000F05000E0B9A06A40F40070A0622068FE
:1001F000806800F46020B0F5602F0DD1207B58B9E5
:10020000A06A20F48070A062A06A00F4805018B93F
:10021000A06A40F00100A062204600F0E5FA03E089
:10022000206A016B2846884770BD70B505466C6A28
:10023000A06A40F04000A062E06A40F00400E06282
:10024000204600F0D3FA70BD70B50446656A2846B2
:1002500000F0CBFA70BD000038B504460025002040
:1002600000902068806800F0010078BB20688068FA
:1002700040F0010021688860194800681949B0FB06
:10028000F1F0009002E00098401E009000980028D5
:10029000F9D101F0B3F8054619E001F0AFF8401BC1
:1002A000022814D92068806800F0010078B9A06A9B
:1002B00040F01000A062E06A40F00100E06200BF80
:1002C000002084F8240000BF012038BD05E020682C
:1002D000806800F001000028DFD00020F5E7000072
:1002E0006800002040420F0010B5564800780128F1
:1002F00048D140E04FF48061534801F071F8012883
:1003000036D18102504801F06BF8012804D14F48E2
:100310000068401C4D4908604C4800684C498842C0
:1003200029D300224FF48061474801F061F8002092
:100330004649086000240AE0204602F031FF2046CA
:1003400000F000F9204600F0FDF8601CC4B2082C53
:10035000F2DB00224FF480613B4801F049F80120B4
:100360003C49087000228102374801F041F802E060
:100370000020364908604FF40061334801F030F83E
:100380000028B7D03348007801280AD1C1022E488E
:1003900001F026F8012804D100202A4908702D49CF
:1003A00008702848007800283BD133E04FF4806182
:1003B000254801F015F850BB4FF48061224801F048
:1003C0000FF820B921480068401C204908601F48E8
:1003D00000681F4988421DD3012291021A4801F08A
:1003E00007F800201949086000240AE0204602F0BE
:1003F000D7FE204600F064F8204600F061F8601C4B
:10040000C4B2082CF2DB02201249087002E000207E
:100410000E4908604FF400610B4800F0E1FF00282E
:10042000C4D00C48007802280AD18102064800F0A6
:10043000D7FF012804D1034908700020054908703E
:1004400010BD00001000002000100140000000203E
:1004500020A107000E00002000BFFEE710B50248F3
:1004600000F0CAFC10BD00003C03002010B502489B
:1004700000F0C2FC10BD0000A805002010B5024825
:1004800000F0BAFC10BD00006405002030B590F803
:1004900040500124AC40C56B6C60046863604468E4
:1004A000102C04D10468A2600468E16003E00468D1
:1004B000A1600468E26030BD704772B600BFFEE71D
:1004C00010B50446082C35D2DFE804F0040A1016F3
:1004D0001C22282E00220121184800F089FF2AE062
:1004E00000220221154800F083FF24E000220421AD
:1004F000124800F07DFF1EE0002208210F4800F0A6
:1005000077FF18E0002240210C4800F071FF12E054
:1005100000228021094800F06BFF0CE0002201213D
:10052000074800F065FF06E000220221044800F0C1
:100530005FFF00E000BF00BF10BD000000080140E9
:10054000000C014010B50446082C35D2DFE804F059
:10055000040A10161C22282E01221146184800F009
:1005600047FF2AE001220221154800F041FF24E064
:1005700001220421124800F03BFF1EE00122082165
:100580000F4800F035FF18E0012240210C4800F030
:100590002FFF12E001228021094800F029FF0CE022
:1005A00001221146074800F023FF06E00122022144
:1005B000044800F01DFF00E000BF00BF10BD0000B8
:1005C00000080140000C014030B591B0402101A865
:1005D000FFF7AFFD002413E000250DE001A850F85F
:1005E000250005EB0411104A32F81110084401A946
:1005F00041F82500681C85B2102DEFDB601C84B229
:10060000142CE9DB00240AE001A850F8240014218E
:10061000B0FBF1F0054921F81400601C84B2102CE5
:10062000F2DB11B030BD00008C0000206C00002017
:1006300010B51348007809281ED2DFE800F01D0528
:10064000080B0E1114171A0005F0C2F815E005F09A
:10065000F5F812E005F028F90FE005F05BF90CE081
:1006600005F08EF909E005F0C1F906E005F0F4F9AE
:1006700003E005F027FA00E000BF00BF10BD000056
:100680000D0000207047000038B50246002300200E
:10069000009000BF92F82400012801D1022038BD4B
:1006A000012082F8240000BF4868072812D2106891
:1006B000406B0C79641E04EB84051F24AC40A043FE
:1006C0000D796D1E05EB85050C68AC402043146860
:1006D000606327E048680D2812D21068006B0C791F
:1006E000E41F04EB84051F24AC40A0430D79ED1FEB
:1006F00005EB85050C68AC4020431468206311E0CD
:100700001068C06A0C790D3C04EB84051F24AC40D2
:10071000A0430D790D3D05EB85050C68AC402043E9
:100720001468E06208680A2812D31068C0680C7860
:100730000A3C04EB44050724AC40A0430D780A3D75
:1007400005EB45058C68AC4020431468E0600FE081
:10075000106800690C7804EB44050724AC40A04302
:100760000D7805EB45058C68AC402043146820618A
:100770000868102802D00868112827D1174C106883
:10078000A0421ED11068806800F40000F0B9106823
:10079000806840F400001468A0600868102815D133
:1007A0000F4800680F4CB0FBF4F000EB80004000F5
:1007B000009002E00098401E009000980028F9D1B7
:1007C00004E0906A40F020009062012300BF002006
:1007D00082F8240000BF184661E7000000240140B1
:1007E0006800002040420F0070477047704710B506
:1007F00004462068406800F0200020282FD120689F
:10080000006800F00200022829D1A06A00F0100060
:1008100018B9A06A40F40070A0622068806800F4F3
:100820006020B0F5602F13D1207B88B92068406824
:1008300020F0200021684860A06A20F48070A06247
:10084000A06A00F4805018B9A06A40F00100A062CC
:100850002046FFF7C9FF6FF012002168086020688A
:10086000406800F0800080283BD12068006800F0DC
:100870000400042835D1A06A00F0100018B9A06A5D
:1008800040F40050A0622068806800F4E040B0F5B9
:10089000E04F0DD02068406800F48060D0B9206837
:1008A000806800F46020B0F5602F13D1207B88B9F8
:1008B0002068406820F0800021684860A06A20F429
:1008C0008050A062A06A00F4807018B9A06A40F05D
:1008D0000100A0622046FFF7D5FE6FF00C002168F2
:1008E00008602068406800F0400040280FD1206870
:1008F000006800F0010050B1A06A40F48030A062AE
:10090000204600F0A7F86FF001002168086010BDD4
:100910002DE9F0410446002700250026A84614B919
:100920000120BDE8F081A06810B1207D00B100BFBA
:10093000A06A30B90020E06284F82400204600F06C
:100940008BF82046FFF71AFC0746A06A00F010005B
:10095000002873D1002F71D1A06A20F4885040F094
:100960000200A062E16960680843217B40EA41001F
:100970000643A068B0F5807F02D0A068012802D1AC
:100980004FF4807000E000200543207D012811D144
:10099000207B38B9A069401E4FF4006141EA403025
:1009A000054307E0A06A40F02000A062E06A40F042
:1009B0000100E0622068406820F469402843216813
:1009C0004860206880682149084030432168886079
:1009D000A068B0F5807F02D0A068012802D14FF452
:1009E000807000E00020B0F5807F03D1208A401E97
:1009F0004FEA00582068C06A20F4700040EA0800FE
:100A00002168C8622068806811490840B04208D156
:100A10000020E062A06A20F0020040F00100A06225
:100A200011E0A06A20F0020040F01000A062E06A2D
:100A300040F00100E062012705E0FFE7A06A40F016
:100A40001000A062012738466BE70000FDF7E1FFC8
:100A5000FE0E1FFF7047000010B586B00446002050
:100A600002900390049005903A49206888426FD123
:100A700000BF3948806940F40070374988610846F2
:100A8000806900F40070019000BF00BF00BF0846FD
:100A9000806940F0100088610846806900F010000D
:100AA000019000BF00BF00BF0846806940F004000D
:100AB00088610846806900F00400019000BF00BF13
:100AC00000BF0846806940F00800886108468069D8
:100AD00000F00800019000BF00BF3F2002900320FB
:100AE000039002A91D4800F0EBFAFF2002900320BA
:100AF000039002A91A4800F0E3FA03200290039041
:100B000002A9184800F0DCFA1748184908600020CC
:100B100048600021154881608021C1604900016161
:100B200089004161202181610021C16100F032FA18
:100B300008B1FFF7C2FC00BF0C482062446200BF4E
:100B400000221146122000F0E3FC122000F0D0FC3D
:100B500006B010BD0024014000100240001001400A
:100B600000080140000C0140080002403C03002046
:100B70002DE9F04104460D461646002757492068E6
:100B8000884203D056492068884205D15348001D49
:100B9000006800F4702000E0002000287ED100BF33
:100BA00094F82400012802D10220BDE8F081012040
:100BB00084F8240000BF2046FFF74EFB0746002FB5
:100BC0006DD1A06A40F60161884340F48070A06254
:100BD00043492068884209D14048001D006800F45C
:100BE000702008B9012002E0002000E0012078B167
:100BF000A06A20F48010A0622068406800F4806041
:100C000000B3A06A20F4005040F48050A06219E0C4
:100C1000A06A40F48010A06230492068884203D066
:100C20002F492068884205D12C48001D006800F437
:100C3000806000E0002028B1A06A20F4005040F459
:100C40008050A062A06A00F4805020B1E06A20F0D9
:100C50000600E06201E00020E06200BF002084F8AE
:100C6000240000BF1F48216A88621F48216AC862A9
:100C70001E48216A08636FF002002168086020683E
:100C8000806840F4807021688860226802F14C011D
:100C900033462A46206A00F0B1F901E01AE014E078
:100CA0002068806800F46020B0F5602F06D12068CD
:100CB000806840F4A000216888600CE020688068AB
:100CC00040F480102168886005E000BF002084F8AF
:100CD000240000E00127384667E7000000240140B7
:100CE00000280140D9010008490200082B02000831
:100CF0000146002291F82100022808D004208863D0
:100D000000BF002081F8200000BF01207047086864
:100D1000006820F00E000B6818600868006820F07A
:100D200001000B68186091F8403001209840CB6BAF
:100D30005860012081F8210000BF002081F82000C8
:100D400000BF1046E2E7000070B50446002594F8A5
:100D50002100022803D00420A063012548E0206878
:100D6000006820F00E00216808602068006820F00C
:100D70000100216808601F492068884201D10120D4
:100D800026E01C4914312068884201D110201FE060
:100D9000184928312068884201D1801518E015498A
:100DA0003C312068884201D1801411E01149503152
:100DB0002068884202D14FF4803009E00D49643147
:100DC0002068884202D14FF4801001E04FF080701B
:100DD000084908394860012084F8210000BF00203C
:100DE00084F8200000BF606B10B12046616B88471B
:100DF000284670BD0800024070B50446E06B0568E7
:100E00002068066894F84010042088402840002894
:100E100046D006F00400002842D02068006800F0A8
:100E2000200028B92068006820F0040021680860CC
:100E300057492068884201D1042027E054491431E1
:100E40002068884201D1402020E0514928312068A3
:100E5000884201D1001519E04D493C312068884293
:100E600002D14FF4804011E0494950312068884256
:100E700002D14FF4802009E045496431206888425E
:100E800002D14FF4800001E04FF080604049083902
:100E90004860E06A00287AD02046E16A884776E018
:100EA00094F84010022088402840A0B306F00200C9
:100EB00088B32068006800F0200040B9206800680E
:100EC00020F00A0021680860012084F821003049E0
:100ED0002068884201D1022028E02D491431206881
:100EE000884201D1202021E0294928312068884208
:100EF00001D140151AE026493C312068884202D1D0
:100F00004FF4005012E0224950312068884203D14A
:100F10004FF400300AE017E01D4964312068884230
:100F200002D14FF4001001E04FF000701849083969
:100F3000486000BF002084F8200000BFA06A30B3E2
:100F40002046A16A884722E094F840100820884093
:100F50002840E0B106F00800C8B12068006820F021
:100F60000E002168086094F8401001208840E16B71
:100F700048600120A06384F8210000BF002084F8AD
:100F8000200000BF206B10B12046216B884770BD48
:100F9000080002400146002209B901207047164BA3
:100FA0000868C01A1423B0FBF3F0800008641248EC
:100FB0000838C863022081F821000868026843F6F7
:100FC000F0708243D1E901031843CB6818430B69E1
:100FD00018434B6918438B691843CB691843024384
:100FE0000868026000208863012081F82100002049
:100FF00081F8200000BFD1E7080002402DE9F04150
:1010000004460D4616461F464FF0000800BF94F8F0
:101010002000012802D10220BDE8F081012084F8DF
:10102000200000BF94F8210001282CD1022084F870
:1010300021000020A0632068006820F001002168E2
:1010400008603B46324629462046FFF71FFAE06A11
:1010500030B12068006840F00E00216808600BE0A5
:101060002068006820F0040021680860206800689B
:1010700040F00A00216808602068006840F0010024
:101080002168086006E000BF002084F8200000BF4F
:101090004FF002084046BFE770B5044600F0AEF9D5
:1010A00006462546681C10B104480078054400BF78
:1010B00000F0A4F9801BA842FAD370BD64000020A0
:1010C0002DE9F8470346002294466EE14FF00108EF
:1010D00008FA02F4D1F8008008EA0400A0427DD1A9
:1010E000DFF8DCA2D1F80480A8EB0A09D0453AD099
:1010F00014DCB8F1030F50D009DCB8F1000F31D087
:10110000B8F1010F1CD0B8F1020F49D120E0B8F1BD
:10111000110F18D0B8F1120F42D11EE0B9F5881F97
:1011200025D006DCB9F5803F20D0B9F5801F37D136
:101130001AE0B9F5001F18D0B9F5041F30D117E037
:10114000D1F80CC02DE0D1F80C8008F1040C28E097
:10115000D1F80C8008F1080C23E0D1F80C8008F1DC
:101160000C0C1EE000BF00BF00BF00BF00BF00BFEF
:10117000D1F80880B8F1000F02D14FF0040C0BE059
:10118000D1F80880B8F1010F03D14FF0080C1C61B1
:1011900002E04FF0080C5C6103E04FF0000C00E04F
:1011A00000BF00BFFF2801D8984601E003F1040802
:1011B0004646FF2802D84FEA820803E0A2F1080859
:1011C0004FEA88084746D6F800804FF00F0909FA21
:1011D00007F928EA09080CFA07F900E088E048EA6C
:1011E0000908C6F80080D1F8048008F08058B8F1EA
:1011F000805F7DD100BFDFF8CC81D8F8188048F03F
:101200000108DFF8C091C9F81880C846D8F81880DE
:1012100008F00108CDF8008000BF00BF4FEAB938E0
:101220004FEA920958F829504FEA82784FEA187924
:101230004FF00F0808FA09F825EA0805DFF8888159
:10124000434502D14FF0000816E0DFF880814345A6
:1012500002D14FF001080FE0DFF87481434502D15D
:101260004FF0020808E0DFF86C81434502D14FF0EF
:10127000030801E04FF004084FEA82794FEA197938
:1012800008FA09F848EA0505DFF84C814FEA9209A7
:1012900048F82950D1F8048008F48038B8F5803F28
:1012A0000AD1DFF83881D8F8008048EA0008DFF872
:1012B0002C91C9F8008009E0DFF82081D8F800807F
:1012C00028EA0008DFF81491C9F80080D1F80480FA
:1012D00008F40038B8F5003F10D1DFF8008108F1BC
:1012E0000408D8F8008048EA0008DFF8F09000E031
:1012F0005AE009F10409C9F800800DE0DFF8DC804C
:1013000008F10408D8F8008028EA0008DFF8CC903B
:1013100009F10409C9F80080D1F8048008F48018A4
:10132000B8F5801F0ED1DFF8B48008F10808D8F8AE
:10133000008048EA0008DFF8A49009F10809C9F81C
:1013400000800DE0DFF8948008F10808D8F80080EC
:1013500028EA0008DFF8849009F10809C9F800803C
:10136000D1F8048008F40018B8F5001F0ED1DFF89A
:101370006C8008F10C08D8F8008048EA0008DFF813
:101380005C9009F10C09C9F800800DE0DFF84C8091
:1013900008F10C08D8F8008028EA0008DFF83C9033
:1013A00009F10C09C9F80080521CD1F8008028FA14
:1013B00002F8B8F1000F7FF489AEBDE8F8870000AD
:1013C000000011100010024000080140000C014014
:1013D00000100140001401400800014000040140D9
:1013E000024693680B400BB1012000E000207047DB
:1013F0000AB1016101E00B04036170470148006814
:10140000704700005C000020034800680349097829
:1014100008440149086070475C0000206400002017
:1014200010B50848006840F0100006490860032025
:1014300000F0ACF8002000F007F800F02BF80020D6
:1014400010BD00000020024070B504460E48007830
:101450004FF47A71B1FBF0F00C490968B1FBF0F57B
:10146000284600F0A7FC08B1012070BD102C07D25F
:1014700000222146501E00F04BF80548046001E0B0
:101480000120F2E70020F0E764000020680000205F
:101490006000002008B500BF1348806940F00100DB
:1014A000114988610846806900F00100009000BF82
:1014B00000BF00BF0846C06940F08050C8610846C0
:1014C000C06900F08050009000BF00BF052000F010
:1014D0005DF800BF0549486820F0E06040F080708A
:1014E000486000BF08BD000000100240000001403D
:1014F00001460846002809DB00F01F0301229A403C
:1015000043099B0003F1E023C3F8002100BF7047AB
:101510002DE9F05F80460D461646002703F0CAFD10
:10152000074639462A46334601F00700C0F1070A4C
:10153000BAF1040F02D94FF0040A01E0C0F1070A22
:10154000D14600F1040ABAF1070F02D24FF0000AA7
:1015500001E0A0F1030AD4464FF0010A0AFA09FAA1
:10156000AAF1010A0AEA020A0AFA0CFA4FF0010B80
:101570000BFA0CFBABF1010B0BEA030B4AEA0B0471
:101580002146404603F09EFDBDE8F09F00BF00F0FD
:101590000702064B19684FF6FF031940044B0B4333
:1015A00043EA0221014B196000BF70470CED00E0D7
:1015B0000000FA05F8B5044600260025207800F062
:1015C000010000286BD000274348C06900F080501C
:1015D00070B900BF4048C06940F080503E49C861C2
:1015E0000846C06900F08050009000BF00BF01278E
:1015F0003A48006800F48070B0B93848006840F498
:10160000807036490860FFF7F9FE064606E0FFF7EE
:10161000F5FE801B642801D90320F8BD2F4800681F
:1016200000F480700028F2D02B48006A00F4407566
:101630002DB3A08800F44070A84220D02648006A4C
:1016400020F44075012026490860002008602248E7
:10165000056205F0010090B1FFF7D0FE064608E0F4
:10166000FFF7CCFE801B41F28831884201D903206C
:10167000D3E71948006A00F002000028F0D01648AD
:10168000006A20F440706168084313490862012F22
:1016900004D10846C06920F08050C86100BF20789E
:1016A00000F00200022807D10B48406820F44040B7
:1016B000A168084308494860207800F0100010280D
:1016C00007D10548406820F48000E16808430249DA
:1016D00048600020A1E700000010024000700040B8
:1016E0004004424270B504460D460CB9012070BD5D
:1016F0005A48006800F00700A8420ED25748006818
:1017000020F007002843554908600846006800F0AB
:101710000700A84201D00120E9E7207800F002008C
:1017200002281DD1207800F00400042805D14C487F
:10173000406840F4E0604A494860207800F00800C2
:10174000082805D14648406840F460504449486044
:101750004348406820F0F000A168084340494860D1
:10176000207800F0010078B36068012806D13C4879
:10177000006800F4003090B90120B8E760680228E2
:1017800006D13748006800F0007040B90120AEE78C
:101790003348006800F0020008B90120A7E730488C
:1017A000406820F00300616808432D494860FFF756
:1017B00025FE064609E0FFF721FE801B41F2883135
:1017C000884202D9032092E707E02548406800F0EC
:1017D0000C006168B0EB810FEDD12048006800F08B
:1017E0000700A8420ED91D48006820F007002843D2
:1017F0001A4908600846006800F00700A84201D0B6
:10180000012074E7207800F00400042807D1144870
:10181000406820F4E060E16808431149486020789E
:1018200000F00800082808D10D48406820F46050F6
:10183000216940EAC1000A49486000F03FF80849C0
:101840004968C1F30311074A515CC8400649086062
:1018500006480068FFF7F8FD002048E70020024036
:10186000001002406C5E000868000020600000204C
:1018700001480068704700006800002000B5FFF7CD
:10188000F7FF04494968C1F30221034A515CC8408B
:1018900000BD0000001002407C5E000800B5FFF7AC
:1018A000E7FF04494968C1F3C221034A515CC840BB
:1018B00000BD0000001002407C5E0008F0B585B05D
:1018C0000FF26C0C9CE8E01001A8A0E8E0101CA549
:1018D0002D68009500210022002300240020194DCE
:1018E000696801F00C05F5B1042D02D0082D19D15D
:1018F00001E0154819E001ADC1F38346AC5D01F488
:10190000803555B10F4D6D68C5F340451DF8052074
:101910000D4D6543B5FBF2F302E00C4D04FB05F3FE
:10192000184602E000BF084800BF00BF05B0F0BD88
:1019300002030405060708090A0B0C0D0E0F101010
:10194000010200000010024000127A0000093D0070
:10195000F8B504460CB90120F8BD207800F001006C
:10196000002878D0F848406800F00C0004280CD01B
:10197000F548406800F00C00082811D1F248406892
:1019800000F48030B0F5803F0AD1EF48006800F4E1
:10199000003000285FD0606800285CD10120DBE7C0
:1019A00000BF6068B0F5803F06D1E748006840F4AA
:1019B0008030E549086028E0606858B9E24800686E
:1019C00020F48030E04908600846006820F4802058
:1019D00008601AE06068B0F5A02F0BD1DA48006803
:1019E00040F48020D84908600846006840F4803000
:1019F00008600AE0D448006820F48030D2490860CA
:101A00000846006820F48020086000BF606888B144
:101A1000FFF7F4FC054606E0FFF7F0FC401B6428E6
:101A200001D9032098E7C848006800F40030002876
:101A3000F2D010E0FFF7E2FC054606E0FFF7DEFC1F
:101A4000401B642801D9032086E7BF48006800F4E2
:101A500000300028F2D1207800F00200022857D18F
:101A6000B948406800F00C0050B1B748406800F039
:101A70000C00082818D1B448406800F4803098B9A8
:101A8000B148006800F0020020B12069012801D0AF
:101A9000012061E7AC48006820F0F800616940EA85
:101AA000C100A949086033E02069E8B10120A749D5
:101AB0000860FFF7A3FC054606E0FFF79FFC401B0C
:101AC000022801D9032047E79F48006800F0020080
:101AD0000028F2D09C48006820F0F800616940EAD4
:101AE000C1009949086013E0002098490860FFF799
:101AF00085FC054606E0FFF781FC401B022801D962
:101B0000032029E79048006800F002000028F2D185
:101B1000207800F0080008282DD1A069B8B1012074
:101B20008B490860FFF76AFC054606E0FFF766FC94
:101B3000401B022801D903200EE78348406A00F0C9
:101B400002000028F2D0012002F0CEFB13E00020BA
:101B50007F490860FFF752FC054606E0FFF74EFCA0
:101B6000401B022801D90320F6E67748406A00F0BE
:101B700002000028F2D1207800F00400042873D17C
:101B800000277148C06900F0805070B900BF6E48EE
:101B9000C06940F080506C49C8610846C06900F0D7
:101BA0008050009000BF00BF01276A48006800F421
:101BB0008070B0B96748006840F48070654908607B
:101BC000FFF71CFC054606E0FFF718FC401B6428E5
:101BD00001D90320C0E65F48006800F48070002847
:101BE000F2D000BFE068012806D15748006A40F0F3
:101BF00001005549086227E0E06858B95248006A78
:101C000020F00100504908620846006A20F00400F4
:101C1000086219E0E06805280BD14B48006A40F0E3
:101C20000400494908620846006A40F00100086261
:101C30000AE04548006A20F001004349086208466E
:101C4000006A20F00400086200BFE068A0B1FFF75E
:101C5000D5FB054609E0FFF7D1FB401B41F2883177
:101C6000884202D9032077E622E03748006A00F074
:101C700002000028EFD012E0FFF7C0FB054608E0A5
:101C8000FFF7BCFB401B41F28831884201D9032099
:101C900062E62D48006A00F002000028F0D1012F12
:101CA00005D12948C06920F080502749C86100BF8C
:101CB000E069C8B32448406800F00C00082860D0F0
:101CC000E069022848D1002020490866FFF796FB0A
:101CD000054606E0FFF792FB401B022801D90320CE
:101CE0003AE61948006800F000700028F2D1206A36
:101CF000B0F5803F07D11448406820F40030A16857
:101D0000084311494860D4E9080108430E4949686D
:101D100021F4741108430C49486001200B490866FE
:101D2000FFF76CFB054607E03DE0FFF767FB401B54
:101D3000022801D903200FE60348006800F0007074
:101D40000028F2D02FE000000010024000004242C4
:101D50008004424200700040002014490866FFF7EA
:101D60004DFB054606E0FFF749FB401B022801D961
:101D70000320F1E50E48006800F000700028F2D161
:101D800011E0E069012800D1E6E50948466806F45B
:101D90008031206A814204D106F47011606A814268
:101DA00001D00120D8E50020D6E500000000424225
:101DB0000010024070B504462546681EB0F1807FD1
:101DC00001D301200FE0681E4FF0E02148610F2190
:101DD0004FF0FF3003F076F900204FF0E0218861EA
:101DE00007200861002070BD7047704730B502467B
:101DF0000B4600BF92F83C00012801D1022030BD03
:101E0000012082F83C0000BF022082F83D001068EB
:101E100044681068816824F07004186804431068EE
:101E20004460104D1068A8420BD01068B0F1804F8C
:101E300007D00D4D1068A84203D00C4D1068A84281
:101E400005D121F0800158680143106881600120AC
:101E500082F83D0000BF002082F83C0000BF00BFB8
:101E6000CDE70000002C01400004004000080040C5
:101E700010B504460CB9012010BD94F83D0028B9F6
:101E8000002084F83C00204600F026F8022084F868
:101E90003D00211D206802F001FD012084F846006C
:101EA00000BF84F83E0001213F200155402001552C
:101EB0004120015500BF00BF012084F842004320AB
:101EC0000155442001554520015500BF012084F8EB
:101ED0003D000020D0E7000038B504461A492068CC
:101EE000884216D100BF1948806940F40060174944
:101EF00088610846806900F40060009000BF00BF60
:101F0000012200211920FFF703FB1920FFF7F0FA47
:101F100019E00F492068884215D100BF0B48C069FD
:101F200040F004000949C8610846C06900F0040097
:101F3000009000BF00BF012200211E20FFF7E8FA39
:101F40001E20FFF7D5FA38BD002C014000100240DA
:101F500000080040014691F83D00012801D0012011
:101F60007047022081F83D000868C06840F0010019
:101F70000B68D860124B086898420BD00868B0F123
:101F8000804F07D00F4B0868984203D00E4B08686B
:101F900098420CD10868806800F00702062A0CD02D
:101FA0000868006840F001000B68186005E00868E8
:101FB000006840F001000B6818600020D0E70000C6
:101FC000002C014000040040000800402DE9F041D1
:101FD00004460D4600BF94F83C00012802D10220BF
:101FE000BDE8F081012084F83C0000BF022084F8A5
:101FF0003D002068866826F0770626F47F46206834
:1020000086602868502833D00CDC202850D004DCAF
:1020100000284BD0102851D149E0302849D0402821
:102020004CD139E060282DD0702807D0B0F5805F02
:1020300003D0B0F5005F41D10DE040E0D5E90213D7
:102040006A68206802F075FC2068866846F07706AA
:102050002068866033E0D5E902136A68206802F0E0
:1020600068FC2068806840F480402168886026E031
:10207000EA686968206802F070FC5021206802F06C
:1020800063FC1CE0EA686968206802F0ADFC60212E
:10209000206802F059FC12E0EA686968206802F0E2
:1020A0005CFC4021206802F04FFC08E000BF00BF4C
:1020B00000BF2968206802F047FC00E000BF00BFB5
:1020C000012084F83D0000BF002084F83C0000BFE0
:1020D00000BF85E710B50446F548007809287CD292
:1020E000DFE800F07B05407CB7F6F4F3F2002068EF
:1020F000B0F1804F35D1EF480078012802D0022896
:102100002ED11DE00021EC4800F014FDEB490860E1
:1021100000BFE9480068006A20F00A00E649096843
:102120000862E5480068006A40F00200E249096878
:10213000086200BFDF480078401CDE4908700FE0ED
:102140000021DD4800F0F6FCDC4948600021DA4857
:1021500000F090FBD7480078401CD649087000BFBB
:1021600000BFA2E12068B0F1804F35D1D14840785E
:10217000012802D002282ED11DE00421CE4800F013
:10218000D9FCCE49C86000BFCB480068006A20F087
:10219000A000C94909680862C7480068006A40F0A1
:1021A0002000C5490968086200BFC2484078401C49
:1021B000C04948700FE00421BF4800F0BBFCBF4994
:1021C00008610421BC4800F055FBBA484078401C27
:1021D000B849487000BF00BF67E165E12068B0F111
:1021E000804F35D1B3488078012802D002282ED103
:1021F0001DE00821B04800F09DFCB049886100BF97
:10220000AD480068006A20F40070AB4909680862B4
:10221000A9480068006A40F40070A749096808628C
:1022200000BFA4488078401CA24988700FE00821B4
:10223000A14800F07FFCA149C86108219E4800F038
:1022400019FB9C488078401C9A49887000BF00BFE9
:102250002BE12068B0F1804F35D19648C078012835
:1022600002D002282ED11DE00C21934800F062FC20
:102270009249486200BF90480068006A20F400500C
:102280008D49096808628C480068006A40F4005073
:1022900089490968086200BF8648C078401C8549A2
:1022A000C8700FE00C21844800F044FC8349886228
:1022B0000C21814800F0DEFA7E48C078401C7D4940
:1022C000C87000BF00BFF0E0B3E077E03BE0FFE79D
:1022D0007B492068884235D176480079012802D0B0
:1022E00002282ED11DE00021764800F023FC73491E
:1022F000086300BF73480068006A20F00A00714953
:10230000096808626F480068006A40F002006D4981
:102310000968086200BF67480079401C6549087178
:102320000FE00021674800F005FC64494863002184
:10233000644800F09FFA5F480079401C5D490871CD
:1023400000BF00BFB1E05E492068884235D15948DE
:102350004079012802D002282ED11DE004215948DD
:1023600000F0E8FB5549C86300BF56480068006AA2
:1023700020F0A00053490968086252480068006ACA
:1023800040F020004F490968086200BF4948407981
:10239000401C484948710FE004214A4800F0CAFB3C
:1023A000464908640421474800F064FA41484079EE
:1023B000401C4049487100BF00BF76E0404920689A
:1023C000884235D13B488079012802D002282ED19D
:1023D0001DE008213B4800F0ADFB3849886400BF90
:1023E00038480068006A20F40070364909680862BD
:1023F00034480068006A40F4007032490968086295
:1024000000BF2C488079401C2A4988710FE00821C0
:102410002C4800F08FFB2949C8640821294800F0A6
:1024200029FA24488079401C2249887100BF00BFE6
:102430003BE023492068884235D11E48C0790128F5
:1024400002D002282ED11DE00C211E4800F072FBA4
:102450001A49486500BF1B480068006A20F4005014
:1024600018490968086217480068006A40F400507B
:1024700014490968086200BF0E48C079401C0D4924
:10248000C8710FE00C210F4800F054FB0B49886520
:102490000C210C4800F0EEF90648C079401C0549B3
:1024A000C87100BF00BF00E000BF00BF10BD00004A
:1024B0000D000020480000200004002080030020C0
:1024C00000040040480400202DE9F04104460D4678
:1024D000164600BF94F83C00012802D10220BDE856
:1024E000F081012084F83C0000BF96B9EB68D5E983
:1024F0000012206802F044FA2068806920F00C0085
:102500002168886120688069A9680843216888611A
:102510003DE0042E13D1EB68D5E90012206802F0EB
:1025200077FA2068806920F440602168886120681B
:102530008069A96840EA01202168886127E0082EA7
:1025400012D1EB68D5E90012206802F07EFA20680B
:10255000C06920F00C002168C8612068C069A968C2
:1025600008432168C86112E0EB68D5E900122068D1
:1025700002F087FA2068C06920F440602168C861D1
:102580002068C069A96840EA01202168C86100BFCD
:10259000002084F83C0000BF00BFA0E710B504464F
:1025A0000CB9012010BD94F83D0028B9002084F832
:1025B0003C00204600F026F8022084F83D00211D52
:1025C000206802F06BF9012084F8460000BF84F80F
:1025D0003E0001213F200155402001554120015579
:1025E00000BF00BF012084F8420043200155442071
:1025F00001554520015500BF012084F83D00002011
:10260000D0E7000010B586B0044600200290039089
:10261000049005902068B0F1804F2DD100BF3B4859
:10262000C06940F001003949C8610846C06900F03E
:102630000100019000BF00BF00BF0846806940F064
:10264000040088610846806900F00400019000BF22
:1026500000BF0F200290002003900120049002A9E7
:102660002B48FEF72DFD002211461C20FEF750FFDF
:102670001C20FEF73DFF47E026492068884243D1F1
:1026800000BF2248C06940F002002049C8610846E6
:10269000C06900F00200019000BF00BF00BF084603
:1026A000806940F0040088610846806900F00400F9
:1026B000019000BF00BF00BF0846806940F00800DD
:1026C00088610846806900F00800019000BF00BFE3
:1026D000C0200290002003900120049002A90C4821
:1026E000FEF7EEFC032002900020039001200490EE
:1026F00002A90948FEF7E4FC002211461D20FEF75E
:1027000007FF1D20FEF7F4FE06B010BD00100240CA
:102710000008014000040040000C01402DE9F04198
:1027200004460D4615B994F83E000BE0042D02D185
:102730003F20005D06E0082D02D14020005D01E051
:102740004120005D074615B994F842000BE0042DC6
:1027500002D14320005D06E0082D02D14420005D37
:1027600001E04520005D8046012F02D1B8F1010F44
:1027700002D00120BDE8F0811DB9022084F83E009E
:102780000EE0042D03D102213F20015508E0082D61
:1027900003D102214020015502E0022141200155D0
:1027A0001DB9022084F842000EE0042D03D102215D
:1027B0004320015508E0082D03D102214420015592
:1027C00002E002214520015535B1042D0BD0082D22
:1027D00010D00C2D1CD114E02068C06840F002001D
:1027E0002168C86015E02068C06840F004002168D6
:1027F000C8600EE02068C06840F008002168C8602A
:1028000007E02068C06840F010002168C86000E060
:1028100000BF00BF01222946206802F079F8124962
:10282000206888420BD02068B0F1804F07D00F4954
:102830002068884203D00E49206888420CD1206865
:10284000806800F00706062E0CD02068006840F073
:1028500001002168086005E02068006840F0010080
:1028600021680860002085E7002C0140000400403A
:102870000008004030B504460D4635B1042D0BD09C
:10288000082D10D00C2D1CD114E02068C06820F059
:1028900002002168C86015E02068C06820F00400CC
:1028A0002168C8600EE02068C06820F00800216838
:1028B000C86007E02068C06820F010002168C86088
:1028C00000E000BF00BF00222946206802F020F887
:1028D00000BF2068006A41F21111084050B9206819
:1028E000006A8910084028B92068006820F00100BB
:1028F0002168086000BF1DB9012084F83E000EE089
:10290000042D03D101213F20015508E0082D03D1FA
:1029100001214020015502E00121412001551DB94E
:10292000012084F842000EE0042D03D10121432050
:10293000015508E0082D03D101214420015502E092
:10294000012145200155002030BD10B50446206806
:102950000069C0F34000D8B12068C068C0F34000EF
:10296000B0B16FF002002168086101202077206873
:10297000806900F0030018B12046FFF7ABFB05E0CB
:10298000204600F0ADF8204600F0ABF8002020779C
:1029900020680069C0F38000D8B12068C068C0F327
:1029A0008000B0B16FF00400216808610220207738
:1029B0002068806900F4407018B12046FFF78AFB58
:1029C00005E0204600F08CF8204600F08AF8002050
:1029D000207720680069C0F3C000D8B12068C068C3
:1029E000C0F3C000B0B16FF0080021680861042096
:1029F00020772068C06900F0030018B12046FFF777
:102A000069FB05E0204600F06BF8204600F069F80D
:102A10000020207720680069C0F30010D8B120683A
:102A2000C068C0F30010B0B16FF0100021680861F9
:102A3000082020772068C06900F4407018B1204653
:102A4000FFF748FB05E0204600F04AF8204600F07A
:102A500048F8002020772068006900F0010058B194
:102A60002068C06800F0010030B16FF001002168FB
:102A70000861204600F036F820680069C0F3C010F5
:102A800058B12068C068C0F3C01030B16FF080004A
:102A9000216808612046FFF7A7F920680069C0F3A4
:102AA000801058B12068C068C0F3801030B16FF05A
:102AB000400021680861204600F055F82068006950
:102AC000C0F3401058B12068C068C0F3401030B166
:102AD0006FF02000216808612046FFF786F910BDDD
:102AE0007047704710B504460D492068884206D1EA
:102AF000FDF76AFD0B480088401C0A4908800A4916
:102B0000206888420BD109480088401C074908808A
:102B1000FDF7EAFB06480078401C0549087010BD27
:102B20000008004028000020002C01405000002038
:102B3000230000200246002031B1042907D00829D3
:102B400008D00C290CD108E01368586B09E0136811
:102B5000986B06E01368D86B03E01368186C00E00C
:102B600000BF00BF70477047704770B5044600252E
:102B700020684069C0F3C01594F83D0021280ED1AB
:102B80006DB12068406920F0800021684861606B69
:102B900010B1606BFEF7ACF8204602F0DCF820685C
:102BA0004069C0F3801594F83E0022280ED16DB123
:102BB0002068406920F0400021684861A06B10B196
:102BC000A06BFEF795F8204602F09AF8002070BD41
:102BD000704700002DE9F84F04462068056820681A
:102BE000C668206847694FF00009CA4605F00F091A
:102BF000B9F1000F0AD105F0200038B106F020002D
:102C000020B1204602F0B1F8BDE8F88FB9F1000F0D
:102C100071D007F0010018B906F4907000286AD04E
:102C200005F0010030B106F4807018B1206C40F05E
:102C30000100206405F0040030B107F0010018B174
:102C4000206C40F00200206405F0020030B107F073
:102C5000010018B1206C40F00400206405F0080069
:102C600048B106F0200010B907F0010018B1206C3F
:102C700040F008002064206C68B305F0200028B103
:102C800006F0200010B1204602F06FF8206840697D
:102C9000C0F3801A206C00F0080010B9BAF1000FE0
:102CA00022D0204602F02CF82068406900F0400055
:102CB000B0B12068406920F0400021684861A06BF5
:102CC00050B15648A16B4863A06BFEF73DF810B1B8
:102CD000A06B416B88470CE02046FFF779FF08E0C6
:102CE0002046FFF775FF04E02046FFF771FF002044
:102CF000206489E7FFE7206B012878D105F01000F8
:102D0000002874D006F01000002870D000BF00200A
:102D1000009020680068009020684068009000BF24
:102D200000BF2068406900F04000C0B3A06B00689D
:102D300040681FFA80F8B8F1000F2FD0A08D4045F1
:102D40002CDDA4F82E80A06B806920281FD020687D
:102D5000C06820F480702168C8602068406920F055
:102D60000100216848612068406920F04000216826
:102D70004861202084F83E00002020632068C0685D
:102D800020F010002168C860A06BFDF7B1FFA08D96
:102D9000E28D801A81B22046FFF7E6FE34E7FFE7B6
:102DA000A08DE18D401A1FFA80F8E08DE8B1B8F1EE
:102DB000000F1AD02068C06820F490702168C860A5
:102DC0002068406920F0010021684861202084F8D3
:102DD0003E00002020632068C06820F010002168B9
:102DE000C86041462046FFF7BFFE0DE7FFE705F04C
:102DF000800030B106F0800018B1204602F0F2F8F1
:102E000002E705F0400030B106F0400018B120465E
:102E100001F091FFF8E600BFF6E60000D14B000894
:102E200010B504460CB9012010BDA06900B100E046
:102E300000BF94F83D0028B9002084F83C002046EB
:102E400000F028F8242084F83D002068C06820F4B1
:102E500000502168C860204601F0FAFF2068006930
:102E600020F49040216808612068406920F02A0021
:102E7000216848612068C06840F400502168C8603B
:102E800000202064202084F83D0084F83E000020CB
:102E9000CAE7000010B586B00446002002900390F7
:102EA000049005903D492068884275D100BF3C4898
:102EB000806940F480403A4988610846806900F49E
:102EC0008040019000BF00BF00BF0846806940F00D
:102ED000080088610846806900F00800019000BF82
:102EE00000BF40200290022003900320059002A919
:102EF0002C48FEF7E5F88020029000200390049013
:102F000002A92848FEF7DCF800BF2749486840F0CE
:102F1000E06040F00400486000BF24482449086095
:102F2000002048600021224881608021C16000218A
:102F30000161416181614FF48051C161FEF72AF85E
:102F400008B1FDF7BAFA00BF1948A063446200BF98
:102F500016481438174908601020486000211548A9
:102F600081608021C16000210161416181614FF474
:102F70008051C161FEF70EF808B1FDF79EFA00BF5F
:102F80000C486063446200BF002211462520FEF712
:102F9000BFFA2520FEF7ACFA06B010BD003801409C
:102FA00000100240000C01400000014058000240A7
:102FB00064050020A805002070B504460D4616469D
:102FC00094F83E00202816D105B10EB9012070BD3D
:102FD00000BF94F83C00012801D10220F7E701204E
:102FE00084F83C0000BF002020633246294620467A
:102FF00001F0ACFFEBE70220E9E770477047000003
:10300000F7B50446154694F83D0020283DD10198B7
:1030100000B10DB90120FEBD00BF94F83C000128AD
:1030200001D10220F7E7012084F83C0000BF01989D
:103030002062A584E58400202064212084F83D00DE
:103040001348616B88621348616BC8621248616BF8
:1030500008630020616B486301AE23681A1D316864
:103060002B46606BFDF7CAFF6FF0400021680860D7
:1030700000BF002084F83C0000BF2068406940F099
:103080008000216848610020C5E70220C3E70000F6
:10309000BD4C0008F34C0008E54B00087047704732
:1030A00000BFFEE710B586B00446002002900390F2
:1030B0000490059000BF3748806940F0040035490E
:1030C00088610846806900F00400019000BF00BFDD
:1030D00000BF0846806940F00800886108468069A2
:1030E00000F00800019000BF00BF082C4DD2DFE8BF
:1030F00004F0040D161F28313A43012002900320EA
:10310000039002A92448FDF7DBFF3FE00220029074
:103110000320039002A92048FDF7D2FF36E00420E7
:1031200002900320039002A91B48FDF7C9FF2DE080
:10313000082002900320039002A91748FDF7C0FF62
:1031400024E0402002900320039002A91248FDF7DA
:10315000B7FF1BE0802002900320039002A90E48D5
:10316000FDF7AEFF12E0012002900320039002A9B8
:103170000A48FDF7A5FF09E0022002900320039012
:1031800002A90648FDF79CFF00E000BF00BF06B0A3
:1031900010BD00000010024000080140000C01407A
:1031A00010B586B00446002002900390049005906C
:1031B00000BF5A48806940F00400584988610846B9
:1031C000806900F00400019000BF00BF00BF084606
:1031D000806940F0080088610846806900F00800B6
:1031E000019000BF00BF082C70D2DFE804F0041586
:1031F00027394B5D7081002201214948FEF7F8F81C
:10320000012002900390002004900220059002A962
:103210004348FDF755FF7EE0002202214048FEF7BB
:10322000E7F8022002900120039000200490022081
:10323000059002A93A48FDF743FF6CE00022042103
:103240003748FEF7D5F804200290012003900020B3
:1032500004900220059002A93148FDF731FF5AE0A1
:10326000002208212E48FEF7C3F808200290012012
:103270000390002004900220059002A92848FDF741
:103280001FFF48E0002240212548FEF7B1F840200A
:10329000029001200390002004900220059002A9D2
:1032A0001F48FDF70DFF36E0002280211C48FEF785
:1032B0009FF88020029001200390002004900220BB
:1032C000059002A91648FDF7FBFE24E022E000224B
:1032D00001211448FEF78CF8012002900390002091
:1032E00004900220059002A90E48FDF7E9FE12E0C5
:1032F000002202210B48FEF77BF8022002900120F9
:103300000390002004900220059002A90548FDF7D3
:10331000D7FE00E000BF00BF06B010BD00100240A5
:1033200000080140000C014010B586B004460020A2
:10333000029003900490059000BF3F48806940F0E0
:1033400004003D4988610846806900F0040001904E
:1033500000BF00BF00BF0846806940F008008861D8
:103360000846806900F00800019000BF00BF082CEB
:103370005DD2DFE804F0040F1A25303B46510120EE
:103380000290002003900120049002A92B48FDF731
:1033900097FE4DE00220029000200390012004904F
:1033A00002A92648FDF78CFE42E00420029000208E
:1033B00003900120049002A92048FDF781FE37E028
:1033C00008200290002003900120049002A91B48CD
:1033D000FDF776FE2CE040200290002003900120B3
:1033E000049002A91548FDF76BFE21E080200290B1
:1033F000002003900120049002A91048FDF760FE10
:1034000016E001200290002003900120049002A900
:103410000B48FDF755FE0BE00220029000200390C0
:103420000120049002A90648FDF74AFE00E000BF13
:1034300000BF06B010BD00000010024000080140AF
:10344000000C0140002029E2FE4931F81010192932
:1034500003DA1F21FC4A11541EE2FA4931F8101018
:103460001A2908DBF74931F810107D2903DA2121E8
:10347000F54A115410E2F34931F810107D2908DBA8
:10348000F04931F81010DC2903DA2221EE4A1154F8
:1034900002E2EC4931F81010DC2909DBE94931F886
:1034A0001010B1F5967F03DA2321E74A1154F3E1B6
:1034B000E44931F81010B1F5967F09DBE14931F8A4
:1034C0001010B1F5DE7F03DC2421DF4A1154E3E163
:1034D000DC4931F8101040F2BD12914209DBD949A4
:1034E00031F81010B1F5087F03DC2021D64A1154C1
:1034F000D2E1D44931F8101040F22122914209DB87
:10350000D04931F81010B1F5207F03DA1821CE4AE6
:103510001154C1E1CB4931F81010B1F5207F0ADB1D
:10352000C84931F8101040F2DA22914203DA13212F
:10353000C54A1154B0E1C34931F8101040F2DA2203
:1035400091420ADBBF4931F8101040F252329142E9
:1035500003DA1121BC4A11549EE1BA4931F8101026
:1035600040F2523291420ADBB64931F8101040F273
:10357000F232914203DA1021B34A11548CE1B1497D
:1035800031F8101040F2F23291420ADBAD4931F8C5
:10359000101040F24C42914203DA1521AA4A11540C
:1035A0007AE1A84931F8101040F24C4291420ADB0E
:1035B000A44931F8101040F2A642914203DA1421D6
:1035C000A14A115468E19F4931F8101040F2A64217
:1035D00091420ADB9B4931F8101040F2FB429142C4
:1035E00003DA1221984A115456E1964931F8101025
:1035F00040F2FB42914209DB924931F81010B1F5DB
:10360000AA6F03DA1621904A115445E18D4931F829
:103610001010B1F5AA6F0ADB8A4931F8101040F298
:10362000C352914203DA1721874A115434E1854984
:1036300031F8101040F2C35291420ADB814931F84F
:10364000101040F22762914203DA03217E4A11549E
:1036500022E17C4931F8101040F2276291420ADBE6
:10366000784931F8101040F27762914203DA042170
:10367000754A115410E1734931F8101040F2776225
:10368000914209DB6F4931F81010B1F5DA6F03DCB4
:1036900005216D4A1154FFE06A4931F8101040F2DB
:1036A000D16291420ADB674931F8101040F26C7226
:1036B000914203DA0121644A1154EDE0614931F885
:1036C000101040F26C7291420ADB5E4931F8101022
:1036D00040F2DA72914203DA02215B4A1154DBE0D4
:1036E000584931F8101040F2DA7291420ADB55491C
:1036F00031F8101040F63402914203DA0C21524A9C
:103700001154C9E04F4931F8101040F6340291428B
:103710000ADB4C4931F8101040F69802914203DA66
:103720000D21494A1154B7E0464931F8101040F6CE
:10373000980291420ADB434931F8101040F6FC022E
:10374000914203DA0F21404A1154A5E03D4931F876
:10375000101040F6FC02914209DB3A4931F8101092
:10376000B1F5166F03DA0E21374A115494E035494A
:1037700031F81010B1F5166F0ADB324931F810102C
:1037800040F6BA12914203DA0B212F4A115483E01A
:103790002C4931F8101040F6BA1291420ADB29493F
:1037A00031F8101040F61422914203DA0621264A1D
:1037B000115471E0234931F8101040F6142291425F
:1037C0000ADB204931F8101040F67322914203DAE7
:1037D00007211D4A11545FE01A4931F8101040F6D4
:1037E000732291420ADB174931F8101040F6E622A5
:1037F000914203DA0821144A11544DE0114931F87D
:10380000101040F6E62291420ADB0E4931F8101002
:1038100040F68632914203DA09210B4A11543BE00B
:10382000084931F8101040F6863291420EDB054906
:1038300031F81010B1F5436F08DA0A21024A115429
:103840002AE000006C00002005000020154931F836
:103850001010B1F5436F0ADB124931F8101040F631
:10386000DF42914203DA19210F4A115414E00D4945
:1038700031F8101040F6E44291420ADD094931F86E
:10388000101040F66652914203DA6321064A115441
:1038900002E00021044A1154411CC8B20828FFF676
:1038A000D3AD70476C0000200500002010B5114812
:1038B000007898B14FF480710F48FDF791FD68B919
:1038C0001420FDF7E9FB4FF480710B48FDF788FDEC
:1038D00068B9002007490870012010BD4FF48071BD
:1038E0000548FDF77DFD012801D10249087000203F
:1038F000F3E70000110000200008014070B5044605
:103900000D46134800880A280EDD00201049088063
:1039100010480078401E0F49087008460078FA28C1
:1039200015DD0020087012E009480088052803DA38
:103930002046FCF707FE0AE005480088052806DB5C
:10394000034800880A2802DC2046FCF7B9FD70BD58
:10395000500000200400002010B504462348005DFC
:10396000142842D12149601C085C1F280FD0601C1C
:10397000085C20280BD0601C085C212807D0601C44
:10398000085C222803D0601C085C23282AD1002070
:10399000174908801BE011201649087002F0C8F88A
:1039A00000212046FFF7AAFF134904F1090031F86E
:1039B0001000B0F5006F0ADA04F1090031F81000C8
:1039C000B0F5006F03DA2046FCF77AFD03E0FFF75D
:1039D0006DFF0128DFD100BF2046FCF771FD3220CA
:1039E000FDF75AFB2046FCF76BFD10BD05000020DB
:1039F00050000020240000206C0000200EB50020A4
:103A000000900190029065486549086081156448FE
:103A1000816001210173002101754FF46021C161B2
:103A200000205F49486010215D480161FCF770FF8C
:103A300008B1FCF742FD042000900120019007200E
:103A4000029069465648FCF71FFE08B1FCF735FDA9
:103A5000052000900220019069465148FCF714FEB1
:103A600008B1FCF72AFD0A20009003200190694666
:103A70004B48FCF709FE08B1FCF71FFD0B20009036
:103A80000420019069464648FCF7FEFD08B1FCF7AA
:103A900014FD0C2000900520019069464048FCF779
:103AA000F3FD08B1FCF709FD0D2000900620019000
:103AB00069463B48FCF7E8FD08B1FCF7FEFC0E2028
:103AC00000900720019069463548FCF7DDFD08B1FC
:103AD000FCF7F3FC0F200090082001906946304865
:103AE000FCF7D2FD08B1FCF7E8FC002000900920AB
:103AF000019069462A48FCF7C7FD08B1FCF7DDFCD8
:103B0000012000900A20019069462548FCF7BCFD81
:103B100008B1FCF7D2FC022000900B20019069460E
:103B20001F48FCF7B1FD08B1FCF7C7FC032000906B
:103B30000C20019069461A48FCF7A6FD08B1FCF775
:103B4000BCFC062000900D20019069461448FCF74B
:103B50009BFD08B1FCF7B1FC072000900E200190FE
:103B600069460F48FCF790FD08B1FCF7A6FC082059
:103B700000900F20019069460948FCF785FD08B1C7
:103B8000FCF79BFC09200090102001906946044836
:103B9000FCF77AFD08B1FCF790FC0EBD0024014053
:103BA0000C03002008B500BF1248406940F0010036
:103BB000104948610846406900F00100009000BFCC
:103BC00000BF002211460B20FDF7A2FC0B20FDF7E1
:103BD0008FFC002211460E20FDF79AFC0E20FDF707
:103BE00087FC002211460F20FDF792FC0F20FDF705
:103BF0007FFC08BD0010024000B585B00020019098
:103C000002900390049000BF3448806940F0200087
:103C1000324988610846806900F02000009000BFAA
:103C200000BF00BF0846806940F010008861084668
:103C3000806900F01000009000BF00BF00BF084680
:103C4000806940F0040088610846806900F0040043
:103C5000009000BF00BF00BF0846806940F0080028
:103C600088610846806900F00800009000BF00BF2E
:103C7000002209151A48FDF7BBFB4FF400500190D4
:103C8000002002900220039001A91548FDF718FAC0
:103C90004FF480700190002002900120039001A950
:103CA0001048FDF70DFA4FF480600190012002905A
:103CB000002003900220049001A90948FDF700FAB2
:103CC0004FF400600190002002900120039001A9B0
:103CD0000348FDF7F5F905B000BD000000100240F3
:103CE000001001400008014000B587B0002003909B
:103CF00004900590069001900290164816490860BD
:103D000041F61F40486000211348816040F2E731CE
:103D1000C16000210161416180218161FEF7A8F845
:103D200008B1FCF7CAFB4FF48050039003A90A487E
:103D3000FEF74CF908B1FCF7C0FB0020019002909F
:103D400001A90548FEF752F808B1FCF7B6FB07B029
:103D500000BD0000002C01409004002000B587B099
:103D600000200590069001900290039004904FF07F
:103D70008040224908604720486000211F48816038
:103D80004FF6FF71C160002101618161FEF706FC01
:103D900008B1FCF792FB00200590069005A9174892
:103DA000FEF724F808B1FCF788FB00200190012001
:103DB0000290002003900490002201A90F48FEF712
:103DC00083FB08B1FCF779FB042201A90B48FEF73D
:103DD0007BFB08B1FCF771FB082201A90748FEF73D
:103DE00073FB08B1FCF769FB0C2201A90348FEF73D
:103DF0006BFB08B1FCF761FB07B000BD00040020BD
:103E000000B587B0002005900690019002900390C5
:103E10000490234823490860472048600021214836
:103E200081604FF6FF71C160002101618161FEF781
:103E3000B5FB08B1FCF741FB00200590069005A9F1
:103E40001848FDF7D3FF08B1FCF737FB00200190BD
:103E500001200290002003900490002201A9114843
:103E6000FEF732FB08B1FCF728FB042201A90D483C
:103E7000FEF72AFB08B1FCF720FB082201A909483C
:103E8000FEF722FB08B1FCF718FB0C2201A905483C
:103E9000FEF71AFB08B1FCF710FB07B000BD0000ED
:103EA000000400404804002000B587B000200390C3
:103EB00004900590069001900290154815490860FD
:103EC00041F61F40486000211248816040F2F31122
:103ED000C1600021016180218161FDF7C9FF08B146
:103EE000FCF7EBFA4FF48050039003A90948FEF762
:103EF0006DF808B1FCF7E1FA00200190029001A9E9
:103F00000448FDF773FF08B1FCF7D7FA07B000BD0E
:103F100000080040D804002010B50B480B49086089
:103F20004FF416504860002108488160C16001616B
:103F30000C21416100218161C161FEF771FF08B16F
:103F4000FCF7BBFA10BD000000380140200500203E
:103F500000BFFEE710B5002424E01448005D1E28D1
:103F600003DD1248005D632803D12046FFF718F9EE
:103F700016E00E48005D1F2807DB0C48005D232873
:103F800003DC2046FFF78EF80AE00848005D24288D
:103F900003D12046FFF7C8F902E02046FFF700F9F9
:103FA000601CC4B2082CD8DB10BD00000500002046
:103FB00000BFFEE77047000010B50020C049087040
:103FC000C049087000BF04E00921BF4A1154411CD8
:103FD000C8B20828F8DB002004E00021BB4A1154D5
:103FE000411CC8B20828F8DBFA20B9490870084615
:103FF00000F0E6F90A20FDF74FF8FFF723FA00205A
:10400000C6E0B249095C09B1B2490870B249097801
:10401000FA297DD1B0494978202924D0AE49897840
:10402000202920D0AC49C97820291CD0AA49097977
:10403000202918D0A549095C01290FD0A349095CA2
:1040400002290BD0A149095C032907D09F49095CCB
:10405000042903D09D49095C052904D10121994A0D
:104060001170994908549C494978212918D09A49D6
:104070008978212914D09849C978212910D09649E6
:10408000097921290CD09149095C072903D08F496E
:10409000095C082904D101218A4A11708A4908540F
:1040A0008D494978222928D08B498978222924D022
:1040B0008949C978222920D08749097922291CD029
:1040C0008249095C062913D08049095C0B290FD06D
:1040D0007E49095C0C290BD07C49095C0D2907D06D
:1040E0007A49095C0E2903D07849095C0F2904D16B
:1040F0000121744A11707449085477494978232979
:104100001AD075498978232916D07349C97800E0F7
:1041100012E0232910D07049097923290CD06B496A
:10412000095C092903D06949095C0A2904D10121E4
:10413000644A1170644908546449095C122907D023
:104140006249095C142903D06049095C16291DD114
:104150005E4A411C515C1F2918D0411C515C20292A
:1041600014D0411C515C212910D0411C515C2229E2
:104170000CD0411C515C232908D0411C515C2429DE
:1041800004D001214F4A11704F490854411CC8B254
:104190000828FFF636AF00200AE04C49095C29B92F
:1041A0000121474A11704D49087005E0411CC8B211
:1041B000484909788842F0DB00BF49480078032865
:1041C0000FDB3F480078012803D03E4800780128E3
:1041D00004D144480078401C4249087000204049FE
:1041E00008703748007801282CD13E49087800EB48
:1041F000D0714910A0EB410199B900240CE0374877
:104200000078A04203D12046FCF79CF902E020464A
:10421000FCF756F9601CC4B22E4800788442EEDDEB
:1042200008E0002404E02046FCF78CF9601CC4B2CE
:10423000072CF8DD2B480078FE2840DD00202949B6
:1042400008703CE01F48007801282DD100241FE0B1
:104250001D48005DA0420FD12249087800EBD071C3
:104260004910A0EB410119B92046FCF729F906E0F5
:104270002046FCF767F902E02046FCF721F91948CF
:104280000078FE2802DD002016490870601CC4B2C8
:10429000104800788442DBDD12480078FE280EDDED
:1042A0000020104908700AE0002404E02046FCF7D2
:1042B00007F9601CC4B2074800788442F6DD10BDDF
:1042C00013000020140000201B0000200500002027
:1042D00024000020120000205200002016000020C0
:1042E000230000201500002008B508490968C90806
:1042F0004FF47A72B1FBF2F14143009100BF00BF6D
:1043000000994A1E00920029F9D108BD68000020DA
:1043100010B504462548005D122846D12349601C8B
:10432000085C1F280FD0601C085C20280BD0601C84
:10433000085C212807D0601C085C222803D0601C80
:10434000085C23282ED10020194908801FE0122084
:104350001849087001F0ECFB00212046FFF7CEFA67
:10436000154904F1090031F81000B0F5006F0EDABC
:104370000A20FCF791FE104904F1090031F8100001
:10438000B0F5006F03DA2046FCF79AF803E0FFF778
:104390008DFA0128DBD100BF2046FCF791F83220CE
:1043A000FCF77AFE2046FCF78BF810BD05000020D4
:1043B00050000020240000206C0000207047000006
:1043C00010B50446012221460148FEF719FE10BD32
:1043D0002005002070B5002420E005252946204650
:1043E00000F094FE204600F049F8204600F02EF937
:1043F000204600F065FB204601F0A8FB2046FFF7B1
:1044000087FF2046FFF7A8FA2946204601F0F0FB77
:104410002946204600F0FEFF601CC4B2082CDCDBFD
:104420003720144908700846FFF7CAFF6420FCF7DC
:1044300033FE1048FFF7C4FF6420FCF72DFE0D4843
:10444000FFF7BEFF6420FCF727FE0A48FFF7B8FF1E
:1044500000200849087008490870002407E0204639
:10446000FEF79EFE2046FCF72BF8601CC4B2082C19
:10447000F5DB70BD240000202500002010B50446A7
:104480006D48005D092872D16B49601C085C2028CA
:104490006ED100206949088091E000212046FFF795
:1044A0002DFA674904F1090031F81000B0F5167FC4
:1044B00005DA2A206349087001F03AFB7FE0604981
:1044C00004F1090031F81000B0F5167F0CDB04F19F
:1044D000090031F81000B0F5966F05DA2920594926
:1044E000087001F025FB6AE0554904F1090031F834
:1044F0001000B0F5966F0CDB04F1090031F81000E4
:10450000B0F5E16F05DA28204E49087001F010FB84
:1045100055E04B4904F1090031F81000B0F5E16FA6
:104520000DDB04F1090031F8100040F6FC0188426F
:1045300005DA23204349087001F0FAFA3FE04049C8
:1045400004F1090031F8100040F6FC01884210DB4C
:104550003B4904F1090031F8100040F6543188421B
:1045600007DA2B203749087001F0E2FA27E062E011
:1045700037E0334904F1090031F8100040F65431B6
:1045800088420EDB2E4904F1090031F8100040F694
:10459000AC51884205DA2C202A49087001F0C8FA8B
:1045A0000DE0274904F1090031F8100040F6AC5144
:1045B000884204DB2D202349087001F0B9FAFFF787
:1045C00075F901287FF469AF03201F490870204660
:1045D000FBF776FF2046FBF773FF2046FBF770FFE3
:1045E00023E000201549088022201649087001F0B8
:1045F0009FFA0FE0144801782046FFF77FF9FFF794
:1046000055F9012806D103200F4908702046FBF711
:1046100057FF03E00C4800780028EBD100BF0320CF
:10462000094908702046FBF74BFF03200649087034
:10463000C820FCF731FD10BD05000020500000200F
:104640006C000020240000200400002010B5044667
:104650005948005D202873D15749601C085C182810
:10466000F9D100205549088091E0611CC8B20021B1
:10467000FFF744F9524904F1080031F81000B0F591
:10468000167F05DA30204F49087001F051FA7EE0BC
:104690004B4904F1080031F81000B0F5167F0CDB2F
:1046A00004F1080031F81000B0F5966F05DA2F20FC
:1046B0004449087001F03CFA69E0414904F10800FE
:1046C00031F81000B0F5966F0CDB04F1080031F8FA
:1046D0001000B0F5E16F05DA2E203A49087001F0BC
:1046E00027FA54E0364904F1080031F81000B0F51B
:1046F000E16F0DDB04F1080031F8100040F6FC0119
:10470000884205DA14202F49087001F011FA3EE0C2
:104710002B4904F1080031F8100040F6FC018842F2
:104720000FDB274904F1080031F8100040F654313E
:10473000884206DA31202349087001F0F9F926E0B1
:1047400039E01F4904F1080031F8100040F65431F7
:1047500088420EDB1A4904F1080031F8100040F6D7
:10476000AC51884205DA32201649087001F0E0F9B0
:104770000DE0134904F1080031F8100040F6AC5187
:10478000884204DB33200F49087001F0D1F9FFF7AC
:104790008DF801287FF469AF03200B490870611C74
:1047A000C8B2FBF78DFE611CC8B2FBF789FE611C25
:1047B000C8B2FBF785FE10BD0500002050000020A8
:1047C0006C000020240000200400002010B5FCF73D
:1047D0001BFE10BD00B593B0282109A8FBF7A9FC6A
:1047E000142104A8FBF7A5FC002000900190029082
:1047F00003900120099000040A9000200B900120F2
:104800000D9002201090C10311914FF4E01112910C
:1048100009A8FDF79DF808B1FBF74FFE0F200490A3
:1048200002200590002006904FF480600790002041
:104830000890022104A8FCF755FF08B1FBF73DFEE4
:10484000022000904FF4404002906846FCF7B2FE10
:1048500008B1FBF732FE13B000BD704710B5024837
:10486000FEF773F810BD00009004002010B5024858
:10487000FEF76BF810BD00000004002010B50248E0
:10488000FEF763F810BD00004804002010B5024890
:10489000FEF75BF810BD0000D804002010B50268D8
:1048A000184B984208D0B0F1804F05D0164B984273
:1048B00002D0164B984203D122F070024B681A4383
:1048C000104B984208D0B0F1804F05D00E4B984263
:1048D00002D00E4B984203D122F44072CB681A43A7
:1048E00022F080034C6943EA040202608B68C362D1
:1048F0000B688362034B984201D10B690363012368
:10490000436110BD002C014000040040000800403D
:1049100030B501F01F05012404FA05F3046A9C4335
:104920000462046A01F01F0502FA05F52C430462D3
:1049300030BD30B50C46816821F47F4142EA032541
:1049400025432943816030BD0A46816821F070010A
:1049500042F0070319438160704730B50B46144697
:10496000026A056A25F001050562816921F0F001FE
:1049700041EA041122F00A021A438161026230BD49
:1049800070B50C461546066A26F001060662816976
:10499000026A124EB04208D0B0F1804F05D0104EDE
:1049A000B04202D00F4EB04201D1012600E00026F5
:1049B0001EB121F00301294301E041F0010121F082
:1049C000F001F02606EA0316314322F00A0204F051
:1049D0000A0632438161026270BD0000002C014072
:1049E000000400400008004030B50B461446056A3C
:1049F00025F0100505628169026A21F4704141EADF
:104A0000043122F0A00242EA03128161026230BD49
:104A100070B50C461546066A26F0100606628169D6
:104A2000026A21F4407141EA052121F470414FF4FA
:104A3000704606EA0336314322F0A002A02606EAB9
:104A4000041632438161026270BD70B50C46154692
:104A5000066A26F480760662C169026A21F00301C3
:104A6000294321F0F001F02606EA0316314322F42F
:104A700000724FF4007606EA04263243C1610262F6
:104A800070BD70B50C461546066A26F4805606625F
:104A9000C169026A21F4407141EA052121F47041A3
:104AA0004FF4704606EA0336314322F400524FF4C5
:104AB000005606EA04363243C161026270BD00004E
:104AC00010B504463C48005D24280BD03B4830F824
:104AD0001400B0F58C7F6EDB384830F81400B0F568
:104AE000D27F68DA3449601C085C182863D1002042
:104AF000334908804FE0314904F1080031F81000D3
:104B000040F6FA71884203DD00202E4941F8240066
:104B1000611CC8B20021FEF7F1FE601C2A49087032
:104B2000FBF786FD274850F82400B0F5167F05D125
:104B300011202649087000F0FBFF2CE0214850F8B6
:104B40002400B0F52F7F05D112202049087000F015
:104B5000EFFF20E01B4850F82400B0F5487F05D156
:104B600013201A49087000F0E3FF14E0154850F8CC
:104B70002400B0F5617F05D125201449087000F0AC
:104B8000D7FF08E00F4850F8240020B914200F493F
:104B9000087000F0CDFFFEF789FE0128ABD1611C43
:104BA000C8B2FBF78DFC611CC8B2FBF789FC611C25
:104BB000C8B2FBF785FC10BD050000206C0000208A
:104BC00050000020E00300200D0000202400002001
:104BD00070B505466C6A0020E085E0842046FDF74C
:104BE000F7FF70BD70B506460025746A20684069FD
:104BF000C0F3C01594F83D00212805D125B100204F
:104C0000E084204600F0A7F820684069C0F38015D2
:104C100094F83E00222805D125B10020E0852046E9
:104C200000F06EF8206C40F0100020642046FDF784
:104C3000CFFF70BD70B505466C6A2868006800F04B
:104C40002000F8B90020E0852068C06820F480705A
:104C50002168C8602068406920F00100216848612F
:104C60002068406920F0400021684861202084F8D5
:104C70003E00206B012805D12068C06820F010009C
:104C80002168C860206B012804D1A18D2046FDF762
:104C90006BFF02E02046FEF7B0F970BD70B5054627
:104CA0006C6A206B012805D1A08D41082046FDF7D4
:104CB0005BFF02E02046FEF7A1F970BD70B5054626
:104CC0006C6A2868006800F0200070B90020E08459
:104CD0002068406920F08000216848612068C06831
:104CE00040F040002168C86002E02046FEF7D6F997
:104CF00070BD70B50446656A2846FEF7D0F970BDF0
:104D00000168C96821F490710268D160016849693D
:104D100021F0010102685161016B012905D101688F
:104D2000C96821F010010268D160202180F83E108E
:104D300000210163704710B504462068C06820F068
:104D400040002168C860202084F83D002046FEF71E
:104D5000A5F9002010BD0168C96821F0C0010268F2
:104D6000D160202180F83D107047F8B5044694F8D2
:104D70003E00222869D1A068B0F5805F0CD120697F
:104D800050B90025A66A20684068C0F3080030804A
:104D9000A06A801CA06215E0A56A0026A068B0F594
:104DA000805F03D0A06828B9206918B920684068DE
:104DB000287004E02068406800F07F002870A06A36
:104DC000401CA062E08D401E80B2E085A8BB206838
:104DD000C06820F020002168C8602068C06820F406
:104DE00080702168C8602068406920F00100216857
:104DF0004861202084F83E00206B01281ED100204D
:104E000020632068C06820F010002168C860206816
:104E1000006800F0100010280AD100BF00200090A8
:104E200020680068009020684068009000BF00BFC4
:104E3000A18D2046FDF798FE03E004E02046FEF732
:104E4000DCF80020F8BD0020FCE70220FAE70000B3
:104E500070B504462168096921F44051E2681143A4
:104E6000226811612269A1681143626941EA020561
:104E70002168C96841F20C62914329432268D160DC
:104E80002168496921F44071A26911432268516186
:104E90002D4A2168914202D1FCF700FD01E0FCF7A8
:104EA000EDFC00EBC00101EB001162689200B1FB68
:104EB000F2F100EBC00202EB001263689B00B2FB50
:104EC000F3F26423B2FBF3F202EBC20303EB021230
:104ED000A1EB8201322202EB01116422B1FBF2F15B
:104EE00001F0F00100EBC00202EB001263689B00CE
:104EF000B2FBF3F26423B2FBF3F201EB021200EB1C
:104F0000C00101EB001163689B00B1FBF3F100EB02
:104F1000C00303EB00136668B600B3FBF6F3642628
:104F2000B3FBF6F303EBC30606EB0313A1EB83011C
:104F3000322303EB01116423B1FBF3F101F00F0104
:104F400011442268916070BD0038014077B581B08E
:104F5000044615460298A062A58500202064222000
:104F600084F83E001C48A16B88621C48A16BC86293
:104F70001B48A16B08630020A16B486302AE326836
:104F80002368191D2B46A06BFCF738F800BF0020E2
:104F9000009020680068009020684068009000BF82
:104FA00000BF00BF002084F83C0000BF2068C0683C
:104FB00040F480702168C8602068406940F00100BA
:104FC000216848612068406940F0400021684861DC
:104FD000002004B070BD0000354C00089D4C000856
:104FE000E54B0008014691F83D00212828D188684A
:104FF000B0F5805F0BD1086948B90A6A1088C0F320
:1050000008000B685860086A801C086205E00B6A9B
:10501000581C086218780B685860C88C401E80B213
:10502000C88458B90868C06820F080000B68D86050
:105030000868C06840F040000B68D86000207047E6
:105040000220FCE738B51548FDF7C4FD1348006899
:105050000068C0F3001505B301201149087000BFB6
:10506000002000900D480068006800900B48006820
:105070004068009000BF00BF0848FDF776FD094872
:1050800000684068C4B2C4F10700074908700722ED
:1050900006490248FDF790FF00BF38BD20050020FB
:1050A0005A00002064050020590000205200002012
:1050B00000BFFEE702480068C0F30220704700000E
:1050C0000CED00E010B5002804DB0A07130E054ABA
:1050D000135406E00A07140E034A00F00F031B1FC7
:1050E000D45410BD00E400E018ED00E002E008C870
:1050F000121F08C1002AFAD170477047002001E052
:1051000001C1121F002AFBD17047000070B5044690
:105110000D466E48005D012827D100206C490880AB
:1051200018206C49087000F003FD07206A490870D8
:105130000FE0694801782046FEF7E0FBFEF7B6FB7A
:10514000012806D10320644908702046FBF7B8F90E
:1051500003E0614800780028EBD100BF03205E49DE
:1051600008702046FBF7ACF9AEE05848005D022815
:1051700027D100205649088019205649087000F0B0
:10518000D7FC0720544908700FE0534801782046A7
:10519000FEF7B4FBFEF78AFB012806D103204E4937
:1051A00008702046FBF78CF903E04B480078002894
:1051B000EBD100BF0320484908702046FBF780F977
:1051C00082E04248005D032827D100204049088042
:1051D00015204049087000F0ABFC07203E490870DC
:1051E0000FE03D4801782046FEF788FBFEF75EFBA6
:1051F000012806D10320384908702046FBF760F9E2
:1052000003E0354800780028EBD100BF0320324985
:1052100008702046FBF754F956E02C48005D04283E
:1052200027D100202A49088016202A49087000F05A
:105230007FFC0720284908700FE0274801782046A6
:10524000FEF75CFBFEF732FB012806D10320224962
:1052500008702046FBF734F903E01F480078002867
:10526000EBD100BF03201C4908702046FBF728F94A
:105270002AE01648005D052826D100201449088040
:1052800017201449087000F053FC072012490870D9
:105290000FE0114801782046FEF730FBFEF706FBD1
:1052A000012806D103200C4908702046FBF708F9B5
:1052B00003E0094800780028EBD100BF032006492D
:1052C00008702046FBF7FCF870BD000005000020C8
:1052D000500000202400002004000020FCF7A0F86B
:1052E000FFF778FAFEF788FCFEF75CFCFEF786FB1A
:1052F000FEF7DAFDFEF710FEFEF7F6FC4FF4A072A3
:105300003A493B48FBF734FCFEF728FDFEF778FDF1
:105310003848FCF71FFE3848FCF71CFE3748006889
:10532000C06840F0100035490968C8600722344958
:105330003248FDF741FEC820FBF7AEFEFEF782F8CB
:10534000FEF708FE50E04FF400512E48FCF748F8F5
:10535000012818D11420FBF79FFE4FF40051294873
:10536000FCF73EF8012811D1002281022548FCF704
:105370003FF80A20244908700846FFF721F8012069
:105380002249087002E00020204908701F48007878
:1053900050BBFEF711FE1E48007828BBFEF786FAC8
:1053A000012821D12120184908700846FFF708F884
:1053B0001420FBF771FE1448FFF702F81420FBF7E6
:1053C0006BFEFEF73FF8FEF7C5FD002404E0204623
:1053D000FBF7B8F8601CC4B2082CF8DB4FF49670E9
:1053E000FBF75AFEFEF7F6FFADE700008C00002049
:1053F0000C030020D8040020900400202005002089
:10540000520000200010014024000020470000202E
:105410001300002070B504460D46E948005D0A28D7
:1054200027D10020E74908800320E749087014E0ED
:105430002320E649087000F07BFBE3480178204612
:10544000FEF75CFAFEF732FA012806D10320DE49A6
:1054500008702046FBF734F803E0DB4800780028AA
:10546000E6D100BF0320D84908702046FBF728F892
:10547000A4E1D348005D172827D10020D149088036
:105480001420D249087000F053FB0320CE49087065
:105490000FE0CD4801782046FEF730FAFEF706FA15
:1054A000012806D10320C84908702046FBF708F8F8
:1054B00003E0C54800780028EBD100BF0320C249B3
:1054C00008702046FAF7FCFF78E1BD48005D072828
:1054D0002ED10020BB4908802020BC490870084616
:1054E000FEF76EFF1420FBF7D7FDB848FEF768FF04
:1054F0000720B54908700FE0B34801782046FEF751
:10550000FDF9FEF7D3F9012806D10320AE49087052
:105510002046FAF7D5FF03E0AB4800780028EBD12E
:1055200000BF0320A84908702046FAF7C9FF45E1EB
:10553000A348005D08282BD10020A2490880212023
:10554000A24908700846FEF73BFF1420FBF7A4FDB4
:105550009E48FEF735FF0FE09B4801782046FEF796
:10556000CDF9FEF7A3F9012806D10320964908706A
:105570002046FAF7A5FF03E0934800780028EBD116
:1055800000BF0320904908702046FAF799FF15E103
:105590008B48005D102834D100208A490880C8203B
:1055A000FBF77AFD0F20894908700846FEF708FFCF
:1055B0008648FEF705FF6420FBF76EFD0520824953
:1055C000087012E00020814908707F480178204669
:1055D000FEF794F9FEF76AF9012806D103207A490B
:1055E00008702046FAF76CFF03E07748007800283F
:1055F000E8D100BF0320744908702046FAF760FF25
:10560000DCE06F48005D112831D100206D49088031
:10561000C820FBF741FD0E206C4908700846FEF7D4
:10562000CFFE6A48FEF7CCFE6420FBF735FD12E0A2
:10563000002066490870644801782046FEF75EF94C
:10564000FEF734F9012806D103205F49087020468F
:10565000FAF736FF03E05C4800780028E8D100BF85
:105660000320594908702046FAF72AFFA6E054485B
:10567000005D132831D1002052490880C820FBF773
:105680000BFD0D20514908700846FEF799FE4F4862
:10569000FEF796FE6420FBF7FFFC12E000204B496A
:1056A0000870494801782046FEF728F9FEF7FEF811
:1056B000012806D10320444908702046FAF700FF6C
:1056C00003E0414800780028E8D100BF03203E49AC
:1056D00008702046FAF7F4FE70E03948005D15289E
:1056E00034D1002037490880C820FBF7D5FC1020B2
:1056F000364908700846FEF763FE3448FEF760FE40
:105700006420FBF7C9FC05202F4908700FE02E48E4
:1057100001782046FEF7F2F8FEF7C8F8012806D116
:105720000320294908702046FAF7CAFE03E02648FC
:1057300000780028EBD100BF032023490870002027
:10574000224908702046FAF7BBFE37E01C48005D8E
:10575000192833D100201B490880C820FBF79CFC86
:1057600024201A4908700846FEF72AFE1748FEF75B
:1057700027FE6420FBF790FC0920134908700FE016
:10578000114801782046FEF7B9F8FEF78FF8012896
:1057900006D103200C4908702046FAF791FE03E079
:1057A000094800780028EBD100BF032006490870A3
:1057B0000020064908702046FAF782FE70BD0000FE
:1057C00005000020500000200400002024000020DC
:1057D00010B51648007810B1032825D119E01348F8
:1057E0000078401C1149087000BF11480068006A29
:1057F00020F00A000E49096808620D480068006A36
:105800000B490968086200BF00210948FCF786FFC0
:105810000AE00848406807490968401A06490860D4
:1058200000200249087000BF00BF10BD48000020E2
:105830000004002080030020E003002010B516487B
:10584000407810B1032825D119E013484078401C56
:105850001149487000BF11480068006A20F0A0009C
:105860000E49096808620D480068006A0B4909681A
:10587000086200BF04210948FCF750FF0AE008480D
:1058800000690749C968401A064948600020024972
:10589000487000BF00BF10BD480000200004002079
:1058A00080030020E003002010B51648807810B176
:1058B000032825D119E013488078401C11498870CD
:1058C00000BF11480068006A20F400700E490968A2
:1058D00008620D480068006A0B490968086200BF49
:1058E00008210948FCF71AFF0AE00848C06907497F
:1058F0008969401A0649886000200249887000BF03
:1059000000BF10BD480000200004002080030020DC
:10591000E003002010B51648C07810B1032825D147
:1059200019E01348C078401C1149C87000BF1148E5
:105930000068006A20F400500E49096808620D48AA
:105940000068006A0B490968086200BF0C21094819
:10595000FCF7E4FE0AE00848806A0749496A401AF1
:105960000649C86000200249C87000BF00BF10BDD2
:10597000480000200004002080030020E0030020F5
:1059800010B51648007910B1032825D119E0134845
:105990000079401C1149087100BF11480068006A75
:1059A00020F00A000E49096808620D480068006A84
:1059B0000B490968086200BF00210948FCF7AEFEE8
:1059C0000AE00848406B0749096B401A064908611C
:1059D00000200249087100BF00BF10BD4800002030
:1059E0004804002080030020E003002010B5164882
:1059F000407910B1032825D119E013484079401CA3
:105A00001149487100BF11480068006A20F0A000E9
:105A10000E49096808620D480068006A0B49096868
:105A2000086200BF04210948FCF778FE0AE0084834
:105A3000006C0749C96B401A0649486100200249B9
:105A4000487100BF00BF10BD48000020480400207E
:105A500080030020E003002010B51648807910B1C3
:105A6000032825D119E013488079401C1149887119
:105A700000BF11480068006A20F400700E490968F0
:105A800008620D480068006A0B490968086200BF97
:105A900008210948FCF742FE0AE00848C06C0749A3
:105AA000896C401A0649886100200249887100BF4C
:105AB00000BF10BD480000204804002080030020E3
:105AC000E003002010B51648C07910B1032825D195
:105AD00019E01348C079401C1149C87100BF114832
