:020000040800F2
:10000000880C00200101000819450008493100084A
:10001000B9440008F9040008E55900080000000090
:100020000000000000000000000000006949000816
:1000300059050008000000001D450008D94F0008C0
:100040001B0100081B0100081B0100081B01000820
:100050001B0100081B0100081B0100081B01000810
:100060001B0100081B0100081B010008FD0400081B
:100070001B0100081B0100080D0500081D050008F4
:100080001B0100081B0100080D0200081B010008ED
:100090001B0100081B0100081B0100081B010008D0
:1000A0001B010008695000081B0100081B01000823
:1000B0007950000889500008995000081B01000879
:1000C0001B0100081B0100081B0100081B010008A0
:1000D0001B010008795900081B0100081B010008DA
:1000E0001B0100081B0100081B010008DFF80CD0F1
:1000F00000F07AF8004800472D5C0008880C0020CA
:100100000648804706480047FEE7FEE7FEE7FEE7B1
:10011000FEE7FEE7FEE7FEE7FEE7FEE767500008C2
:10012000ED0000082DE9F05F0546002092469B4651
:1001300088460646814640241BE0284641464746FD
:10014000224600F020F853465A46C01A914110D377
:1001500011461846224600F038F82D1A67EB0108C0
:100160004F4622460120002100F02FF817EB00092E
:100170004E41201EA4F10104DFDC484631462A46E8
:100180004346BDE8F09F202A04DB203A21FA02F022
:100190000021704721FA02F3D040C2F120029140C1
:1001A000084319467047D2B201E000F8012B491EFE
:1001B000FBD270470022F6E710B513460A46044604
:1001C0001946FFF7F0FF204610BD202A04DB203A35
:1001D00000FA02F1002070479140C2F1200320FA9A
:1001E00003F3194390407047064C074D06E0E06862
:1001F00040F0010394E8070098471034AC42F6D36E
:10020000FFF778FF906A0008B06A000810B502484E
:1002100000F047FB10BD0000A805002070B50446A3
:1002200000252068806800F0010018B3206880680D
:1002300020F001002168886001F03AF9054613E0DA
:1002400001F036F9401B02280ED92068806800F0C2
:10025000010048B1A06A40F01000A062E06A40F0DE
:100260000100E062012070BD2068806800F001009C
:100270000028E5D10020F6E770B505466C6AA06A53
:1002800000F05000E0B9A06A40F40070A06220685D
:10029000806800F46020B0F5602F0DD1207B58B944
:1002A000A06A20F48070A062A06A00F4805018B99F
:1002B000A06A40F00100A062204600F0EFFA03E0DF
:1002C000206A016B2846884770BD70B505466C6A88
:1002D000A06A40F04000A062E06A40F00400E062E2
:1002E000204600F0DDFA70BD70B50446656A284608
:1002F00000F0D5FA70BD000038B504460025002096
:1003000000902068806800F0010078BB2068806859
:1003100040F0010021688860194800681949B0FB65
:10032000F1F0009002E00098401E00900098002834
:10033000F9D101F0BDF8054619E001F0B9F8401B0C
:10034000022814D92068806800F0010078B9A06AFA
:1003500040F01000A062E06A40F00100E06200BFDF
:10036000002084F8240000BF012038BD05E020688B
:10037000806800F001000028DFD00020F5E70000D1
:100380007800002040420F0010B556480078012840
:1003900048D140E04FF48061534801F07BF80128D8
:1003A00036D18102504801F075F8012804D14F4838
:1003B0000068401C4D4908604C4800684C49884220
:1003C00029D300224FF48061474801F06BF80020E8
:1003D0004649086000240AE0204602F035FF204626
:1003E00000F000F9204600F0FDF8601CC4B2082CB3
:1003F000F2DB00224FF480613B4801F053F801200A
:100400003C49087000228102374801F04BF802E0B5
:100410000020364908604FF40061334801F03AF893
:100420000028B7D03348007801280AD1C1022E48ED
:1004300001F030F8012804D100202A4908702D4924
:1004400008702848007800283BD133E04FF48061E1
:10045000254801F01FF850BB4FF48061224801F09D
:1004600019F820B921480068401C204908601F483D
:1004700000681F4988421DD3012291021A4801F0E9
:1004800011F800201949086000240AE0204602F013
:10049000DBFE204600F064F8204600F061F8601CA6
:1004A000C4B2082CF2DB02201249087002E00020DE
:1004B0000E4908604FF400610B4800F0EBFF002884
:1004C000C4D00C48007802280AD18102064800F006
:1004D000E1FF012804D10349087000200549087094
:1004E00010BD00002200002000100140000000208C
:1004F00020A107000E00002000BFFEE710B5024853
:1005000000F0D4FC10BD0000D805002010B5024852
:1005100000F0CCFC10BD00004408002010B50248DB
:1005200000F0C4FC10BD00000008002030B590F8B9
:1005300040500124AC40C56B6C6004686360446843
:10054000102C04D10468A2600468E16003E0046830
:10055000A1600468E26030BD704772B600BFFEE77C
:1005600010B50446082C35D2DFE804F0040A101652
:100570001C22282E00220121184800F093FF2AE0B7
:1005800000220221154800F08DFF24E00022042102
:10059000124800F087FF1EE0002208210F4800F0FB
:1005A00081FF18E0002240210C4800F07BFF12E0A0
:1005B00000228021094800F075FF0CE00022012193
:1005C000074800F06FFF06E000220221044800F017
:1005D00069FF00E000BF00BF10BD0000000801403F
:1005E000000C014010B50446082C35D2DFE804F0B9
:1005F000040A10161C22282E01221146184800F069
:1006000051FF2AE001220221154800F04BFF24E0AF
:1006100001220421124800F045FF1EE001220821BA
:100620000F4800F03FFF18E0012240210C4800F085
:1006300039FF12E001228021094800F033FF0CE06D
:1006400001221146074800F02DFF06E00122022199
:10065000044800F027FF00E000BF00BF10BD00000D
:1006600000080140000C0140F0B5A1B080216846AF
:10067000FFF7A0FD002419E0002513E0684600EB19
:10068000C500D0E9003005EB0411144A32F811100E
:10069000591840F100006A4602EBC502C2E9001099
:1006A000681C85B2102DE9DB601C84B2282CE3DBCA
:1006B00000240EE0684600EBC40028220023D0E9A5
:1006C00000613046FFF72EFD054921F81400601C3B
:1006D00084B2102CEEDB21B0F0BD0000A800002099
:1006E0008800002010B51348007809281ED2DFE8E2
:1006F00000F01D05080B0E1114171A0005F032FD4D
:1007000015E005F065FD12E005F098FD0FE005F03D
:10071000CBFD0CE005F0FEFD09E005F031FE06E042
:1007200005F064FE03E005F097FE00E000BF00BFA7
:1007300010BD00000D0000207047000038B50246D3
:1007400000230020009000BF92F82400012801D16E
:10075000022038BD012082F8240000BF4868072825
:1007600012D21068406B0C79641E04EB84051F24C0
:10077000AC40A0430D796D1E05EB85050C68AC40BF
:1007800020431468606327E048680D2812D210687F
:10079000006B0C79E41F04EB84051F24AC40A043DC
:1007A0000D79ED1F05EB85050C68AC4020431468FE
:1007B000206311E01068C06A0C790D3C04EB8405DD
:1007C0001F24AC40A0430D790D3D05EB85050C6859
:1007D000AC4020431468E06208680A2812D310680D
:1007E000C0680C780A3C04EB44050724AC40A043E5
:1007F0000D780A3D05EB45058C68AC402043146834
:10080000E0600FE0106800690C7804EB44050724F1
:10081000AC40A0430D7805EB45058C68AC40204307
:10082000146820610868102802D00868112827D1B0
:10083000174C1068A0421ED11068806800F40000B8
:10084000F0B91068806840F400001468A06008687F
:10085000102815D10F4800680F4CB0FBF4F000EBE6
:1008600080004000009002E00098401E0090009838
:100870000028F9D104E0906A40F020009062012342
:1008800000BF002082F8240000BF184661E7000086
:10089000002401407800002040420F00704770475C
:1008A000704710B504462068406800F020002028FA
:1008B0002FD12068006800F00200022829D1A06A28
:1008C00000F0100018B9A06A40F40070A06220681F
:1008D000806800F46020B0F5602F13D1207B88B9C8
:1008E0002068406820F0200021684860A06A20F459
:1008F0008070A062A06A00F4805018B9A06A40F02D
:100900000100A0622046FFF7C9FF6FF012002168C6
:1009100008602068406800F0800080283BD1206893
:10092000006800F00400042835D1A06A00F010002F
:1009300018B9A06A40F40050A0622068806800F4F2
:10094000E040B0F5E04F0DD02068406800F48060D2
:10095000D0B92068806800F46020B0F5602F13D112
:10096000207B88B92068406820F0800021684860BA
:10097000A06A20F48050A062A06A00F4807018B9C8
:10098000A06A40F00100A0622046FFF7D5FE6FF09C
:100990000C00216808602068406800F04000402892
:1009A0000FD12068006800F0010050B1A06A40F447
:1009B0008030A062204600F0A7F86FF001002168A7
:1009C000086010BD2DE9F0410446002700250026EF
:1009D000A84614B90120BDE8F081A06810B1207DBF
:1009E00000B100BFA06A30B90020E06284F82400A2
:1009F000204600F08BF82046FFF710FC0746A06A5F
:100A000000F01000002873D1002F71D1A06A20F4EB
:100A1000885040F00200A062E16960680843217BD1
:100A200040EA41000643A068B0F5807F02D0A0688C
:100A3000012802D14FF4807000E000200543207DA2
:100A4000012811D1207B38B9A069401E4FF4006104
:100A500041EA4030054307E0A06A40F02000A06270
:100A6000E06A40F00100E0622068406820F46940DC
:100A70002843216848602068806821490840304345
:100A800021688860A068B0F5807F02D0A068012846
:100A900002D14FF4807000E00020B0F5807F03D1D8
:100AA000208A401E4FEA00582068C06A20F4700077
:100AB00040EA08002168C86220688068114908403F
:100AC000B04208D10020E062A06A20F0020040F0AD
:100AD0000100A06211E0A06A20F0020040F01000C6
:100AE000A062E06A40F00100E062012705E0FFE754
:100AF000A06A40F01000A062012738466BE70000B2
:100B0000FDF7E1FFFE0E1FFF7047000010B586B035
:100B10000446002002900390049005903A49206812
:100B200088426FD100BF3948806940F4007037496E
:100B300088610846806900F40070019000BF00BF22
:100B400000BF0846806940F010008861084680694F
:100B500000F01000019000BF00BF00BF0846806990
:100B600040F0040088610846806900F004000190AC
:100B700000BF00BF00BF0846806940F008008861E0
:100B80000846806900F00800019000BF00BF3F20C8
:100B900002900320039002A91D4800F0EBFAFF2009
:100BA00002900320039002A91A4800F0E3FA032000
:100BB0000290039002A9184800F0DCFA174818497F
:100BC0000860002048600021154881608021C160D4
:100BD0004900016189004161202181610021C161D9
:100BE00000F032FA08B1FFF7B8FC00BF0C482062F1
:100BF000446200BF00221146122000F0E3FC1220E4
:100C000000F0D0FC06B010BD0024014000100240EE
:100C10000010014000080140000C014008000240A3
:100C2000D80500202DE9F04104460D461646002760
:100C300057492068884203D056492068884205D128
:100C40005348001D006800F4702000E000200028D8
:100C50007ED100BF94F82400012802D10220BDE813
:100C6000F081012084F8240000BF2046FFF744FBF8
:100C70000746002F6DD1A06A40F60161884340F419
:100C80008070A06243492068884209D14048001D15
:100C9000006800F4702008B9012002E0002000E0A4
:100CA000012078B1A06A20F48010A062206840681A
:100CB00000F4806000B3A06A20F4005040F480503B
:100CC000A06219E0A06A40F48010A0623049206858
:100CD000884203D02F492068884205D12C48001D46
:100CE000006800F4806000E0002028B1A06A20F4D1
:100CF000005040F48050A062A06A00F4805020B1FF
:100D0000E06A20F00600E06201E00020E06200BF3F
:100D1000002084F8240000BF1F48216A88621F4811
:100D2000216AC8621E48216A08636FF002002168C8
:100D300008602068806840F48070216888602268BC
:100D400002F14C0133462A46206A00F0B1F901E075
:100D50001AE014E02068806800F46020B0F5602F8D
:100D600006D12068806840F4A000216888600CE00B
:100D70002068806840F480102168886005E000BF2A
:100D8000002084F8240000E00127384667E70000CF
:100D9000002401400028014079020008E90200080F
:100DA000CB0200080146002291F82100022808D059
:100DB0000420886300BF002081F8200000BF0120CC
:100DC00070470868006820F00E000B68186008681B
:100DD000006820F001000B68186091F84030012095
:100DE0009840CB6B5860012081F8210000BF0020A3
:100DF00081F8200000BF1046E2E7000070B504460D
:100E0000002594F82100022803D00420A0630125C6
:100E100048E02068006820F00E0021680860206823
:100E2000006820F00100216808601F49206888429E
:100E300001D1012026E01C4914312068884201D1EB
:100E400010201FE0184928312068884201D1801500
:100E500018E015493C312068884201D1801411E026
:100E6000114950312068884202D14FF4803009E0A6
:100E70000D4964312068884202D14FF4801001E0AE
:100E80004FF08070084908394860012084F821003B
:100E900000BF002084F8200000BF606B10B1204626
:100EA000616B8847284670BD0800024070B5044653
:100EB000E06B05682068066894F8401004208840BC
:100EC0002840002846D006F00400002842D02068C0
:100ED000006800F0200028B92068006820F00400B5
:100EE0002168086057492068884201D1042027E022
:100EF000544914312068884201D1402020E05149F2
:100F000028312068884201D1001519E04D493C3153
:100F10002068884202D14FF4804011E049495031A5
:100F20002068884202D14FF4802009E045496431AD
:100F30002068884202D14FF4800001E04FF08060C9
:100F4000404908394860E06A00287AD02046E16AC2
:100F5000884776E094F84010022088402840A0B3EB
:100F600006F0020088B32068006800F0200040B955
:100F70002068006820F00A0021680860012084F8D9
:100F8000210030492068884201D1022028E02D4903
:100F900014312068884201D1202021E029492831DC
:100FA0002068884201D140151AE026493C3120686A
:100FB000884202D14FF4005012E02249503120689B
:100FC000884203D14FF400300AE017E01D49643134
:100FD0002068884202D14FF4001001E04FF0007009
:100FE00018490839486000BF002084F8200000BF7D
:100FF000A06A30B32046A16A884722E094F84010E6
:10100000082088402840E0B106F00800C8B12068F8
:10101000006820F00E002168086094F8401001205C
:101020008840E16B48600120A06384F8210000BF84
:10103000002084F8200000BF206B10B12046216BF7
:10104000884770BD080002400146002209B901200E
:101050007047164B0868C01A1423B0FBF3F08000E9
:10106000086412480838C863022081F82100086823
:10107000026843F6F0708243D1E901031843CB685C
:1010800018430B6918434B6918438B691843CB69A4
:10109000184302430868026000208863012081F839
:1010A0002100002081F8200000BFD1E708000240A5
:1010B0002DE9F04104460D4616461F464FF0000844
:1010C00000BF94F82000012802D10220BDE8F08181
:1010D000012084F8200000BF94F8210001282CD1C1
:1010E000022084F821000020A0632068006820F01E
:1010F0000100216808603B46324629462046FFF73A
:1011000015FAE06A30B12068006840F00E002168EE
:1011100008600BE02068006820F004002168086087
:101120002068006840F00A002168086020680068B4
:1011300040F001002168086006E000BF002084F84C
:10114000200000BF4FF002084046BFE770B50446DC
:1011500000F0AEF906462546681C10B10448007838
:10116000054400BF00F0A4F9801BA842FAD370BD6B
:10117000740000202DE9F8470346002294466EE1F2
:101180004FF0010808FA02F4D1F8008008EA0400E0
:10119000A0427DD1DFF8DCA2D1F80480A8EB0A09D7
:1011A000D0453AD014DCB8F1030F50D009DCB8F1C7
:1011B000000F31D0B8F1010F1CD0B8F1020F49D1A6
:1011C00020E0B8F1110F18D0B8F1120F42D11EE093
:1011D000B9F5881F25D006DCB9F5803F20D0B9F5D8
:1011E000801F37D11AE0B9F5001F18D0B9F5041FD8
:1011F00030D117E0D1F80CC02DE0D1F80C8008F107
:10120000040C28E0D1F80C8008F1080C23E0D1F898
:101210000C8008F10C0C1EE000BF00BF00BF00BF37
:1012200000BF00BFD1F80880B8F1000F02D14FF025
:10123000040C0BE0D1F80880B8F1010F03D14FF096
:10124000080C1C6102E04FF0080C5C6103E04FF0F9
:10125000000C00E000BF00BFFF2801D8984601E065
:1012600003F104084646FF2802D84FEA820803E04B
:10127000A2F108084FEA88084746D6F800804FF0E8
:101280000F0909FA07F928EA09080CFA07F900E03A
:1012900088E048EA0908C6F80080D1F8048008F020
:1012A0008058B8F1805F7DD100BFDFF8CC81D8F8DD
:1012B000188048F00108DFF8C091C9F81880C846C6
:1012C000D8F8188008F00108CDF8008000BF00BFF2
:1012D0004FEAB9384FEA920958F829504FEA827814
:1012E0004FEA18794FF00F0808FA09F825EA0805BF
:1012F000DFF88881434502D14FF0000816E0DFF89F
:101300008081434502D14FF001080FE0DFF874817E
:10131000434502D14FF0020808E0DFF86C814345F5
:1013200002D14FF0030801E04FF004084FEA827940
:101330004FEA197908FA09F848EA0505DFF84C81FF
:101340004FEA920948F82950D1F8048008F480380F
:10135000B8F5803F0AD1DFF83881D8F8008048EA34
:101360000008DFF82C91C9F8008009E0DFF820813F
:10137000D8F8008028EA0008DFF81491C9F8008046
:10138000D1F8048008F40038B8F5003F10D1DFF838
:10139000008108F10408D8F8008048EA0008DFF866
:1013A000F09000E05AE009F10409C9F800800DE06E
:1013B000DFF8DC8008F10408D8F8008028EA00088B
:1013C000DFF8CC9009F10409C9F80080D1F8048055
:1013D00008F48018B8F5801F0ED1DFF8B48008F14A
:1013E0000808D8F8008048EA0008DFF8A49009F15E
:1013F0000809C9F800800DE0DFF8948008F10808BA
:10140000D8F8008028EA0008DFF8849009F108097C
:10141000C9F80080D1F8048008F40018B8F5001F5E
:101420000ED1DFF86C8008F10C08D8F8008048EA8B
:101430000008DFF85C9009F10C09C9F800800DE0A4
:10144000DFF84C8008F10C08D8F8008028EA000882
:10145000DFF83C9009F10C09C9F80080521CD1F862
:10146000008028FA02F8B8F1000F7FF489AEBDE8D9
:10147000F887000000001110001002400008014031
:10148000000C014000100140001401400800014020
:1014900000040140024693680B400BB1012000E0BC
:1014A000002070470AB1016101E00B04036170473D
:1014B00001480068704700006C0000200348006885
:1014C0000349097808440149086070476C0000200E
:1014D0007400002010B50848006840F0100006496C
:1014E0000860032000F0ACF8002000F007F800F0DE
:1014F0002BF8002010BD00000020024070B504460B
:101500000E4800784FF47A71B1FBF0F00C4909688D
:10151000B1FBF0F5284600F0A7FC08B1012070BD32
:10152000102C07D200222146501E00F04BF805482F
:10153000046001E00120F2E70020F0E774000020E1
:10154000780000207000002008B500BF13488069B3
:1015500040F00100114988610846806900F00100EF
:10156000009000BF00BF00BF0846C06940F0805037
:10157000C8610846C06900F08050009000BF00BFFD
:10158000052000F05DF800BF0549486820F0E060E4
:1015900040F08070486000BF08BD000000100240AD
:1015A0000000014001460846002809DB00F01F0347
:1015B00001229A4043099B0003F1E023C3F8002174
:1015C00000BF70472DE9F05F80460D4616460027A4
:1015D00004F00AFA074639462A46334601F0070066
:1015E000C0F1070ABAF1040F02D94FF0040A01E072
:1015F000C0F1070AD14600F1040ABAF1070F02D27E
:101600004FF0000A01E0A0F1030AD4464FF0010AAE
:101610000AFA09FAAAF1010A0AEA020A0AFA0CFA13
:101620004FF0010B0BFA0CFBABF1010B0BEA030BB8
:101630004AEA0B042146404604F0DEF9BDE8F09F7B
:1016400000BF00F00702064B19684FF6FF03194070
:10165000044B0B4343EA0221014B196000BF704762
:101660000CED00E00000FA05F8B504460026002560
:10167000207800F0010000286BD000274348C069A3
:1016800000F0805070B900BF4048C06940F0805001
:101690003E49C8610846C06900F08050009000BF14
:1016A00000BF01273A48006800F48070B0B938489C
:1016B000006840F4807036490860FFF7F9FE06467E
:1016C00006E0FFF7F5FE801B642801D90320F8BD72
:1016D0002F48006800F480700028F2D02B48006A80
:1016E00000F440752DB3A08800F44070A84220D0CB
:1016F0002648006A20F44075012026490860002031
:1017000008602248056205F0010090B1FFF7D0FEA5
:10171000064608E0FFF7CCFE801B41F28831884284
:1017200001D90320D3E71948006A00F0020000281D
:10173000F0D01648006A20F44070616808431349ED
:101740000862012F04D10846C06920F08050C861AA
:1017500000BF207800F00200022807D10B48406843
:1017600020F44040A168084308494860207800F010
:101770001000102807D10548406820F48000E16877
:101780000843024948600020A1E700000010024021
:10179000007000404004424270B504460D460CB94A
:1017A000012070BD5A48006800F00700A8420ED220
:1017B0005748006820F0070028435549086008464C
:1017C000006800F00700A84201D00120E9E7207876
:1017D00000F0020002281DD1207800F00400042847
:1017E00005D14C48406840F4E0604A4948602078A0
:1017F00000F00800082805D14648406840F46050D1
:10180000444948604348406820F0F000A16808431C
:1018100040494860207800F0010078B360680128F2
:1018200006D13C48006800F4003090B90120B8E7C8
:101830006068022806D13748006800F0007040B99F
:101840000120AEE73348006800F0020008B901202B
:10185000A7E73048406820F00300616808432D493D
:101860004860FFF725FE064609E0FFF721FE801BD2
:1018700041F28831884202D9032092E707E02548E7
:10188000406800F00C006168B0EB810FEDD120489A
:10189000006800F00700A8420ED91D48006820F03B
:1018A000070028431A4908600846006800F007004E
:1018B000A84201D0012074E7207800F00400042839
:1018C00007D11448406820F4E060E16808431149FA
:1018D0004860207800F00800082808D10D484068CA
:1018E00020F46050216940EAC1000A49486000F0D4
:1018F0003FF808494968C1F30311074A515CC840E1
:101900000649086006480068FFF7F8FD002048E730
:101910000020024000100240786A00087800002091
:101920007000002001480068704700007800002027
:1019300000B5FFF7F7FF04494968C1F30221034AE4
:10194000515CC84000BD000000100240886A0008D9
:1019500000B5FFF7E7FF04494968C1F3C221034A14
:10196000515CC84000BD000000100240886A0008B9
:10197000F0B585B00FF26C0C9CE8E01001A8A0E86F
:10198000E0101CA52D6800950021002200230024F2
:101990000020194D696801F00C05F5B1042D02D045
:1019A000082D19D101E0154819E001ADC1F38346B6
:1019B000AC5D01F4803555B10F4D6D68C5F3404500
:1019C0001DF805200D4D6543B5FBF2F302E00C4D0B
:1019D00004FB05F3184602E000BF084800BF00BF43
:1019E00005B0F0BD02030405060708090A0B0C0D3B
:1019F0000E0F1010010200000010024000127A00C9
:101A000000093D00F8B504460CB90120F8BD207866
:101A100000F00100002878D0F848406800F00C0081
:101A200004280CD0F548406800F00C00082811D1BB
:101A3000F248406800F48030B0F5803F0AD1EF48AA
:101A4000006800F4003000285FD0606800285CD196
:101A50000120DBE700BF6068B0F5803F06D1E748B2
:101A6000006840F48030E549086028E0606858B9B3
:101A7000E248006820F48030E049086008460068C9
:101A800020F4802008601AE06068B0F5A02F0BD128
:101A9000DA48006840F48020D849086008460068A9
:101AA00040F4803008600AE0D448006820F48030B8
:101AB000D24908600846006820F48020086000BF12
:101AC000606888B1FFF7F4FC054606E0FFF7F0FC1C
:101AD000401B642801D9032098E7C848006800F437
:101AE00000300028F2D010E0FFF7E2FC054606E0E7
:101AF000FFF7DEFC401B642801D9032086E7BF48BE
:101B0000006800F400300028F2D1207800F00200D4
:101B1000022857D1B948406800F00C0050B1B748CE
:101B2000406800F00C00082818D1B448406800F460
:101B3000803098B9B148006800F0020020B12069F7
:101B4000012801D0012061E7AC48006820F0F800CE
:101B5000616940EAC100A949086033E02069E8B141
:101B60000120A7490860FFF7A3FC054606E0FFF740
:101B70009FFC401B022801D9032047E79F480068CB
:101B800000F002000028F2D09C48006820F0F80025
:101B9000616940EAC1009949086013E00020984952
:101BA0000860FFF785FC054606E0FFF781FC401B57
:101BB000022801D9032029E79048006800F00200BC
:101BC0000028F2D1207800F0080008282DD1A06963
:101BD000B8B101208B490860FFF76AFC054606E0B2
:101BE000FFF766FC401B022801D903200EE783485B
:101BF000406A00F002000028F2D0012002F03CFE12
:101C000013E000207F490860FFF752FC054606E01C
:101C1000FFF74EFC401B022801D90320F6E6774867
:101C2000406A00F002000028F2D1207800F00400A1
:101C3000042873D100277148C06900F0805070B942
:101C400000BF6E48C06940F080506C49C8610846CA
:101C5000C06900F08050009000BF00BF01276A48B3
:101C6000006800F48070B0B96748006840F4807084
:101C700065490860FFF71CFC054606E0FFF718FC05
:101C8000401B642801D90320C0E65F48006800F4C7
:101C900080700028F2D000BFE068012806D15748C4
:101CA000006A40F001005549086227E0E06858B931
:101CB0005248006A20F00100504908620846006A54
:101CC00020F00400086219E0E06805280BD14B48B9
:101CD000006A40F00400494908620846006A40F082
:101CE000010008620AE04548006A20F0010043490B
:101CF00008620846006A20F00400086200BFE0683D
:101D0000A0B1FFF7D5FB054609E0FFF7D1FB401B6B
:101D100041F28831884202D9032077E622E0374831
:101D2000006A00F002000028EFD012E0FFF7C0FBCD
:101D3000054608E0FFF7BCFB401B41F288318842B2
:101D400001D9032062E62D48006A00F00200002855
:101D5000F0D1012F05D12948C06920F080502749D2
:101D6000C86100BFE069C8B32448406800F00C00B7
:101D7000082860D0E069022848D100202049086680
:101D8000FFF796FB054606E0FFF792FB401B022893
:101D900001D903203AE61948006800F000700028D5
:101DA000F2D1206AB0F5803F07D11448406820F492
:101DB0000030A168084311494860D4E9080108438C
:101DC0000E49496821F4741108430C494860012008
:101DD0000B490866FFF76CFB054607E03DE0FFF79F
:101DE00067FB401B022801D903200FE60348006867
:101DF00000F000700028F2D02FE000000010024038
:101E00000000424280044242007000400020144919
:101E10000866FFF74DFB054606E0FFF749FB401B50
:101E2000022801D90320F1E50E48006800F0007097
:101E30000028F2D111E0E069012800D1E6E5094867
:101E4000466806F48031206A814204D106F470119C
:101E5000606A814201D00120D8E50020D6E500006B
:101E6000000042420010024070B504462546681E3C
:101E7000B0F1807F01D301200FE0681E4FF0E02118
:101E800048610F214FF0FF3003F0B6FD00204FF006
:101E9000E021886107200861002070BD704770470D
:101EA00030B502460B4600BF92F83C00012801D134
:101EB000022030BD012082F83C0000BF022082F8E1
:101EC0003D00106844681068816824F07004186848
:101ED000044310684460104D1068A8420BD010688D
:101EE000B0F1804F07D00D4D1068A84203D00C4DC3
:101EF0001068A84205D121F080015868014310689C
:101F00008160012082F83D0000BF002082F83C0083
:101F100000BF00BFCDE70000002C014000040040DE
:101F20000008004010B504460CB9012010BD94F81B
:101F30003D0028B9002084F83C00204600F026F837
:101F4000022084F83D00211D206803F0ADF8012037
:101F500084F8460000BF84F83E0001213F2001556F
:101F6000402001554120015500BF00BF012084F8E9
:101F7000420043200155442001554520015500BF32
:101F8000012084F83D000020D0E7000038B5044669
:101F90001A492068884216D100BF1948806940F468
:101FA0000060174988610846806900F4006000906D
:101FB00000BF00BF012200211920FFF703FB1920F9
:101FC000FFF7F0FA19E00F492068884215D100BFE9
:101FD0000B48C06940F004000949C8610846C0695F
:101FE00000F00400009000BF00BF012200211E206D
:101FF000FFF7E8FA1E20FFF7D5FA38BD002C0140A4
:102000000010024000080040014691F83D00012800
:1020100001D001207047022081F83D000868C068A7
:1020200040F001000B68D860124B086898420BD052
:102030000868B0F1804F07D00F4B0868984203D072
:102040000E4B086898420CD10868806800F00702BF
:10205000062A0CD00868006840F001000B68186080
:1020600005E00868006840F001000B681860002077
:10207000D0E70000002C01400004004000080040B0
:102080002DE9F04104460D4600BF94F83C000128BC
:1020900002D10220BDE8F081012084F83C0000BF9D
:1020A000022084F83D002068866826F0770626F432
:1020B0007F46206886602868502833D00CDC2028B2
:1020C00050D004DC00284BD0102851D149E03028F2
:1020D00049D040284CD139E060282DD0702807D055
:1020E000B0F5805F03D0B0F5005F41D10DE040E076
:1020F000D5E902136A68206803F021F82068866831
:1021000046F077062068866033E0D5E902136A68F6
:10211000206803F014F82068806840F4804021684B
:10212000886026E0EA686968206803F01CF850219E
:10213000206803F00FF81CE0EA686968206803F083
:1021400059F86021206803F005F812E0EA68696830
:10215000206803F008F84021206802F0FBFF08E047
:1021600000BF00BF00BF2968206802F0F3FF00E055
:1021700000BF00BF012084F83D0000BF002084F8AC
:102180003C0000BF00BF85E710B50446F548007865
:1021900009287CD2DFE800F07B05407CB7F6F4F339
:1021A000F2002068B0F1804F35D1EF480078012867
:1021B00002D002282ED11DE00021EC4800F00EFDD7
:1021C000EB49086000BFE9480068006A20F00A0097
:1021D000E64909680862E5480068006A40F00200C4
:1021E000E2490968086200BFDF480078401CDE4908
:1021F00008700FE00021DD4800F0F0FCDC49486089
:102200000021DA4800F090FBD7480078401CD649FE
:10221000087000BF00BFA2E12068B0F1804F35D147
:10222000D1484078012802D002282ED11DE0042197
:10223000CE4800F0D3FCCE49C86000BFCB48006850
:10224000006A20F0A000C94909680862C748006810
:10225000006A40F02000C5490968086200BFC24812
:102260004078401CC04948700FE00421BF4800F08E
:10227000B5FCBF4908610421BC4800F055FBBA48D1
:102280004078401CB849487000BF00BF67E165E175
:102290002068B0F1804F35D1B3488078012802D052
:1022A00002282ED11DE00821B04800F097FCB0496B
:1022B000886100BFAD480068006A20F40070AB4937
:1022C00009680862A9480068006A40F40070A749DC
:1022D0000968086200BFA4488078401CA249887041
:1022E0000FE00821A14800F079FCA149C86108214C
:1022F0009E4800F019FB9C488078401C9A498870E1
:1023000000BF00BF2BE12068B0F1804F35D1964867
:10231000C078012802D002282ED11DE00C2193485C
:1023200000F05CFC9249486200BF90480068006A77
:1023300020F400508D49096808628C480068006AE2
:1023400040F4005089490968086200BF8648C07897
:10235000401C8549C8700FE00C21844800F03EFC09
:10236000834988620C21814800F0DEFA7E48C078FB
:10237000401C7D49C87000BF00BFF0E0B3E077E0CB
:102380003BE0FFE77B492068884235D176480079F9
:10239000012802D002282ED11DE00021764800F04D
:1023A0001DFC7349086300BF73480068006A20F091
:1023B0000A007149096808626F480068006A40F0C5
:1023C00002006D490968086200BF67480079401C37
:1023D000654908710FE00021674800F0FFFB644980
:1023E00048630021644800F09FFA5F480079401C70
:1023F0005D49087100BF00BFB1E05E4920688842B6
:1024000035D159484079012802D002282ED11DE04B
:102410000421594800F0E2FB5549C86300BF564803
:102420000068006A20F0A000534909680862524819
:102430000068006A40F020004F490968086200BF48
:1024400049484079401C484948710FE004214A48F6
:1024500000F0C4FB464908640421474800F064FAD0
:1024600041484079401C4049487100BF00BF76E0B8
:1024700040492068884235D13B488079012802D004
:1024800002282ED11DE008213B4800F0A7FB384967
:10249000886400BF38480068006A20F4007036493C
:1024A0000968086234480068006A40F400703249E4
:1024B0000968086200BF2C488079401C2A4988714D
:1024C0000FE008212C4800F089FB2949C864082145
:1024D000294800F029FA24488079401C2249887153
:1024E00000BF00BF3BE023492068884235D11E4829
:1024F000C079012802D002282ED11DE00C211E48EF
:1025000000F06CFB1A49486500BF1B480068006A70
:1025100020F4005018490968086217480068006AEA
:1025200040F4005014490968086200BF0E48C079A1
:10253000401C0D49C8710FE00C210F4800F04EFB04
:102540000B4988650C210C4800F0EEF90648C0796B
:10255000401C0549C87100BF00BF00E000BF00BFBC
:1025600010BD00000D000020580000209C06002037
:102570001C06002000040040E40600202DE9F04184
:1025800004460D46164600BF94F83C00012802D1CF
:102590000220BDE8F081012084F83C0000BF96B91C
:1025A000EB68D5E90012206802F0F0FD2068806930
:1025B00020F00C002168886120688069A9680843C0
:1025C000216888613DE0042E13D1EB68D5E9001243
:1025D000206802F023FE2068806920F440602168B2
:1025E000886120688069A96840EA012021688861C3
:1025F00027E0082E12D1EB68D5E90012206802F01E
:102600002AFE2068C06920F00C002168C86120689B
:10261000C069A96808432168C86112E0EB68D5E980
:102620000012206802F033FE2068C06920F4406088
:102630002168C8612068C069A96840EA0120216852
:10264000C86100BF002084F83C0000BF00BFA0E7C5
:1026500010B504460CB9012010BD94F83D0028B90E
:10266000002084F83C00204600F026F8022084F880
:102670003D00211D206802F017FD012084F846006E
:1026800000BF84F83E0001213F2001554020015544
:102690004120015500BF00BF012084F842004320C3
:1026A0000155442001554520015500BF012084F803
:1026B0003D000020D0E7000010B586B004460020A1
:1026C00002900390049005902068B0F1804F2DD1C6
:1026D00000BF3B48C06940F001003949C861084665
:1026E000C06900F00100019000BF00BF00BF0846B4
:1026F000806940F0040088610846806900F00400A9
:10270000019000BF00BF0F20029000200390012025
:10271000049002A92B48FEF72DFD002211461C2033
:10272000FEF750FF1C20FEF73DFF47E026492068DA
:10273000884243D100BF2248C06940F002002049CE
:10274000C8610846C06900F00200019000BF00BFE8
:1027500000BF0846806940F004008861084680692F
:1027600000F00400019000BF00BF00BF0846806970
:1027700040F0080088610846806900F00800019078
:1027800000BF00BFC02002900020039001200490F1
:1027900002A90C48FEF7EEFC0320029000200390F3
:1027A0000120049002A90948FEF7E4FC002211462A
:1027B0001D20FEF707FF1D20FEF7F4FE06B010BD3A
:1027C000001002400008014000040040000C0140DD
:1027D0002DE9F04104460D4615B994F83E000BE092
:1027E000042D02D13F20005D06E0082D02D14020DB
:1027F000005D01E04120005D074615B994F84200F4
:102800000BE0042D02D14320005D06E0082D02D12B
:102810004420005D01E04520005D8046012F02D18B
:10282000B8F1010F02D00120BDE8F0811DB90220EE
:1028300084F83E000EE0042D03D102213F20015513
:1028400008E0082D03D102214020015502E00221B9
:10285000412001551DB9022084F842000EE0042DEC
:1028600003D102214320015508E0082D03D10221A4
:102870004420015502E002214520015535B1042DC7
:102880000BD0082D10D00C2D1CD114E02068C0688E
:1028900040F002002168C86015E02068C06840F080
:1028A00004002168C8600EE02068C06840F008009D
:1028B0002168C86007E02068C06840F01000216807
:1028C000C86000E000BF00BF01222946206802F076
:1028D00025FC1249206888420BD02068B0F1804F57
:1028E00007D00F492068884203D00E4920688842EB
:1028F0000CD12068806800F00706062E0CD02068F6
:10290000006840F001002168086005E02068006868
:1029100040F0010021680860002085E7002C01409C
:10292000000400400008004030B504460D4635B1B3
:10293000042D0BD0082D10D00C2D1CD114E02068D4
:10294000C06820F002002168C86015E02068C068F7
:1029500020F004002168C8600EE02068C06820F004
:1029600008002168C86007E02068C06820F01000F7
:102970002168C86000E000BF00BF0022294620682F
:1029800002F0CCFB00BF2068006A41F21111084040
:1029900050B92068006A8910084028B9206800688A
:1029A00020F001002168086000BF1DB9012084F8F3
:1029B0003E000EE0042D03D101213F20015508E027
:1029C000082D03D101214020015502E001214120C1
:1029D00001551DB9012084F842000EE0042D03D1F9
:1029E00001214320015508E0082D03D10121442095
:1029F000015502E0012145200155002030BD10B5F0
:102A0000044620680069C0F34000D8B12068C0685F
:102A1000C0F34000B0B16FF00200216808610120EE
:102A200020772068806900F0030018B12046FFF786
:102A3000ABFB05E0204600F0ADF8204600F0ABF817
:102A40000020207720680069C0F38000D8B120689A
:102A5000C068C0F38000B0B16FF004002168086165
:102A6000022020772068806900F4407018B1204669
:102A7000FFF78AFB05E0204600F08CF8204600F0C6
:102A80008AF80020207720680069C0F3C000D8B120
:102A90002068C068C0F3C000B0B16FF008002168C2
:102AA0000861042020772068C06900F0030018B195
:102AB0002046FFF769FB05E0204600F06BF8204652
:102AC00000F069F80020207720680069C0F300104A
:102AD000D8B12068C068C0F30010B0B16FF010002A
:102AE00021680861082020772068C06900F44070E0
:102AF00018B12046FFF748FB05E0204600F04AF8F1
:102B0000204600F048F8002020772068006900F097
:102B1000010058B12068C06800F0010030B16FF0CA
:102B2000010021680861204600F036F8206800693D
:102B3000C0F3C01058B12068C068C0F3C01030B1F5
:102B40006FF08000216808612046FFF7A7F9206830
:102B50000069C0F3801058B12068C068C0F38010CD
:102B600030B16FF0400021680861204600F04FF856
:102B700020680069C0F3401058B12068C068C0F3F5
:102B8000401030B16FF02000216808612046FFF747
:102B900086F910BD7047704710B504460B49206890
:102BA000884201D1FDF760FD0949206888420BD1B8
:102BB00008480088401C07490880FDF7E5FB0648E7
:102BC0000078401C0449087010BD00000008004057
:102BD000002C01406000002035000020024600204B
:102BE00031B1042907D0082908D00C290CD108E0FC
:102BF0001368586B09E01368986B06E01368D86B8C
:102C000003E01368186C00E000BF00BF7047704716
:102C1000704770B50446002520684069C0F3C015B0
:102C200094F83D0021280ED16DB12068406920F054
:102C3000800021684861606B10B1606BFEF7B2F8EC
:102C4000204602F022FD20684069C0F3801594F808
:102C50003E0022280ED16DB12068406920F040006E
:102C600021684861A06B10B1A06BFEF79BF820466D
:102C700002F0E0FC002070BD704700002DE9F84F25
:102C80000446206805682068C668206847694FF0D8
:102C90000009CA4605F00F09B9F1000F0AD105F085
:102CA000200038B106F0200020B1204602F0F7FCE9
:102CB000BDE8F88FB9F1000F71D007F0010018B925
:102CC00006F4907000286AD005F0010030B106F4D7
:102CD000807018B1206C40F00100206405F0040001
:102CE00030B107F0010018B1206C40F00200206400
:102CF00005F0020030B107F0010018B1206C40F07F
:102D00000400206405F0080048B106F0200010B966
:102D100007F0010018B1206C40F008002064206C1E
:102D200068B305F0200028B106F0200010B120465D
:102D300002F0B5FC20684069C0F3801A206C00F0F6
:102D4000080010B9BAF1000F22D0204602F072FC40
:102D50002068406900F04000B0B12068406920F070
:102D6000400021684861A06B50B15648A16B486390
:102D7000A06BFEF743F810B1A06B416B88470CE0E5
:102D80002046FFF779FF08E02046FFF775FF04E0D3
:102D90002046FFF771FF0020206489E7FFE7206BE2
:102DA000012878D105F01000002874D006F010003A
:102DB000002870D000BF00200090206800680090BC
:102DC00020684068009000BF00BF2068406900F0A4
:102DD0004000C0B3A06B006840681FFA80F8B8F1EB
:102DE000000F2FD0A08D40452CDDA4F82E80A06BC5
:102DF000806920281FD02068C06820F48070216876
:102E0000C8602068406920F001002168486120689E
:102E1000406920F0400021684861202084F83E008D
:102E2000002020632068C06820F010002168C8607E
:102E3000A06BFDF7B7FFA08DE28D801A81B220460E
:102E4000FFF7E6FE34E7FFE7A08DE18D401A1FFA99
:102E500080F8E08DE8B1B8F1000F1AD02068C068A2
:102E600020F490702168C8602068406920F001005B
:102E700021684861202084F83E00002020632068FB
:102E8000C06820F010002168C86041462046FFF766
:102E9000BFFE0DE7FFE705F0800030B106F08000CF
:102EA00018B1204602F038FD02E705F0400030B1CD
:102EB00006F0400018B1204602F0D7FBF8E600BF4C
:102EC000F6E600000555000810B504460CB90120CF
:102ED00010BDA06900B100E000BF94F83D0028B922
:102EE000002084F83C00204600F028F8242084F8D4
:102EF0003D002068C06820F400502168C86020466A
:102F000002F040FC2068006920F4904021680861CC
:102F10002068406920F02A00216848612068C06864
:102F200040F400502168C86000202064202084F80C
:102F30003D0084F83E000020CAE7000010B586B0CE
:102F40000446002002900390049005903D492068BB
:102F5000884275D100BF3C48806940F480403A49BE
:102F600088610846806900F48040019000BF00BF7E
:102F700000BF0846806940F0080088610846806903
:102F800000F00800019000BF00BF40200290022026
:102F900003900320059002A92C48FEF7EBF880204F
:102FA000029000200390049002A92848FEF7E2F85E
:102FB00000BF2749486840F0E06040F004004860E6
:102FC00000BF2448244908600020486000212248AE
:102FD00081608021C16000210161416181614FF404
:102FE0008051C161FEF730F808B1FDF7B6FA00BFB5
:102FF0001948A063446200BF164814381749086096
:10300000102048600021154881608021C1600021A6
:103010000161416181614FF48051C161FEF714F893
:1030200008B1FDF79AFA00BF0C486063446200BF24
:10303000002211462520FEF7C5FA2520FEF7B2FA38
:1030400006B010BD0038014000100240000C0140E5
:103050000000014058000240000800204408002001
:1030600070B504460D46164694F83E00202816D149
:1030700005B10EB9012070BD00BF94F83C000128D5
:1030800001D10220F7E7012084F83C0000BF0020B6
:10309000206332462946204602F0F2FBEBE702208D
:1030A000E9E7704770470000F7B50446154694F805
:1030B0003D0020283DD1019800B10DB90120FEBD91
:1030C00000BF94F83C00012801D10220F7E701205D
:1030D00084F83C0000BF01982062A584E5840020AC
:1030E0002064212084F83D001348616B88621348F6
:1030F000616BC8621248616B08630020616B4863B2
:1031000001AE23681A1D31682B46606BFDF7D0FFB6
:103110006FF040002168086000BF002084F83C0088
:1031200000BF2068406940F08000216848610020AD
:10313000C5E70220C3E70000F15500082756000844
:10314000195500087047704700BFFEE710B586B0FC
:1031500004460020029003900490059000BF374879
:10316000806940F00400354988610846806900F0B4
:103170000400019000BF00BF00BF0846806940F016
:10318000080088610846806900F00800019000BFCF
:1031900000BF082C4DD2DFE804F0040D161F2831C3
:1031A0003A43012002900320039002A92448FDF72E
:1031B000E1FF3FE0022002900320039002A9204893
:1031C000FDF7D8FF36E0042002900320039002A907
:1031D0001B48FDF7CFFF2DE008200290032003904D
:1031E00002A91748FDF7C6FF24E040200290032003
:1031F000039002A91248FDF7BDFF1BE0802002905A
:103200000320039002A90E48FDF7B4FF12E001204D
:1032100002900320039002A90A48FDF7ABFF09E0E2
:10322000022002900320039002A90648FDF7A2FFA6
:1032300000E000BF00BF06B010BD0000001002405B
:1032400000080140000C014010B586B00446002083
:10325000029003900490059000BF5A48806940F0A6
:103260000400584988610846806900F00400019014
:1032700000BF00BF00BF0846806940F008008861B9
:103280000846806900F00800019000BF00BF082CCC
:1032900070D2DFE804F0041527394B5D70810022FD
:1032A00001214948FEF7FEF801200290039000201A
:1032B00004900220059002A94348FDF75BFF7EE0E1
:1032C000002202214048FEF7EDF802200290012082
:1032D0000390002004900220059002A93A48FDF7CF
:1032E00049FF6CE0002204213748FEF7DBF8042098
:1032F000029001200390002004900220059002A972
:103300003148FDF737FF5AE0002208212E48FEF72A
:10331000C9F80820029001200390002004900220A8
:10332000059002A92848FDF725FF48E0002240212A
:103330002548FEF7B7F840200290012003900020B6
:1033400004900220059002A91F48FDF713FF36E004
:10335000002280211C48FEF7A5F880200290012061
:103360000390002004900220059002A91648FDF762
:1033700001FF24E022E0002201211448FEF792F828
:10338000012002900390002004900220059002A9E1
:103390000E48FDF7EFFE12E0002202210B48FEF777
:1033A00081F8022002900120039000200490022066
:1033B000059002A90548FDF7DDFE00E000BF00BF53
:1033C00006B010BD0010024000080140000C014092
:1033D00010B586B00446002002900390049005903A
:1033E00000BF3F48806940F004003D4988610846BD
:1033F000806900F00400019000BF00BF00BF0846D4
:10340000806940F0080088610846806900F0080083
:10341000019000BF00BF082C5DD2DFE804F0040F6C
:103420001A25303B465101200290002003900120D4
:10343000049002A92B48FDF79DFE4DE0022002906A
:10344000002003900120049002A92648FDF792FE77
:1034500042E004200290002003900120049002A981
:103460002048FDF787FE37E00820029000200390F7
:103470000120049002A91B48FDF77CFE2CE04020AF
:103480000290002003900120049002A91548FDF746
:1034900071FE21E080200290002003900120049022
:1034A00002A91048FDF766FE16E0012002900020F8
:1034B00003900120049002A90B48FDF75BFE0BE08E
:1034C00002200290002003900120049002A90648E7
:1034D000FDF750FE00E000BF00BF06B010BD0000C9
:1034E0000010024000080140000C014000200FE3E2
:1034F000FE4931F81010192903DA1F21FC4A115432
:1035000004E3FA4931F810101A2908DBF74931F8B9
:1035100010107D2903DA2121F54A1154F6E2F3490E
:1035200031F810107D2908DBF04931F81010DC2942
:1035300003DA2221EE4A1154E8E2EC4931F8101086
:10354000DC2909DBE94931F81010B1F5937F03DC80
:103550002321E74A1154D9E2E44931F8101040F22E
:103560002712914209DBE14931F81010B1F5DE7FF5
:1035700003DC2421DE4A1154C8E2DC4931F8101082
:1035800040F2BD12914209DBD84931F81010B1F573
:10359000087F03DC2021D64A1154B7E2D34931F821
:1035A000101040F22122914209DBD04931F810106D
:1035B000B1F5257F03DA1821CD4A1154A6E2CB4993
:1035C00031F81010B1F5257F09DBC84931F810102A
:1035D000B1F53A7F03DC1321C54A115496E2C34981
:1035E00031F8101040F2E92291420ADBBF4931F86C
:1035F000101040F25232914203DA1121BC4A1154A8
:1036000084E2BA4931F8101040F2523291420ADB9A
:10361000B64931F8101040F2F232914203DA10212B
:10362000B34A115472E2B14931F8101040F2F2324B
:1036300091420ADBAD4931F8101040F24C42914200
:1036400003DA1521AA4A115460E2A84931F8101092
:1036500040F24C4291420ADBA44931F8101040F28A
:10366000A642914203DA1421A14A11544EE29F4925
:1036700031F8101040F2A64291420ADB9B4931F822
:10368000101040F2FB42914203DA1221984A115481
:103690003CE2964931F8101040F2FB42914209DBBE
:1036A000924931F81010B1F5AA6F03DA1621904A49
:1036B00011542BE28D4931F81010B1F5AA6F0ADBD5
:1036C0008A4931F8101040F2C352914203DA1721AF
:1036D000874A11541AE2854931F8101040F2C3525A
:1036E00091420ADB814931F8101040F22762914281
:1036F00003DA03217E4A115408E27C4931F81010A4
:1037000040F2276291420ADB784931F8101040F20A
:103710007762914203DA0421754A1154F6E1734944
:1037200031F8101040F27762914209DB6F4931F8AD
:103730001010B1F5DA6F03DC05216D4A1154E5E193
:103740006A4931F8101040F2D16291420ADB6749B0
:1037500031F8101040F26C72914203DA0121644A90
:103760001154D3E1614931F8101040F26C7291426A
:103770000ADB5E4931F8101040F2DA72914203DA46
:1037800002215B4A1154C1E1584931F8101040F24E
:10379000DA7291420ADB554931F8101040F63402D2
:1037A000914203DA0C21524A1154AFE14F4931F8EA
:1037B000101040F6340291420ADB4C4931F81010E7
:1037C00040F69802914203DA0D21494A11549DE1D5
:1037D000464931F8101040F6980291420ADB4349FD
:1037E00031F8101040F6FC02914203DA0F21404AF2
:1037F00011548BE13D4931F8101040F6FC02914222
:1038000009DB3A4931F81010B1F5166F03DA0E21D1
:10381000374A11547AE1354931F81010B1F5166F75
:103820000ADB324931F8101040F6BA12914203DA3D
:103830000B212F4A115469E12C4931F8101040F640
:10384000BA1291420ADB294931F8101040F61422CD
:10385000914203DA0621264A115457E1234931F8EF
:10386000101040F6142291420ADB204931F8101062
:1038700040F67322914203DA07211D4A115445E1B3
:103880001A4931F8101040F6732291420ADB1749A9
:1038900031F8101040F6E622914203DA0821144A6A
:1038A000115433E1114931F8101040F6E6229142EB
:1038B0000ADB0E4931F8101040F68632914203DAE5
:1038C00009210B4A115421E1084931F8101040F642
:1038D000863291420EDB054931F81010B1F5436F85
:1038E00008DA0A21024A115410E100008800002081
:1038F00005000020884931F81010B1F5436F0ADB4C
:10390000854931F8101040F6E442914203DA19215A
:10391000824A1154FAE0804931F8101040F6E4422E
:10392000914235DD7C4931F8101040F64852914201
:103930002EDA7B490978491C794A11701A21774A95
:1039400011540121774A764B1B7822F813107449E1
:10395000097801290ADD72490978491E724A515CC9
:10396000891C724A6E4B1B78D15404E000216F4AC7
:103970006B4B1B78D154002805DD411E6A4A684B09
:103980001B78D154C2E06849654A12788854BDE07A
:10399000614931F8101040F65252914236DD5E49CD
:1039A00031F8101040F6CA5291422FDA5C4909787A
:1039B000491C5B4A11701B21584A11540222594973
:1039C000574B1B7821F813205549097801290ADD46
:1039D00053490978491E544A515C891C534A504B3B
:1039E0001B78D15404E0002250494D4B1B78CA5437
:1039F000002806DD411ECAB24B49494B1B78CA5408
:103A000084E04949464A127888547FE0424931F8B7
:103A1000101040F6CA52914236DD3F4931F810107D
:103A200040F62E6291422FDA3D490978491C3C4A02
:103A300011701C21394A115403213A4A384B1B7822
:103A400022F813103649097801290BDD3449097829
:103A5000491E354A515C891CCAB23449304B1B7827
:103A6000CA5404E00021314A2D4B1B78D154002860
:103A700005DD411E2C4A2A4B1B78D15446E02A49C9
:103A8000274A1278885441E0234931F8101040F653
:103A90002E62914237DD204931F8101040F69262D3
:103AA000914230DA1E490978491C1D4A11701D21C6
:103AB0001A4A11544FF6FA721A49194B1B7821F819
:103AC00013201749097801290BDD15490978491E8A
:103AD000154A515C891CCAB21449114B1B78CA544F
:103AE00004E0002211490E4B1B78CA54002805DD62
:103AF000411E0D4A0A4B1B78D15407E00A49084A77
:103B00001278885402E00021044A1154411CC8B2C2
:103B10000828FFF6EDAC7047880000200500002063
:103B20001E0000207C000020150000201000002056
:103B300010B51148007898B14FF480710F48FDF727
:103B4000A9FC68B91420FDF701FB4FF480710B4804
:103B5000FDF7A0FC68B9002007490870012010BDDE
:103B60004FF480710548FDF795FC012801D1024909
:103B700008700020F3E70000230000200008014047
:103B800070B504460D46134800880A280EDD002053
:103B90001049088010480078401E0F4908700846F8
:103BA0000078FA2815DD0020087012E00948008826
:103BB000052803DA2046FCF715FD0AE005480088D1
:103BC000052806DB034800880A2802DC2046FCF7AB
:103BD000C7FC70BD600000200400002070B50446E2
:103BE0002A48005D14284FD12849601C085C1F2812
:103BF0000FD0601C085C20280BD0601C085C2128BA
:103C000007D0601C085C222803D0601C085C2328B5
:103C100037D100201E49088027E0022505E0611900
:103C2000C8B2FCF7DFFC681CC5B228190828F6DB0F
:103C300011201849087002F045FC00212046FFF7CA
:103C40009FFF154904F1090031F81000B0F5006F2D
:103C50000BDA04F1090031F81000B0F5006F04DA56
:103C60002046FCF77DFC012070BDFFF761FF0128B5
:103C7000D3D12046FCF774FC3220FDF767FA02200E
:103C8000F2E72046FCF76CFC0020EDE70500002081
:103C900060000020360000208800002010B5324867
:103CA0000078002857DD30480078401C2F49087004
:103CB00001241BE02D480078401E2C4908702C4838
:103CC00030F814002B4908802B48005D2B49087000
:103CD0002B48005D2B490870084602782748017878
:103CE0002448008800F054F8601CC4B21E480078D4
:103CF0008442DFDD23480078801CC4B21FE02046E8
:103D000001F09EFE204600F08BFE204601F012F8E6
:103D1000204601F0DBFA204602F088FC204602F043
:103D2000D5FD204602F01CF8204602F0D9FB2046C3
:103D300000F0B6FD2046FFF751FF601CC4B2082C0E
:103D4000DDDB0020084908700A4908800B4908702B
:103D50000C49087001E000F013FE00200A490870C9
:103D60000A49087010BD00001E0000201F0000203E
:103D70007C0000201A000020100000201C00002001
:103D8000150000201D000020200000202100002040
:103D90002DE9FF5F07460E4615464FF0000AD34651
:103DA0000020039002900190009081468046D0E070
:103DB00041F2D470874201DD4FF000083446C1E083
:103DC000B84571DA204601F03BFE01280DD134469A
:103DD00004E02046FCF7C4FB601CC4B2681C8442AB
:103DE000F7DD012004B0BDE8F09F204600F058FD4B
:103DF0000390039802280BD1344604E02046FCF7D8
:103E0000AFFB601CC4B2681C8442F7DD0120E9E707
:103E10002046FFF7E3FE0290029802280BD13446B9
:103E200004E02046FCF79CFB601CC4B2681C844282
:103E3000F7DD0120D6E7204602F052FB8346BBF1B6
:103E4000020F0BD1344604E02046FCF789FB601CCE
:103E5000C4B2681C8442F7DD0120C3E7204600F0AD
:103E6000DFFD8246BAF1020F0BD1344604E0204652
:103E7000FCF776FB601CC4B2681C8442F7DD0120AD
:103E8000B0E7204600F056FF0090009802280CD1C1
:103E9000344604E02046FCF763FB601CC4B2681C97
:103EA0008442F7DD01209DE74AE0204601F00EFA4A
:103EB0008146B9F1010F0ED0B9F1020F0BD1344692
:103EC00004E02046FCF74CFB601CC4B2681C844232
:103ED000F7DD012086E7204602F0F8FC019001980A
:103EE00002280BD1344604E02046FCF739FB601C65
:103EF000C4B2681C8442F7DD012073E7204602F05B
:103F000095FB01280BD1344604E02046FCF728FB42
:103F1000601CC4B2681C8442F7DD012062E72046C1
:103F200001F01EFF01280BD1344604E02046FCF7C7
:103F300017FB601CC4B2681C8442F7DD012051E706
:103F4000601CC4B2AC427FF73BAF08F101001FFA1E
:103F500080F8B845FFF62CAF691CC8B2FCF700FB2F
:103F600000203FE70EB500200090019002906548C8
:103F70006549086081156448816001210173002151
:103F800001754FF46021C16100205F494860102134
:103F90005D480161FCF716FD08B1FCF7DEFA04206C
:103FA0000090012001900720029069465648FCF7D6
:103FB000C5FB08B1FCF7D1FA052000900220019062
:103FC00069465148FCF7BAFB08B1FCF7C6FA0A206B
:103FD00000900320019069464B48FCF7AFFB08B105
:103FE000FCF7BBFA0B20009004200190694646487C
:103FF000FCF7A4FB08B1FCF7B0FA0C2000900520F8
:10400000019069464048FCF799FB08B1FCF7A5FA16
:104010000D2000900620019069463B48FCF78EFB7E
:1040200008B1FCF79AFA0E2000900720019069462B
:104030003548FCF783FB08B1FCF78FFA0F2000909E
:104040000820019069463048FCF778FB08B1FCF77E
:1040500084FA002000900920019069462A48FCF764
:104060006DFB08B1FCF779FA012000900A2001905D
:1040700069462548FCF762FB08B1FCF76EFA02209E
:1040800000900B20019069461F48FCF757FB08B1D0
:10409000FCF763FA032000900C20019069461A484F
:1040A000FCF74CFB08B1FCF758FA062000900D20F5
:1040B000019069461448FCF741FB08B1FCF74DFA42
:1040C000072000900E20019069460F48FCF736FB50
:1040D00008B1FCF742FA082000900F2001906946D1
:1040E0000948FCF72BFB08B1FCF737FA09200090D0
:1040F0001020019069460448FCF720FB08B1FCF74A
:104100002CFA0EBD00240140A805002008B500BF10
:104110001248406940F00100104948610846406972
:1041200000F00100009000BF00BF002211460B20EC
:10413000FDF748FA0B20FDF735FA002211460E2054
:10414000FDF740FA0E20FDF72DFA002211460F2050
:10415000FDF738FA0F20FDF725FA08BD00100240E0
:1041600000B585B00020019002900390049000BF3C
:104170003448806940F020003249886108468069EF
:1041800000F02000009000BF00BF00BF084680691B
:1041900040F0100088610846806900F0100000902F
:1041A00000BF00BF00BF0846806940F0040088617E
:1041B0000846806900F00400009000BF00BF00BF07
:1041C0000846806940F0080088610846806900F070
:1041D0000800009000BF00BF002209151A48FDF733
:1041E00061F94FF4005001900020029002200390EA
:1041F00001A91548FCF7BEFF4FF480700190002024
:1042000002900120039001A91048FCF7B3FF4FF47E
:104210008060019001200290002003900220049011
:1042200001A90948FCF7A6FF4FF4006001900020A7
:1042300002900120039001A90348FCF79BFF05B001
:1042400000BD0000001002400010014000080140C5
:1042500000B587B00020039004900590069001906F
:10426000029016481649086041F61F404860002138
:104270001348816040F2E731C16000210161416172
:1042800080218161FDF74EFE08B1FCF766F94FF41D
:104290008050039003A90A48FDF7F2FE08B1FCF72D
:1042A0005CF900200190029001A90548FDF7F8FD96
:1042B00008B1FCF752F907B000BD0000002C014026
:1042C0002C07002000B587B00020059006900190D3
:1042D0000290039004904FF08040224908604720EC
:1042E000486000211F4881604FF6FF71C1600021C6
:1042F00001618161FEF7ACF908B1FCF72EF90020ED
:104300000590069005A91748FDF7CAFD08B1FCF70E
:1043100024F90020019001200290002003900490D5
:10432000002201A90F48FEF729F908B1FCF715F999
:10433000042201A90B48FEF721F908B1FCF70DF999
:10434000082201A90748FEF719F908B1FCF705F999
:104350000C2201A90348FEF711F908B1FCF7FDF89A
:1043600007B000BD9C06002000B587B00020059076
:10437000069001900290039004902348234908601E
:10438000472048600021214881604FF6FF71C160DD
:10439000002101618161FEF75BF908B1FCF7DDF8EE
:1043A00000200590069005A91848FDF779FD08B191
:1043B000FCF7D3F800200190012002900020039028
:1043C0000490002201A91148FEF7D8F808B1FCF7C3
:1043D000C4F8042201A90D48FEF7D0F808B1FCF793
:1043E000BCF8082201A90948FEF7C8F808B1FCF793
:1043F000B4F80C2201A90548FEF7C0F808B1FCF793
:10440000ACF807B000BD000000040040E406002046
:1044100000B587B0002003900490059006900190AD
:10442000029015481549086041F61F404860002178
:104430001248816040F2F311C160002101618021C6
:104440008161FDF76FFD08B1FCF787F84FF48050EC
:10445000039003A90948FDF713FE08B1FCF77DF8A6
:1044600000200190029001A90448FDF719FD08B150
:10447000FCF773F807B000BD000800407407002087
:1044800010B50B480B4908604FF4165048600021E6
:1044900008488160C16001610C2141610021816196
:1044A000C161FEF711FD08B1FCF757F810BD00001F
:1044B00000380140BC07002000BFFEE710B5002413
:1044C00024E01448005D1E2803DD1248005D6328C7
:1044D00003D12046FEF7B8FE16E00E48005D1F2807
:1044E00007DB0C48005D232803DC2046FEF72EFE88
:1044F0000AE00848005D242803D12046FEF768FF43
:1045000002E02046FEF7A0FE601CC4B2082CD8DBF7
:1045100010BD00000500002000BFFEE7704700004E
:1045200010B50020CA490870CA49087000BF04E0ED
:104530000921C94A1154411CC8B20828F8DB0020DF
:1045400004E00021C54A1154411CC8B20828F8DB18
:10455000FA20C3490870084600F008FA0A20FCF760
:10456000F5FDFEF7C3FF0020C6E0BC49095C09B1B8
:10457000BC490870BC490978FA297DD1BA49497803
:10458000202924D0B8498978202920D0B649C97873
:1045900020291CD0B4490979202918D0AF49095CD9
:1045A00001290FD0AD49095C02290BD0AB49095C48
:1045B000032907D0A949095C042903D0A749095C4C
:1045C000052904D10121A34A1170A3490854A64921
:1045D0004978212918D0A4498978212914D0A249E1
:1045E000C978212910D0A049097921290CD09B49EB
:1045F000095C072903D09949095C082904D10121E4
:10460000944A11709449085497494978222928D02E
:1046100095498978222924D09349C978222920D024
:104620009149097922291CD08C49095C062913D0AB
:104630008A49095C0B290FD08849095C0C290BD0E9
:104640008649095C0D2907D08449095C0E2903D0ED
:104650008249095C0F2904D101217E4A11707E49EB
:1046600008548149497823291AD07F498978232918
:1046700016D07D49C97800E012E0232910D07A498C
:10468000097923290CD07549095C092903D073499C
:10469000095C0A2904D101216E4A11706E4908543F
:1046A0006E49095C122907D06C49095C142903D0B2
:1046B0006A49095C16291DD1684A411C515C1F29B1
:1046C00018D0411C515C202914D0411C515C212977
:1046D00010D0411C515C22290CD0411C515C232973
:1046E00008D0411C515C242904D00121594A117081
:1046F00059490854411CC8B20828FFF636AF0020BB
:104700001EE05649095C29B90121514A11705749E7
:10471000087019E05149095C18290FD14F4A411C12
:10472000515C24290AD1811C515C1C2906D001212D
:10473000474A1170811C4D4A117005E0411CC8B2F6
:10474000484909788842DCDB00BF494800780328E3
:104750000FDB3F480078012803D03E48007801284D
:1047600004D144480078401C424908700020404968
:1047700008703748007801282CD13E49087800EBB2
:10478000D0714910A0EB410199B900240CE03748E1
:104790000078A04203D12046FBF724FF02E0204628
:1047A000FBF7DEFE601CC4B22E4800788442EEDDCA
:1047B00008E0002404E02046FBF714FF601CC4B2AC
:1047C000072CF8DD2B480078FE2840DD0020294921
:1047D00008703CE01F48007801282DD100241FE01C
:1047E0001D48005DA0420FD12249087800EBD0712E
:1047F0004910A0EB410119B92046FBF7B1FE06E0D4
:104800002046FBF7EFFE02E02046FBF7A9FE194821
:104810000078FE2802DD002016490870601CC4B232
:10482000104800788442DBDD12480078FE280EDD57
:104830000020104908700AE0002404E02046FBF73D
:104840008FFE601CC4B2074800788442F6DD10BDBC
:1048500025000020260000202D000020050000205B
:1048600036000020240000206200002028000020E4
:10487000350000202700002008B508490968C9084C
:104880004FF47A72B1FBF2F14143009100BF00BFD7
:1048900000994A1E00920029F9D108BD7800002035
:1048A00070B504462C48005D122853D12A49601C7B
:1048B000085C1F280FD0601C085C20280BD0601CEF
:1048C000085C212807D0601C085C222803D0601CEB
:1048D000085C23283BD10020204908802BE00225DA
:1048E00005E06119C8B2FBF77DFE681CC5B2281946
:1048F0000828F6DB12201A49087001F0E3FD0021B8
:104900002046FFF73DF9174904F1090031F810007E
:10491000B0F5006F0FDA0A20FCF718FC114904F11A
:10492000090031F81000B0F5006F04DA2046FBF7FB
:1049300017FE012070BDFFF7FBF80128CFD12046FC
:10494000FBF70EFE3220FCF701FC0220F2E72046C6
:10495000FBF706FE0020EDE70500002060000020C8
:1049600036000020880000207047000010B5044683
:10497000012221460148FEF797FB10BDBC0700202D
:1049800010B500241FE0204601F05AF8204600F040
:1049900047F8204600F0CEF9204600F097FC20466C
:1049A00001F044FE204601F091FF204601F0D8F9C5
:1049B000204601F095FD2046FFF772FF2046FFF7E5
:1049C0000DF9601CC4B2082CDDDB1348FFF7CEFFE5
:1049D0006420FCF7BBFB1048FFF7C8FF6420FCF71E
:1049E000B5FB0D48FFF7C2FF6420FCF7AFFB0A4898
:1049F000FFF7BCFF00200849087008490870002430
:104A000007E02046FEF720FC2046FBF7A9FD601CCE
:104A1000C4B2082CF5DB10BD3600002037000020A2
:104A200070B50446BD48005D202879D1254604E0D4
:104A30002846FBF7D7FD681CC5B2082DF8DBB7493F
:104A4000601C085C09286CD1A01C085C1D28FAD1E8
:104A50000120B34908700020B2490880E7E0611CDA
:104A6000C8B20021FFF78CF8AF4904F1080031F813
:104A70001000B0F5167F11DA0120A94908702A202C
:104A8000AA49087001F01EFD611CC8B2FBF768FD61
:104A9000611CC8B2FBF764FD012070BDA24904F19E
:104AA000080031F81000B0F5167F18DB04F108009B
:104AB00031F81000B0F5966F11DA012098490870AE
:104AC00029209A49087001F0FDFC611CC8B2FBF76F
:104AD00047FD611CC8B2FBF743FD0120DDE79249A9
:104AE00004F1080031F81000B0F5966F1ADB04F1FC
:104AF000080031F81000B0F5E16F13DA01208849A1
:104B0000087028208949087001F0DCFC611CC8B2DB
:104B1000FBF726FD611CC8B2FBF722FD0120BCE7B4
:104B2000C9E09AE0804904F1080031F81000B0F5BE
:104B3000E16F19DB04F1080031F8100040F6FC01C8
:104B4000884211DA012076490870232077490870DD
:104B500001F0B8FC611CC8B2FBF702FD611CC8B2D1
:104B6000FBF7FEFC012098E76F4904F1080031F8DB
:104B7000100040F6FC0188421ADB6B4904F1080082
:104B800031F8100040F65431884211DA01206449AE
:104B900008702B206549087001F094FC611CC8B2B4
:104BA000FBF7DEFC611CC8B2FBF7DAFC012074E7FE
:104BB0005D4904F1080031F8100040F65431884294
:104BC0001ADB594904F1080031F8100040F6AC51E5
:104BD000884211DA0120524908702C20534908708C
:104BE00001F070FC611CC8B2FBF7BAFC611CC8B2D2
:104BF000FBF7B6FC012050E74B4904F1080031F8FF
:104C0000100040F6AC51884211DB01204449087085
:104C10002D204649087001F055FC611CC8B2FBF715
:104C20009FFC611CC8B2FBF79BFC012035E7FEF737
:104C30007FFF01287FF413AF03203D490870611CFA
:104C4000C8B2FBF78DFC611CC8B2FBF789FC611C84
:104C5000C8B2FBF785FC02201FE73049601C085CE6
:104C6000182803D1A01C085C1D2824D0254604E088
:104C70002846FBF7B7FC681CC5B2082DF8DB0BE033
:104C8000294904F1080031F81000B0F5006F03DA8B
:104C90002046FBF765FC03E0FEF74AFF0128EFD151
:104CA00000BFFEF745FF012805D0611CC8B2FBF725
:104CB00057FC0220F1E61A48007868BB1748005DEF
:104CC000092829D100201749088022201749087097
:104CD00001F0F8FB032016490870204600F006FC9E
:104CE00010E0134801782046FEF74AFFFEF720FF48
:104CF000012807D103200E4908702046FBF730FC3D
:104D00000120CAE60A4800780028EAD103200849B1
:104D100008702046FBF724FC0020BEE605000020BA
:104D200021000020600000208800002036000020C4
:104D30000400002070B50446A148005D202879D108
:104D4000254604E02846FBF74DFC681CC5B2082D3B
:104D5000F8DB9B49601C085C1828F0D1A01C085C9B
:104D60001D28ECD101209749087000209649088041
:104D7000DDE0611CC8B20021FEF702FF934904F197
:104D8000080031F81000B0F5167F11DA01208D49C6
:104D9000087030208E49087001F094FB611CC8B285
:104DA000FBF7DEFB611CC8B2FBF7DAFB012070BD2C
:104DB000864904F1080031F81000B0F5167F18DBC1
:104DC00004F1080031F81000B0F5966F11DA0120F7
:104DD0007C4908702F207E49087001F073FB611C2C
:104DE000C8B2FBF7BDFB611CC8B2FBF7B9FB0120E1
:104DF000DDE7764904F1080031F81000B0F5966F50
:104E000019DB04F1080031F81000B0F5E16F12DA97
:104E100001206C4908702E206D49087001F052FB8A
:104E2000611CC8B2FBF79CFB611CC8B2FBF798FB86
:104E30000120BCE791E0654904F1080031F8100059
:104E4000B0F5E16F10DB04F1080031F8100040F616
:104E5000FC01884208DA01205A49087014205C4994
:104E6000087001F02FFB62E0584904F1080031F8A6
:104E7000100040F6FC0188421ADB544904F1080096
:104E800031F8100040F65431884211DA01204D49C2
:104E9000087031204E49087001F014FB611CC8B243
:104EA000FBF75EFB611CC8B2FBF75AFB01207EE7F3
:104EB000464904F1080031F8100040F654318842A8
:104EC0001ADB424904F1080031F8100040F6AC51F9
:104ED000884211DA01203B49087032203C490870B1
:104EE00001F0F0FA611CC8B2FBF73AFB611CC8B2D2
:104EF000FBF736FB01205AE7344904F1080031F88A
:104F0000100040F6AC51884211DB01202D49087099
:104F100033202F49087001F0D5FA611CC8B2FBF7A5
:104F20001FFB611CC8B2FBF71BFB01203FE7FEF72C
:104F3000FFFD01287FF41DAF032026490870611C86
:104F4000C8B2FBF70DFB611CC8B2FBF709FB611C83
:104F5000C8B2FBF705FB022029E71A48007868BBB6
:104F60001748005D182829D10020174908802F20F4
:104F70001749087001F0A6FA032016490870204668
:104F800000F0B4FA10E0134801782046FEF7F8FD6F
:104F9000FEF7CEFD012807D103200E4908702046F8
:104FA000FBF7DEFA012002E70A4800780028EAD180
:104FB0000320084908702046FBF7D2FA0020F6E6E5
:104FC0000500002020000020600000208800002054
:104FD000360000200400002010B5FCF76FFA10BD69
:104FE00000B593B0282109A8FBF7E4F8142104A820
:104FF000FBF7E0F800200090019002900390012060
:10500000099000040A9000200B9001200D900220CE
:105010001090C10311914FF4E011129109A8FCF70F
:10502000F1FC08B1FBF799FA0F20049002200590DB
:10503000002006904FF48060079000200890022125
:1050400004A8FCF7A9FB08B1FBF787FA022000903F
:105050004FF4404002906846FCF706FB08B1FBF7AE
:105060007CFA13B000BD704710B50248FDF7C7FCCD
:1050700010BD00002C07002010B50248FDF7BFFC52
:1050800010BD00009C06002010B50248FDF7B7FCDB
:1050900010BD0000E406002010B50248FDF7AFFC8B
:1050A00010BD00007407002010B50268184B98422C
:1050B00008D0B0F1804F05D0164B984202D0164B65
:1050C000984203D122F070024B681A43104B984269
:1050D00008D0B0F1804F05D00E4B984202D00E4B55
:1050E000984203D122F44072CB681A4322F0800325
:1050F0004C6943EA040202608B68C3620B688362F6
:10510000034B984201D10B6903630123436110BD36
:10511000002C0140000400400008004030B501F0C0
:105120001F05012404FA05F3046A9C430462046A1F
:1051300001F01F0502FA05F52C43046230BD30B5BD
:105140000C46816821F47F4142EA03252543294327
:10515000816030BD0A46816821F0700142F007038A
:1051600019438160704730B50B461446026A056AE0
:1051700025F001050562816921F0F00141EA041181
:1051800022F00A021A438161026230BD70B50C46FA
:105190001546066A26F0010606628169026A124E09
:1051A000B04208D0B0F1804F05D0104EB04202D0CE
:1051B0000F4EB04201D1012600E000261EB121F0C1
:1051C0000301294301E041F0010121F0F001F02643
:1051D00006EA0316314322F00A0204F00A063243BB
:1051E0008161026270BD0000002C0140000400409B
:1051F0000008004030B50B461446056A25F010053E
:1052000005628169026A21F4704141EA043122F0A9
:10521000A00242EA03128161026230BD70B50C4601
:105220001546066A26F0100606628169026A21F4B4
:10523000407141EA052121F470414FF4704606EABD
:105240000336314322F0A002A02606EA04163243B8
:105250008161026270BD70B50C461546066A26F47F
:1052600080760662C169026A21F00301294321F0B8
:10527000F001F02606EA0316314322F400724FF4DF
:10528000007606EA04263243C161026270BD70B541
:105290000C461546066A26F480560662C169026A03
:1052A00021F4407141EA052121F470414FF4704628
:1052B00006EA0336314322F400524FF4005606EA60
:1052C00004363243C161026270BD000070B504460D
:1052D00000267F48005D242877D1254604E0284633
:1052E000FBF780F9681CC5B2082DF8DB7849601C13
:1052F000085C18286AD1A01C085C1D28FAD101207E
:105300007449087000207449088084E0734904F1EE
:10531000080031F8100040F6FA71884203DD0020E1
:105320006F4941F82400611CC8B20021FEF728FC37
:10533000601C6C490870FBF7D5F9694850F82400E7
:10534000B0F5167F11D1012062490870112066491D
:10535000087001F0B7F8611CC8B2FBF701F9611CD5
:10536000C8B2FBF7FDF8012070BD5D4850F824007D
:10537000B0F52F7F11D101205649087012205A49EB
:10538000087001F09FF8611CC8B2FBF7E9F8611CD6
:10539000C8B2FBF7E5F80120E6E7514850F82400D1
:1053A000B0F5487F13D101204A49087013204E49B7
:1053B000087001F087F8611CC8B2FBF7D1F8611CD6
:1053C000C8B2FBF7CDF80120CEE77FE036E04448D5
:1053D00050F82400B0F5617F11D101203D490870DB
:1053E00025204149087001F06DF8611CC8B2FBF737
:1053F000B7F8611CC8B2FBF7B3F80120B4E738482E
:1054000050F8240038B90120324908701420364978
:10541000087001F057F8FEF78BFB01287FF476AF98
:10542000611CC8B2FBF79CF8611CC8B2FBF798F886
:10543000611CC8B2FBF794F8022095E700202649CA
:10544000088000212046FEF79BFB35E0601C2549C3
:105450000870FBF747F90126214850F82400B0F501
:10546000167F05D1002600201D4941F8240027E0C1
:105470001B4850F82400B0F52F7F05D100260020EE
:10548000174941F824001BE0154850F82400B0F5F6
:10549000487F05D100260020114941F824000FE083
:1054A0000F4850F82400B0F5617F05D10026002098
:1054B0000B4941F8240003E0FEF73AFB0128C5D16F
:1054C00000BF012E02D1002602204DE700204BE74D
:1054D000050000202000002060000020880000203F
:1054E0007C0600200D0000203600002070B5054627
:1054F0002C4604E02046FBF775F8601CC4B2072C6C
:10550000F8DB70BD70B505466C6A0020E085E0846C
:105510002046FDF7B1FB70BD70B506460025746AE4
:1055200020684069C0F3C01594F83D00212805D1DA
:1055300025B10020E084204600F0A7F820684069EB
:10554000C0F3801594F83E00222805D125B1002033
:10555000E085204600F06EF8206C40F010002064DA
:105560002046FDF789FB70BD70B505466C6A28685A
:10557000006800F02000F8B90020E0852068C068CD
:1055800020F480702168C8602068406920F0010024
:10559000216848612068406920F040002168486126
:1055A000202084F83E00206B012805D12068C068C7
:1055B00020F010002168C860206B012804D1A18D63
:1055C0002046FDF725FB02E02046FDF76AFD70BD91
:1055D00070B505466C6A206B012805D1A08D410885
:1055E0002046FDF715FB02E02046FDF75BFD70BD90
:1055F00070B505466C6A2868006800F0200070B934
:105600000020E0842068406920F080002168486123
:105610002068C06840F040002168C86002E0204671
:10562000FDF790FD70BD70B50446656A2846FDF72C
:105630008AFD70BD0168C96821F490710268D1606B
:105640000168496921F0010102685161016B01297A
:1056500005D10168C96821F010010268D1602021DC
:1056600080F83E1000210163704710B504462068A1
:10567000C06820F040002168C860202084F83D0008
:105680002046FDF75FFD002010BD0168C96821F0CC
:10569000C0010268D160202180F83D107047F8B544
:1056A000044694F83E00222869D1A068B0F5805FD6
:1056B0000CD1206950B90025A66A20684068C0F363
:1056C00008003080A06A801CA06215E0A56A002650
:1056D000A068B0F5805F03D0A06828B9206918B928
:1056E00020684068287004E02068406800F07F006F
:1056F0002870A06A401CA062E08D401E80B2E08548
:10570000A8BB2068C06820F020002168C86020681D
:10571000C06820F480702168C8602068406920F06B
:10572000010021684861202084F83E00206B012898
:105730001ED1002020632068C06820F0100021687E
:10574000C8602068006800F0100010280AD100BF6F
:105750000020009020680068009020684068009059
:1057600000BF00BFA18D2046FDF752FA03E004E020
:105770002046FDF796FC0020F8BD0020FCE7022043
:10578000FAE7000070B504462168096921F4405128
:10579000E2681143226811612269A16811436269BC
:1057A00041EA02052168C96841F20C62914329432C
:1057B0002268D1602168496921F44071A2691143CE
:1057C000226851612D4A2168914202D1FCF7C0F84C
:1057D00001E0FCF7ADF800EBC00101EB00116268DD
:1057E0009200B1FBF2F100EBC00202EB0012636821
:1057F0009B00B2FBF3F26423B2FBF3F202EBC203B1
:1058000003EB0212A1EB8201322202EB01116422AE
:10581000B1FBF2F101F0F00100EBC00202EB00126B
:1058200063689B00B2FBF3F26423B2FBF3F201EB7B
:10583000021200EBC00101EB001163689B00B1FB99
:10584000F3F100EBC00303EB00136668B600B3FB93
:10585000F6F36426B3FBF6F303EBC30606EB031380
:10586000A1EB8301322303EB01116423B1FBF3F1BC
:1058700001F00F0111442268916070BD00380140B1
:1058800077B581B0044615460298A062A585002030
:105890002064222084F83E001C48A16B88621C48CA
:1058A000A16BC8621B48A16B08630020A16B486311
:1058B00002AE32682368191D2B46A06BFBF7F8FB7C
:1058C00000BF0020009020680068009020684068B9
:1058D000009000BF00BF00BF002084F83C0000BF64
:1058E0002068C06840F480702168C8602068406902
:1058F00040F00100216848612068406940F04000A4
:1059000021684861002004B070BD0000695500089E
:10591000D155000819550008014691F83D0021288D
:1059200028D18868B0F5805F0BD1086948B90A6A48
:105930001088C0F308000B685860086A801C086271
:1059400005E00B6A581C086218780B685860C88C10
:10595000401E80B2C88458B90868C06820F0800032
:105960000B68D8600868C06840F040000B68D860D9
:10597000002070470220FCE738B51548FDF77EF996
:10598000134800680068C0F3001505B301201149F1
:10599000087000BF002000900D480068006800906B
:1059A0000B4800684068009000BF00BF0848FDF742
:1059B00030F9094800684068C4B2C4F107000749DB
:1059C0000870072206490248FDF74AFB00BF38BDB0
:1059D000BC0700206A0000200008002069000020A9
:1059E0006200002000BFFEE702480068C0F302200A
:1059F000704700000CED00E010B5002804DB0A073A
:105A0000130E054A135406E00A07140E034A00F069
:105A10000F031B1FD45410BD00E400E018ED00E09C
:105A200002E008C8121F08C1002AFAD17047704767
:105A3000002001E001C1121F002AFBD170470000C5
:105A400010B504467548005D01282AD1002074492C
:105A5000088018207349087000F034FD072072494F
:105A600008702046FFF742FD10E06F48017820469D
:105A7000FEF786F8FEF75CF8012807D103206A4993
:105A800008702046FAF76CFD012010BD66480078CA
:105A90000028EAD10320644908702046FAF760FD27
:105AA000BAE05E48005D02282AD100205C490880E7
:105AB00019205C49087000F005FD07205A4908705C
:105AC0002046FFF713FD10E0574801782046FEF707
:105AD00057F8FEF72DF8012807D103205249087026
