:020000040800F2
:10000000E00D002001010008615900086537000873
:10001000DD4F00087D040008FD6A000800000000B4
:10002000000000000000000000000000B95A0008B5
:10003000AD0700080000000065590008ED600008E9
:100040001B0100081B0100081B0100081B01000820
:100050001B0100081B0100081B0100081B01000810
:100060001B0100081B0100081B01000851070008C4
:100070001B0100081B010008610700087107000848
:100080001B0100081B0100086D0100081B0100088E
:100090001B0100081B0100081B0100081B010008D0
:1000A0001B0100087D6100081B0100081B010008FE
:1000B0008D6100089D610008AD6100081B0100080A
:1000C0001B0100081B0100081B0100081B010008A0
:1000D0001B010008916A00081B0100081B010008B1
:1000E0001B0100081B0100081B010008DFF80CD0F1
:1000F00000F02AF800480047456D0008E00D002098
:100100000648804706480047FEE7FEE7FEE7FEE7B1
:10011000FEE7FEE7FEE7FEE7FEE7FEE77B6100089D
:10012000ED000008D2B201E000F8012B491EFBD21D
:1001300070470022F6E710B513460A4604461946F2
:10014000FFF7F0FF204610BD064C074D06E0E068C3
:1001500040F0010394E8070098471034AC42F6D30E
:10016000FFF7C8FFF87B0008187C000810B50248AC
:1001700000F097FE10BD00008403002070B5044617
:1001800000252068806800F0010018B320688068AE
:1001900020F001002168886001F08AFC054613E028
:1001A00001F086FC401B02280ED92068806800F010
:1001B000010048B1A06A40F01000A062E06A40F07F
:1001C0000100E062012070BD2068806800F001003D
:1001D0000028E5D10020F6E770B505466C6AA06AF4
:1001E00000F05000E0B9A06A40F40070A0622068FE
:1001F000806800F46020B0F5602F0DD1207B58B9E5
:10020000A06A20F48070A062A06A00F4805018B93F
:10021000A06A40F00100A062204600F03FFE03E02B
:10022000206A016B2846884770BD70B505466C6A28
:10023000A06A40F04000A062E06A40F00400E06282
:10024000204600F02DFE70BD70B50446656A284654
:1002500000F025FE70BD000038B5044600250020E2
:1002600000902068806800F0010078BB20688068FA
:1002700040F0010021688860194800681949B0FB06
:10028000F1F0009002E00098401E009000980028D5
:10029000F9D101F00DFC054619E001F009FC401B05
:1002A000022814D92068806800F0010078B9A06A9B
:1002B00040F01000A062E06A40F00100E06200BF80
:1002C000002084F8240000BF012038BD05E020682C
:1002D000806800F001000028DFD00020F5E7000072
:1002E0007000002040420F0010B5064800884DF213
:1002F000F021884205DD00224FF48061024801F0C0
:10030000D1FB10BD1C0000200010014010B5564864
:100310000078012848D140E04FF48061534801F053
:10032000B9FB012836D18102504801F0B3FB012806
:1003300004D14F480068401C4D4908604C48006893
:100340004C49884229D300224FF48061474801F08C
:10035000A9FB00204649086000240AE0204603F07B
:1003600081FA204600F048FC204600F045FC601C65
:10037000C4B2082CF2DB00224FF480613B4801F04C
:1003800091FB01203C49087000228102374801F0AE
:1003900089FB02E00020364908604FF400613348D1
:1003A00001F078FB0028B7D03348007801280AD143
:1003B000C1022E4801F06EFB012804D100202A4919
:1003C00008702D4908702848007800283BD133E098
:1003D0004FF48061254801F05DFB50BB4FF4806114
:1003E000224801F057FB20B921480068401C2049F1
:1003F00008601F4800681F4988421DD301229102EE
:100400001A4801F04FFB00201949086000240AE057
:10041000204603F027FA204600F0ACFB204600F00F
:10042000A9FB601CC4B2082CF2DB02201249087040
:1004300002E000200E4908604FF400610B4801F013
:1004400029FB0028C4D00C48007802280AD1810278
:10045000064801F01FFB012804D103490870002061
:100460000549087010BD0000220000200010014066
:100470000000002020A107000600002000BFFEE7CA
:100480000020C6E06549095C1A292BD16449097826
:10049000491C634A11700121624A614B1B7822F8A2
:1004A00013105F49097801290ADD5D490978491E61
:1004B0005D4A515C891C5D4A594B1B78D15404E05C
:1004C00000215A4A564B1B78D154002805DD411EA5
:1004D000554A534B1B78D15499E05349504A1278EE
:1004E000885494E04D49095C1B292DD14C49097869
:1004F000491C4B4A117002214A4A494B1B7822F889
:1005000013104749097801290BDD45490978491E2F
:10051000454A515C891CCAB24449414B1B78CA54B4
:1005200004E00021414A3E4B1B78D154002806DDEF
:10053000411ECAB23C493A4B1B78CA5467E03A495B
:10054000374A1278885462E03449095C1C292DD15D
:1005500033490978491C324A11700321314A304B22
:100560001B7822F813102E49097801290BDD2C493C
:100570000978491E2C4A515C891CCAB22B49284B68
:100580001B78CA5404E00021284A254B1B78D1541B
:10059000002806DD411ECAB22349214B1B78CA54EC
:1005A00035E021491E4A1278885430E01B49095C25
:1005B0001D292CD11A490978491C194A11704FF686
:1005C000FA71184A164B1B7822F81310144909784F
:1005D00001290ADD12490978491E134A515C891C18
:1005E000124A0F4B1B78D15404E000210F4A0C4BE8
:1005F0001B78D154002806DD411ECAB20A49084BB7
:100600001B78CA5403E00849054A12788854411CF3
:10061000C8B20828FFF636AF70470000740000200B
:1006200016000020D80000200D0000200800002047
:1006300010B500202C4908702C4908702C4908700E
:1006400001202C490870002004E000212A4A11549E
:10065000411CC8B20728F8DB002004E00021274A2B
:100660001154411CC8B26328F8DB002009E00021C6
:10067000234A22F81010234A1154234A1154411CD2
:10068000C8B23128F3DB00202049087020480078E8
:10069000252812D100240DE0002000F0ADFAC8207A
:1006A00001F054F8002000F065FAC82001F04EF87F
:1006B000601CC4B2082CEFDB15E01548C079252872
:1006C00011D100240DE0072000F096FAC82001F0B7
:1006D0003DF8072000F04EFAC82001F037F8601C02
:1006E000C4B2082CEFDB10BD5100002054000020E4
:1006F0005E000020610000207B09002064060020CD
:1007000054080020B6080020E70800205F00002001
:10071000740000200B48007870B90B480088401C1A
:100720000949088008460088502808DB0020088016
:100730000120064908707047002003490880002006
:10074000F9E7000023000020240000205F000020C3
:1007500010B5024800F0AAFE10BD0000B40300204E
:1007600010B5024800F0A2FE10BD000020060020D7
:1007700010B5024800F09AFE10BD0000DC05002014
:1007800030B590F840500124AC40C56B6C600468F3
:1007900063604468102C04D10468A2600468E160BE
:1007A00003E00468A1600468E26030BD704772B67F
:1007B00000BFFEE710B50020D7E0E3490978E34A1F
:1007C0001170E349095C09B1DF490870E049C97952
:1007D000252904D1DD490978DE4A117003E0DA49A0
:1007E0000978DC4A1170DC490978FA297ED1DA49A6
:1007F0004978202924D0D8498978202920D0D64981
:10080000C97820291CD0D4490979202918D0D04989
:10081000095C01290FD0CE49095C02290BD0CC49D3
:10082000095C032907D0CA49095C042903D0C849D7
:10083000095C052904D10121C84A1170C84908542E
:10084000C5494978212918D0C3498978212914D06C
:10085000C149C978212910D0BF49097921290CD073
:10086000BB49095C072903D0B949095C082904D1AF
:100870000121BA4A1170BA490854B7494978222966
:1008800028D0B5498978222924D0B349C9782229AA
:1008900020D0B149097922291CD0AD49095C06292B
:1008A00013D0AB49095C0B290FD0A949095C0C296D
:1008B0000BD0A749095C0D2907D0A549095C0E2971
:1008C00003D0A349095C0F2904D10121A34A117067
:1008D000A3490854A049497823291AD09E49897808
:1008E000232916D09C49C978232900E011E010D0B3
:1008F0009949097923290CD09549095C092903D024
:100900009349095C0A2904D10121944A1170944940
:1009100008548F49095C122907D08D49095C1429B4
:1009200003D08B49095C16291DD1894A411C515CB1
:100930001F2918D0411C515C202914D0411C515C46
:10094000212910D0411C515C22290CD0411C515C42
:10095000232908D0411C515C242904D001217F4A5D
:1009600011707F490854411CC8B20828FFF625AF12
:1009700000203EE07649095C21B90121794A1170D5
:10098000794908707249095C18290ED1704A411CD6
:10099000515C242909D1811C515C1C2905D00121FD
:1009A000704A1170811C704A11706949C9792529F2
:1009B0001DD16749095C1F2913D06549095C2029AD
:1009C0000FD06349095C21290BD06149095C2229B8
:1009D00007D05F49095C232903D05D49095C2429BC
:1009E00005D101215F4A117009215F4A1170411C34
:1009F000C8B2584909788842BCDB5C4800780328B3
:100A00000FDB58480078012803D0544800780128AB
:100A100004D157480078401C5549087000205349BC
:100A2000087050480078012833D15149087800EB0C
:100A3000D0714910A0EB410199B900240CE04A485B
:100A40000078A04203D1204600F0D6F802E020460C
:100A500000F090F8601CC4B23E4800788442EEDD9D
:100A60000FE0002404E0204600F0C6F8601CC4B289
:100A7000072CF8DD3648C079252802D1072000F080
:100A800079F83B480078FE285DDD00203849087081
:100A900059E03248007801282DD100241FE0304869
:100AA000005DA0420FD13249087800EBD0714910A7
:100AB000A0EB410119B9204600F05CF806E02046A1
:100AC00000F09AF802E0204600F054F82848007838
:100AD000FE2802DD002026490870601CC4B21D48B3
:100AE00000788442DBDD22480078FE282BDD0020E0
:100AF0001F49087027E0002404E0204600F03AF87F
:100B0000601CC4B2134800788442F6DD1048C079F6
:100B100025280CD10F480078401CC4B204E02046C0
:100B200000F06AF8601CC4B2062CF8DD0BE009483E
:100B30000078401CC4B204E0204600F05DF8601C60
:100B4000C4B2072CF8DD10BD2800002027000020CB
:100B50007400002026000020480000202A00002009
:100B600031000020290000202C0000203900002046
:100B70002B00002010B50446082C35D2DFE804F025
:100B8000040A10161C22282E00220121184800F009
:100B900089FF2AE000220221154800F083FF24E0AB
:100BA00000220421124800F07DFF1EE000220821EF
:100BB0000F4800F077FF18E0002240210C4800F0B9
:100BC00071FF12E000228021094800F06BFF0CE069
:100BD00000220121074800F065FF06E00022022103
:100BE000044800F05FFF00E000BF00BF10BD000040
:100BF00000080140000C014010B50446082C35D215
:100C0000DFE804F0040A10161C22282E01221146E7
:100C1000184800F047FF2AE001220221154800F0A1
:100C200041FF24E001220421124800F03BFF1EE0B6
:100C3000012208210F4800F035FF18E00122402171
:100C40000C4800F02FFF12E001228021094800F03B
:100C500029FF0CE001221146074800F023FF06E0BF
:100C600001220221044800F01DFF00E000BF00BF88
:100C700010BD000000080140000C014030B591B0EB
:100C8000402101A8FFF755FA002413E000250DE0EC
:100C900001A850F8250005EB0411104A32F8111094
:100CA000084401A941F82500681C85B2102DEFDB2E
:100CB000601C84B2142CE9DB00240AE001A850F87F
:100CC00024001421B0FBF1F0054921F81400601C48
:100CD00084B2102CF2DB11B030BD00000401002002
:100CE000E400002010B51348007809281ED2DFE880
:100CF00000F01D05080B0E1114171A0006F0E6FA95
:100D000015E006F019FB12E006F04CFB0FE006F0D0
:100D10007FFB0CE006F0B2FB09E006F0E5FB06E025
:100D200006F018FC03E006F04BFC00E000BF00BF3B
:100D300010BD0000050000207047000038B50246D5
:100D400000230020009000BF92F82400012801D168
:100D5000022038BD012082F8240000BF486807281F
:100D600012D21068406B0C79641E04EB84051F24BA
:100D7000AC40A0430D796D1E05EB85050C68AC40B9
:100D800020431468606327E048680D2812D2106879
:100D9000006B0C79E41F04EB84051F24AC40A043D6
:100DA0000D79ED1F05EB85050C68AC4020431468F8
:100DB000206311E01068C06A0C790D3C04EB8405D7
:100DC0001F24AC40A0430D790D3D05EB85050C6853
:100DD000AC4020431468E06208680A2812D3106807
:100DE000C0680C780A3C04EB44050724AC40A043DF
:100DF0000D780A3D05EB45058C68AC40204314682E
:100E0000E0600FE0106800690C7804EB44050724EB
:100E1000AC40A0430D7805EB45058C68AC40204301
:100E2000146820610868102802D00868112827D1AA
:100E3000174C1068A0421ED11068806800F40000B2
:100E4000F0B91068806840F400001468A060086879
:100E5000102815D10F4800680F4CB0FBF4F000EBE0
:100E600080004000009002E00098401E0090009832
:100E70000028F9D104E0906A40F02000906201233C
:100E800000BF002082F8240000BF184661E7000080
:100E9000002401407000002040420F00704770475E
:100EA000704710B504462068406800F020002028F4
:100EB0002FD12068006800F00200022829D1A06A22
:100EC00000F0100018B9A06A40F40070A062206819
:100ED000806800F46020B0F5602F13D1207B88B9C2
:100EE0002068406820F0200021684860A06A20F453
:100EF0008070A062A06A00F4805018B9A06A40F027
:100F00000100A0622046FFF7C9FF6FF012002168C0
:100F100008602068406800F0800080283BD120688D
:100F2000006800F00400042835D1A06A00F0100029
:100F300018B9A06A40F40050A0622068806800F4EC
:100F4000E040B0F5E04F0DD02068406800F48060CC
:100F5000D0B92068806800F46020B0F5602F13D10C
:100F6000207B88B92068406820F0800021684860B4
:100F7000A06A20F48050A062A06A00F4807018B9C2
:100F8000A06A40F00100A0622046FFF7D5FE6FF096
:100F90000C00216808602068406800F0400040288C
:100FA0000FD12068006800F0010050B1A06A40F441
:100FB0008030A062204600F0A7F86FF001002168A1
:100FC000086010BD2DE9F0410446002700250026E9
:100FD000A84614B90120BDE8F081A06810B1207DB9
:100FE00000B100BFA06A30B90020E06284F824009C
:100FF000204600F08BF82046FFF7C0F80746A06AAD
:1010000000F01000002873D1002F71D1A06A20F4E5
:10101000885040F00200A062E16960680843217BCB
:1010200040EA41000643A068B0F5807F02D0A06886
:10103000012802D14FF4807000E000200543207D9C
:10104000012811D1207B38B9A069401E4FF40061FE
:1010500041EA4030054307E0A06A40F02000A0626A
:10106000E06A40F00100E0622068406820F46940D6
:10107000284321684860206880682149084030433F
:1010800021688860A068B0F5807F02D0A068012840
:1010900002D14FF4807000E00020B0F5807F03D1D2
:1010A000208A401E4FEA00582068C06A20F4700071
:1010B00040EA08002168C862206880681149084039
:1010C000B04208D10020E062A06A20F0020040F0A7
:1010D0000100A06211E0A06A20F0020040F01000C0
:1010E000A062E06A40F00100E062012705E0FFE74E
:1010F000A06A40F01000A062012738466BE70000AC
:10110000FDF7E1FFFE0E1FFF7047000010B586B02F
:101110000446002002900390049005903A4920680C
:1011200088426FD100BF3948806940F40070374968
:1011300088610846806900F40070019000BF00BF1C
:1011400000BF0846806940F0100088610846806949
:1011500000F01000019000BF00BF00BF084680698A
:1011600040F0040088610846806900F004000190A6
:1011700000BF00BF00BF0846806940F008008861DA
:101180000846806900F00800019000BF00BF3F20C2
:1011900002900320039002A91D4800F0EBFAFF2003
:1011A00002900320039002A91A4800F0E3FA0320FA
:1011B0000290039002A9184800F0DCFA1748184979
:1011C0000860002048600021154881608021C160CE
:1011D0004900016189004161202181610021C161D3
:1011E00000F032FA08B1FFF7E2FA00BF0C482062C3
:1011F000446200BF00221146122000F0E3FC1220DE
:1012000000F0D0FC06B010BD0024014000100240E8
:101210000010014000080140000C0140080002409D
:10122000B40300202DE9F04104460D461646002780
:1012300057492068884203D056492068884205D122
:101240005348001D006800F4702000E000200028D2
:101250007ED100BF94F82400012802D10220BDE80D
:10126000F081012084F8240000BF2046FEF7F4FF3F
:101270000746002F6DD1A06A40F60161884340F413
:101280008070A06243492068884209D14048001D0F
:10129000006800F4702008B9012002E0002000E09E
:1012A000012078B1A06A20F48010A0622068406814
:1012B00000F4806000B3A06A20F4005040F4805035
:1012C000A06219E0A06A40F48010A0623049206852
:1012D000884203D02F492068884205D12C48001D40
:1012E000006800F4806000E0002028B1A06A20F4CB
:1012F000005040F48050A062A06A00F4805020B1F9
:10130000E06A20F00600E06201E00020E06200BF39
:10131000002084F8240000BF1F48216A88621F480B
:10132000216AC8621E48216A08636FF002002168C2
:1013300008602068806840F48070216888602268B6
:1013400002F14C0133462A46206A00F0B1F901E06F
:101350001AE014E02068806800F46020B0F5602F87
:1013600006D12068806840F4A000216888600CE005
:101370002068806840F480102168886005E000BF24
:10138000002084F8240000E00127384667E70000C9
:101390000024014000280140D9010008490200084A
:1013A0002B0200080146002291F82100022808D0F3
:1013B0000420886300BF002081F8200000BF0120C6
:1013C00070470868006820F00E000B681860086815
:1013D000006820F001000B68186091F8403001208F
:1013E0009840CB6B5860012081F8210000BF00209D
:1013F00081F8200000BF1046E2E7000070B5044607
:10140000002594F82100022803D00420A0630125C0
:1014100048E02068006820F00E002168086020681D
:10142000006820F00100216808601F492068884298
:1014300001D1012026E01C4914312068884201D1E5
:1014400010201FE0184928312068884201D18015FA
:1014500018E015493C312068884201D1801411E020
:10146000114950312068884202D14FF4803009E0A0
:101470000D4964312068884202D14FF4801001E0A8
:101480004FF08070084908394860012084F8210035
:1014900000BF002084F8200000BF606B10B1204620
:1014A000616B8847284670BD0800024070B504464D
:1014B000E06B05682068066894F8401004208840B6
:1014C0002840002846D006F00400002842D02068BA
:1014D000006800F0200028B92068006820F00400AF
:1014E0002168086057492068884201D1042027E01C
:1014F000544914312068884201D1402020E05149EC
:1015000028312068884201D1001519E04D493C314D
:101510002068884202D14FF4804011E0494950319F
:101520002068884202D14FF4802009E045496431A7
:101530002068884202D14FF4800001E04FF08060C3
:10154000404908394860E06A00287AD02046E16ABC
:10155000884776E094F84010022088402840A0B3E5
:1015600006F0020088B32068006800F0200040B94F
:101570002068006820F00A0021680860012084F8D3
:10158000210030492068884201D1022028E02D49FD
:1015900014312068884201D1202021E029492831D6
:1015A0002068884201D140151AE026493C31206864
:1015B000884202D14FF4005012E022495031206895
:1015C000884203D14FF400300AE017E01D4964312E
:1015D0002068884202D14FF4001001E04FF0007003
:1015E00018490839486000BF002084F8200000BF77
:1015F000A06A30B32046A16A884722E094F84010E0
:10160000082088402840E0B106F00800C8B12068F2
:10161000006820F00E002168086094F84010012056
:101620008840E16B48600120A06384F8210000BF7E
:10163000002084F8200000BF206B10B12046216BF1
:10164000884770BD080002400146002209B9012008
:101650007047164B0868C01A1423B0FBF3F08000E3
:10166000086412480838C863022081F8210008681D
:10167000026843F6F0708243D1E901031843CB6856
:1016800018430B6918434B6918438B691843CB699E
:10169000184302430868026000208863012081F833
:1016A0002100002081F8200000BFD1E7080002409F
:1016B0002DE9F04104460D4616461F464FF000083E
:1016C00000BF94F82000012802D10220BDE8F0817B
:1016D000012084F8200000BF94F8210001282CD1BB
:1016E000022084F821000020A0632068006820F018
:1016F0000100216808603B46324629462046FFF734
:101700003FF8E06A30B12068006840F00E002168C0
:1017100008600BE02068006820F004002168086081
:101720002068006840F00A002168086020680068AE
:1017300040F001002168086006E000BF002084F846
:10174000200000BF4FF002084046BFE770B50446D6
:1017500000F0AEF906462546681C10B10448007832
:10176000054400BF00F0A4F9801BA842FAD370BD65
:101770006C0000202DE9F8470346002294466EE1F4
:101780004FF0010808FA02F4D1F8008008EA0400DA
:10179000A0427DD1DFF8DCA2D1F80480A8EB0A09D1
:1017A000D0453AD014DCB8F1030F50D009DCB8F1C1
:1017B000000F31D0B8F1010F1CD0B8F1020F49D1A0
:1017C00020E0B8F1110F18D0B8F1120F42D11EE08D
:1017D000B9F5881F25D006DCB9F5803F20D0B9F5D2
:1017E000801F37D11AE0B9F5001F18D0B9F5041FD2
:1017F00030D117E0D1F80CC02DE0D1F80C8008F101
:10180000040C28E0D1F80C8008F1080C23E0D1F892
:101810000C8008F10C0C1EE000BF00BF00BF00BF31
:1018200000BF00BFD1F80880B8F1000F02D14FF01F
:10183000040C0BE0D1F80880B8F1010F03D14FF090
:10184000080C1C6102E04FF0080C5C6103E04FF0F3
:10185000000C00E000BF00BFFF2801D8984601E05F
:1018600003F104084646FF2802D84FEA820803E045
:10187000A2F108084FEA88084746D6F800804FF0E2
:101880000F0909FA07F928EA09080CFA07F900E034
:1018900088E048EA0908C6F80080D1F8048008F01A
:1018A0008058B8F1805F7DD100BFDFF8CC81D8F8D7
:1018B000188048F00108DFF8C091C9F81880C846C0
:1018C000D8F8188008F00108CDF8008000BF00BFEC
:1018D0004FEAB9384FEA920958F829504FEA82780E
:1018E0004FEA18794FF00F0808FA09F825EA0805B9
:1018F000DFF88881434502D14FF0000816E0DFF899
:101900008081434502D14FF001080FE0DFF8748178
:10191000434502D14FF0020808E0DFF86C814345EF
:1019200002D14FF0030801E04FF004084FEA82793A
:101930004FEA197908FA09F848EA0505DFF84C81F9
:101940004FEA920948F82950D1F8048008F4803809
:10195000B8F5803F0AD1DFF83881D8F8008048EA2E
:101960000008DFF82C91C9F8008009E0DFF8208139
:10197000D8F8008028EA0008DFF81491C9F8008040
:10198000D1F8048008F40038B8F5003F10D1DFF832
:10199000008108F10408D8F8008048EA0008DFF860
:1019A000F09000E05AE009F10409C9F800800DE068
:1019B000DFF8DC8008F10408D8F8008028EA000885
:1019C000DFF8CC9009F10409C9F80080D1F804804F
:1019D00008F48018B8F5801F0ED1DFF8B48008F144
:1019E0000808D8F8008048EA0008DFF8A49009F158
:1019F0000809C9F800800DE0DFF8948008F10808B4
:101A0000D8F8008028EA0008DFF8849009F1080976
:101A1000C9F80080D1F8048008F40018B8F5001F58
:101A20000ED1DFF86C8008F10C08D8F8008048EA85
:101A30000008DFF85C9009F10C09C9F800800DE09E
:101A4000DFF84C8008F10C08D8F8008028EA00087C
:101A5000DFF83C9009F10C09C9F80080521CD1F85C
:101A6000008028FA02F8B8F1000F7FF489AEBDE8D3
:101A7000F88700000000111000100240000801402B
:101A8000000C01400010014000140140080001401A
:101A900000040140024693680B400BB1012000E0B6
:101AA000002070470AB1016101E00B040361704737
:101AB0000148006870470000640000200348006887
:101AC0000349097808440149086070476400002010
:101AD0006C00002010B50848006840F0100006496E
:101AE0000860032000F0ACF8002000F007F800F0D8
:101AF0002BF8002010BD00000020024070B5044605
:101B00000E4800784FF47A71B1FBF0F00C49096887
:101B1000B1FBF0F5284600F0A7FC08B1012070BD2C
:101B2000102C07D200222146501E00F04BF8054829
:101B3000046001E00120F2E70020F0E76C000020E3
:101B4000700000206800002008B500BF13488069BD
:101B500040F00100114988610846806900F00100E9
:101B6000009000BF00BF00BF0846C06940F0805031
:101B7000C8610846C06900F08050009000BF00BFF7
:101B8000052000F05DF800BF0549486820F0E060DE
:101B900040F08070486000BF08BD000000100240A7
:101BA0000000014001460846002809DB00F01F0341
:101BB00001229A4043099B0003F1E023C3F800216E
:101BC00000BF70472DE9F05F80460D46164600279E
:101BD00004F096FF074639462A46334601F00700CF
:101BE000C0F1070ABAF1040F02D94FF0040A01E06C
:101BF000C0F1070AD14600F1040ABAF1070F02D278
:101C00004FF0000A01E0A0F1030AD4464FF0010AA8
:101C10000AFA09FAAAF1010A0AEA020A0AFA0CFA0D
:101C20004FF0010B0BFA0CFBABF1010B0BEA030BB2
:101C30004AEA0B042146404604F06AFFBDE8F09FE3
:101C400000BF00F00702064B19684FF6FF0319406A
:101C5000044B0B4343EA0221014B196000BF70475C
:101C60000CED00E00000FA05F8B50446002600255A
:101C7000207800F0010000286BD000274348C0699D
:101C800000F0805070B900BF4048C06940F08050FB
:101C90003E49C8610846C06900F08050009000BF0E
:101CA00000BF01273A48006800F48070B0B9384896
:101CB000006840F4807036490860FFF7F9FE064678
:101CC00006E0FFF7F5FE801B642801D90320F8BD6C
:101CD0002F48006800F480700028F2D02B48006A7A
:101CE00000F440752DB3A08800F44070A84220D0C5
:101CF0002648006A20F4407501202649086000202B
:101D000008602248056205F0010090B1FFF7D0FE9F
:101D1000064608E0FFF7CCFE801B41F2883188427E
:101D200001D90320D3E71948006A00F00200002817
:101D3000F0D01648006A20F44070616808431349E7
:101D40000862012F04D10846C06920F08050C861A4
:101D500000BF207800F00200022807D10B4840683D
:101D600020F44040A168084308494860207800F00A
:101D70001000102807D10548406820F48000E16871
:101D80000843024948600020A1E70000001002401B
:101D9000007000404004424270B504460D460CB944
:101DA000012070BD5A48006800F00700A8420ED21A
:101DB0005748006820F00700284355490860084646
:101DC000006800F00700A84201D00120E9E7207870
:101DD00000F0020002281DD1207800F00400042841
:101DE00005D14C48406840F4E0604A49486020789A
:101DF00000F00800082805D14648406840F46050CB
:101E0000444948604348406820F0F000A168084316
:101E100040494860207800F0010078B360680128EC
:101E200006D13C48006800F4003090B90120B8E7C2
:101E30006068022806D13748006800F0007040B999
:101E40000120AEE73348006800F0020008B9012025
:101E5000A7E73048406820F00300616808432D4937
:101E60004860FFF725FE064609E0FFF721FE801BCC
:101E700041F28831884202D9032092E707E02548E1
:101E8000406800F00C006168B0EB810FEDD1204894
:101E9000006800F00700A8420ED91D48006820F035
:101EA000070028431A4908600846006800F0070048
:101EB000A84201D0012074E7207800F00400042833
:101EC00007D11448406820F4E060E16808431149F4
:101ED0004860207800F00800082808D10D484068C4
:101EE00020F46050216940EAC1000A49486000F0CE
:101EF0003FF808494968C1F30311074A515CC840DB
:101F00000649086006480068FFF7F8FD002048E72A
:101F10000020024000100240E07B0008700000201A
:101F20006800002001480068704700007000002031
:101F300000B5FFF7F7FF04494968C1F30221034ADE
:101F4000515CC84000BD000000100240F07B00085A
:101F500000B5FFF7E7FF04494968C1F3C221034A0E
:101F6000515CC84000BD000000100240F07B00083A
:101F7000F0B585B00FF26C0C9CE8E01001A8A0E869
:101F8000E0101CA52D6800950021002200230024EC
:101F90000020194D696801F00C05F5B1042D02D03F
:101FA000082D19D101E0154819E001ADC1F38346B0
:101FB000AC5D01F4803555B10F4D6D68C5F34045FA
:101FC0001DF805200D4D6543B5FBF2F302E00C4D05
:101FD00004FB05F3184602E000BF084800BF00BF3D
:101FE00005B0F0BD02030405060708090A0B0C0D35
:101FF0000E0F1010010200000010024000127A00C3
:1020000000093D00F8B504460CB90120F8BD207860
:1020100000F00100002878D0F848406800F00C007B
:1020200004280CD0F548406800F00C00082811D1B5
:10203000F248406800F48030B0F5803F0AD1EF48A4
:10204000006800F4003000285FD0606800285CD190
:102050000120DBE700BF6068B0F5803F06D1E748AC
:10206000006840F48030E549086028E0606858B9AD
:10207000E248006820F48030E049086008460068C3
:1020800020F4802008601AE06068B0F5A02F0BD122
:10209000DA48006840F48020D849086008460068A3
:1020A00040F4803008600AE0D448006820F48030B2
:1020B000D24908600846006820F48020086000BF0C
:1020C000606888B1FFF7F4FC054606E0FFF7F0FC16
:1020D000401B642801D9032098E7C848006800F431
:1020E00000300028F2D010E0FFF7E2FC054606E0E1
:1020F000FFF7DEFC401B642801D9032086E7BF48B8
:10210000006800F400300028F2D1207800F00200CE
:10211000022857D1B948406800F00C0050B1B748C8
:10212000406800F00C00082818D1B448406800F45A
:10213000803098B9B148006800F0020020B12069F1
:10214000012801D0012061E7AC48006820F0F800C8
:10215000616940EAC100A949086033E02069E8B13B
:102160000120A7490860FFF7A3FC054606E0FFF73A
:102170009FFC401B022801D9032047E79F480068C5
:1021800000F002000028F2D09C48006820F0F8001F
:10219000616940EAC1009949086013E0002098494C
:1021A0000860FFF785FC054606E0FFF781FC401B51
:1021B000022801D9032029E79048006800F00200B6
:1021C0000028F2D1207800F0080008282DD1A0695D
:1021D000B8B101208B490860FFF76AFC054606E0AC
:1021E000FFF766FC401B022801D903200EE7834855
:1021F000406A00F002000028F2D0012003F0E4FB66
:1022000013E000207F490860FFF752FC054606E016
:10221000FFF74EFC401B022801D90320F6E6774861
:10222000406A00F002000028F2D1207800F004009B
:10223000042873D100277148C06900F0805070B93C
:1022400000BF6E48C06940F080506C49C8610846C4
:10225000C06900F08050009000BF00BF01276A48AD
:10226000006800F48070B0B96748006840F480707E
:1022700065490860FFF71CFC054606E0FFF718FCFF
:10228000401B642801D90320C0E65F48006800F4C1
:1022900080700028F2D000BFE068012806D15748BE
:1022A000006A40F001005549086227E0E06858B92B
:1022B0005248006A20F00100504908620846006A4E
:1022C00020F00400086219E0E06805280BD14B48B3
:1022D000006A40F00400494908620846006A40F07C
:1022E000010008620AE04548006A20F00100434905
:1022F00008620846006A20F00400086200BFE06837
:10230000A0B1FFF7D5FB054609E0FFF7D1FB401B65
:1023100041F28831884202D9032077E622E037482B
:10232000006A00F002000028EFD012E0FFF7C0FBC7
:10233000054608E0FFF7BCFB401B41F288318842AC
:1023400001D9032062E62D48006A00F0020000284F
:10235000F0D1012F05D12948C06920F080502749CC
:10236000C86100BFE069C8B32448406800F00C00B1
:10237000082860D0E069022848D10020204908667A
:10238000FFF796FB054606E0FFF792FB401B02288D
:1023900001D903203AE61948006800F000700028CF
:1023A000F2D1206AB0F5803F07D11448406820F48C
:1023B0000030A168084311494860D4E90801084386
:1023C0000E49496821F4741108430C494860012002
:1023D0000B490866FFF76CFB054607E03DE0FFF799
:1023E00067FB401B022801D903200FE60348006861
:1023F00000F000700028F2D02FE000000010024032
:102400000000424280044242007000400020144913
:102410000866FFF74DFB054606E0FFF749FB401B4A
:10242000022801D90320F1E50E48006800F0007091
:102430000028F2D111E0E069012800D1E6E5094861
:10244000466806F48031206A814204D106F4701196
:10245000606A814201D00120D8E50020D6E5000065
:10246000000042420010024070B504462546681E36
:10247000B0F1807F01D301200FE0681E4FF0E02112
:1024800048610F214FF0FF3004F042FB00204FF075
:10249000E021886107200861002070BD7047704707
:1024A00030B502460B4600BF92F83C00012801D12E
:1024B000022030BD012082F83C0000BF022082F8DB
:1024C0003D00106844681068816824F07004186842
:1024D000044310684460104D1068A8420BD0106887
:1024E000B0F1804F07D00D4D1068A84203D00C4DBD
:1024F0001068A84205D121F0800158680143106896
:102500008160012082F83D0000BF002082F83C007D
:1025100000BF00BFCDE70000002C014000040040D8
:102520000008004010B504460CB9012010BD94F815
:102530003D0028B9002084F83C00204600F026F831
:10254000022084F83D00211D206803F037FE0120A1
:1025500084F8460000BF84F83E0001213F20015569
:10256000402001554120015500BF00BF012084F8E3
:10257000420043200155442001554520015500BF2C
:10258000012084F83D000020D0E7000038B5044663
:102590001A492068884216D100BF1948806940F462
:1025A0000060174988610846806900F40060009067
:1025B00000BF00BF012200211920FFF703FB1920F3
:1025C000FFF7F0FA19E00F492068884215D100BFE3
:1025D0000B48C06940F004000949C8610846C06959
:1025E00000F00400009000BF00BF012200211E2067
:1025F000FFF7E8FA1E20FFF7D5FA38BD002C01409E
:102600000010024000080040014691F83D000128FA
:1026100001D001207047022081F83D000868C068A1
:1026200040F001000B68D860124B086898420BD04C
:102630000868B0F1804F07D00F4B0868984203D06C
:102640000E4B086898420CD10868806800F00702B9
:10265000062A0CD00868006840F001000B6818607A
:1026600005E00868006840F001000B681860002071
:10267000D0E70000002C01400004004000080040AA
:102680002DE9F04104460D4600BF94F83C000128B6
:1026900002D10220BDE8F081012084F83C0000BF97
:1026A000022084F83D002068866826F0770626F42C
:1026B0007F46206886602868502833D00CDC2028AC
:1026C00050D004DC00284BD0102851D149E03028EC
:1026D00049D040284CD139E060282DD0702807D04F
:1026E000B0F5805F03D0B0F5005F41D10DE040E070
:1026F000D5E902136A68206803F0ABFD206886689C
:1027000046F077062068866033E0D5E902136A68F0
:10271000206803F09EFD2068806840F480402168B6
:10272000886026E0EA686968206803F0A6FD502109
:10273000206803F099FD1CE0EA686968206803F0EE
:10274000E3FD6021206803F08FFD12E0EA6869680C
:10275000206803F092FD4021206803F085FD08E029
:1027600000BF00BF00BF2968206803F07DFD00E0C6
:1027700000BF00BF012084F83D0000BF002084F8A6
:102780003C0000BF00BF85E710B50446F54800785F
:1027900009287CD2DFE800F07B05407CB7F6F4F333
:1027A000F2002068B0F1804F35D1EF480078012861
:1027B00002D002282ED11DE00021EC4800F01CFDC3
:1027C000EB49086000BFE9480068006A20F00A0091
:1027D000E64909680862E5480068006A40F00200BE
:1027E000E2490968086200BFDF480078401CDE4902
:1027F00008700FE00021DD4800F0FEFCDC49486075
:102800000021DA4800F090FBD7480078401CD649F8
:10281000087000BF00BFA2E12068B0F1804F35D141
:10282000D1484078012802D002282ED11DE0042191
:10283000CE4800F0E1FCCE49C86000BFCB4800683C
:10284000006A20F0A000C94909680862C74800680A
:10285000006A40F02000C5490968086200BFC2480C
:102860004078401CC04948700FE00421BF4800F088
:10287000C3FCBF4908610421BC4800F055FBBA48BD
:102880004078401CB849487000BF00BF67E165E16F
:102890002068B0F1804F35D1B3488078012802D04C
:1028A00002282ED11DE00821B04800F0A5FCB04957
:1028B000886100BFAD480068006A20F40070AB4931
:1028C00009680862A9480068006A40F40070A749D6
:1028D0000968086200BFA4488078401CA24988703B
:1028E0000FE00821A14800F087FCA149C861082138
:1028F0009E4800F019FB9C488078401C9A498870DB
:1029000000BF00BF2BE12068B0F1804F35D1964861
:10291000C078012802D002282ED11DE00C21934856
:1029200000F06AFC9249486200BF90480068006A63
:1029300020F400508D49096808628C480068006ADC
:1029400040F4005089490968086200BF8648C07891
:10295000401C8549C8700FE00C21844800F04CFCF5
:10296000834988620C21814800F0DEFA7E48C078F5
:10297000401C7D49C87000BF00BFF0E0B3E077E0C5
:102980003BE0FFE77B492068884235D176480079F3
:10299000012802D002282ED11DE00021764800F047
:1029A0002BFC7349086300BF73480068006A20F07D
:1029B0000A007149096808626F480068006A40F0BF
:1029C00002006D490968086200BF67480079401C31
:1029D000654908710FE00021674800F00DFC64496B
:1029E00048630021644800F09FFA5F480079401C6A
:1029F0005D49087100BF00BFB1E05E4920688842B0
:102A000035D159484079012802D002282ED11DE045
:102A10000421594800F0F0FB5549C86300BF5648EF
:102A20000068006A20F0A000534909680862524813
:102A30000068006A40F020004F490968086200BF42
:102A400049484079401C484948710FE004214A48F0
:102A500000F0D2FB464908640421474800F064FABC
:102A600041484079401C4049487100BF00BF76E0B2
:102A700040492068884235D13B488079012802D0FE
:102A800002282ED11DE008213B4800F0B5FB384953
:102A9000886400BF38480068006A20F40070364936
:102AA0000968086234480068006A40F400703249DE
:102AB0000968086200BF2C488079401C2A49887147
:102AC0000FE008212C4800F097FB2949C864082131
:102AD000294800F029FA24488079401C224988714D
:102AE00000BF00BF3BE023492068884235D11E4823
:102AF000C079012802D002282ED11DE00C211E48E9
:102B000000F07AFB1A49486500BF1B480068006A5C
:102B100020F4005018490968086217480068006AE4
:102B200040F4005014490968086200BF0E48C0799B
:102B3000401C0D49C8710FE00C210F4800F05CFBF0
:102B40000B4988650C210C4800F0EEF90648C07965
:102B5000401C0549C87100BF00BF00E000BF00BFB6
:102B600010BD0000050000203E0000207804002079
:102B7000F803002000040040C00400202DE9F041CB
:102B800004460D46164600BF94F83C00012802D1C9
:102B90000220BDE8F081012084F83C0000BF96B916
:102BA000EB68D5E90012206803F07AFB20688069A1
:102BB00020F00C002168886120688069A9680843BA
:102BC000216888613DE0042E13D1EB68D5E900123D
:102BD000206803F0ADFB2068806920F44060216824
:102BE000886120688069A96840EA012021688861BD
:102BF00027E0082E12D1EB68D5E90012206803F017
:102C0000B4FB2068C06920F00C002168C86120680E
:102C1000C069A96808432168C86112E0EB68D5E97A
:102C20000012206803F0BDFB2068C06920F44060FA
:102C30002168C8612068C069A96840EA012021684C
:102C4000C86100BF002084F83C0000BF00BFA0E7BF
:102C500010B504460CB9012010BD94F83D0028B908
:102C6000002084F83C00204600F026F8022084F87A
:102C70003D00211D206803F0A1FA012084F84600E0
:102C800000BF84F83E0001213F200155402001553E
:102C90004120015500BF00BF012084F842004320BD
:102CA0000155442001554520015500BF012084F8FD
:102CB0003D000020D0E7000010B586B0044600209B
:102CC00002900390049005902068B0F1804F2DD1C0
:102CD00000BF3B48C06940F001003949C86108465F
:102CE000C06900F00100019000BF00BF00BF0846AE
:102CF000806940F0040088610846806900F00400A3
:102D0000019000BF00BF0F2002900020039001201F
:102D1000049002A92B48FEF72DFD002211461C202D
:102D2000FEF750FF1C20FEF73DFF47E026492068D4
:102D3000884243D100BF2248C06940F002002049C8
:102D4000C8610846C06900F00200019000BF00BFE2
:102D500000BF0846806940F0040088610846806929
:102D600000F00400019000BF00BF00BF084680696A
:102D700040F0080088610846806900F00800019072
:102D800000BF00BFC02002900020039001200490EB
:102D900002A90C48FEF7EEFC0320029000200390ED
:102DA0000120049002A90948FEF7E4FC0022114624
:102DB0001D20FEF707FF1D20FEF7F4FE06B010BD34
:102DC000001002400008014000040040000C0140D7
:102DD0002DE9F04104460D4615B994F83E000BE08C
:102DE000042D02D13F20005D06E0082D02D14020D5
:102DF000005D01E04120005D074615B994F84200EE
:102E00000BE0042D02D14320005D06E0082D02D125
:102E10004420005D01E04520005D8046012F02D185
:102E2000B8F1010F02D00120BDE8F0811DB90220E8
:102E300084F83E000EE0042D03D102213F2001550D
:102E400008E0082D03D102214020015502E00221B3
:102E5000412001551DB9022084F842000EE0042DE6
:102E600003D102214320015508E0082D03D102219E
:102E70004420015502E002214520015535B1042DC1
:102E80000BD0082D10D00C2D1CD114E02068C06888
:102E900040F002002168C86015E02068C06840F07A
:102EA00004002168C8600EE02068C06840F0080097
:102EB0002168C86007E02068C06840F01000216801
:102EC000C86000E000BF00BF01222946206803F06F
:102ED000AFF91249206888420BD02068B0F1804FCA
:102EE00007D00F492068884203D00E4920688842E5
:102EF0000CD12068806800F00706062E0CD02068F0
:102F0000006840F001002168086005E02068006862
:102F100040F0010021680860002085E7002C014096
:102F2000000400400008004030B504460D4635B1AD
:102F3000042D0BD0082D10D00C2D1CD114E02068CE
:102F4000C06820F002002168C86015E02068C068F1
:102F500020F004002168C8600EE02068C06820F0FE
:102F600008002168C86007E02068C06820F01000F1
:102F70002168C86000E000BF00BF00222946206829
:102F800003F056F900BF2068006A41F211110840B1
:102F900050B92068006A8910084028B92068006884
:102FA00020F001002168086000BF1DB9012084F8ED
:102FB0003E000EE0042D03D101213F20015508E021
:102FC000082D03D101214020015502E001214120BB
:102FD00001551DB9012084F842000EE0042D03D1F3
:102FE00001214320015508E0082D03D1012144208F
:102FF000015502E0012145200155002030BD10B5EA
:10300000044620680069C0F34000D8B12068C06859
:10301000C0F34000B0B16FF00200216808610120E8
:1030200020772068806900F0030018B12046FFF780
:10303000ABFB05E0204600F0ADF8204600F0ABF811
:103040000020207720680069C0F38000D8B1206894
:10305000C068C0F38000B0B16FF00400216808615F
:10306000022020772068806900F4407018B1204663
:10307000FFF78AFB05E0204600F08CF8204600F0C0
:103080008AF80020207720680069C0F3C000D8B11A
:103090002068C068C0F3C000B0B16FF008002168BC
:1030A0000861042020772068C06900F0030018B18F
:1030B0002046FFF769FB05E0204600F06BF820464C
:1030C00000F069F80020207720680069C0F3001044
:1030D000D8B12068C068C0F30010B0B16FF0100024
:1030E00021680861082020772068C06900F44070DA
:1030F00018B12046FFF748FB05E0204600F04AF8EB
:10310000204600F048F8002020772068006900F091
:10311000010058B12068C06800F0010030B16FF0C4
:10312000010021680861204600F036F82068006937
:10313000C0F3C01058B12068C068C0F3C01030B1EF
:103140006FF08000216808612046FFF7A7F920682A
:103150000069C0F3801058B12068C068C0F38010C7
:1031600030B16FF0400021680861204600F05DF842
:1031700020680069C0F3401058B12068C068C0F3EF
:10318000401030B16FF02000216808612046FFF741
:1031900086F910BD7047704710B504461049206885
:1031A000884207D1FDF76AFD01F04AF90D49087020
:1031B000FDF7B0FA0C492068884210D10B4800880E
:1031C000401C0A490880FDF7A1F809480088401C06
:1031D0000749088007480078401C0649087010BD60
:1031E000000800401E000020002C01404600002086
:1031F0001C000020390000200246002031B10429C3
:1032000007D0082908D00C290CD108E01368586BA6
:1032100009E01368986B06E01368D86B03E0136845
:10322000186C00E000BF00BF70477047704770B572
:103230000446002520684069C0F3C01594F83D009D
:1032400021280ED16DB12068406920F080002168EE
:103250004861606B10B1606BFEF7A4F8204603F084
:10326000A0FA20684069C0F3801594F83E00222837
:103270000ED16DB12068406920F04000216848619E
:10328000A06B10B1A06BFEF78DF8204603F05EFA3C
:10329000002070BD704700002DE9F84F04462068FB
:1032A00005682068C668206847694FF00009CA466B
:1032B00005F00F09B9F1000F0AD105F0200038B16F
:1032C00006F0200020B1204603F075FABDE8F88F23
:1032D000B9F1000F71D007F0010018B906F4907031
:1032E00000286AD005F0010030B106F4807018B1F2
:1032F000206C40F00100206405F0040030B107F0BC
:10330000010018B1206C40F00200206405F00200BA
:1033100030B107F0010018B1206C40F004002064C7
:1033200005F0080048B106F0200010B907F00100D0
:1033300018B1206C40F008002064206C68B305F0E0
:10334000200028B106F0200010B1204603F033FA27
:1033500020684069C0F3801A206C00F0080010B9A2
:10336000BAF1000F22D0204603F0F0F9206840693E
:1033700000F04000B0B12068406920F040002168B2
:103380004861A06B50B15648A16B4863A06BFEF733
:1033900035F810B1A06B416B88470CE02046FFF771
:1033A00079FF08E02046FFF775FF04E02046FFF7AD
:1033B00071FF0020206489E7FFE7206B012878D1A6
:1033C00005F01000002874D006F01000002870D01E
:1033D00000BF0020009020680068009020684068CE
:1033E000009000BF00BF2068406900F04000C0B3FB
:1033F000A06B006840681FFA80F8B8F1000F2FD06A
:10340000A08D40452CDDA4F82E80A06B806920287B
:103410001FD02068C06820F480702168C8602068D0
:10342000406920F00100216848612068406920F06F
:10343000400021684861202084F83E00002020637D
:103440002068C06820F010002168C860A06BFDF7FC
:10345000A9FFA08DE28D801A81B22046FFF7E6FE1B
:1034600034E7FFE7A08DE18D401A1FFA80F8E08D68
:10347000E8B1B8F1000F1AD02068C06820F490704D
:103480002168C8602068406920F001002168486117
:10349000202084F83E00002020632068C06820F0CF
:1034A00010002168C86041462046FFF7BFFE0DE7C7
:1034B000FFE705F0800030B106F0800018B120462B
:1034C00003F0B6FA02E705F0400030B106F0400024
:1034D00018B1204603F055F9F8E600BFF6E6000003
:1034E0001D66000810B504460CB9012010BDA06986
:1034F00000B100E000BF94F83D0028B9002084F836
:103500003C00204600F028F8242084F83D00206884
:10351000C06820F400502168C860204603F0BEF95E
:103520002068006920F490402168086120684069A3
:1035300020F02A00216848612068C06840F40050EB
:103540002168C86000202064202084F83D0084F8B1
:103550003E000020CAE7000010B586B004460020F7
:1035600002900390049005903D492068884275D1EF
:1035700000BF3C48806940F480403A498861084671
:10358000806900F48040019000BF00BF00BF084682
:10359000806940F0080088610846806900F00800F2
:1035A000019000BF00BF4020029002200390032042
:1035B000059002A92C48FEF7DDF88020029000203B
:1035C0000390049002A92848FEF7D4F800BF2749C9
:1035D000486840F0E06040F00400486000BF2448C4
:1035E0002449086000204860002122488160802131
:1035F000C16000210161416181614FF48051C1616D
:10360000FEF722F808B1FDF7D2F800BF1948A06311
:10361000446200BF164814381749086010204860FB
:103620000021154881608021C16000210161416154
:1036300081614FF48051C161FEF706F808B1FDF7D2
:10364000B6F800BF0C486063446200BF0022114618
:103650002520FEF7B7FA2520FEF7A4FA06B010BD24
:103660000038014000100240000C01400000014001
:1036700058000240DC0500202006002070B50446FA
:103680000D46164694F83E00202816D105B10EB915
:10369000012070BD00BF94F83C00012801D1022038
:1036A000F7E7012084F83C0000BF00202063324689
:1036B0002946204603F070F9EBE70220E9E770475E
:1036C00070470000F7B50446154694F83D002028E1
:1036D0003DD1019800B10DB90120FEBD00BF94F8A5
:1036E0003C00012801D10220F7E7012084F83C00CA
:1036F00000BF01982062A584E58400202064212079
:1037000084F83D001348616B88621348616BC8629E
:103710001248616B08630020616B486301AE236847
:103720001A1D31682B46606BFDF7C2FF6FF0400039
:103730002168086000BF002084F83C0000BF2068BA
:10374000406940F08000216848610020C5E7022000
:10375000C3E70000096700083F67000831660008FA
:103760007047704700BFFEE710B586B004460020E2
:10377000029003900490059000BF3748806940F0A4
:103780000400354988610846806900F00400019012
:1037900000BF00BF00BF0846806940F00800886194
:1037A0000846806900F00800019000BF00BF082CA7
:1037B0004DD2DFE804F0040D161F28313A430120F2
:1037C00002900320039002A92448FDF7D3FF3FE0B5
:1037D000022002900320039002A92048FDF7CAFFAF
:1037E00036E0042002900320039002A91B48FDF755
:1037F000C1FF2DE0082002900320039002A9174882
:10380000FDF7B8FF24E0402002900320039002A9B6
:103810001248FDF7AFFF1BE08020029003200390C9
:1038200002A90E48FDF7A6FF12E001200290032036
:10383000039002A90A48FDF79DFF09E002200290CB
:103840000320039002A90648FDF794FF00E000BFA3
:1038500000BF06B010BD000000100240000801408B
:10386000000C014010B586B0044600200290039081
:103870000490059000BF5A48806940F00400584900
:1038800088610846806900F00400019000BF00BF15
:1038900000BF0846806940F00800886108468069DA
:1038A00000F00800019000BF00BF082C70D2DFE8D4
:1038B00004F0041527394B5D70810022012149482D
:1038C000FEF7F0F8012002900390002004900220FF
:1038D000059002A94348FDF74DFF7EE0002202213A
:1038E0004048FEF7DFF802200290012003900020FC
:1038F00004900220059002A93A48FDF73BFF6CE0D6
:10390000002204213748FEF7CDF804200290012060
:103910000390002004900220059002A93148FDF791
:1039200029FF5AE0002208212E48FEF7BBF80820A4
:10393000029001200390002004900220059002A92B
:103940002848FDF717FF48E0002240212548FEF7F0
:10395000A9F840200290012003900020049002204A
:10396000059002A91F48FDF705FF36E000228021DF
:103970001C48FEF797F88020029001200390002059
:1039800004900220059002A91648FDF7F3FE24E0FA
:1039900022E0002201211448FEF784F80120029061
:1039A0000390002004900220059002A90E48FDF724
:1039B000E1FE12E0002202210B48FEF773F802201C
:1039C000029001200390002004900220059002A99B
:1039D0000548FDF7CFFE00E000BF00BF06B010BDF8
:1039E0000010024000080140000C014010B586B0F4
:1039F00004460020029003900490059000BF3F48C9
:103A0000806940F004003D4988610846806900F003
:103A10000400019000BF00BF00BF0846806940F06D
:103A2000080088610846806900F00800019000BF26
:103A300000BF082C5DD2DFE804F0040F1A25303BEC
:103A4000465101200290002003900120049002A919
:103A50002B48FDF78FFE4DE00220029000200390DE
:103A60000120049002A92648FDF784FE42E00420CC
:103A70000290002003900120049002A92048FDF745
:103A800079FE37E008200290002003900120049086
:103A900002A91B48FDF76EFE2CE04020029000209A
:103AA00003900120049002A91548FDF763FE21E070
:103AB00080200290002003900120049002A9104869
:103AC000FDF758FE16E0012002900020039001202F
:103AD000049002A90B48FDF74DFE0BE00220029076
:103AE000002003900120049002A90648FDF742FE41
:103AF00000E000BF00BF06B010BD00000010024093
:103B000000080140000C014070B5054636480078B9
:103B1000252867D135480078401C344908705BE09F
:103B200000F066FC01283BD101241CE030480078FD
:103B3000401E2F490870631E2C4E367833442D4E9C
:103B4000F25C631E294E367833442B4EF15C631EC3
:103B5000264E36783344294E36F813002B4600F0B3
:103B600058F8601CC4B2264820490978405CA0423D
:103B7000DCDA20481D490978405C401CC4B208E0EA
:103B80002946204601F08AFA012800D107E0601C8E
:103B9000C4B216480078C0EBC000A042F0DA16E0CC
:103BA00012480078401EC000401CC4B208E02946FC
:103BB000204601F073FA012800D107E0601CC4B26E
:103BC0000A480078C000401EA042F0DA00BF074853
:103BD0000078401C054908700448007809490978B4
:103BE00088429DDD70BD0000740000205D00002053
:103BF00017000020E7080020B60800205408002025
:103C0000180900205E00002010B5044600F05CFD9D
:103C100010BD2DE9F04705460F46164699464FF070
:103C2000000824E041F2D470854201DD4FF0000825
:103C30003C4616E0A84512DA0021204601F02EFA93
:103C400001280CD13C4604E02046FCF793FF601CA1
:103C5000C4B2701C8442F7DD0120BDE8F087601C0F
:103C6000C4B2B442E6DD08F101001FFA80F8A845AD
:103C7000D8DB711CC8B2FCF77DFF0020EDE7000027
:103C800070B50446002C4BD12648005D252847D14D
:103C900025480078002831DD012514E0234B5A5DCA
:103CA000234B595D234B33F815002346FFF7B1FF33
:103CB000012604E03046FCF79FFF701CC6B2072EB9
:103CC000F8DD681CC5B2184800788542E6DD174863
:103CD00015490978405C401CC5B208E021462846D9
:103CE00001F0DCF9012800D107E0681CC5B21248D8
:103CF0000078C0EBC000A842F0DA11E0002508E02F
:103D00002146284601F0CAF9012800D107E0681CC5
:103D1000C5B209480078C0EBC000A842F0DA00BF85
:103D200070BD00007400002054000020E70800204F
:103D3000B6080020540800205E00002070B5002462
:103D40002948C07925284DD100F07AFB022849D1B5
:103D500001F074F9012845D124480078002841D1A8
:103D600023480078401C224908700978491EC9067A
:103D7000080E0BE01C49095D1E4A11541A49095DE1
:103D80001D4A1155611CCCB2411CC8B218490978B2
:103D9000C900491E8142EDDC18480078401C1749D3
:103DA000087000261CE0002504E02846FCF724FFEC
:103DB000681CC5B2082DF8DB6420FDF7C7FC0025A0
:103DC00004E02846FCF7D6FE681CC5B2082DF8DBD7
:103DD0006420FDF7BBFC012004490870701CC6B2CA
:103DE000062EE0DB70BD00007400002061000020A2
:103DF0005E000020640600207B09002051000020A6
:103E00003348007833490978884228D130484078CF
:103E100030494978884222D12D4880782D498978C7
:103E200088421CD12A48C0782A49C978884216D1CC
:103E30002748007927490979884210D124484079D8
:103E40002449497988420AD12148807921498979D0
:103E5000884204D1012020490870002070470021C9
:103E60002EE01B48405C122823D01948405C1428DF
:103E70001FD01748405C16281BD01548405C1F28EF
:103E800017D01348405C202813D01148405C2128EB
:103E90000FD00F48405C22280BD00D48405C2328EF
:103EA00007D00B48405C242803D00948405C2628F2
:103EB00004D10120084A10700020CFE7481CC1B28D
:103EC0000829CEDB0020044908700120C6E7000065
:103ED000740000207B0900206100002000207FE2A8
:103EE000FE4931F81010192903DA1F21FC4A115438
:103EF00074E2FA4931F810101A2908DBF74931F851
:103F000010107D2903DA2121F54A115466E2F349A4
:103F100031F810107D2908DBF04931F81010DC2948
:103F200003DA2221EE4A115458E2EC4931F810101C
:103F3000DC2909DBE94931F81010B1F5967F03DA85
:103F40002321E74A115449E2E44931F81010B1F550
:103F5000967F09DBE14931F81010B1F5DE7F03DC13
:103F60002421DF4A115439E2DC4931F8101040F2C3
:103F7000BD12914209DBD94931F81010B1F5087F23
:103F800003DC2021D64A115428E2D44931F810101C
:103F900040F22122914209DBD04931F81010B1F5ED
:103FA000207F03DA1821CE4A115417E2CB4931F8A9
:103FB0001010B1F5207F0ADBC84931F8101040F22B
:103FC000DA22914203DA1321C54A115406E2C349A9
:103FD00031F8101040F2DA2291420ADBBF4931F881
:103FE000101040F25232914203DA1121BC4A1154AE
:103FF000F4E1BA4931F8101040F2523291420ADB32
:10400000B64931F8101040F2F232914203DA102131
:10401000B34A1154E2E1B14931F8101040F2F232E2
:1040200091420ADBAD4931F8101040F24C42914206
:1040300003DA1521AA4A1154D0E1A84931F8101029
:1040400040F24C4291420ADBA44931F8101040F290
:10405000A642914203DA1421A14A1154BEE19F49BC
:1040600031F8101040F2A64291420ADB9B4931F828
:10407000101040F2FB42914203DA1221984A115487
:10408000ACE1964931F8101040F2FB42914209DB55
:10409000924931F81010B1F5AA6F03DA1621904A4F
:1040A00011549BE18D4931F81010B1F5AA6F0ADB6C
:1040B0008A4931F8101040F2C352914203DA1721B5
:1040C000874A11548AE1854931F8101040F2C352F1
:1040D00091420ADB814931F8101040F22762914287
:1040E00003DA03217E4A115478E17C4931F810103B
:1040F00040F2276291420ADB784931F8101040F211
:104100007762914203DA0421754A115466E17349DA
:1041100031F8101040F27762914209DB6F4931F8B3
:104120001010B1F5DA6F03DC05216D4A115455E129
:104130006A4931F8101040F2D16291420ADB6749B6
:1041400031F8101040F26C72914203DA0121644A96
:10415000115443E1614931F8101040F26C72914200
:104160000ADB5E4931F8101040F2DA72914203DA4C
:1041700002215B4A115431E1584931F8101040F2E4
:10418000DA7291420ADB554931F8101040F63402D8
:10419000914203DA0C21524A11541FE14F4931F880
:1041A000101040F6340291420ADB4C4931F81010ED
:1041B00040F69802914203DA0D21494A11540DE16B
:1041C000464931F8101040F6980291420ADB434903
:1041D00031F8101040F6FC02914203DA0F21404AF8
:1041E0001154FBE03D4931F8101040F6FC029142B9
:1041F00009DB3A4931F81010B1F5166F03DA0E21D8
:10420000374A1154EAE0354931F81010B1F5166F0C
:104210000ADB324931F8101040F6BA12914203DA43
:104220000B212F4A1154D9E02C4931F8101040F6D7
:10423000BA1291420ADB294931F8101040F61422D3
:10424000914203DA0621264A1154C7E0234931F886
:10425000101040F6142291420ADB204931F8101068
:1042600040F67322914203DA07211D4A1154B5E04A
:104270001A4931F8101040F6732291420ADB1749AF
:1042800031F8101040F6E622914203DA0821144A70
:104290001154A3E0114931F8101040F6E622914282
:1042A0000ADB0E4931F8101040F68632914203DAEB
:1042B00009210B4A115491E0084931F8101040F6D9
:1042C000863291420EDB054931F81010B1F5436F8B
:1042D00008DA0A21024A115480E00000E4000020BC
:1042E00074000020404931F81010B1F5436F0ADB2B
:1042F0003D4931F8101040F6E442914203DA1921A9
:104300003A4A11546AE0384931F8101040F6E44254
:1043100091420ADD344931F8101040F6485291427A
:1043200003DA1A21314A115458E02F4931F810109C
:1043300040F6525291420ADD2B4931F8101040F6F6
:10434000CA52914203DA1B21284A115446E02649F9
:1043500031F8101040F6CA5291420ADD224931F874
:10436000101040F62E62914203DA1C211F4A1154AC
:1043700034E01D4931F8101040F62E6291420ADDFA
:10438000194931F8101040F69262914203DA1D216A
:10439000164A115422E0144931F8101040F6926286
:1043A00091420ADB104931F8101040F6F562914253
:1043B00003DA25210D4A115410E00B4931F8101091
:1043C00040F6F662914206DB074931F8101040F6DC
:1043D0005972914202DB0021044A1154411CC8B2B7
:1043E0000828FFF67DAD7047E4000020740000202F
:1043F00011480078401EC000401CC1B213E00F48B5
:10440000405C1A280BD00D48405C1B2807D00B4895
:10441000405C1C2803D00948405C1D2801D10120C4
:104420007047481CC1B204480078C000401E884252
:10443000E5DC0020F4E700005D00002064060020B9
:1044400010B51348007890B14FF480711148FDF712
:1044500021FB60B94FF480710E48FDF71BFBA0B93A
:1044600000200B4908700C490880012010BD084845
:10447000007850B94FF480710648FDF70BFB012816
:1044800003D1034908700220F0E70020EEE70000A6
:1044900023000020000801401C00002070B50446E5
:1044A0000D46134800880A280EDD002010490880B8
:1044B00010480078401E0F49087008460078FA2816
:1044C00015DD0020087012E009480088052803DA8D
:1044D0002046FCF791FB0AE005480088052806DB2A
:1044E000034800880A2802DC2046FCF743FB70BD25
:1044F000460000200400002070B504462A48005DF4
:1045000014284FD12849601C085C1F280FD0601C5C
:10451000085C20280BD0601C085C212807D0601C98
:10452000085C222803D0601C085C232837D10020B7
:104530001E49088027E0022505E06119C8B2FCF792
:104540005BFB681CC5B228190828F6DB1120184946
:10455000087003F06BF800212046FFF79FFF154914
:1045600004F1090031F81000B0F5006F0BDA04F126
:10457000090031F81000B0F5006F04DA2046FCF7AE
:10458000F9FA012070BDFFF75BFF0128D3D1204667
:10459000FCF7F0FA3220FDF7D9F80220F2E72046C6
:1045A000FCF7E8FA0020EDE7740000204600002048
:1045B0003A000020E400002070B539480078002857
:1045C00066DD37480078401C3649087001242AE02F
:1045D00034480078401E33490870334830F81400DE
:1045E000324908803248005D324908703248005D27
:1045F000324908702F48007801280ADB002504E0C2
:104600002846FCF7B7FA681CC5B22A4800788542EC
:10461000F6DB2A480278274801782448008800F011
:1046200035F9601CC4B21E4800788442D0DD2348AE
:104630000078801CC4B21FE0204602F08DFA2046AC
:1046400001F08EFA204601F0FFFB204601F0C8FE83
:10465000204603F09FF8204603F0ECF9204602F0D4
:1046600033FC204602F0F0FF204601F0C1F920465D
:10467000FFF742FF601CC4B2082CDDDB00200849B4
:1046800008700A4908800B4908700C49087001E05D
:1046900001F01EFA00200A4908700A49087070BD2E
:1046A0001600002017000020D80000201200002073
:1046B00008000020140000200D000020150000203C
:1046C00020000020210000200020C4E06949095C8E
:1046D0001A292BD168490978491C674A11700121B0
:1046E000664A654B1B7822F8131063490978012943
:1046F0000ADD61490978491E614A515C891C614A99
:104700005D4B1B78D15404E000215E4A5A4B1B7864
:10471000D154002805DD411E594A574B1B78D1540E
:1047200097E05749544A1278885492E05149095CFD
:104730001B292CD150490978491C4F4A117002227B
:104740004E494D4B1B7821F813204B49097801291C
:104750000BDD49490978491E494A515C891CCAB296
:104760004849454B1B78CA5404E00021454A424B56
:104770001B78D154002805DD411E414A3E4B1B7871
:10478000D15466E03E493C4A1278885461E0394988
:10479000095C1C292DD138490978491C364A117009
:1047A0000321364A344B1B7822F81310324909781A
:1047B00001290BDD30490978491E314A515C891CB9
:1047C000CAB230492C4B1B78CA5404E000212D4A50
:1047D000294B1B78D154002806DD411ECAB2284956
:1047E000254B1B78CA5434E02549234A1278885453
:1047F0002FE02049095C1D292BD11F490978491C4C
:104800001D4A11704FF6FA711C4A1B4B1B7822F897
:1048100013101949097801290ADD17490978491E39
:10482000174A515C891C174A134B1B78D15404E07A
:104830000021144A104B1B78D154002805DD411E7D
:104840000F4A0D4B1B78D15403E00D490A4A1278E8
:104850008854411CC8B20C490978B0EBC10FFFF66F
:1048600035AF05480078002801DD012070470020A1
:10487000FCE70000640600205400002054080020DB
:10488000E7080020B60800205E0000202DE9FF5F49
:1048900007460E4615464FF00009CB460020039010
:1048A00002900190009082468046E2E041F2D4708E
:1048B000874201DD4FF000083446D3E0B84570DA96
:1048C0002046FFF7DDF9204602F046F901280DD118
:1048D000344604E02046FCF74DF9601CC4B2681C65
:1048E0008442F7DD012004B0BDE8F09F6548005D1B
:1048F000262802D12046FFF707F9204601F078F874
:104900000390039802280BD1344604E02046FCF7BC
:1049100031F9601CC4B2681C8442F7DD0120E2E773
:104920002046FFF7E9FD0290029802280BD1344699
:1049300004E02046FCF71EF9601CC4B2681C8442E7
:10494000F7DD0120CFE7204602F07EFE8346BBF173
:10495000020F0BD1344604E02046FCF70BF9601C33
:10496000C4B2681C8442F7DD0120BCE7204601F098
:10497000F7F88146B9F1010F04D1611CC8B20021DA
:10498000FFF78CFDB9F1020F0CD1344604E020464C
:10499000FCF7F0F8601CC4B2681C8442F7DD01200B
:1049A000A1E75DE0204601F04FFA00900098022850
:1049B0000BD1344604E02046FCF7DCF8601CC4B29E
:1049C000681C8442F7DD01208DE7204601F008FDD8
:1049D0008246BAF1010F0ED0BAF1020F0BD1344664
:1049E00004E02046FCF7C6F8601CC4B2681C844290
:1049F000F7DD012077E7204603F01CF801900198CD
:104A000002280BD1344604E02046FCF7B3F8601CC2
:104A1000C4B2681C8442F7DD012064E7204602F03E
:104A2000B9FE01280BD1344604E02046FCF7A2F879
:104A3000601CC4B2681C8442F7DD012053E72046A5
:104A400002F042FA01280BD1344604E02046FCF77C
:104A500091F8601CC4B2681C8442F7DD012042E773
:104A6000601CC4B2AC427FF729AF08F101001FFA05
:104A700080F8B845FFF61AAF691CC8B2FCF77AF89F
:104A8000002030E7740000200EB500200090019057
:104A9000029065486549086081156448816001217C
:104AA0000173002101754FF46021C16100205F494D
:104AB000486010215D480161FCF784FA08B1FBF7FA
:104AC00076FE0420009001200190072002906946A4
:104AD0005648FCF733F908B1FBF769FE0520009052
:104AE0000220019069465148FCF728F908B1FBF70C
:104AF0005EFE0A2000900320019069464B48FCF7B7
:104B00001DF908B1FBF753FE0B2000900420019023
:104B100069464648FCF712F908B1FBF748FE0C203D
:104B200000900520019069464048FCF707F908B15C
:104B3000FBF73DFE0D2000900620019069463B48A2
:104B4000FCF7FCF808B1FBF732FE0E2000900720BE
:104B5000019069463548FCF7F1F808B1FBF727FEEC
:104B60000F2000900820019069463048FCF7E6F8D5
:104B700008B1FBF71CFE0020009009200190694657
:104B80002A48FCF7DBF808B1FBF711FE0120009082
:104B90000A20019069462548FCF7D0F808B1FBF7D8
:104BA00006FE022000900B20019069461F48FCF78A
:104BB000C5F808B1FBF7FBFD032000900C20019025
:104BC00069461A48FCF7BAF808B1FBF7F0FD062071
:104BD00000900D20019069461448FCF7AFF808B129
:104BE000FBF7E5FD072000900E20019069460F4875
:104BF000FCF7A4F808B1FBF7DAFD082000900F20BD
:104C0000019069460948FCF799F808B1FBF7CFFD18
:104C1000092000901020019069460448FCF78EF8A6
:104C200008B1FBF7C4FD0EBD002401408403002041
:104C300008B500BF1248406940F0010010494861C2
:104C40000846406900F00100009000BF00BF00224C
:104C500011460B20FCF7B6FF0B20FCF7A3FF002248
:104C600011460E20FCF7AEFF0E20FCF79BFF002242
:104C700011460F20FCF7A6FF0F20FCF793FF08BD9D
:104C80000010024000B585B0002001900290039012
:104C9000049000BF3448806940F0200032498861A8
:104CA0000846806900F02000009000BF00BF00BFF0
:104CB0000846806940F0100088610846806900F06D
:104CC0001000009000BF00BF00BF0846806940F0A0
:104CD000040088610846806900F00400009000BF6D
:104CE00000BF00BF0846806940F0080088610846A0
:104CF000806900F00800009000BF00BF0022091585
:104D00001A48FCF7CFFE4FF40050019000200290AB
:104D10000220039001A91548FCF72CFD4FF4807088
:104D20000190002002900120039001A91048FCF797
:104D300021FD4FF48060019001200290002003903B
:104D40000220049001A90948FCF714FD4FF400600B
:104D50000190002002900120039001A90348FCF774
:104D600009FD05B000BD0000001002400010014028
:104D70000008014000B587B0002003900490059022
:104D800006900190029016481649086041F61F40AF
:104D9000486000211348816040F2E731C160002182
:104DA0000161416180218161FDF7BCFB08B1FBF726
:104DB000FEFC4FF48050039003A90A48FDF760FC05
:104DC00008B1FBF7F4FC00200190029001A905480E
:104DD000FDF766FB08B1FBF7EAFC07B000BD000079
:104DE000002C01400805002000B587B00020059088
:104DF000069001900290039004904FF08040224969
:104E000008604720486000211F4881604FF6FF710D
:104E1000C160002101618161FDF71AFF08B1FBF754
:104E2000C6FC00200590069005A91748FDF738FB41
:104E300008B1FBF7BCFC002001900120029000208B
:104E400003900490002201A90F48FDF797FE08B1D6
:104E5000FBF7ADFC042201A90B48FDF78FFE08B15A
:104E6000FBF7A5FC082201A90748FDF787FE08B15A
:104E7000FBF79DFC0C2201A90348FDF77FFE08B15A
:104E8000FBF795FC07B000BD7804002000B587B0A3
:104E90000020059006900190029003900490234812
:104EA00023490860472048600021214881604FF66F
:104EB000FF71C160002101618161FDF7C9FE08B188
:104EC000FBF775FC00200590069005A91848FDF732
:104ED000E7FA08B1FBF76BFC00200190012002907B
:104EE000002003900490002201A91148FDF746FE1E
:104EF00008B1FBF75CFC042201A90D48FDF73EFE5A
:104F000008B1FBF754FC082201A90948FDF736FE59
:104F100008B1FBF74CFC0C2201A90548FDF72EFE59
:104F200008B1FBF744FC07B000BD000000040040DE
:104F3000C004002000B587B00020039004900590C5
:104F400006900190029015481549086041F61F40EF
:104F5000486000211248816040F2F311C1600021D5
:104F6000016180218161FDF7DDFA08B1FBF71FFCCB
:104F70004FF48050039003A90948FDF781FB08B165
:104F8000FBF715FC00200190029001A90448FDF7F1
:104F900087FA08B1FBF70BFC07B000BD0008004022
:104FA0005005002010B50B480B4908604FF416500F
:104FB0004860002108488160C16001610C214161A5
:104FC00000218161C161FEF78DFA08B1FBF7EFFBAB
:104FD00010BD0000003801409805002000BFFEE72A
:104FE00010B5002424E01448005D1E2803DD12489B
:104FF000005D632803D12046FEF734FC16E00E481E
:10500000005D1F2807DB0C48005D232803DC2046D9
:10501000FEF7AAFB0AE00848005D242803D12046D9
:10502000FEF7E4FC02E02046FEF71CFC601CC4B264
:10503000082CD8DB10BD00007400002000B5FEF77E
:10504000DFFE1349087000211EE012480078252871
:1050500003D01048C079252805D10F4800780128D1
:1050600001D1022000BD0B48C079252804D1084891
:105070000078012800D1F5E70648C079252801D13C
:105080000320EFE7481CC1B20829DEDB0020E9E776
:1050900053000020740000205F00002070B504461B
:1050A0000D46F748005D012821D10020F549088010
:1050B0001820F549087002F0B9FA0720F349087082
:1050C0000DE0F24801782846FFF7E8F9FFF7B8F954
:1050D000012804D10320ED490870012070BDEB4880
:1050E00000780028EDD10320E849087009E2E4487F
:1050F000005D02282AD10020E24908801920E249F7
:10510000087002F093FA0720E0490870284601F081
:1051100079FA10E0DD4801782846FFF7BFF9FFF77C
:105120008FF9012807D10320D84908702846FBF7DA
:1051300021FD0120D2E7D54800780028EAD10320DC
:10514000D24908702846FBF715FDFFE3CC48005D07
:10515000032821D10020CB4908801520CA490870B6
:1051600002F064FA0720C94908700DE0C7480178C9
:105170002846FFF793F9FFF763F9012804D10320CC
:10518000C24908700120A9E7C04800780028EDD185
:105190000320BE490870D9E3B948005D04282AD12C
:1051A0000020B84908801620B749087002F03EFA7E
:1051B0000720B6490870284601F024FA10E0B348E9
:1051C00001782846FFF76AF9FFF73AF9012807D175
:1051D0000320AE4908702846FBF7CCFC01207DE790
:1051E000AA4800780028EAD10320A8490870284678
:1051F000FBF7C0FCAAE3A248005D05282AD10020E5
:10520000A04908801720A049087002F00FFA072073
:105210009E490870284601F0F5F910E09B48017896
:105220002846FFF73BF9FFF70BF9012807D10320C8
:10523000964908702846FBF79DFC01204EE79348ED
:1052400000780028EAD10320904908702846FBF72F
:1052500091FC7BE38A48005D0B282BD10020894913
:1052600008801E2088490870084600F027FC0820A6
:1052700086490870284601F0C5F910E08348017896
:105280002846FFF70BF9FFF7DBF8012807D10320C9
:105290007E4908702846FBF76DFC01201EE77B481D
:1052A00000780028EAD10320784908702846FBF7E7
:1052B00061FC4BE37248005D0C282BD10020714942
:1052C00008801A2070490870084600F0F7FB082093
:1052D0006E490870284601F095F910E06B48017896
:1052E0002846FFF7DBF8FFF7ABF8012807D10320CA
:1052F000664908702846FBF73DFC0120EEE663484E
:1053000000780028EAD10320604908702846FBF79E
:1053100031FC1BE35A48005D0D282BD10020594970
:1053200008801B2058490870084600F0C7FB082079
:1053300056490870284601F065F910E05348017895
:105340002846FFF7ABF8FFF77BF8012807D10320C9
:105350004E4908702846FBF70DFC0120BEE64B487D
:1053600000780028EAD10320484908702846FBF756
:1053700001FCEBE24248005D0E282BD100204149A0
:1053800008801D2040490870084600F097FB08205F
:105390003E490870284601F035F910E03B48017895
:1053A0002846FFF77BF8FFF74BF8012807D10320C9
:1053B000364908702846FBF7DDFB01208EE63348AE
:1053C00000780028EAD10320304908702846FBF70E
:1053D000D1FBBBE22A48005D06282BD100202949D9
:1053E00008801F2028490870084600F067FB0A2043
:1053F00026490870284601F005F910E02348017895
:105400002846FFF74BF8FFF71BF8012807D10320C8
:105410001E4908702846FBF7ADFB01205EE61B48DD
:1054200000780028EAD10320184908702846FBF7C5
:10543000A1FB8BE21248005D0F2834D100201149F6
:1054400008801C2010490870084600F037FB08202F
:105450000E490870284601F0D5F819E00B4801788C
:105460002846FFF71BF8FEF7EBFF012810D10320B9
:10547000064908702846FBF77DFB01202EE6000058
:1054800064060020460000203A00002004000020AE
:10549000FD4800780028E1D10320FB490870284628
:1054A000FBF768FB52E2F948005D0A282AD1002088
:1054B000F74908800320F4490870284601F0A2F853
:1054C00015E02320F349087002F0B0F8EE480178A7
:1054D0002846FEF7E3FFFEF7B3FF012807D10320BC
:1054E000E94908702846FBF745FB0120F6E5E64848
:1054F00000780028E5D10320E34908702846FBF72F
:1055000039FB23E2E148005D09282AD10020E04967
:1055100008802220DF49087002F088F80320DA4969
:105520000870284601F06EF810E0D7480178284648
:10553000FEF7B4FFFEF784FF012807D10320D2490C
:1055400008702846FBF716FB0120C7E5CE48007817
:105550000028EAD10320CC4908702846FBF70AFB53
:10556000F4E1CA48005D18282AD10020C849088003
:105570002F20C849087002F059F80320C24908706A
:10558000284601F03FF810E0BF4801782846FEF7B2
:1055900085FFFEF755FF012807D10320BA4908709F
:1055A0002846FBF7E7FA012098E5B748007800287D
:1055B000EAD10320B44908702846FBF7DBFAC5E1BD
:1055C000B248005D17282AD10020B1490880142074
:1055D000B049087002F02AF80320AB490870284649
:1055E00001F010F810E0A84801782846FEF756FFB1
:1055F000FEF726FF012807D10320A349087028469B
:10560000FBF7B8FA012069E59F4800780028EAD145
:1056100003209D4908702846FBF7ACFA96E19B48A9
:10562000005D072831D10020994908802020994940
:105630000870084600F042FA1420FCF787F89548F5
:1056400000F03CFA072090490870284600F0DAFF85
:1056500010E08D4801782846FEF720FFFEF7F0FEA7
:10566000012807D10320884908702846FBF782FAF1
:10567000012033E5844800780028EAD103208249DC
:1056800008702846FBF776FA60E18048005D08283C
:1056900031D100207E49088021207E4908700846CB
:1056A00000F00CFA1420FCF751F87A4800F006FAE2
:1056B000284600F0A7FF03207349087010E07248E5
:1056C00001782846FEF7EAFEFEF7BAFE012807D168
:1056D00003206D4908702846FBF74CFA0120FDE4D1
:1056E000694800780028EAD10320674908702846F5
:1056F000FBF740FA2AE16548005D102837D1002009
:1057000063490880C820FCF721F80F206149087020
:10571000084600F0D3F95F4800F0D0F96420FCF7A8
:1057200015F8052058490870284600F06BFF13E073
:10573000002058490870544801782846FEF7AEFE0C
:10574000FEF77EFE012807D103204F490870284646
:10575000FBF710FA0120C1E44B4800780028E7D19C
:105760000320494908702846FBF704FAEEE0474851
:10577000005D112837D1002045490880C820FBF77B
:10578000E5FF0E2043490870084600F097F94148AC
:1057900000F094F96420FBF7D9FF284600F032FFAF
:1057A00003203949087013E000203A490870364850
:1057B00001782846FEF772FEFEF742FE012807D167
:1057C0000320314908702846FBF7D4F9012085E40D
:1057D0002D4800780028E7D103202B49087028467F
:1057E000FBF7C8F9B2E02948005D13282ED100204C
:1057F00027490880C820FBF7A9FF0D20254908701C
:10580000084600F05BF9234800F058F96420FBF7E4
:105810009DFF03201C49087010E000201D490870FE
:10582000194801782846FEF739FEFEF709FE0128DF
:1058300004D103201449087001204FE41248007875
:105840000028EAD10320104908707FE00F48005D6E
:10585000152840D100200E490880C820FBF776FFAC
:1058600010200C490870084600F028F9094800F09B
:1058700025F96420FBF76AFF0520034908702846D4
:1058800000F0C0FE19E000000400002064060020C3
:10589000460000203A0000202D4801782846FEF7F7
:1058A000FDFDFEF7CDFD012807D103202849087032
:1058B0002846FBF75FF9012010E42548007800280E
:1058C000EAD10320224908700020224908702846A6
:1058D000FBF750F93AE02048005D192836D1002046
:1058E0001E490880C820FBF731FF242019490870A1
:1058F000084600F0E3F8174800F0E0F86420FBF7F2
:1059000025FF092012490870284600F07BFE10E0B0
:105910000F4801782846FEF7C1FDFEF791FD0128EA
:1059200007D103200A4908702846FBF723F9012014
:1059300029E4074800780028EAD1032004490870C8
:105940000020044908702846FBF714F900201AE4E7
:10595000040000203A0000206406002046000020D9
:1059600000BFFEE77047000010B500201149087025
:105970001149087000BF04E00921104A1154411C6C
:10598000C8B20828F8DB002004E000210C4A1154BA
:10599000411CC8B20828F8DBFA200A4908700846FA
:1059A00000F08CF80A20FBF7D1FEFEF797FAFAF721
:1059B00001FF10BD290000202A0000203100002036
:1059C000740000203A00002008B508490968C90899
:1059D0004FF47A72B1FBF2F14143009100BF00BF76
:1059E00000994A1E00920029F9D108BD70000020DC
:1059F00070B504462C48005D122853D12A49601C1A
:105A0000085C1F280FD0601C085C20280BD0601C8D
:105A1000085C212807D0601C085C222803D0601C89
:105A2000085C23283BD10020204908802BE0022578
:105A300005E06119C8B2FBF7DFF8681CC5B2281988
:105A40000828F6DB12201A49087001F0EFFD00214A
:105A50002046FEF723FD174904F1090031F8100034
:105A6000B0F5006F0FDA0A20FBF770FE114904F160
:105A7000090031F81000B0F5006F04DA2046FBF79A
:105A800079F8012070BDFEF7DBFC0128CFD120465C
:105A9000FBF770F83220FBF759FE0220F2E72046B0
:105AA000FBF768F80020EDE77400002046000020B6
:105AB0003A000020E40000207047000010B50446C2
:105AC000012221460148FDF7FDFD10BD980500208B
:105AD00070B500242CE0012C07DB04E02846FBF71E
