:020000040800F2
:10000000E80D002001010008F1540008ED3200085D
:100010006D4B00087D040008B1640008000000007A
:10002000000000000000000000000000E95500088A
:10003000AD07000800000000F55400081D5C000832
:100040001B0100081B0100081B0100081B01000820
:100050001B0100081B0100081B0100081B01000810
:100060001B0100081B0100081B01000851070008C4
:100070001B0100081B010008610700087107000848
:100080001B0100081B0100086D0100081B0100088E
:100090001B0100081B0100081B0100081B010008D0
:1000A0001B010008AD5C00081B0100081B010008D3
:1000B000BD5C0008CD5C0008DD5C00081B01000889
:1000C0001B0100081B0100081B0100081B010008A0
:1000D0001B010008A16400081B0100081B010008A7
:1000E0001B0100081B0100081B010008DFF80CD0F1
:1000F00000F02AF800480047F9660008E80D0020E3
:100100000648804706480047FEE7FEE7FEE7FEE7B1
:10011000FEE7FEE7FEE7FEE7FEE7FEE7AB5C000872
:10012000ED000008D2B201E000F8012B491EFBD21D
:1001300070470022F6E710B513460A4604461946F2
:10014000FFF7F0FF204610BD064C074D06E0E068C3
:1001500040F0010394E8070098471034AC42F6D30E
:10016000FFF7C8FFC8750008E875000810B5024819
:1001700000F0B7FC10BD00008803002070B50446F5
:1001800000252068806800F0010018B320688068AE
:1001900020F001002168886001F0AAFA054613E00A
:1001A00001F0A6FA401B02280ED92068806800F0F2
:1001B000010048B1A06A40F01000A062E06A40F07F
:1001C0000100E062012070BD2068806800F001003D
:1001D0000028E5D10020F6E770B505466C6AA06AF4
:1001E00000F05000E0B9A06A40F40070A0622068FE
:1001F000806800F46020B0F5602F0DD1207B58B9E5
:10020000A06A20F48070A062A06A00F4805018B93F
:10021000A06A40F00100A062204600F05FFC03E00D
:10022000206A016B2846884770BD70B505466C6A28
:10023000A06A40F04000A062E06A40F00400E06282
:10024000204600F04DFC70BD70B50446656A284636
:1002500000F045FC70BD000038B5044600250020C4
:1002600000902068806800F0010078BB20688068FA
:1002700040F0010021688860194800681949B0FB06
:10028000F1F0009002E00098401E009000980028D5
:10029000F9D101F02DFA054619E001F029FA401BC9
:1002A000022814D92068806800F0010078B9A06A9B
:1002B00040F01000A062E06A40F00100E06200BF80
:1002C000002084F8240000BF012038BD05E020682C
:1002D000806800F001000028DFD00020F5E7000072
:1002E0007400002040420F0010B5064800884DF20F
:1002F000F021884205DD00224FF48061024801F0C0
:10030000F1F910BD1C0000200010014010B5564846
:100310000078012848D140E04FF48061534801F053
:10032000D9F9012836D18102504801F0D3F90128CA
:1003300004D14F480068401C4D4908604C48006893
:100340004C49884229D300224FF48061474801F08C
:10035000C9F900204649086000240AE0204603F05D
:1003600045F8204600F068FA204600F065FA601C67
:10037000C4B2082CF2DB00224FF480613B4801F04C
:10038000B1F901203C49087000228102374801F090
:10039000A9F902E00020364908604FF400613348B3
:1003A00001F098F90028B7D03348007801280AD125
:1003B000C1022E4801F08EF9012804D100202A49FB
:1003C00008702D4908702848007800283BD133E098
:1003D0004FF48061254801F07DF950BB4FF48061F6
:1003E000224801F077F920B921480068401C2049D3
:1003F00008601F4800681F4988421DD301229102EE
:100400001A4801F06FF900201949086000240AE039
:10041000204602F0EBFF204600F0CCF9204600F029
:10042000C9F9601CC4B2082CF2DB02201249087022
:1004300002E000200E4908604FF400610B4801F013
:1004400049F90028C4D00C48007802280AD181025A
:10045000064801F03FF9012804D103490870002043
:100460000549087010BD0000220000200010014066
:100470000000002020A107000600002000BFFEE7CA
:100480000020C6E06549095C1A292BD16449097826
:10049000491C634A11700121624A614B1B7822F8A2
:1004A00013105F49097801290ADD5D490978491E61
:1004B0005D4A515C891C5D4A594B1B78D15404E05C
:1004C00000215A4A564B1B78D154002805DD411EA5
:1004D000554A534B1B78D15499E05349504A1278EE
:1004E000885494E04D49095C1B292DD14C49097869
:1004F000491C4B4A117002214A4A494B1B7822F889
:1005000013104749097801290BDD45490978491E2F
:10051000454A515C891CCAB24449414B1B78CA54B4
:1005200004E00021414A3E4B1B78D154002806DDEF
:10053000411ECAB23C493A4B1B78CA5467E03A495B
:10054000374A1278885462E03449095C1C292DD15D
:1005500033490978491C324A11700321314A304B22
:100560001B7822F813102E49097801290BDD2C493C
:100570000978491E2C4A515C891CCAB22B49284B68
:100580001B78CA5404E00021284A254B1B78D1541B
:10059000002806DD411ECAB22349214B1B78CA54EC
:1005A00035E021491E4A1278885430E01B49095C25
:1005B0001D292CD11A490978491C194A11704FF686
:1005C000FA71184A164B1B7822F81310144909784F
:1005D00001290ADD12490978491E134A515C891C18
:1005E000124A0F4B1B78D15404E000210F4A0C4BE8
:1005F0001B78D154002806DD411ECAB20A49084BB7
:100600001B78CA5403E00849054A12788854411CF3
:10061000C8B20828FFF636AF704700007800002007
:1006200016000020DC0000200D0000200800002043
:1006300010B500202C4908702C4908702C4908700E
:1006400001202C490870002004E000212A4A11549E
:10065000411CC8B20728F8DB002004E00021274A2B
:100660001154411CC8B26328F8DB002009E00021C6
:10067000234A22F81010234A1154234A1154411CD2
:10068000C8B23128F3DB00202049087020480078E8
:10069000252812D100240DE0002000F0CDF8C8205C
:1006A00000F074FE002000F085F8C82000F06EFE17
:1006B000601CC4B2082CEFDB15E01548C079252872
:1006C00011D100240DE0072000F0B6F8C82000F09A
:1006D0005DFE072000F06EF8C82000F057FE601C99
:1006E000C4B2082CEFDB10BD5400002057000020DE
:1006F00061000020640000207F09002068060020BF
:1007000058080020BA080020EB08002062000020F2
:10071000780000200B48007870B90B480088401C16
:100720000949088008460088502808DB0020088016
:100730000120064908707047002003490880002006
:10074000F9E70000230000202400002062000020C0
:1007500010B5024800F0CAFC10BD0000B80300202C
:1007600010B5024800F0C2FC10BD000024060020B5
:1007700010B5024800F0BAFC10BD0000E0050020F2
:1007800030B590F840500124AC40C56B6C600468F3
:1007900063604468102C04D10468A2600468E160BE
:1007A00003E00468A1600468E26030BD704772B67F
:1007B00000BFFEE710B50446082C35D2DFE804F090
:1007C000040A10161C22282E00220121184800F0CD
:1007D00089FF2AE000220221154800F083FF24E06F
:1007E00000220421124800F07DFF1EE000220821B3
:1007F0000F4800F077FF18E0002240210C4800F07D
:1008000071FF12E000228021094800F06BFF0CE02C
:1008100000220121074800F065FF06E000220221C6
:10082000044800F05FFF00E000BF00BF10BD000003
:1008300000080140000C014010B50446082C35D2D8
:10084000DFE804F0040A10161C22282E01221146AB
:10085000184800F047FF2AE001220221154800F065
:1008600041FF24E001220421124800F03BFF1EE07A
:10087000012208210F4800F035FF18E00122402135
:100880000C4800F02FFF12E001228021094800F0FF
:1008900029FF0CE001221146074800F023FF06E083
:1008A00001220221044800F01DFF00E000BF00BF4C
:1008B00010BD000000080140000C014030B591B0AF
:1008C000402101A8FFF735FC002413E000250DE0CE
:1008D00001A850F8250005EB0411104A32F8111058
:1008E000084401A941F82500681C85B2102DEFDBF2
:1008F000601C84B2142CE9DB00240AE001A850F843
:1009000024001421B0FBF1F0054921F81400601C0B
:1009100084B2102CF2DB11B030BD000008010020C1
:10092000E800002010B51348007809281ED2DFE83F
:1009300000F01D05080B0E1114171A0006F0AEF991
:1009400015E006F0E1F912E006F014FA0FE006F007
:1009500047FA0CE006F07AFA09E006F0ADFA06E094
:1009600006F0E0FA03E006F013FB00E000BF00BF72
:1009700010BD0000050000207047000038B5024699
:1009800000230020009000BF92F82400012801D12C
:10099000022038BD012082F8240000BF48680728E3
:1009A00012D21068406B0C79641E04EB84051F247E
:1009B000AC40A0430D796D1E05EB85050C68AC407D
:1009C00020431468606327E048680D2812D210683D
:1009D000006B0C79E41F04EB84051F24AC40A0439A
:1009E0000D79ED1F05EB85050C68AC4020431468BC
:1009F000206311E01068C06A0C790D3C04EB84059B
:100A00001F24AC40A0430D790D3D05EB85050C6816
:100A1000AC4020431468E06208680A2812D31068CA
:100A2000C0680C780A3C04EB44050724AC40A043A2
:100A30000D780A3D05EB45058C68AC4020431468F1
:100A4000E0600FE0106800690C7804EB44050724AF
:100A5000AC40A0430D7805EB45058C68AC402043C5
:100A6000146820610868102802D00868112827D16E
:100A7000174C1068A0421ED11068806800F4000076
:100A8000F0B91068806840F400001468A06008683D
:100A9000102815D10F4800680F4CB0FBF4F000EBA4
:100AA00080004000009002E00098401E00900098F6
:100AB0000028F9D104E0906A40F020009062012300
:100AC00000BF002082F8240000BF184661E7000044
:100AD000002401407400002040420F00704770471E
:100AE000704710B504462068406800F020002028B8
:100AF0002FD12068006800F00200022829D1A06AE6
:100B000000F0100018B9A06A40F40070A0622068DC
:100B1000806800F46020B0F5602F13D1207B88B985
:100B20002068406820F0200021684860A06A20F416
:100B30008070A062A06A00F4805018B9A06A40F0EA
:100B40000100A0622046FFF7C9FF6FF01200216884
:100B500008602068406800F0800080283BD1206851
:100B6000006800F00400042835D1A06A00F01000ED
:100B700018B9A06A40F40050A0622068806800F4B0
:100B8000E040B0F5E04F0DD02068406800F4806090
:100B9000D0B92068806800F46020B0F5602F13D1D0
:100BA000207B88B92068406820F080002168486078
:100BB000A06A20F48050A062A06A00F4807018B986
:100BC000A06A40F00100A0622046FFF7D5FE6FF05A
:100BD0000C00216808602068406800F04000402850
:100BE0000FD12068006800F0010050B1A06A40F405
:100BF0008030A062204600F0A7F86FF00100216865
:100C0000086010BD2DE9F0410446002700250026AC
:100C1000A84614B90120BDE8F081A06810B1207D7C
:100C200000B100BFA06A30B90020E06284F824005F
:100C3000204600F08BF82046FFF7A0FA0746A06A8E
:100C400000F01000002873D1002F71D1A06A20F4A9
:100C5000885040F00200A062E16960680843217B8F
:100C600040EA41000643A068B0F5807F02D0A0684A
:100C7000012802D14FF4807000E000200543207D60
:100C8000012811D1207B38B9A069401E4FF40061C2
:100C900041EA4030054307E0A06A40F02000A0622E
:100CA000E06A40F00100E0622068406820F469409A
:100CB0002843216848602068806821490840304303
:100CC00021688860A068B0F5807F02D0A068012804
:100CD00002D14FF4807000E00020B0F5807F03D196
:100CE000208A401E4FEA00582068C06A20F4700035
:100CF00040EA08002168C8622068806811490840FD
:100D0000B04208D10020E062A06A20F0020040F06A
:100D10000100A06211E0A06A20F0020040F0100083
:100D2000A062E06A40F00100E062012705E0FFE711
:100D3000A06A40F01000A062012738466BE700006F
:100D4000FDF7E1FFFE0E1FFF7047000010B586B0F3
:100D50000446002002900390049005903A492068D0
:100D600088426FD100BF3948806940F4007037492C
:100D700088610846806900F40070019000BF00BFE0
:100D800000BF0846806940F010008861084680690D
:100D900000F01000019000BF00BF00BF084680694E
:100DA00040F0040088610846806900F0040001906A
:100DB00000BF00BF00BF0846806940F0080088619E
:100DC0000846806900F00800019000BF00BF3F2086
:100DD00002900320039002A91D4800F0EBFAFF20C7
:100DE00002900320039002A91A4800F0E3FA0320BE
:100DF0000290039002A9184800F0DCFA174818493D
:100E00000860002048600021154881608021C16091
:100E10004900016189004161202181610021C16196
:100E200000F032FA08B1FFF7C2FC00BF0C482062A4
:100E3000446200BF00221146122000F0E3FC1220A1
:100E400000F0D0FC06B010BD0024014000100240AC
:100E50000010014000080140000C01400800024061
:100E6000B80300202DE9F04104460D461646002740
:100E700057492068884203D056492068884205D1E6
:100E80005348001D006800F4702000E00020002896
:100E90007ED100BF94F82400012802D10220BDE8D1
:100EA000F081012084F8240000BF2046FFF7D4F928
:100EB0000746002F6DD1A06A40F60161884340F4D7
:100EC0008070A06243492068884209D14048001DD3
:100ED000006800F4702008B9012002E0002000E062
:100EE000012078B1A06A20F48010A06220684068D8
:100EF00000F4806000B3A06A20F4005040F48050F9
:100F0000A06219E0A06A40F48010A0623049206815
:100F1000884203D02F492068884205D12C48001D03
:100F2000006800F4806000E0002028B1A06A20F48E
:100F3000005040F48050A062A06A00F4805020B1BC
:100F4000E06A20F00600E06201E00020E06200BFFD
:100F5000002084F8240000BF1F48216A88621F48CF
:100F6000216AC8621E48216A08636FF00200216886
:100F700008602068806840F480702168886022687A
:100F800002F14C0133462A46206A00F0B1F901E033
:100F90001AE014E02068806800F46020B0F5602F4B
:100FA00006D12068806840F4A000216888600CE0C9
:100FB0002068806840F480102168886005E000BFE8
:100FC000002084F8240000E00127384667E700008D
:100FD0000024014000280140D9010008490200080E
:100FE0002B0200080146002291F82100022808D0B7
:100FF0000420886300BF002081F8200000BF01208A
:1010000070470868006820F00E000B6818600868D8
:10101000006820F001000B68186091F84030012052
:101020009840CB6B5860012081F8210000BF002060
:1010300081F8200000BF1046E2E7000070B50446CA
:10104000002594F82100022803D00420A063012584
:1010500048E02068006820F00E00216808602068E1
:10106000006820F00100216808601F49206888425C
:1010700001D1012026E01C4914312068884201D1A9
:1010800010201FE0184928312068884201D18015BE
:1010900018E015493C312068884201D1801411E0E4
:1010A000114950312068884202D14FF4803009E064
:1010B0000D4964312068884202D14FF4801001E06C
:1010C0004FF08070084908394860012084F82100F9
:1010D00000BF002084F8200000BF606B10B12046E4
:1010E000616B8847284670BD0800024070B5044611
:1010F000E06B05682068066894F84010042088407A
:101100002840002846D006F00400002842D020687D
:10111000006800F0200028B92068006820F0040072
:101120002168086057492068884201D1042027E0DF
:10113000544914312068884201D1402020E05149AF
:1011400028312068884201D1001519E04D493C3111
:101150002068884202D14FF4804011E04949503163
:101160002068884202D14FF4802009E0454964316B
:101170002068884202D14FF4800001E04FF0806087
:10118000404908394860E06A00287AD02046E16A80
:10119000884776E094F84010022088402840A0B3A9
:1011A00006F0020088B32068006800F0200040B913
:1011B0002068006820F00A0021680860012084F897
:1011C000210030492068884201D1022028E02D49C1
:1011D00014312068884201D1202021E0294928319A
:1011E0002068884201D140151AE026493C31206828
:1011F000884202D14FF4005012E022495031206859
:10120000884203D14FF400300AE017E01D496431F1
:101210002068884202D14FF4001001E04FF00070C6
:1012200018490839486000BF002084F8200000BF3A
:10123000A06A30B32046A16A884722E094F84010A3
:10124000082088402840E0B106F00800C8B12068B6
:10125000006820F00E002168086094F8401001201A
:101260008840E16B48600120A06384F8210000BF42
:10127000002084F8200000BF206B10B12046216BB5
:10128000884770BD080002400146002209B90120CC
:101290007047164B0868C01A1423B0FBF3F08000A7
:1012A000086412480838C863022081F821000868E1
:1012B000026843F6F0708243D1E901031843CB681A
:1012C00018430B6918434B6918438B691843CB6962
:1012D000184302430868026000208863012081F8F7
:1012E0002100002081F8200000BFD1E70800024063
:1012F0002DE9F04104460D4616461F464FF0000802
:1013000000BF94F82000012802D10220BDE8F0813E
:10131000012084F8200000BF94F8210001282CD17E
:10132000022084F821000020A0632068006820F0DB
:101330000100216808603B46324629462046FFF7F7
:101340001FFAE06A30B12068006840F00E002168A2
:1013500008600BE02068006820F004002168086045
:101360002068006840F00A00216808602068006872
:1013700040F001002168086006E000BF002084F80A
:10138000200000BF4FF002084046BFE770B504469A
:1013900000F0AEF906462546681C10B104480078F6
:1013A000054400BF00F0A4F9801BA842FAD370BD29
:1013B000700000202DE9F8470346002294466EE1B4
:1013C0004FF0010808FA02F4D1F8008008EA04009E
:1013D000A0427DD1DFF8DCA2D1F80480A8EB0A0995
:1013E000D0453AD014DCB8F1030F50D009DCB8F185
:1013F000000F31D0B8F1010F1CD0B8F1020F49D164
:1014000020E0B8F1110F18D0B8F1120F42D11EE050
:10141000B9F5881F25D006DCB9F5803F20D0B9F595
:10142000801F37D11AE0B9F5001F18D0B9F5041F95
:1014300030D117E0D1F80CC02DE0D1F80C8008F1C4
:10144000040C28E0D1F80C8008F1080C23E0D1F856
:101450000C8008F10C0C1EE000BF00BF00BF00BFF5
:1014600000BF00BFD1F80880B8F1000F02D14FF0E3
:10147000040C0BE0D1F80880B8F1010F03D14FF054
:10148000080C1C6102E04FF0080C5C6103E04FF0B7
:10149000000C00E000BF00BFFF2801D8984601E023
:1014A00003F104084646FF2802D84FEA820803E009
:1014B000A2F108084FEA88084746D6F800804FF0A6
:1014C0000F0909FA07F928EA09080CFA07F900E0F8
:1014D00088E048EA0908C6F80080D1F8048008F0DE
:1014E0008058B8F1805F7DD100BFDFF8CC81D8F89B
:1014F000188048F00108DFF8C091C9F81880C84684
:10150000D8F8188008F00108CDF8008000BF00BFAF
:101510004FEAB9384FEA920958F829504FEA8278D1
:101520004FEA18794FF00F0808FA09F825EA08057C
:10153000DFF88881434502D14FF0000816E0DFF85C
:101540008081434502D14FF001080FE0DFF874813C
:10155000434502D14FF0020808E0DFF86C814345B3
:1015600002D14FF0030801E04FF004084FEA8279FE
:101570004FEA197908FA09F848EA0505DFF84C81BD
:101580004FEA920948F82950D1F8048008F48038CD
:10159000B8F5803F0AD1DFF83881D8F8008048EAF2
:1015A0000008DFF82C91C9F8008009E0DFF82081FD
:1015B000D8F8008028EA0008DFF81491C9F8008004
:1015C000D1F8048008F40038B8F5003F10D1DFF8F6
:1015D000008108F10408D8F8008048EA0008DFF824
:1015E000F09000E05AE009F10409C9F800800DE02C
:1015F000DFF8DC8008F10408D8F8008028EA000849
:10160000DFF8CC9009F10409C9F80080D1F8048012
:1016100008F48018B8F5801F0ED1DFF8B48008F107
:101620000808D8F8008048EA0008DFF8A49009F11B
:101630000809C9F800800DE0DFF8948008F1080877
:10164000D8F8008028EA0008DFF8849009F108093A
:10165000C9F80080D1F8048008F40018B8F5001F1C
:101660000ED1DFF86C8008F10C08D8F8008048EA49
:101670000008DFF85C9009F10C09C9F800800DE062
:10168000DFF84C8008F10C08D8F8008028EA000840
:10169000DFF83C9009F10C09C9F80080521CD1F820
:1016A000008028FA02F8B8F1000F7FF489AEBDE897
:1016B000F8870000000011100010024000080140EF
:1016C000000C0140001001400014014008000140DE
:1016D00000040140024693680B400BB1012000E07A
:1016E000002070470AB1016101E00B0403617047FB
:1016F0000148006870470000680000200348006847
:1017000003490978084401490860704768000020CF
:101710007000002010B50848006840F0100006492D
:101720000860032000F0ACF8002000F007F800F09B
:101730002BF8002010BD00000020024070B50446C8
:101740000E4800784FF47A71B1FBF0F00C4909684B
:10175000B1FBF0F5284600F0A7FC08B1012070BDF0
:10176000102C07D200222146501E00F04BF80548ED
:10177000046001E00120F2E70020F0E770000020A3
:10178000740000206C00002008B500BF1348806979
:1017900040F00100114988610846806900F00100AD
:1017A000009000BF00BF00BF0846C06940F08050F5
:1017B000C8610846C06900F08050009000BF00BFBB
:1017C000052000F05DF800BF0549486820F0E060A2
:1017D00040F08070486000BF08BD0000001002406B
:1017E0000000014001460846002809DB00F01F0305
:1017F00001229A4043099B0003F1E023C3F8002132
:1018000000BF70472DE9F05F80460D461646002761
:1018100004F050FE074639462A46334601F00700D9
:10182000C0F1070ABAF1040F02D94FF0040A01E02F
:10183000C0F1070AD14600F1040ABAF1070F02D23B
:101840004FF0000A01E0A0F1030AD4464FF0010A6C
:101850000AFA09FAAAF1010A0AEA020A0AFA0CFAD1
:101860004FF0010B0BFA0CFBABF1010B0BEA030B76
:101870004AEA0B042146404604F024FEBDE8F09FEE
:1018800000BF00F00702064B19684FF6FF0319402E
:10189000044B0B4343EA0221014B196000BF704720
:1018A0000CED00E00000FA05F8B50446002600251E
:1018B000207800F0010000286BD000274348C06961
:1018C00000F0805070B900BF4048C06940F08050BF
:1018D0003E49C8610846C06900F08050009000BFD2
:1018E00000BF01273A48006800F48070B0B938485A
:1018F000006840F4807036490860FFF7F9FE06463C
:1019000006E0FFF7F5FE801B642801D90320F8BD2F
:101910002F48006800F480700028F2D02B48006A3D
:1019200000F440752DB3A08800F44070A84220D088
:101930002648006A20F440750120264908600020EE
:1019400008602248056205F0010090B1FFF7D0FE63
:10195000064608E0FFF7CCFE801B41F28831884242
:1019600001D90320D3E71948006A00F002000028DB
:10197000F0D01648006A20F44070616808431349AB
:101980000862012F04D10846C06920F08050C86168
:1019900000BF207800F00200022807D10B48406801
:1019A00020F44040A168084308494860207800F0CE
:1019B0001000102807D10548406820F48000E16835
:1019C0000843024948600020A1E7000000100240DF
:1019D000007000404004424270B504460D460CB908
:1019E000012070BD5A48006800F00700A8420ED2DE
:1019F0005748006820F0070028435549086008460A
:101A0000006800F00700A84201D00120E9E7207833
:101A100000F0020002281DD1207800F00400042804
:101A200005D14C48406840F4E0604A49486020785D
:101A300000F00800082805D14648406840F460508E
:101A4000444948604348406820F0F000A1680843DA
:101A500040494860207800F0010078B360680128B0
:101A600006D13C48006800F4003090B90120B8E786
:101A70006068022806D13748006800F0007040B95D
:101A80000120AEE73348006800F0020008B90120E9
:101A9000A7E73048406820F00300616808432D49FB
:101AA0004860FFF725FE064609E0FFF721FE801B90
:101AB00041F28831884202D9032092E707E02548A5
:101AC000406800F00C006168B0EB810FEDD1204858
:101AD000006800F00700A8420ED91D48006820F0F9
:101AE000070028431A4908600846006800F007000C
:101AF000A84201D0012074E7207800F004000428F7
:101B000007D11448406820F4E060E16808431149B7
:101B10004860207800F00800082808D10D48406887
:101B200020F46050216940EAC1000A49486000F091
:101B30003FF808494968C1F30311074A515CC8409E
:101B40000649086006480068FFF7F8FD002048E7EE
:101B50000020024000100240B07500087400002010
:101B60006C000020014800687047000074000020ED
:101B700000B5FFF7F7FF04494968C1F30221034AA2
:101B8000515CC84000BD000000100240C075000854
:101B900000B5FFF7E7FF04494968C1F3C221034AD2
:101BA000515CC84000BD000000100240C075000834
:101BB000F0B585B00FF26C0C9CE8E01001A8A0E82D
:101BC000E0101CA52D6800950021002200230024B0
:101BD0000020194D696801F00C05F5B1042D02D003
:101BE000082D19D101E0154819E001ADC1F3834674
:101BF000AC5D01F4803555B10F4D6D68C5F34045BE
:101C00001DF805200D4D6543B5FBF2F302E00C4DC8
:101C100004FB05F3184602E000BF084800BF00BF00
:101C200005B0F0BD02030405060708090A0B0C0DF8
:101C30000E0F1010010200000010024000127A0086
:101C400000093D00F8B504460CB90120F8BD207824
:101C500000F00100002878D0F848406800F00C003F
:101C600004280CD0F548406800F00C00082811D179
:101C7000F248406800F48030B0F5803F0AD1EF4868
:101C8000006800F4003000285FD0606800285CD154
:101C90000120DBE700BF6068B0F5803F06D1E74870
:101CA000006840F48030E549086028E0606858B971
:101CB000E248006820F48030E04908600846006887
:101CC00020F4802008601AE06068B0F5A02F0BD1E6
:101CD000DA48006840F48020D84908600846006867
:101CE00040F4803008600AE0D448006820F4803076
:101CF000D24908600846006820F48020086000BFD0
:101D0000606888B1FFF7F4FC054606E0FFF7F0FCD9
:101D1000401B642801D9032098E7C848006800F4F4
:101D200000300028F2D010E0FFF7E2FC054606E0A4
:101D3000FFF7DEFC401B642801D9032086E7BF487B
:101D4000006800F400300028F2D1207800F0020092
:101D5000022857D1B948406800F00C0050B1B7488C
:101D6000406800F00C00082818D1B448406800F41E
:101D7000803098B9B148006800F0020020B12069B5
:101D8000012801D0012061E7AC48006820F0F8008C
:101D9000616940EAC100A949086033E02069E8B1FF
:101DA0000120A7490860FFF7A3FC054606E0FFF7FE
:101DB0009FFC401B022801D9032047E79F48006889
:101DC00000F002000028F2D09C48006820F0F800E3
:101DD000616940EAC1009949086013E00020984910
:101DE0000860FFF785FC054606E0FFF781FC401B15
:101DF000022801D9032029E79048006800F002007A
:101E00000028F2D1207800F0080008282DD1A06920
:101E1000B8B101208B490860FFF76AFC054606E06F
:101E2000FFF766FC401B022801D903200EE7834818
:101E3000406A00F002000028F2D0012003F05CFBB1
:101E400013E000207F490860FFF752FC054606E0DA
:101E5000FFF74EFC401B022801D90320F6E6774825
:101E6000406A00F002000028F2D1207800F004005F
:101E7000042873D100277148C06900F0805070B900
:101E800000BF6E48C06940F080506C49C861084688
:101E9000C06900F08050009000BF00BF01276A4871
:101EA000006800F48070B0B96748006840F4807042
:101EB00065490860FFF71CFC054606E0FFF718FCC3
:101EC000401B642801D90320C0E65F48006800F485
:101ED00080700028F2D000BFE068012806D1574882
:101EE000006A40F001005549086227E0E06858B9EF
:101EF0005248006A20F00100504908620846006A12
:101F000020F00400086219E0E06805280BD14B4876
:101F1000006A40F00400494908620846006A40F03F
:101F2000010008620AE04548006A20F001004349C8
:101F300008620846006A20F00400086200BFE068FA
:101F4000A0B1FFF7D5FB054609E0FFF7D1FB401B29
:101F500041F28831884202D9032077E622E03748EF
:101F6000006A00F002000028EFD012E0FFF7C0FB8B
:101F7000054608E0FFF7BCFB401B41F28831884270
:101F800001D9032062E62D48006A00F00200002813
:101F9000F0D1012F05D12948C06920F08050274990
:101FA000C86100BFE069C8B32448406800F00C0075
:101FB000082860D0E069022848D10020204908663E
:101FC000FFF796FB054606E0FFF792FB401B022851
:101FD00001D903203AE61948006800F00070002893
:101FE000F2D1206AB0F5803F07D11448406820F450
:101FF0000030A168084311494860D4E9080108434A
:102000000E49496821F4741108430C4948600120C5
:102010000B490866FFF76CFB054607E03DE0FFF75C
:1020200067FB401B022801D903200FE60348006824
:1020300000F000700028F2D02FE0000000100240F5
:1020400000004242800442420070004000201449D7
:102050000866FFF74DFB054606E0FFF749FB401B0E
:10206000022801D90320F1E50E48006800F0007055
:102070000028F2D111E0E069012800D1E6E5094825
:10208000466806F48031206A814204D106F470115A
:10209000606A814201D00120D8E50020D6E5000029
:1020A000000042420010024070B504462546681EFA
:1020B000B0F1807F01D301200FE0681E4FF0E021D6
:1020C00048610F214FF0FF3004F0FCF900204FF081
:1020D000E021886107200861002070BD70477047CB
:1020E00030B502460B4600BF92F83C00012801D1F2
:1020F000022030BD012082F83C0000BF022082F89F
:102100003D00106844681068816824F07004186805
:10211000044310684460104D1068A8420BD010684A
:10212000B0F1804F07D00D4D1068A84203D00C4D80
:102130001068A84205D121F0800158680143106859
:102140008160012082F83D0000BF002082F83C0041
:1021500000BF00BFCDE70000002C0140000400409C
:102160000008004010B504460CB9012010BD94F8D9
:102170003D0028B9002084F83C00204600F026F8F5
:10218000022084F83D00211D206803F0AFFD0120EE
:1021900084F8460000BF84F83E0001213F2001552D
:1021A000402001554120015500BF00BF012084F8A7
:1021B000420043200155442001554520015500BFF0
:1021C000012084F83D000020D0E7000038B5044627
:1021D0001A492068884216D100BF1948806940F426
:1021E0000060174988610846806900F4006000902B
:1021F00000BF00BF012200211920FFF703FB1920B7
:10220000FFF7F0FA19E00F492068884215D100BFA6
:102210000B48C06940F004000949C8610846C0691C
:1022200000F00400009000BF00BF012200211E202A
:10223000FFF7E8FA1E20FFF7D5FA38BD002C014061
:102240000010024000080040014691F83D000128BE
:1022500001D001207047022081F83D000868C06865
:1022600040F001000B68D860124B086898420BD010
:102270000868B0F1804F07D00F4B0868984203D030
:102280000E4B086898420CD10868806800F007027D
:10229000062A0CD00868006840F001000B6818603E
:1022A00005E00868006840F001000B681860002035
:1022B000D0E70000002C014000040040000800406E
:1022C0002DE9F04104460D4600BF94F83C0001287A
:1022D00002D10220BDE8F081012084F83C0000BF5B
:1022E000022084F83D002068866826F0770626F4F0
:1022F0007F46206886602868502833D00CDC202870
:1023000050D004DC00284BD0102851D149E03028AF
:1023100049D040284CD139E060282DD0702807D012
:10232000B0F5805F03D0B0F5005F41D10DE040E033
:10233000D5E902136A68206803F023FD20688668E7
:1023400046F077062068866033E0D5E902136A68B4
:10235000206803F016FD2068806840F48040216802
:10236000886026E0EA686968206803F01EFD502155
:10237000206803F011FD1CE0EA686968206803F03A
:102380005BFD6021206803F007FD12E0EA686968E0
:10239000206803F00AFD4021206803F0FDFC08E0FE
:1023A00000BF00BF00BF2968206803F0F5FC00E013
:1023B00000BF00BF012084F83D0000BF002084F86A
:1023C0003C0000BF00BF85E710B50446F548007823
:1023D00009287CD2DFE800F07B05407CB7F6F4F3F7
:1023E000F2002068B0F1804F35D1EF480078012825
:1023F00002D002282ED11DE00021EC4800F016FD8D
:10240000EB49086000BFE9480068006A20F00A0054
:10241000E64909680862E5480068006A40F0020081
:10242000E2490968086200BFDF480078401CDE49C5
:1024300008700FE00021DD4800F0F8FCDC4948603E
:102440000021DA4800F090FBD7480078401CD649BC
:10245000087000BF00BFA2E12068B0F1804F35D105
:10246000D1484078012802D002282ED11DE0042155
:10247000CE4800F0DBFCCE49C86000BFCB48006806
:10248000006A20F0A000C94909680862C7480068CE
:10249000006A40F02000C5490968086200BFC248D0
:1024A0004078401CC04948700FE00421BF4800F04C
:1024B000BDFCBF4908610421BC4800F055FBBA4887
:1024C0004078401CB849487000BF00BF67E165E133
:1024D0002068B0F1804F35D1B3488078012802D010
:1024E00002282ED11DE00821B04800F09FFCB04921
:1024F000886100BFAD480068006A20F40070AB49F5
:1025000009680862A9480068006A40F40070A74999
:102510000968086200BFA4488078401CA2498870FE
:102520000FE00821A14800F081FCA149C861082101
:102530009E4800F019FB9C488078401C9A4988709E
:1025400000BF00BF2BE12068B0F1804F35D1964825
:10255000C078012802D002282ED11DE00C2193481A
:1025600000F064FC9249486200BF90480068006A2D
:1025700020F400508D49096808628C480068006AA0
:1025800040F4005089490968086200BF8648C07855
:10259000401C8549C8700FE00C21844800F046FCBF
:1025A000834988620C21814800F0DEFA7E48C078B9
:1025B000401C7D49C87000BF00BFF0E0B3E077E089
:1025C0003BE0FFE77B492068884235D176480079B7
:1025D000012802D002282ED11DE00021764800F00B
:1025E00025FC7349086300BF73480068006A20F047
:1025F0000A007149096808626F480068006A40F083
:1026000002006D490968086200BF67480079401CF4
:10261000654908710FE00021674800F007FC644934
:1026200048630021644800F09FFA5F480079401C2D
:102630005D49087100BF00BFB1E05E492068884273
:1026400035D159484079012802D002282ED11DE009
:102650000421594800F0EAFB5549C86300BF5648B9
:102660000068006A20F0A0005349096808625248D7
:102670000068006A40F020004F490968086200BF06
:1026800049484079401C484948710FE004214A48B4
:1026900000F0CCFB464908640421474800F064FA86
:1026A00041484079401C4049487100BF00BF76E076
:1026B00040492068884235D13B488079012802D0C2
:1026C00002282ED11DE008213B4800F0AFFB38491D
:1026D000886400BF38480068006A20F400703649FA
:1026E0000968086234480068006A40F400703249A2
:1026F0000968086200BF2C488079401C2A4988710B
:102700000FE008212C4800F091FB2949C8640821FA
:10271000294800F029FA24488079401C2249887110
:1027200000BF00BF3BE023492068884235D11E48E6
:10273000C079012802D002282ED11DE00C211E48AC
:1027400000F074FB1A49486500BF1B480068006A26
:1027500020F4005018490968086217480068006AA8
:1027600040F4005014490968086200BF0E48C0795F
:10277000401C0D49C8710FE00C210F4800F056FBBA
:102780000B4988650C210C4800F0EEF90648C07929
:10279000401C0549C87100BF00BF00E000BF00BF7A
:1027A00010BD0000050000204A0000207C0400202D
:1027B000FC03002000040040C40400202DE9F04187
:1027C00004460D46164600BF94F83C00012802D18D
:1027D0000220BDE8F081012084F83C0000BF96B9DA
:1027E000EB68D5E90012206803F0F2FA20688069EE
:1027F00020F00C002168886120688069A96808437E
:10280000216888613DE0042E13D1EB68D5E9001200
:10281000206803F025FB2068806920F4406021686F
:10282000886120688069A96840EA01202168886180
:1028300027E0082E12D1EB68D5E90012206803F0DA
:102840002CFB2068C06920F00C002168C86120685A
:10285000C069A96808432168C86112E0EB68D5E93E
:102860000012206803F035FB2068C06920F4406046
:102870002168C8612068C069A96840EA0120216810
:10288000C86100BF002084F83C0000BF00BFA0E783
:1028900010B504460CB9012010BD94F83D0028B9CC
:1028A000002084F83C00204600F026F8022084F83E
:1028B0003D00211D206803F019FA012084F846002C
:1028C00000BF84F83E0001213F2001554020015502
:1028D0004120015500BF00BF012084F84200432081
:1028E0000155442001554520015500BF012084F8C1
:1028F0003D000020D0E7000010B586B0044600205F
:1029000002900390049005902068B0F1804F2DD183
:1029100000BF3B48C06940F001003949C861084622
:10292000C06900F00100019000BF00BF00BF084671
:10293000806940F0040088610846806900F0040066
:10294000019000BF00BF0F200290002003900120E3
:10295000049002A92B48FEF72DFD002211461C20F1
:10296000FEF750FF1C20FEF73DFF47E02649206898
:10297000884243D100BF2248C06940F0020020498C
:10298000C8610846C06900F00200019000BF00BFA6
:1029900000BF0846806940F00400886108468069ED
:1029A00000F00400019000BF00BF00BF084680692E
:1029B00040F0080088610846806900F00800019036
:1029C00000BF00BFC02002900020039001200490AF
:1029D00002A90C48FEF7EEFC0320029000200390B1
:1029E0000120049002A90948FEF7E4FC00221146E8
:1029F0001D20FEF707FF1D20FEF7F4FE06B010BDF8
:102A0000001002400008014000040040000C01409A
:102A10002DE9F04104460D4615B994F83E000BE04F
:102A2000042D02D13F20005D06E0082D02D1402098
:102A3000005D01E04120005D074615B994F84200B1
:102A40000BE0042D02D14320005D06E0082D02D1E9
:102A50004420005D01E04520005D8046012F02D149
:102A6000B8F1010F02D00120BDE8F0811DB90220AC
:102A700084F83E000EE0042D03D102213F200155D1
:102A800008E0082D03D102214020015502E0022177
:102A9000412001551DB9022084F842000EE0042DAA
:102AA00003D102214320015508E0082D03D1022162
:102AB0004420015502E002214520015535B1042D85
:102AC0000BD0082D10D00C2D1CD114E02068C0684C
:102AD00040F002002168C86015E02068C06840F03E
:102AE00004002168C8600EE02068C06840F008005B
:102AF0002168C86007E02068C06840F010002168C5
:102B0000C86000E000BF00BF01222946206803F032
:102B100027F91249206888420BD02068B0F1804F15
:102B200007D00F492068884203D00E4920688842A8
:102B30000CD12068806800F00706062E0CD02068B3
:102B4000006840F001002168086005E02068006826
:102B500040F0010021680860002085E7002C01405A
:102B6000000400400008004030B504460D4635B171
:102B7000042D0BD0082D10D00C2D1CD114E0206892
:102B8000C06820F002002168C86015E02068C068B5
:102B900020F004002168C8600EE02068C06820F0C2
:102BA00008002168C86007E02068C06820F01000B5
:102BB0002168C86000E000BF00BF002229462068ED
:102BC00003F0CEF800BF2068006A41F211110840FE
:102BD00050B92068006A8910084028B92068006848
:102BE00020F001002168086000BF1DB9012084F8B1
:102BF0003E000EE0042D03D101213F20015508E0E5
:102C0000082D03D101214020015502E0012141207E
:102C100001551DB9012084F842000EE0042D03D1B6
:102C200001214320015508E0082D03D10121442052
:102C3000015502E0012145200155002030BD10B5AD
:102C4000044620680069C0F34000D8B12068C0681D
:102C5000C0F34000B0B16FF00200216808610120AC
:102C600020772068806900F0030018B12046FFF744
:102C7000ABFB05E0204600F0ADF8204600F0ABF8D5
:102C80000020207720680069C0F38000D8B1206858
:102C9000C068C0F38000B0B16FF004002168086123
:102CA000022020772068806900F4407018B1204627
:102CB000FFF78AFB05E0204600F08CF8204600F084
:102CC0008AF80020207720680069C0F3C000D8B1DE
:102CD0002068C068C0F3C000B0B16FF00800216880
:102CE0000861042020772068C06900F0030018B153
:102CF0002046FFF769FB05E0204600F06BF8204610
:102D000000F069F80020207720680069C0F3001007
:102D1000D8B12068C068C0F30010B0B16FF01000E7
:102D200021680861082020772068C06900F440709D
:102D300018B12046FFF748FB05E0204600F04AF8AE
:102D4000204600F048F8002020772068006900F055
:102D5000010058B12068C06800F0010030B16FF088
:102D6000010021680861204600F036F820680069FB
:102D7000C0F3C01058B12068C068C0F3C01030B1B3
:102D80006FF08000216808612046FFF7A7F92068EE
:102D90000069C0F3801058B12068C068C0F380108B
:102DA00030B16FF0400021680861204600F057F80C
:102DB00020680069C0F3401058B12068C068C0F3B3
:102DC000401030B16FF02000216808612046FFF705
:102DD00086F910BD7047704710B504460E4920684B
:102DE000884207D1FDF76AFD01F0F2F80B4908703F
:102DF000FDF790FC0A49206888420BD109480088F9
:102E0000401C08490880FDF781FA07480088401CEB
:102E10000549088010BD0000000800401E00002089
:102E2000002C0140520000201C000020024600201F
:102E300031B1042907D0082908D00C290CD108E0A9
:102E40001368586B09E01368986B06E01368D86B39
:102E500003E01368186C00E000BF00BF70477047C4
:102E6000704770472DE9F84F0446206805682068D0
:102E7000C668206847694FF00009CA4605F00F0987
:102E8000B9F1000F0AD105F0200038B106F020009A
:102E900020B1204603F0E3F9BDE8F88FB9F1000F47
:102EA00071D007F0010018B906F4907000286AD0BC
:102EB00005F0010030B106F4807018B1206C40F0CC
:102EC0000100206405F0040030B107F0010018B1E2
:102ED000206C40F00200206405F0020030B107F0E1
:102EE000010018B1206C40F00400206405F00800D7
:102EF00048B106F0200010B907F0010018B1206CAD
:102F000040F008002064206C68B305F0200028B170
:102F100006F0200010B1204603F0A1F920684069B6
:102F2000C0F3801A206C00F0080010B9BAF1000F4D
:102F300022D0204603F05EF92068406900F040008E
:102F4000B0B12068406920F0400021684861A06B62
:102F500050B15648A16B4863A06BFEF76FF810B1F3
:102F6000A06B416B88470CE02046FFF77AFF08E032
:102F70002046FFF776FF04E02046FFF772FF0020AF
:102F8000206489E7FFE7206B012878D105F0100065
:102F9000002874D006F01000002870D000BF002078
:102FA000009020680068009020684068009000BF92
:102FB00000BF2068406900F04000C0B3A06B00680B
:102FC00040681FFA80F8B8F1000F2FD0A08D40455F
:102FD0002CDDA4F82E80A06B806920281FD02068EB
:102FE000C06820F480702168C8602068406920F0C3
:102FF0000100216848612068406920F04000216894
:103000004861202084F83E00002020632068C068CA
:1030100020F010002168C860A06BFDF7E3FFA08DD1
:10302000E28D801A81B22046FFF71AFF34E7FFE7EE
:10303000A08DE18D401A1FFA80F8E08DE8B1B8F15B
:10304000000F1AD02068C06820F490702168C86012
:103050002068406920F0010021684861202084F840
:103060003E00002020632068C06820F01000216826
:10307000C86041462046FFF7F3FE0DE7FFE705F085
:10308000800030B106F0800018B1204603F0D8F976
:1030900002E705F0400030B106F0400018B12046CC
:1030A00003F0C3F8F8E600BFF6E600004D61000843
:1030B00010B504460CB9012010BDA06900B100E0B4
:1030C00000BF94F83D0028B9002084F83C00204659
:1030D00000F028F8242084F83D002068C06820F41F
:1030E00000502168C860204603F02CF92068006970
:1030F00020F49040216808612068406920F02A008F
:10310000216848612068C06840F400502168C860A8
:1031100000202064202084F83D0084F83E00002038
:10312000CAE7000010B586B0044600200290039064
:10313000049005903D492068884275D100BF3C4805
:10314000806940F480403A4988610846806900F40B
:103150008040019000BF00BF00BF0846806940F07A
:10316000080088610846806900F00800019000BFEF
:1031700000BF40200290022003900320059002A986
:103180002C48FEF717F9802002900020039004904D
:1031900002A92848FEF70EF900BF2749486840F009
:1031A000E06040F00400486000BF24482449086003
:1031B000002048600021224881608021C1600021F8
:1031C0000161416181614FF48051C161FEF75CF89A
:1031D00008B1FDF7ECFA00BF1948A063446200BFD4
:1031E0001648143817490860102048600021154817
:1031F00081608021C16000210161416181614FF4E2
:103200008051C161FEF740F808B1FDF7D0FA00BF68
:103210000C486063446200BF002211462520FEF77F
:10322000F1FA2520FEF7DEFA06B010BD00380140A5
:1032300000100240000C0140000001405800024014
:10324000E00500202406002070470000F7B5044682
:10325000154694F83D0020283DD1019800B10DB9E4
:103260000120FEBD00BF94F83C00012801D10220DE
:10327000F7E7012084F83C0000BF01982062A58494
:10328000E58400202064212084F83D001348616B10
:1032900088621348616BC8621248616B0863002042
:1032A000616B486301AE23681A1D31682B46606B61
:1032B000FEF71EF86FF040002168086000BF002094
:1032C00084F83C0000BF2068406940F0800021681D
:1032D00048610020C5E70220C3E70000B161000893
:1032E000E7610008616100087047704700BFFEE7B2
:1032F00010B586B00446002002900390049005901B
:1033000000BF3748806940F00400354988610846AD
:10331000806900F00400019000BF00BF00BF0846B4
:10332000806940F0080088610846806900F0080064
:10333000019000BF00BF082C4DD2DFE804F0040D5F
:10334000161F28313A43012002900320039002A95E
:103350002448FEF72FF83FE002200290032003905C
:1033600002A92048FEF726F836E004200290032048
:10337000039002A91B48FEF71DF82DE008200290DB
:103380000320039002A91748FEF714F824E0402018
:1033900002900320039002A91248FEF70BF81BE0ED
:1033A000802002900320039002A90E48FEF702F845
:1033B00012E0012002900320039002A90A48FDF7C1
:1033C000F9FF09E0022002900320039002A90648B9
:1033D000FDF7F0FF00E000BF00BF06B010BD000029
:1033E0000010024000080140000C014010B586B0FA
:1033F00004460020029003900490059000BF5A48B4
:10340000806940F00400584988610846806900F0EE
:103410000400019000BF00BF00BF0846806940F073
:10342000080088610846806900F00800019000BF2C
:1034300000BF082C70D2DFE804F0041527394B5D7B
:103440007081002201214948FEF74CF901200290C9
:103450000390002004900220059002A94348FDF744
:10346000A9FF7EE0002202214048FEF73BF902203E
:10347000029001200390002004900220059002A9F0
:103480003A48FDF797FF6CE0002204213748FEF729
:1034900029F90420029001200390002004900220CA
:1034A000059002A93148FDF785FF5AE00022082166
:1034B0002E48FEF717F90820029001200390002003
:1034C00004900220059002A92848FDF773FF48E008
:1034D000002240212548FEF705F9402002900120F6
:1034E0000390002004900220059002A91F48FDF7D8
:1034F00061FF36E0002280211C48FEF7F3F88020AF
:10350000029001200390002004900220059002A95F
:103510001648FDF74FFF24E022E000220121144865
:10352000FEF7E0F8012002900390002004900220B2
:10353000059002A90E48FDF73DFF12E0002202218E
:103540000B48FEF7CFF802200290012003900020E4
:1035500004900220059002A90548FDF72BFF00E02A
:1035600000BF00BF06B010BD0010024000080140BF
:10357000000C014010B586B0044600200290039074
:103580000490059000BF3F48806940F004003D4929
:1035900088610846806900F00400019000BF00BF08
:1035A00000BF0846806940F00800886108468069CD
:1035B00000F00800019000BF00BF082C5DD2DFE8DA
:1035C00004F0040F1A25303B4651012002900020E0
:1035D00003900120049002A92B48FDF7EBFE4DE07B
:1035E00002200290002003900120049002A92648A6
:1035F000FDF7E0FE42E0042002900020039001204D
:10360000049002A92048FDF7D5FE37E0082002907B
:10361000002003900120049002A91B48FDF7CAFE78
:103620002CE040200290002003900120049002A989
:103630001548FDF7BFFE21E0802002900020039096
:103640000120049002A91048FDF7B4FE16E0012005
:103650000290002003900120049002A90B48FDF77E
:10366000A9FE0BE0022002900020039001200490AC
:1036700002A90648FDF79EFE00E000BF00BF06B0AD
:1036800010BD00000010024000080140000C014085
:1036900070B5054636480078252867D1354800784A
:1036A000401C344908705BE000F06AFC01283BD103
:1036B00001241CE030480078401E2F490870631E2A
:1036C0002C4E367833442D4EF25C631E294E3678EC
:1036D00033442B4EF15C631E264E36783344294E1C
:1036E00036F813002B4600F058F8601CC4B2264888
:1036F00020490978405CA042DCDA20481D4909785D
:10370000405C401CC4B208E02946204601F08EFA15
:10371000012800D107E0601CC4B216480078C0EB55
:10372000C000A042F0DA16E012480078401EC00047
:10373000401CC4B208E02946204601F077FA01286F
:1037400000D107E0601CC4B20A480078C000401EE7
:10375000A042F0DA00BF07480078401C0549087015
:10376000044800780949097888429DDD70BD000051
:10377000780000206000002017000020EB080020E7
:10378000BA080020580800201C0900206100002011
:1037900010B5044600F060FD10BD2DE9F047054668
:1037A0000F46164699464FF0000824E041F2D470C7
:1037B000854201DD4FF000083C4616E0A84512DACC
:1037C0000021204601F032FA01280CD13C4604E0E9
:1037D0002046FCF7EFFF601CC4B2701C8442F7DD8A
:1037E0000120BDE8F087601CC4B2B442E6DD08F1F8
:1037F00001001FFA80F8A845D8DB711CC8B2FCF79D
:10380000D9FF0020EDE7000070B50446002C4BD135
:103810002648005D252847D125480078002831DD5D
:10382000012514E0234B5A5D234B595D234B33F89C
:1038300015002346FFF7B1FF012604E03046FCF7F0
:10384000FBFF701CC6B2072EF8DD681CC5B2184815
:1038500000788542E6DD174815490978405C401C30
:10386000C5B208E02146284601F0E0F9012800D160
:1038700007E0681CC5B212480078C0EBC000A8423F
:10388000F0DA11E0002508E02146284601F0CEF9E3
:10389000012800D107E0681CC5B209480078C0EBD8
:1038A000C000A842F0DA00BF70BD00007800002020
:1038B00057000020EB080020BA080020580800201C
:1038C0006100002070B500242948C07925284DD119
:1038D00000F07EFB022849D101F078F9012845D19A
:1038E00024480078002841D123480078401C224910
:1038F00008700978491EC906080E0BE01C49095DCD
:103900001E4A11541A49095D1D4A1155611CCCB259
:10391000411CC8B218490978C900491E8142EDDC32
:1039200018480078401C1749087000261CE0002544
:1039300004E02846FCF780FF681CC5B2082DF8DBC0
:103940006420FDF723FD002504E02846FCF732FF44
:10395000681CC5B2082DF8DB6420FDF717FD0120B7
:1039600004490870701CC6B2062EE0DB70BD000072
:10397000780000206400002061000020680600201C
:103980007F0900205400002033480078334909782B
:10399000884228D13048407830494978884222D13D
:1039A0002D4880782D49897888421CD12A48C078D2
:1039B0002A49C978884216D12748007927490979C8
:1039C000884210D1244840792449497988420AD153
:1039D0002148807921498979884204D101202049F0
:1039E00008700020704700212EE01B48405C122820
:1039F00023D01948405C14281FD01748405C162873
:103A00001BD01548405C1F2817D01348405C202865
:103A100013D01148405C21280FD00F48405C222869
:103A20000BD00D48405C232807D00B48405C24286D
:103A300003D00948405C262804D10120084A1070B0
:103A40000020CFE7481CC1B20829CEDB0020044982
:103A500008700120C6E70000780000207F090020E0
:103A600064000020002083E2FE4931F8101019297B
:103A700003DA1F21FC4A115478E2FA4931F8101098
:103A80001A2908DBF74931F810107D2903DA2121C2
:103A9000F54A11546AE2F34931F810107D2908DB28
:103AA000F04931F81010DC2903DA2221EE4A1154D2
:103AB0005CE2EC4931F81010DC2909DBE94931F806
:103AC0001010B1F5967F03DA2321E74A11544DE235
:103AD000E44931F81010B1F5967F09DBE14931F87E
:103AE0001010B1F5DE7F03DC2421DF4A11543DE2E2
:103AF000DC4931F8101040F2BD12914209DBD9497E
:103B000031F81010B1F5087F03DC2021D64A11549A
:103B10002CE2D44931F8101040F22122914209DB05
:103B2000D04931F81010B1F5207F03DA1821CE4AC0
:103B300011541BE2CB4931F81010B1F5207F0ADB9C
:103B4000C84931F8101040F2DA22914203DA132109
:103B5000C54A11540AE2C34931F8101040F2DA2282
:103B600091420ADBBF4931F8101040F252329142C3
:103B700003DA1121BC4A1154F8E1BA4931F81010A6
:103B800040F2523291420ADBB64931F8101040F24D
:103B9000F232914203DA1021B34A1154E6E1B149FD
:103BA00031F8101040F2F23291420ADBAD4931F89F
:103BB000101040F24C42914203DA1521AA4A1154E6
:103BC000D4E1A84931F8101040F24C4291420ADB8E
:103BD000A44931F8101040F2A642914203DA1421B0
:103BE000A14A1154C2E19F4931F8101040F2A64297
:103BF00091420ADB9B4931F8101040F2FB4291429E
:103C000003DA1221984A1154B0E1964931F81010A4
:103C100040F2FB42914209DB924931F81010B1F5B4
:103C2000AA6F03DA1621904A11549FE18D4931F8A9
:103C30001010B1F5AA6F0ADB8A4931F8101040F272
:103C4000C352914203DA1721874A11548EE1854904
:103C500031F8101040F2C35291420ADB814931F829
:103C6000101040F22762914203DA03217E4A115478
:103C70007CE17C4931F8101040F2276291420ADB66
:103C8000784931F8101040F27762914203DA04214A
:103C9000754A11546AE1734931F8101040F27762A5
:103CA000914209DB6F4931F81010B1F5DA6F03DC8E
:103CB00005216D4A115459E16A4931F8101040F25A
:103CC000D16291420ADB674931F8101040F26C7200
:103CD000914203DA0121644A115447E1614931F804
:103CE000101040F26C7291420ADB5E4931F81010FC
:103CF00040F2DA72914203DA02215B4A115435E153
:103D0000584931F8101040F2DA7291420ADB5549F5
:103D100031F8101040F63402914203DA0C21524A75
:103D2000115423E14F4931F8101040F6340291420A
:103D30000ADB4C4931F8101040F69802914203DA40
:103D40000D21494A115411E1464931F8101040F64D
:103D5000980291420ADB434931F8101040F6FC0208
:103D6000914203DA0F21404A1154FFE03D4931F8F6
:103D7000101040F6FC02914209DB3A4931F810106C
:103D8000B1F5166F03DA0E21374A1154EEE03549CA
:103D900031F81010B1F5166F0ADB324931F8101006
:103DA00040F6BA12914203DA0B212F4A1154DDE09A
:103DB0002C4931F8101040F6BA1291420ADB294919
:103DC00031F8101040F61422914203DA0621264AF7
:103DD0001154CBE0234931F8101040F614229142DF
:103DE0000ADB204931F8101040F67322914203DAC1
:103DF00025211D4A1154B9E01A4931F8101040F636
:103E0000732291420ADB174931F8101040F6E6227E
:103E1000914203DA2621144A1154A7E0114931F8DE
:103E2000101040F6E62291420ADB0E4931F81010DC
:103E300040F68632914203DA09210B4A115495E08B
:103E4000084931F8101040F6863291420EDB0549E0
:103E500031F81010B1F5436F08DA0A21024A115403
:103E600084E00000E800002078000020424931F89A
:103E70001010B1F5436F0ADB3F4931F8101040F6DE
:103E8000E442914203DA19213C4A11546EE03A4966
:103E900031F8101040F6E44291420ADD364931F81B
:103EA000101040F64852914203DA1A21334A115455
:103EB0005CE0314931F8101040F6525291420ADD6F
:103EC0002D4931F8101040F6CA52914203DA1B21F5
:103ED0002A4A11544AE0284931F8101040F6CA52D3
:103EE00091420ADD244931F8101040F62E629142C9
:103EF00003DA1C21214A115438E01F4931F810100F
:103F000040F62E6291420ADD1B4931F8101040F64E
:103F10009262914203DA1D21184A115426E0164993
:103F200031F8101040F6926291420ADB124931F8E2
:103F3000101040F6F562914203DA25210F4A115420
:103F400014E00D4931F8101040F6F66291420ADB98
:103F5000094931F8101040F65972914203DA2621CE
:103F6000064A115402E00021044A1154411CC8B20F
:103F70000828FFF679AD7047E8000020780000209F
:103F800011480078401EC000401CC1B213E00F4829
:103F9000405C1A280BD00D48405C1B2807D00B480A
:103FA000405C1C2803D00948405C1D2801D1012039
:103FB0007047481CC1B204480078C000401E8842C7
:103FC000E5DC0020F4E70000600000206806002027
:103FD00010B51348007890B14FF480711148FDF787
:103FE00079FB60B94FF480710E48FDF773FBA0B9FF
:103FF00000200B4908700C490880012010BD0848BA
:10400000007850B94FF480710648FDF763FB012832
:1040100003D1034908700220F0E70020EEE700001A
:1040200023000020000801401C00002070B5044659
:104030000D46134800880A280EDD0020104908802C
:1040400010480078401E0F49087008460078FA288A
:1040500015DD0020087012E009480088052803DA01
:104060002046FCF7E9FB0AE005480088052806DB46
:10407000034800880A2802DC2046FCF79BFB70BD41
:10408000520000200400002070B504462A48005D5C
:1040900014284FD12849601C085C1F280FD0601CD1
:1040A000085C20280BD0601C085C212807D0601C0D
:1040B000085C222803D0601C085C232837D100202C
:1040C0001E49088027E0022505E06119C8B2FCF707
:1040D000B3FB681CC5B228190828F6DB1120184963
:1040E000087002F08BFF00212046FFF79FFF154963
:1040F00004F1090031F81000B0F5006F0BDA04F19B
:10410000090031F81000B0F5006F04DA2046FCF722
:1041100051FB012070BDFFF75BFF0128D3D1204682
:10412000FCF748FB3220FDF731F90220F2E7204688
:10413000FCF740FB0020EDE7780000205200002053
:1041400026000020E800002070B5394800780028DB
:1041500066DD37480078401C3649087001242AE0A3
:1041600034480078401E33490870334830F8140052
:10417000324908803248005D324908703248005D9B
:10418000324908702F48007801280ADB002504E036
:104190002846FCF70FFB681CC5B22A480078854208
:1041A000F6DB2A480278274801782448008800F086
:1041B00035F9601CC4B21E4800788442D0DD234823
:1041C0000078801CC4B21FE0204602F09FF9204610
:1041D00001F05EFA204601F0CFFB204601F098FE88
:1041E000204602F0BFFF204603F00CF9204602F003
:1041F00053FB204602F010FF204601F091F92046C3
:10420000FFF742FF601CC4B2082CDDDB0020084928
:1042100008700A4908800B4908700C49087001E0D1
:1042200001F0EEF900200A4908700A49087070BDD3
:104230001600002017000020DC00002012000020E3
:1042400008000020140000200D00002015000020B0
:1042500020000020210000200020C4E06949095C02
:104260001A292BD168490978491C674A1170012124
:10427000664A654B1B7822F81310634909780129B7
:104280000ADD61490978491E614A515C891C614A0D
:104290005D4B1B78D15404E000215E4A5A4B1B78D9
:1042A000D154002805DD411E594A574B1B78D15483
:1042B00097E05749544A1278885492E05149095C72
:1042C0001B292CD150490978491C4F4A11700222F0
:1042D0004E494D4B1B7821F813204B490978012991
:1042E0000BDD49490978491E494A515C891CCAB20B
:1042F0004849454B1B78CA5404E00021454A424BCB
:104300001B78D154002805DD411E414A3E4B1B78E5
:10431000D15466E03E493C4A1278885461E03949FC
:10432000095C1C292DD138490978491C364A11707D
:104330000321364A344B1B7822F81310324909788E
:1043400001290BDD30490978491E314A515C891C2D
:10435000CAB230492C4B1B78CA5404E000212D4AC4
:10436000294B1B78D154002806DD411ECAB22849CA
:10437000254B1B78CA5434E02549234A12788854C7
:104380002FE02049095C1D292BD11F490978491CC0
:104390001D4A11704FF6FA711C4A1B4B1B7822F80C
:1043A00013101949097801290ADD17490978491EAE
:1043B000174A515C891C174A134B1B78D15404E0EF
:1043C0000021144A104B1B78D154002805DD411EF2
:1043D0000F4A0D4B1B78D15403E00D490A4A12785D
:1043E0008854411CC8B20C490978B0EBC10FFFF6E4
:1043F00035AF05480078002801DD01207047002016
:10440000FCE7000068060020570000205808002044
:10441000EB080020BA080020610000202DE9FF5FB2
:1044200007460E4615464FF00009CB460020039084
:1044300002900190009082468046E2E041F2D47002
:10444000874201DD4FF000083446D3E0B84570DA0A
:104450002046FFF7D9F9204602F058F801280DD17F
:10446000344604E02046FCF7A5F9601CC4B2681C81
:104470008442F7DD012004B0BDE8F09F6548005D8F
:10448000262802D12046FFF703F9204601F048F81C
:104490000390039802280BD1344604E02046FCF731
:1044A00089F9601CC4B2681C8442F7DD0120E2E790
:1044B0002046FFF7E9FD0290029802280BD134460E
:1044C00004E02046FCF776F9601CC4B2681C844204
:1044D000F7DD0120CFE7204602F09EFD8346BBF1C9
:1044E000020F0BD1344604E02046FCF763F9601C50
:1044F000C4B2681C8442F7DD0120BCE7204601F00D
:10450000C7F88146B9F1010F04D1611CC8B200217E
:10451000FFF78CFDB9F1020F0CD1344604E02046C0
:10452000FCF748F9601CC4B2681C8442F7DD012026
:10453000A1E75DE0204601F01FFA009000980228F4
:104540000BD1344604E02046FCF734F9601CC4B2B9
:10455000681C8442F7DD01208DE7204601F0D8FC7D
:104560008246BAF1010F0ED0BAF1020F0BD13446D8
:1045700004E02046FCF71EF9601CC4B2681C8442AB
:10458000F7DD012077E7204602F03CFF019001981B
:1045900002280BD1344604E02046FCF70BF9601CDE
:1045A000C4B2681C8442F7DD012064E7204602F0B3
:1045B000D9FD01280BD1344604E02046FCF7FAF877
:1045C000601CC4B2681C8442F7DD012053E720461A
:1045D00002F062F901280BD1344604E02046FCF7D2
:1045E000E9F8601CC4B2681C8442F7DD012042E790
:1045F000601CC4B2AC427FF729AF08F101001FFA7A
:1046000080F8B845FFF61AAF691CC8B2FCF7D2F8BB
:10461000002030E7780000200EB5002000900190C7
:1046200002906548654908608115644881600121F0
:104630000173002101754FF46021C16100205F49C1
:10464000486010215D480161FCF7DCFA08B1FCF715
:10465000AEF80420009001200190072002906946E6
:104660005648FCF78BF908B1FCF7A1F8052000903B
:104670000220019069465148FCF780F908B1FCF727
:1046800096F80A2000900320019069464B48FCF7F9
:1046900075F908B1FCF78BF80B200090042001900D
:1046A00069464648FCF76AF908B1FCF780F80C2027
:1046B00000900520019069464048FCF75FF908B179
:1046C000FCF775F80D2000900620019069463B48E4
:1046D000FCF754F908B1FCF76AF80E2000900720A7
:1046E000019069463548FCF749F908B1FCF75FF8D5
:1046F0000F2000900820019069463048FCF73EF9F1
:1047000008B1FCF754F80020009009200190694698
:104710002A48FCF733F908B1FCF749F8012000906A
:104720000A20019069462548FCF728F908B1FCF7F2
:104730003EF8022000900B20019069461F48FCF7CC
:104740001DF908B1FCF733F8032000900C2001900C
:1047500069461A48FCF712F908B1FCF728F8062058
:1047600000900D20019069461448FCF707F908B144
:10477000FCF71DF8072000900E20019069460F48B5
:10478000FCF7FCF808B1FCF712F8082000900F20A5
:10479000019069460948FCF7F1F808B1FCF707F801
:1047A000092000901020019069460448FCF7E6F8C3
:1047B00008B1FBF7FCFF0EBD002401408803002078
:1047C00008B500BF1248406940F001001049486137
:1047D0000846406900F00100009000BF00BF0022C1
:1047E00011460B20FDF70EF80B20FCF7FBFF002213
:1047F00011460E20FDF706F80E20FCF7F3FF00220D
:1048000011460F20FCF7FEFF0F20FCF7EBFF08BD61
:104810000010024000B585B0002001900290039086
:10482000049000BF3448806940F02000324988611C
:104830000846806900F02000009000BF00BF00BF64
:104840000846806940F0100088610846806900F0E1
:104850001000009000BF00BF00BF0846806940F014
:10486000040088610846806900F00400009000BFE1
:1048700000BF00BF0846806940F008008861084614
:10488000806900F00800009000BF00BF00220915F9
:104890001A48FCF727FF4FF40050019000200290C7
:1048A0000220039001A91548FCF784FD4FF48070A5
:1048B0000190002002900120039001A91048FCF70C
:1048C00079FD4FF480600190012002900020039058
:1048D0000220049001A90948FCF76CFD4FF4006028
:1048E0000190002002900120039001A90348FCF7E9
:1048F00061FD05B000BD0000001002400010014045
:104900000008014000B587B0002003900490059096
:1049100006900190029016481649086041F61F4023
:10492000486000211348816040F2E731C1600021F6
:104930000161416180218161FDF714FC08B1FBF741
:1049400036FF4FF48050039003A90A48FDF7B8FCE6
:1049500008B1FBF72CFF00200190029001A9054847
:10496000FDF7BEFB08B1FBF722FF07B000BD00005A
:10497000002C01400C05002000B587B000200590F8
:10498000069001900290039004904FF080402249DD
:1049900008604720486000211F4881604FF6FF7182
:1049A000C160002101618161FDF772FF08B1FBF771
:1049B000FEFE00200590069005A91748FDF790FB24
:1049C00008B1FBF7F4FE00200190012002900020C6
:1049D00003900490002201A90F48FDF7EFFE08B1F3
:1049E000FBF7E5FE042201A90B48FDF7E7FE08B13D
:1049F000FBF7DDFE082201A90748FDF7DFFE08B13D
:104A0000FBF7D5FE0C2201A90348FDF7D7FE08B13C
:104A1000FBF7CDFE07B000BD7C04002000B587B0D9
:104A20000020059006900190029003900490234886
:104A300023490860472048600021214881604FF6E3
:104A4000FF71C160002101618161FDF721FF08B1A3
:104A5000FBF7ADFE00200590069005A91848FDF76C
:104A60003FFB08B1FBF7A3FE00200190012002905C
:104A7000002003900490002201A91148FDF79EFE3A
:104A800008B1FBF794FE042201A90D48FDF796FE3C
:104A900008B1FBF78CFE082201A90948FDF78EFE3C
:104AA00008B1FBF784FE0C2201A90548FDF786FE3C
:104AB00008B1FBF77CFE07B000BD00000004004019
:104AC000C404002000B587B0002003900490059036
:104AD00006900190029015481549086041F61F4064
:104AE000486000211248816040F2F311C16000214A
:104AF000016180218161FDF735FB08B1FBF757FEAD
:104B00004FF48050039003A90948FDF7D9FB08B181
:104B1000FBF74DFE00200190029001A90448FDF72B
:104B2000DFFA08B1FBF743FE07B000BD0008004004
:104B30005405002010B50B480B4908604FF416507F
:104B40004860002108488160C16001610C21416119
:104B500000218161C161FEF7ABFA08B1FBF727FEC6
:104B600010BD0000003801409C05002000BFFEE79A
:104B700010B5002424E01448005D1E2803DD12480F
:104B8000005D632803D12046FEF730FC16E00E4896
:104B9000005D1F2807DB0C48005D232803DC20464E
:104BA000FEF7A6FB0AE00848005D242803D1204652
:104BB000FEF7E0FC02E02046FEF718FC601CC4B2E1
:104BC000082CD8DB10BD00007800002000B5FEF7EF
:104BD000DBFE1349087000211EE0124800782528EA
:104BE00003D01048C079252805D10F480078012846
:104BF00001D1022000BD0B48C079252804D1084806
:104C00000078012800D1F5E70648C079252801D1B0
:104C10000320EFE7481CC1B20829DEDB0020E9E7EA
:104C200056000020780000206200002070B5044685
:104C30000D46F748005D012821D10020F549088084
:104C40001820F549087002F0D9F90720F3490870D7
:104C50000DE0F24801782846FFF7E8F9FFF7B8F9C8
:104C6000012804D10320ED490870012070BDEB48F4
:104C700000780028EDD10320E849087009E2E448F3
:104C8000005D02282AD10020E24908801920E2496B
:104C9000087002F0B3F90720E0490870284601F0D7
:104CA00049FA10E0DD4801782846FFF7BFF9FFF721
:104CB0008FF9012807D10320D84908702846FBF74F
:104CC00079FD0120D2E7D54800780028EAD10320F9
:104CD000D24908702846FBF76DFDFFE3CC48005D24
:104CE000032821D10020CB4908801520CA4908702B
:104CF00002F084F90720C94908700DE0C74801781F
:104D00002846FFF793F9FFF763F9012804D1032040
:104D1000C24908700120A9E7C04800780028EDD1F9
:104D20000320BE490870D9E3B948005D04282AD1A0
:104D30000020B84908801620B749087002F05EF9D3
:104D40000720B6490870284601F0F4F910E0B3488E
:104D500001782846FFF76AF9FFF73AF9012807D1E9
:104D60000320AE4908702846FBF724FD01207DE7AB
:104D7000AA4800780028EAD10320A84908702846EC
:104D8000FBF718FDAAE3A248005D05282AD1002000
:104D9000A04908801720A049087002F02FF90720C9
:104DA0009E490870284601F0C5F910E09B4801783B
:104DB0002846FFF73BF9FFF70BF9012807D103203D
:104DC000964908702846FBF7F5FC01204EE793480A
:104DD00000780028EAD10320904908702846FBF7A4
:104DE000E9FC7BE38A48005D0B282BD10020894930
:104DF00008801E2088490870084600F0F7FB08204C
:104E000086490870284601F095F910E0834801783A
:104E10002846FFF70BF9FFF7DBF8012807D103203D
:104E20007E4908702846FBF7C5FC01201EE77B4839
:104E300000780028EAD10320784908702846FBF75B
:104E4000B9FC4BE37248005D0C282BD1002071495E
:104E500008801A2070490870084600F0C7FB082037
:104E60006E490870284601F065F910E06B4801783A
:104E70002846FFF7DBF8FFF7ABF8012807D103203E
:104E8000664908702846FBF795FC0120EEE663486A
:104E900000780028EAD10320604908702846FBF713
:104EA00089FC1BE35A48005D0D282BD1002059498D
:104EB00008801B2058490870084600F097FB08201E
:104EC00056490870284601F035F910E0534801783A
:104ED0002846FFF7ABF8FFF77BF8012807D103203E
:104EE0004E4908702846FBF765FC0120BEE64B489A
:104EF00000780028EAD10320484908702846FBF7CB
:104F000059FCEBE24248005D0E282BD100204149BC
:104F100008801D2040490870084600F067FB082003
:104F20003E490870284601F005F910E03B48017839
:104F30002846FFF77BF8FFF74BF8012807D103203D
:104F4000364908702846FBF735FC01208EE63348C9
:104F500000780028EAD10320304908702846FBF782
:104F600029FCBBE22A48005D06282BD100202949F4
:104F700008801F2028490870084600F037FB0A20E7
:104F800026490870284601F0D5F810E0234801783A
:104F90002846FFF74BF8FFF71BF8012807D103203D
:104FA0001E4908702846FBF705FC01205EE61B48F9
:104FB00000780028EAD10320184908702846FBF73A
:104FC000F9FB8BE21248005D0F2834D10020114913
:104FD00008801C2010490870084600F007FB0820D4
:104FE0000E490870284601F0A5F819E00B48017831
:104FF0002846FFF71BF8FEF7EBFF012810D103202E
:10500000064908702846FBF7D5FB01202EE6000074
:105010006806002052000020260000200400002026
:10502000FD4800780028E1D10320FB49087028469C
:10503000FBF7C0FB52E2F948005D0A282AD10020A4
:10504000F74908800320F4490870284601F072F8F7
:1050500015E02320F349087001F0D0FFEE480178F5
:105060002846FEF7E3FFFEF7B3FF012807D1032030
:10507000E94908702846FBF79DFB0120F6E5E64864
:1050800000780028E5D10320E34908702846FBF7A3
:1050900091FB23E2E148005D09282AD10020E04984
:1050A00008802220DF49087001F0A8FF0320DA49B8
:1050B0000870284601F03EF810E0D74801782846ED
:1050C000FEF7B4FFFEF784FF012807D10320D24981
:1050D00008702846FBF76EFB0120C7E5CE48007834
:1050E0000028EAD10320CC4908702846FBF762FB70
:1050F000F4E1CA48005D18282AD10020C849088078
:105100002F20C849087001F079FF0320C2490870B8
:10511000284601F00FF810E0BF4801782846FEF756
:1051200085FFFEF755FF012807D10320BA49087013
:105130002846FBF73FFB012098E5B7480078002898
:10514000EAD10320B44908702846FBF733FBC5E1D8
:10515000B248005D17282AD10020B14908801420E8
:10516000B049087001F04AFF0320AB490870284697
:1051700000F0E0FF10E0A84801782846FEF756FF4F
:10518000FEF726FF012807D10320A349087028460F
:10519000FBF710FB012069E59F4800780028EAD161
:1051A00003209D4908702846FBF704FB96E19B48C5
:1051B000005D072831D100209949088020209949B5
:1051C0000870084600F012FA1420FCF7DFF8954842
:1051D00000F00CFA072090490870284600F0AAFF5A
:1051E00010E08D4801782846FEF720FFFEF7F0FE1C
:1051F000012807D10320884908702846FBF7DAFA0E
:10520000012033E5844800780028EAD10320824950
:1052100008702846FBF7CEFA60E18048005D082858
:1052200031D100207E49088021207E49087008463F
:1052300000F0DCF91420FCF7A9F87A4800F0D6F960
:10524000284600F077FF03207349087010E0724889
:1052500001782846FEF7EAFEFEF7BAFE012807D1DC
:1052600003206D4908702846FBF7A4FA0120FDE4ED
:10527000694800780028EAD1032067490870284669
:10528000FBF798FA2AE16548005D102837D1002025
:1052900063490880C820FCF779F80F20614908703D
:1052A000084600F0A3F95F4800F0A0F96420FCF77D
:1052B0006DF8052058490870284600F03BFF13E0C0
:1052C000002058490870544801782846FEF7AEFE81
:1052D000FEF77EFE012807D103204F4908702846BB
:1052E000FBF768FA0120C1E44B4800780028E7D1B9
:1052F0000320494908702846FBF75CFAEEE047486E
:10530000005D112837D1002045490880C820FCF7EE
:105310003DF80E2043490870084600F067F94148FF
:1053200000F064F96420FCF731F8284600F002FF31
:1053300003203949087013E000203A4908703648C4
:1053400001782846FEF772FEFEF742FE012807D1DB
:105350000320314908702846FBF72CFA012085E428
:105360002D4800780028E7D103202B4908702846F3
:10537000FBF720FAB2E02948005D13282ED1002067
:1053800027490880C820FCF701F80D20254908703E
:10539000084600F02BF9234800F028F96420FBF7B9
:1053A000F5FF03201C49087010E000201D4908701B
:1053B000194801782846FEF739FEFEF709FE012854
:1053C00004D103201449087001204FE412480078EA
:1053D0000028EAD10320104908707FE00F48005DE3
:1053E000152840D100200E490880C820FBF7CEFFC9
:1053F00010200C490870084600F0F8F8094800F041
:10540000F5F86420FBF7C2FF052003490870284621
:1054100000F090FE19E00000040000206806002063
:1054200052000020260000202D4801782846FEF773
:10543000FDFDFEF7CDFD012807D1032028490870A6
:105440002846FBF7B7F9012010E42548007800282A
:10545000EAD103202249087000202249087028461A
:10546000FBF7A8F93AE02048005D192836D1002062
:105470001E490880C820FBF789FF242019490870BD
:10548000084600F0B3F8174800F0B0F86420FBF7C6
:105490007DFF092012490870284600F04BFE10E0FD
:1054A0000F4801782846FEF7C1FDFEF791FD01285F
:1054B00007D103200A4908702846FBF77BF9012031
:1054C00029E4074800780028EAD10320044908703D
:1054D0000020044908702846FBF76CF900201AE404
:1054E0000400002026000020680600205200002052
:1054F00000BFFEE77047000008B508490968C90801
:105500004FF47A72B1FBF2F14143009100BF00BF4A
:1055100000994A1E00920029F9D108BD74000020AC
:1055200070B504462C48005D122853D12A49601CEE
:10553000085C1F280FD0601C085C20280BD0601C62
:10554000085C212807D0601C085C222803D0601C5E
:10555000085C23283BD10020204908802BE002254D
:1055600005E06119C8B2FBF767F9681CC5B22819D4
:105570000828F6DB12201A49087001F03FFD0021CF
:105580002046FEF753FD174904F1090031F81000D9
:10559000B0F5006F0FDA0A20FBF7F8FE114904F1AD
:1055A000090031F81000B0F5006F04DA2046FBF76F
:1055B00001F9012070BDFEF70BFD0128CFD1204677
:1055C000FBF7F8F83220FBF7E1FE0220F2E7204675
:1055D000FBF7F0F80020EDE77800002052000020F3
:1055E00026000020E80000207047000010B50446A7
:1055F000012221460148FDF729FE10BD9C0500202F
:1056000070B500242CE0012C07DB04E02846FBF7F2
:10561000D1F8681CC5B2A542F8DB2046FEF7F4F8C5
:10562000204600F073FF204600F032F8204600F0DC
:10563000A3F9204600F06CFC204601F093FD2046C3
:1056400001F0E0FE204601F027F9204601F0E4FCDD
:105650002046FFF765FF2046FEF716FD601CC4B22A
:10566000082CD0DB00200849087008490870002485
:1056700007E02046FDF7BAFE2046FBF79BF8601CCA
:10568000C4B2082CF5DB70BD2600002027000020E6
:1056900070B50446B248005D202875D1611CC8B2BF
:1056A0000021FEF7C3FC002504E02846FBF782F842
:1056B000681CC5B2A542F8DBA949601C085C092832
:1056C0007ED1A01C085C1D28FAD10120A5490870D4
:1056D0000020A5490880D6E0611CC8B20021FEF771
:1056E000A5FCA24904F1080031F81000B0F5167FBE
:1056F0000EDA01209B4908702A209D49087001F0AC
:105700007DFC611CC8B20021FEF790FC012070BD39
:10571000964904F1080031F81000B0F5167F15DB4A
:1057200004F1080031F81000B0F5966F0EDA012090
:105730008C49087029208E49087001F05FFC611CBB
:10574000C8B20021FEF772FC0120E0E7874904F1AE
:10575000080031F81000B0F5966F16DB04F1080070
:1057600031F81000B0F5E16F0FDA01207D490870C3
:1057700028207F49087001F041FC611CC8B200215B
:10578000FEF754FC0120C2E7B7E0784904F10800B5
:1057900031F81000B0F5E16F18DB04F1080031F8C2
:1057A000100040F6FC01884210DA01206D490870B3
:1057B00023206F49087001F021FC611CC8B200E091
:1057C00077E00021FEF732FC0120A0E7674904F1F1
:1057D000080031F8100040F6FC01884217DB6349ED
:1057E00004F1080031F8100040F6543188420EDA16
:1057F00001205C4908702B205D49087001F0FEFB18
:10580000611CC8B20021FEF711FC01207FE7574957
:1058100004F1080031F8100040F65431884217DBDB
:10582000524904F1080031F8100040F6AC518842AA
:105830000EDA01204B4908702C204D49087001F008
:10584000DDFB611CC8B20021FEF7F0FB01205EE722
:10585000464904F1080031F8100040F6AC51884286
:1058600011DB01203F4908702D204149087001F0EB
:10587000C5FB611CC8B2FAF79DFF611CC8B2FAF7FC
:1058800099FF012043E7FEF7A3FB01287FF424AF33
:10589000032038490870611CC8B2FAF78BFF611CFD
:1058A000C8B2FAF787FF611CC8B2FAF783FF02207B
:1058B0002DE72B49601C085C182803D1A01C085C4C
:1058C0001D281AD0254604E02846FAF7B5FF681CC3
:1058D000C5B2082DF8DB0BE0244904F1080031F8CB
:1058E0001000B0F5006F03DA2046FAF763FF03E01B
:1058F000FEF76EFB0128EFD100BF1A48007868BBA5
:105900001748005D092829D1002017490880222066
:105910001749087001F072FB0320164908702046F1
:1059200000F008FC10E0134801782046FEF77EFBEB
:10593000FEF74EFB012807D103200E4908702046D0
:10594000FAF738FF0120E2E60A4800780028EAD199
:105950000320084908702046FAF72CFF0020D6E6FD
:10596000780000202100002052000020E8000020E4
:10597000260000200400002070B50446A148005D08
:10598000202879D1002504E02846FAF713FF681C87
:10599000C5B2A542F8DB9B49601C085C1828F0D111
:1059A000A01C085C1D28ECD101209749087000203C
:1059B00096490880DDE0611CC8B20021FEF736FB85
:1059C000934904F1080031F81000B0F5167F11DAA0
:1059D00001208D49087030208E49087001F00EFBBF
:1059E000611CC8B2FAF7E6FE611CC8B2FAF7E2FE23
:1059F000012070BD864904F1080031F81000B0F5AF
:105A0000167F18DB04F1080031F81000B0F5966F2E
:105A100011DA01207C4908702F207E49087001F0BE
:105A2000EDFA611CC8B2FAF7C5FE611CC8B2FAF7FC
:105A3000C1FE0120DDE7764904F1080031F81000CD
:105A4000B0F5966F19DB04F1080031F81000B0F5DD
:105A5000E16F12DA01206C4908702E206D49087040
:105A600001F0CCFA611CC8B2FAF7A4FE611CC8B2FE
:105A7000FAF7A0FE0120BCE791E0654904F10800B7
:105A800031F81000B0F5E16F10DB04F1080031F8D7
:105A9000100040F6FC01884208DA01205A490870DB
:105AA00014205C49087001F0A9FA62E0584904F139
:105AB000080031F8100040F6FC0188421ADB544916
:105AC00004F1080031F8100040F65431884211DA30
:105AD00001204D49087031204E49087001F08EFABE
